{
  "_format": "hh-sol-artifact-1",
  "contractName": "AkasifyCoreContract",
  "sourceName": "contracts/AkasifyCoreContract.sol",
  "abi": [
    {
      "inputs": [
        {
          "internalType": "address",
          "name": "_admin",
          "type": "address"
        }
      ],
      "stateMutability": "nonpayable",
      "type": "constructor"
    },
    {
      "anonymous": false,
      "inputs": [
        {
          "indexed": false,
          "internalType": "uint256",
          "name": "id",
          "type": "uint256"
        },
        {
          "indexed": false,
          "internalType": "uint256",
          "name": "opportunityId",
          "type": "uint256"
        }
      ],
      "name": "RegisterApplication",
      "type": "event"
    },
    {
      "anonymous": false,
      "inputs": [
        {
          "indexed": false,
          "internalType": "uint256",
          "name": "id",
          "type": "uint256"
        },
        {
          "indexed": false,
          "internalType": "uint256",
          "name": "requirementId",
          "type": "uint256"
        },
        {
          "indexed": false,
          "internalType": "uint256",
          "name": "applicationId",
          "type": "uint256"
        },
        {
          "indexed": false,
          "internalType": "uint256",
          "name": "opportunityId",
          "type": "uint256"
        }
      ],
      "name": "RegisterApplicationPostAccomplishment",
      "type": "event"
    },
    {
      "anonymous": false,
      "inputs": [
        {
          "indexed": false,
          "internalType": "uint256",
          "name": "id",
          "type": "uint256"
        },
        {
          "indexed": false,
          "internalType": "uint256",
          "name": "requirementId",
          "type": "uint256"
        },
        {
          "indexed": false,
          "internalType": "uint256",
          "name": "applicationId",
          "type": "uint256"
        },
        {
          "indexed": false,
          "internalType": "uint256",
          "name": "opportunityId",
          "type": "uint256"
        }
      ],
      "name": "RegisterApplicationPreAccomplishment",
      "type": "event"
    },
    {
      "anonymous": false,
      "inputs": [
        {
          "indexed": false,
          "internalType": "address",
          "name": "account",
          "type": "address"
        }
      ],
      "name": "RegisterBeneficiary",
      "type": "event"
    },
    {
      "anonymous": false,
      "inputs": [
        {
          "indexed": false,
          "internalType": "uint256",
          "name": "id",
          "type": "uint256"
        },
        {
          "indexed": false,
          "internalType": "string",
          "name": "name",
          "type": "string"
        },
        {
          "indexed": false,
          "internalType": "string",
          "name": "description",
          "type": "string"
        }
      ],
      "name": "RegisterOpportunity",
      "type": "event"
    },
    {
      "anonymous": false,
      "inputs": [
        {
          "indexed": false,
          "internalType": "uint256",
          "name": "id",
          "type": "uint256"
        },
        {
          "indexed": false,
          "internalType": "uint256",
          "name": "status",
          "type": "uint256"
        }
      ],
      "name": "UpdateApplicationStatus",
      "type": "event"
    },
    {
      "anonymous": false,
      "inputs": [
        {
          "indexed": false,
          "internalType": "uint256",
          "name": "id",
          "type": "uint256"
        },
        {
          "indexed": false,
          "internalType": "uint256",
          "name": "status",
          "type": "uint256"
        }
      ],
      "name": "UpdateOpportunityStatus",
      "type": "event"
    },
    {
      "inputs": [],
      "name": "admin",
      "outputs": [
        {
          "internalType": "address",
          "name": "",
          "type": "address"
        }
      ],
      "stateMutability": "view",
      "type": "function"
    },
    {
      "inputs": [
        {
          "internalType": "uint256",
          "name": "",
          "type": "uint256"
        }
      ],
      "name": "applications",
      "outputs": [
        {
          "internalType": "uint256",
          "name": "id",
          "type": "uint256"
        },
        {
          "internalType": "uint256",
          "name": "opportunityId",
          "type": "uint256"
        },
        {
          "internalType": "uint256",
          "name": "beneficiaryId",
          "type": "uint256"
        },
        {
          "internalType": "uint256",
          "name": "nextPreRequirementId",
          "type": "uint256"
        },
        {
          "internalType": "uint256",
          "name": "nextPostRequirementId",
          "type": "uint256"
        },
        {
          "internalType": "uint256",
          "name": "nextPreAccomplishmentId",
          "type": "uint256"
        },
        {
          "internalType": "uint256",
          "name": "nextPostAccomplishmentId",
          "type": "uint256"
        },
        {
          "internalType": "uint256",
          "name": "creationDate",
          "type": "uint256"
        },
        {
          "internalType": "uint256",
          "name": "lastUpdate",
          "type": "uint256"
        },
        {
          "internalType": "uint256",
          "name": "status",
          "type": "uint256"
        }
      ],
      "stateMutability": "view",
      "type": "function"
    },
    {
      "inputs": [
        {
          "internalType": "uint256",
          "name": "opportunityId",
          "type": "uint256"
        }
      ],
      "name": "createApplication",
      "outputs": [],
      "stateMutability": "nonpayable",
      "type": "function"
    },
    {
      "inputs": [
        {
          "internalType": "string",
          "name": "name",
          "type": "string"
        },
        {
          "internalType": "string",
          "name": "description",
          "type": "string"
        },
        {
          "internalType": "uint256",
          "name": "preRequirementsDeadline",
          "type": "uint256"
        },
        {
          "internalType": "uint256",
          "name": "postRequirementsDeadline",
          "type": "uint256"
        },
        {
          "internalType": "uint256[]",
          "name": "preRequirementTypes",
          "type": "uint256[]"
        },
        {
          "internalType": "uint256[]",
          "name": "preRequirementValues",
          "type": "uint256[]"
        },
        {
          "internalType": "string[]",
          "name": "preRequirementNames",
          "type": "string[]"
        },
        {
          "internalType": "uint256[]",
          "name": "postRequirementTypes",
          "type": "uint256[]"
        },
        {
          "internalType": "uint256[]",
          "name": "postRequirementValues",
          "type": "uint256[]"
        },
        {
          "internalType": "string[]",
          "name": "postRequirementNames",
          "type": "string[]"
        }
      ],
      "name": "createOpportunity",
      "outputs": [],
      "stateMutability": "nonpayable",
      "type": "function"
    },
    {
      "inputs": [
        {
          "internalType": "uint256",
          "name": "applicationId",
          "type": "uint256"
        },
        {
          "internalType": "string",
          "name": "accomplishmentValue",
          "type": "string"
        }
      ],
      "name": "createPostAccomplishment",
      "outputs": [],
      "stateMutability": "nonpayable",
      "type": "function"
    },
    {
      "inputs": [
        {
          "internalType": "uint256",
          "name": "opportunityId",
          "type": "uint256"
        },
        {
          "internalType": "uint256",
          "name": "requirementType",
          "type": "uint256"
        },
        {
          "internalType": "uint256",
          "name": "transferValue",
          "type": "uint256"
        },
        {
          "internalType": "string",
          "name": "name",
          "type": "string"
        }
      ],
      "name": "createPostRequirement",
      "outputs": [],
      "stateMutability": "nonpayable",
      "type": "function"
    },
    {
      "inputs": [
        {
          "internalType": "uint256",
          "name": "applicationId",
          "type": "uint256"
        },
        {
          "internalType": "string",
          "name": "accomplishmentValue",
          "type": "string"
        }
      ],
      "name": "createPreAccomplishment",
      "outputs": [],
      "stateMutability": "nonpayable",
      "type": "function"
    },
    {
      "inputs": [
        {
          "internalType": "uint256",
          "name": "opportunityId",
          "type": "uint256"
        },
        {
          "internalType": "uint256",
          "name": "requirementType",
          "type": "uint256"
        },
        {
          "internalType": "uint256",
          "name": "transferValue",
          "type": "uint256"
        },
        {
          "internalType": "string",
          "name": "name",
          "type": "string"
        }
      ],
      "name": "createPreRequirement",
      "outputs": [],
      "stateMutability": "nonpayable",
      "type": "function"
    },
    {
      "inputs": [
        {
          "internalType": "uint256",
          "name": "opportunityId",
          "type": "uint256"
        },
        {
          "internalType": "address",
          "name": "beneficiaryAddress",
          "type": "address"
        }
      ],
      "name": "getApplication",
      "outputs": [
        {
          "internalType": "uint256",
          "name": "",
          "type": "uint256"
        },
        {
          "internalType": "uint256",
          "name": "",
          "type": "uint256"
        },
        {
          "internalType": "uint256",
          "name": "",
          "type": "uint256"
        },
        {
          "internalType": "uint256",
          "name": "",
          "type": "uint256"
        },
        {
          "internalType": "uint256",
          "name": "",
          "type": "uint256"
        },
        {
          "internalType": "uint256",
          "name": "",
          "type": "uint256"
        }
      ],
      "stateMutability": "view",
      "type": "function"
    },
    {
      "inputs": [
        {
          "internalType": "uint256",
          "name": "opportunityId",
          "type": "uint256"
        }
      ],
      "name": "getApplicationsByOpportunityId",
      "outputs": [
        {
          "internalType": "uint256[]",
          "name": "",
          "type": "uint256[]"
        },
        {
          "internalType": "address[]",
          "name": "",
          "type": "address[]"
        },
        {
          "internalType": "string[]",
          "name": "",
          "type": "string[]"
        },
        {
          "internalType": "uint256[]",
          "name": "",
          "type": "uint256[]"
        }
      ],
      "stateMutability": "view",
      "type": "function"
    },
    {
      "inputs": [],
      "name": "getBeneficiaries",
      "outputs": [
        {
          "internalType": "uint256[]",
          "name": "",
          "type": "uint256[]"
        },
        {
          "internalType": "address[]",
          "name": "",
          "type": "address[]"
        },
        {
          "internalType": "uint256[]",
          "name": "",
          "type": "uint256[]"
        },
        {
          "internalType": "uint256[]",
          "name": "",
          "type": "uint256[]"
        }
      ],
      "stateMutability": "view",
      "type": "function"
    },
    {
      "inputs": [
        {
          "internalType": "address",
          "name": "_account",
          "type": "address"
        }
      ],
      "name": "getBeneficiaryByAddress",
      "outputs": [
        {
          "internalType": "uint256",
          "name": "",
          "type": "uint256"
        },
        {
          "internalType": "address",
          "name": "",
          "type": "address"
        },
        {
          "internalType": "uint256",
          "name": "",
          "type": "uint256"
        },
        {
          "internalType": "uint256",
          "name": "",
          "type": "uint256"
        }
      ],
      "stateMutability": "view",
      "type": "function"
    },
    {
      "inputs": [
        {
          "internalType": "uint256",
          "name": "_id",
          "type": "uint256"
        }
      ],
      "name": "getBeneficiaryById",
      "outputs": [
        {
          "internalType": "uint256",
          "name": "",
          "type": "uint256"
        },
        {
          "internalType": "address",
          "name": "",
          "type": "address"
        },
        {
          "internalType": "uint256",
          "name": "",
          "type": "uint256"
        },
        {
          "internalType": "uint256",
          "name": "",
          "type": "uint256"
        }
      ],
      "stateMutability": "view",
      "type": "function"
    },
    {
      "inputs": [
        {
          "internalType": "address",
          "name": "account",
          "type": "address"
        }
      ],
      "name": "getBeneficiaryIdByAddress",
      "outputs": [
        {
          "internalType": "uint256",
          "name": "",
          "type": "uint256"
        }
      ],
      "stateMutability": "view",
      "type": "function"
    },
    {
      "inputs": [
        {
          "internalType": "address",
          "name": "account",
          "type": "address"
        }
      ],
      "name": "getBeneficiaryStatusByAddress",
      "outputs": [
        {
          "internalType": "uint256",
          "name": "",
          "type": "uint256"
        }
      ],
      "stateMutability": "view",
      "type": "function"
    },
    {
      "inputs": [],
      "name": "getOpportunities",
      "outputs": [
        {
          "internalType": "uint256[]",
          "name": "",
          "type": "uint256[]"
        },
        {
          "internalType": "string[]",
          "name": "",
          "type": "string[]"
        },
        {
          "internalType": "string[]",
          "name": "",
          "type": "string[]"
        },
        {
          "internalType": "string[]",
          "name": "",
          "type": "string[]"
        },
        {
          "internalType": "uint256[]",
          "name": "",
          "type": "uint256[]"
        },
        {
          "internalType": "uint256[]",
          "name": "",
          "type": "uint256[]"
        },
        {
          "internalType": "uint256[]",
          "name": "",
          "type": "uint256[]"
        }
      ],
      "stateMutability": "view",
      "type": "function"
    },
    {
      "inputs": [
        {
          "internalType": "uint256",
          "name": "opportunityId",
          "type": "uint256"
        }
      ],
      "name": "getOpportunityById",
      "outputs": [
        {
          "internalType": "uint256",
          "name": "",
          "type": "uint256"
        },
        {
          "internalType": "string",
          "name": "",
          "type": "string"
        },
        {
          "internalType": "string",
          "name": "",
          "type": "string"
        },
        {
          "internalType": "uint256",
          "name": "",
          "type": "uint256"
        },
        {
          "internalType": "uint256",
          "name": "",
          "type": "uint256"
        },
        {
          "internalType": "uint256",
          "name": "",
          "type": "uint256"
        },
        {
          "internalType": "uint256",
          "name": "",
          "type": "uint256"
        },
        {
          "internalType": "uint256",
          "name": "",
          "type": "uint256"
        }
      ],
      "stateMutability": "view",
      "type": "function"
    },
    {
      "inputs": [
        {
          "internalType": "address",
          "name": "_account",
          "type": "address"
        }
      ],
      "name": "getOrganizationByAddress",
      "outputs": [
        {
          "internalType": "uint256",
          "name": "",
          "type": "uint256"
        },
        {
          "internalType": "string",
          "name": "",
          "type": "string"
        },
        {
          "internalType": "address",
          "name": "",
          "type": "address"
        },
        {
          "internalType": "uint256",
          "name": "",
          "type": "uint256"
        },
        {
          "internalType": "uint256",
          "name": "",
          "type": "uint256"
        }
      ],
      "stateMutability": "view",
      "type": "function"
    },
    {
      "inputs": [
        {
          "internalType": "uint256",
          "name": "_id",
          "type": "uint256"
        }
      ],
      "name": "getOrganizationById",
      "outputs": [
        {
          "internalType": "uint256",
          "name": "",
          "type": "uint256"
        },
        {
          "internalType": "string",
          "name": "",
          "type": "string"
        },
        {
          "internalType": "address",
          "name": "",
          "type": "address"
        },
        {
          "internalType": "uint256",
          "name": "",
          "type": "uint256"
        },
        {
          "internalType": "uint256",
          "name": "",
          "type": "uint256"
        }
      ],
      "stateMutability": "view",
      "type": "function"
    },
    {
      "inputs": [
        {
          "internalType": "address",
          "name": "account",
          "type": "address"
        }
      ],
      "name": "getOrganizationIdByAddress",
      "outputs": [
        {
          "internalType": "uint256",
          "name": "",
          "type": "uint256"
        }
      ],
      "stateMutability": "view",
      "type": "function"
    },
    {
      "inputs": [],
      "name": "getOrganizations",
      "outputs": [
        {
          "internalType": "uint256[]",
          "name": "",
          "type": "uint256[]"
        },
        {
          "internalType": "string[]",
          "name": "",
          "type": "string[]"
        },
        {
          "internalType": "address[]",
          "name": "",
          "type": "address[]"
        },
        {
          "internalType": "uint256[]",
          "name": "",
          "type": "uint256[]"
        },
        {
          "internalType": "uint256[]",
          "name": "",
          "type": "uint256[]"
        }
      ],
      "stateMutability": "view",
      "type": "function"
    },
    {
      "inputs": [
        {
          "internalType": "uint256",
          "name": "applicationId",
          "type": "uint256"
        },
        {
          "internalType": "uint256",
          "name": "postAccomplishmentId",
          "type": "uint256"
        }
      ],
      "name": "getPostAccomplishment",
      "outputs": [
        {
          "components": [
            {
              "internalType": "uint256",
              "name": "id",
              "type": "uint256"
            },
            {
              "internalType": "uint256",
              "name": "requirementId",
              "type": "uint256"
            },
            {
              "internalType": "uint256",
              "name": "accomplishDate",
              "type": "uint256"
            },
            {
              "internalType": "uint256",
              "name": "accomplishCategory",
              "type": "uint256"
            },
            {
              "internalType": "string",
              "name": "accomplishValue",
              "type": "string"
            }
          ],
          "internalType": "struct AkasifyCoreContract.Accomplishment",
          "name": "_accomplishment",
          "type": "tuple"
        }
      ],
      "stateMutability": "view",
      "type": "function"
    },
    {
      "inputs": [
        {
          "internalType": "uint256",
          "name": "applicationId",
          "type": "uint256"
        }
      ],
      "name": "getPostAccomplishments",
      "outputs": [
        {
          "internalType": "uint256[]",
          "name": "",
          "type": "uint256[]"
        },
        {
          "internalType": "uint256[]",
          "name": "",
          "type": "uint256[]"
        },
        {
          "internalType": "uint256[]",
          "name": "",
          "type": "uint256[]"
        },
        {
          "internalType": "uint256[]",
          "name": "",
          "type": "uint256[]"
        },
        {
          "internalType": "string[]",
          "name": "",
          "type": "string[]"
        }
      ],
      "stateMutability": "view",
      "type": "function"
    },
    {
      "inputs": [
        {
          "internalType": "uint256",
          "name": "opportunityId",
          "type": "uint256"
        }
      ],
      "name": "getPostRequirementsByOpportunityId",
      "outputs": [
        {
          "internalType": "uint256[]",
          "name": "",
          "type": "uint256[]"
        },
        {
          "internalType": "uint256[]",
          "name": "",
          "type": "uint256[]"
        },
        {
          "internalType": "uint256[]",
          "name": "",
          "type": "uint256[]"
        },
        {
          "internalType": "string[]",
          "name": "",
          "type": "string[]"
        }
      ],
      "stateMutability": "view",
      "type": "function"
    },
    {
      "inputs": [
        {
          "internalType": "uint256",
          "name": "applicationId",
          "type": "uint256"
        },
        {
          "internalType": "uint256",
          "name": "preAccomplishmentId",
          "type": "uint256"
        }
      ],
      "name": "getPreAccomplishment",
      "outputs": [
        {
          "components": [
            {
              "internalType": "uint256",
              "name": "id",
              "type": "uint256"
            },
            {
              "internalType": "uint256",
              "name": "requirementId",
              "type": "uint256"
            },
            {
              "internalType": "uint256",
              "name": "accomplishDate",
              "type": "uint256"
            },
            {
              "internalType": "uint256",
              "name": "accomplishCategory",
              "type": "uint256"
            },
            {
              "internalType": "string",
              "name": "accomplishValue",
              "type": "string"
            }
          ],
          "internalType": "struct AkasifyCoreContract.Accomplishment",
          "name": "_accomplishment",
          "type": "tuple"
        }
      ],
      "stateMutability": "view",
      "type": "function"
    },
    {
      "inputs": [
        {
          "internalType": "uint256",
          "name": "applicationId",
          "type": "uint256"
        }
      ],
      "name": "getPreAccomplishmentsByApplicationId",
      "outputs": [
        {
          "internalType": "uint256[]",
          "name": "",
          "type": "uint256[]"
        },
        {
          "internalType": "uint256[]",
          "name": "",
          "type": "uint256[]"
        },
        {
          "internalType": "uint256[]",
          "name": "",
          "type": "uint256[]"
        },
        {
          "internalType": "uint256[]",
          "name": "",
          "type": "uint256[]"
        },
        {
          "internalType": "string[]",
          "name": "",
          "type": "string[]"
        }
      ],
      "stateMutability": "view",
      "type": "function"
    },
    {
      "inputs": [
        {
          "internalType": "uint256",
          "name": "opportunityId",
          "type": "uint256"
        }
      ],
      "name": "getPreRequirementsByOpportunityId",
      "outputs": [
        {
          "internalType": "uint256[]",
          "name": "",
          "type": "uint256[]"
        },
        {
          "internalType": "uint256[]",
          "name": "",
          "type": "uint256[]"
        },
        {
          "internalType": "uint256[]",
          "name": "",
          "type": "uint256[]"
        },
        {
          "internalType": "string[]",
          "name": "",
          "type": "string[]"
        }
      ],
      "stateMutability": "view",
      "type": "function"
    },
    {
      "inputs": [
        {
          "internalType": "address",
          "name": "account",
          "type": "address"
        }
      ],
      "name": "getRole",
      "outputs": [
        {
          "internalType": "string",
          "name": "",
          "type": "string"
        }
      ],
      "stateMutability": "view",
      "type": "function"
    },
    {
      "inputs": [
        {
          "internalType": "address",
          "name": "account",
          "type": "address"
        }
      ],
      "name": "isActiveBeneficiary",
      "outputs": [
        {
          "internalType": "bool",
          "name": "",
          "type": "bool"
        }
      ],
      "stateMutability": "view",
      "type": "function"
    },
    {
      "inputs": [
        {
          "internalType": "address",
          "name": "account",
          "type": "address"
        }
      ],
      "name": "isBeneficiary",
      "outputs": [
        {
          "internalType": "bool",
          "name": "",
          "type": "bool"
        }
      ],
      "stateMutability": "view",
      "type": "function"
    },
    {
      "inputs": [
        {
          "internalType": "address",
          "name": "account",
          "type": "address"
        }
      ],
      "name": "isOrganization",
      "outputs": [
        {
          "internalType": "bool",
          "name": "",
          "type": "bool"
        }
      ],
      "stateMutability": "view",
      "type": "function"
    },
    {
      "inputs": [],
      "name": "nextApplicationId",
      "outputs": [
        {
          "internalType": "uint256",
          "name": "",
          "type": "uint256"
        }
      ],
      "stateMutability": "view",
      "type": "function"
    },
    {
      "inputs": [],
      "name": "nextBeneficiaryId",
      "outputs": [
        {
          "internalType": "uint256",
          "name": "",
          "type": "uint256"
        }
      ],
      "stateMutability": "view",
      "type": "function"
    },
    {
      "inputs": [],
      "name": "nextOpportunityId",
      "outputs": [
        {
          "internalType": "uint256",
          "name": "",
          "type": "uint256"
        }
      ],
      "stateMutability": "view",
      "type": "function"
    },
    {
      "inputs": [],
      "name": "nextOrganizationId",
      "outputs": [
        {
          "internalType": "uint256",
          "name": "",
          "type": "uint256"
        }
      ],
      "stateMutability": "view",
      "type": "function"
    },
    {
      "inputs": [
        {
          "internalType": "uint256",
          "name": "",
          "type": "uint256"
        }
      ],
      "name": "opportunities",
      "outputs": [
        {
          "internalType": "uint256",
          "name": "id",
          "type": "uint256"
        },
        {
          "internalType": "uint256",
          "name": "organizationId",
          "type": "uint256"
        },
        {
          "internalType": "string",
          "name": "name",
          "type": "string"
        },
        {
          "internalType": "string",
          "name": "description",
          "type": "string"
        },
        {
          "internalType": "uint256",
          "name": "preRequirementsDeadline",
          "type": "uint256"
        },
        {
          "internalType": "uint256",
          "name": "postRequirementsDeadline",
          "type": "uint256"
        },
        {
          "internalType": "uint256",
          "name": "creationDate",
          "type": "uint256"
        },
        {
          "internalType": "uint256",
          "name": "lastUpdate",
          "type": "uint256"
        },
        {
          "internalType": "uint256",
          "name": "applicationCount",
          "type": "uint256"
        },
        {
          "internalType": "uint256",
          "name": "status",
          "type": "uint256"
        },
        {
          "internalType": "uint256",
          "name": "nextPreRequirementId",
          "type": "uint256"
        },
        {
          "internalType": "uint256",
          "name": "nextPostRequirementId",
          "type": "uint256"
        }
      ],
      "stateMutability": "view",
      "type": "function"
    },
    {
      "inputs": [
        {
          "internalType": "string",
          "name": "_oasisAddress",
          "type": "string"
        }
      ],
      "name": "registerBeneficiary",
      "outputs": [],
      "stateMutability": "nonpayable",
      "type": "function"
    },
    {
      "inputs": [
        {
          "internalType": "address payable",
          "name": "_account",
          "type": "address"
        },
        {
          "internalType": "string",
          "name": "_oasisAddress",
          "type": "string"
        },
        {
          "internalType": "uint256",
          "name": "_status",
          "type": "uint256"
        }
      ],
      "name": "registerBeneficiaryByAdmin",
      "outputs": [],
      "stateMutability": "nonpayable",
      "type": "function"
    },
    {
      "inputs": [
        {
          "internalType": "string",
          "name": "name",
          "type": "string"
        },
        {
          "internalType": "address payable",
          "name": "account",
          "type": "address"
        },
        {
          "internalType": "uint256",
          "name": "status",
          "type": "uint256"
        }
      ],
      "name": "registerOrganizationByAdmin",
      "outputs": [
        {
          "internalType": "uint256",
          "name": "",
          "type": "uint256"
        }
      ],
      "stateMutability": "nonpayable",
      "type": "function"
    },
    {
      "inputs": [
        {
          "internalType": "uint256",
          "name": "applicationId",
          "type": "uint256"
        },
        {
          "internalType": "uint256",
          "name": "status",
          "type": "uint256"
        }
      ],
      "name": "updateApplicationStatus",
      "outputs": [],
      "stateMutability": "nonpayable",
      "type": "function"
    },
    {
      "inputs": [
        {
          "internalType": "uint256",
          "name": "opportunityId",
          "type": "uint256"
        },
        {
          "internalType": "uint256",
          "name": "status",
          "type": "uint256"
        }
      ],
      "name": "updateOpportunityStatus",
      "outputs": [],
      "stateMutability": "nonpayable",
      "type": "function"
    }
  ],
  "bytecode": "0x60806040523480156200001157600080fd5b50604051620060683803806200606883398101604081905262000034916200005a565b600880546001600160a01b0319166001600160a01b03929092169190911790556200008a565b6000602082840312156200006c578081fd5b81516001600160a01b038116811462000083578182fd5b9392505050565b615fce806200009a6000396000f3fe608060405234801561001057600080fd5b50600436106102535760003560e01c8063957abe0b11610146578063b1ce8eab116100c3578063d2830de311610087578063d2830de3146105bd578063df19ce4d146105c5578063dfefadff146105d8578063eadd2f6114610601578063f851a44014610614578063fcfb8bb21461062957610253565b8063b1ce8eab1461055e578063c821b4fb14610571578063cbdbc9a614610584578063cfd664d614610597578063d11f3c47146105aa57610253565b8063aa0a57ab1161010a578063aa0a57ab146104bf578063acaf764d146104e2578063acd6c98f146104f5578063ad41ac3d14610520578063aed35ccc1461054357610253565b8063957abe0b1461043b57806396210f931461045b5780639754a3a81461046e57806398077031146104875780639d19b226146104ac57610253565b80635825271a116101d4578063706f48b111610198578063706f48b1146103c35780637a47523b146103d6578063857bbd28146103fd5780638c4be5eb14610410578063913b722c1461042357610253565b80635825271a1461036f578063625338cb14610382578063635c54551461038a5780636ddc232b1461039d5780636e46cc4e146103b057610253565b8063442767331161021b57806344276733146102e25780634854e204146103025780634bcaaa01146103265780634f4e4534146103495780635080d5fb1461035c57610253565b80631283ca701461025857806327f9e1051461026d5780632832163f14610296578063292719d3146102ba5780633859305e146102da575b600080fd5b61026b610266366004614f2f565b610631565b005b61028061027b366004614cda565b610822565b60405161028d9190615413565b60405180910390f35b6102a96102a4366004614cda565b610889565b60405161028d959493929190615d53565b6102cd6102c8366004614cda565b610a2c565b60405161028d9190615d26565b6102cd610a7a565b6102f56102f0366004614cda565b610a80565b60405161028d919061541e565b610315610310366004614f2f565b610b56565b60405161028d9594939291906153b5565b610339610334366004614f2f565b610ea4565b60405161028d9493929190615369565b61026b610357366004614f76565b611184565b6102cd61036a366004614cda565b61144d565b61026b61037d366004614de4565b6114b9565b6102cd6118df565b6102a9610398366004614f2f565b6118e5565b61026b6103ab366004614d53565b611a18565b6102cd6103be366004614cda565b611b41565b61026b6103d1366004614f76565b611baf565b6103e96103e4366004614f2f565b611db0565b60405161028d989796959493929190615d92565b61026b61040b366004614fdb565b611f3f565b61033961041e366004614f2f565b612041565b61042b61230d565b60405161028d9493929190615233565b61044e610449366004614fba565b6125bd565b60405161028d9190615ce3565b61026b610469366004614cfd565b6126d7565b6104766127d7565b60405161028d95949392919061526a565b61049a610495366004614f47565b612b13565b60405161028d96959493929190615ec2565b6102806104ba366004614cda565b612e7d565b6104d26104cd366004614f2f565b612ebe565b60405161028d9493929190615d2f565b6103156104f0366004614f2f565b612fca565b610508610503366004614f2f565b6134d1565b60405161028d9c9b9a99989796959493929190615e2e565b61053361052e366004614f2f565b61363a565b60405161028d94939291906151dc565b61054b613bfd565b60405161028d97969594939291906152d5565b61028061056c366004614cda565b6140da565b61044e61057f366004614fba565b614139565b6104d2610592366004614cda565b614166565b61026b6105a5366004614fba565b6142b5565b61026b6105b8366004614fdb565b6144f1565b6102cd6145f3565b6102cd6105d3366004614d8d565b6145f9565b6105eb6105e6366004614f2f565b6146d1565b60405161028d9a99989796959493929190615eea565b61026b61060f366004614fba565b614725565b61061c6149fc565b60405161028d91906151c8565b6102cd614a0b565b60008181526004602052604090206009015460021461066b5760405162461bcd60e51b815260040161066290615b44565b60405180910390fd5b600754600081815260066020526040902090815560010181905561068e33610a2c565b60058054600090815260066020818152604080842060020195909555600780548452858420600301849055805484528584206004908101859055815485528685209095018490558054845285842090920183905581548352848320429083018190558254845285842060089081019190915591548352848320600160099091018190558684529390529290209091018054909101905561072c614a11565b600080825260208083018281524260408086019182526001606087018181528251808701845287815260808901908152600754885260068752928720600a018054808401825590885296869020885160059098020196875593519086015590516002850155905160038401555180518493926107af926004850192910190614a40565b505060078054600090815260066020526040808220600501805460019081019091559254808352918190209092015491517ff0ecfc9d01e072b344ab803487dff20893bdb9f671d08bd9e260d0f8b5fae84d935061080d9290615e20565b60405180910390a15050600780546001019055565b600080805b600154811015610880576000818152602081905260409020600101546001600160a01b03858116911614801561086e57506000818152602081905260409020600401546003145b1561087857600191505b600101610827565b5090505b919050565b60006060818080805b600354811015610a05576108a4614abe565b600260008381526020019081526020016000206040518060a001604052908160008201548152602001600182018054600181600116156101000203166002900480601f0160208091040260200160405190810160405280929190818152602001828054600181600116156101000203166002900480156109655780601f1061093a57610100808354040283529160200191610965565b820191906000526020600020905b81548152906001019060200180831161094857829003601f168201915b505050505081526020016002820160009054906101000a90046001600160a01b03166001600160a01b03166001600160a01b03168152602001600382015481526020016004820154815250509050876001600160a01b031681604001516001600160a01b031614156109fc57805160208201516040830151606084015160809094015192995090975095509093509150610a239050565b50600101610892565b50506040805160208101909152600080825294509250839150819050805b91939590929450565b600080805b600154811015610880576000818152602081905260409020600101546001600160a01b0385811691161415610a725760008181526020819052604090205491505b600101610a31565b60015481565b6008546060906001600160a01b0383811691161415610abb575060408051808201909152600581526430b236b4b760d91b6020820152610884565b610ac4826140da565b151560011415610af7575060408051808201909152600c81526b37b933b0b734bd30ba34b7b760a11b6020820152610884565b610b0082612e7d565b151560011415610b32575060408051808201909152600b81526a62656e656669636961727960a81b6020820152610884565b506040805180820190915260078152663b34b9b4ba37b960c91b6020820152610884565b60608060608060606000600660008881526020019081526020016000209050606081600401546001600160401b0381118015610b9157600080fd5b50604051908082528060200260200182016040528015610bbb578160200160208202803683370190505b509050606082600401546001600160401b0381118015610bda57600080fd5b50604051908082528060200260200182016040528015610c04578160200160208202803683370190505b509050606083600401546001600160401b0381118015610c2357600080fd5b50604051908082528060200260200182016040528015610c4d578160200160208202803683370190505b509050606084600401546001600160401b0381118015610c6c57600080fd5b50604051908082528060200260200182016040528015610c96578160200160208202803683370190505b509050606085600401546001600160401b0381118015610cb557600080fd5b50604051908082528060200260200182016040528015610ce957816020015b6060815260200190600190039081610cd45790505b50905060005b8660060154811015610e9057610d03614a11565b87600b018281548110610d1257fe5b90600052602060002090600502016040518060a001604052908160008201548152602001600182015481526020016002820154815260200160038201548152602001600482018054600181600116156101000203166002900480601f016020809104026020016040519081016040528092919081815260200182805460018160011615610100020316600290048015610dec5780601f10610dc157610100808354040283529160200191610dec565b820191906000526020600020905b815481529060010190602001808311610dcf57829003601f168201915b50505050508152505090508060000151878381518110610e0857fe5b6020026020010181815250508060200151868381518110610e2557fe5b6020026020010181815250508060400151858381518110610e4257fe5b6020026020010181815250508060600151848381518110610e5f57fe5b6020026020010181815250508060800151838381518110610e7c57fe5b602090810291909101015250600101610cef565b50939b929a50909850965090945092505050565b6000818152600460205260409020600b81015460609182918291829182906001600160401b0381118015610ed757600080fd5b50604051908082528060200260200182016040528015610f01578160200160208202803683370190505b509050606082600b01546001600160401b0381118015610f2057600080fd5b50604051908082528060200260200182016040528015610f4a578160200160208202803683370190505b509050606083600b01546001600160401b0381118015610f6957600080fd5b50604051908082528060200260200182016040528015610f93578160200160208202803683370190505b509050606084600b01546001600160401b0381118015610fb257600080fd5b50604051908082528060200260200182016040528015610fe657816020015b6060815260200190600190039081610fd15790505b50905060005b85600b015481101561117057611000614a11565b86600d01828154811061100f57fe5b90600052602060002090600502016040518060a001604052908160008201548152602001600182015481526020016002820154815260200160038201548152602001600482018054600181600116156101000203166002900480601f0160208091040260200160405190810160405280929190818152602001828054600181600116156101000203166002900480156110e95780601f106110be576101008083540402835291602001916110e9565b820191906000526020600020905b8154815290600101906020018083116110cc57829003601f168201915b5050505050815250509050806000015186838151811061110557fe5b602002602001018181525050806040015185838151811061112257fe5b602002602001018181525050806060015184838151811061113f57fe5b602002602001018181525050806080015183838151811061115c57fe5b602090810291909101015250600101610fec565b5092975090955093509150505b9193509193565b600061118f33612e7d565b9050806111ae5760405162461bcd60e51b81526004016106629061583c565b6000838152600660205260409020600901546001146111df5760405162461bcd60e51b8152600401610662906158fa565b6000838152600660208181526040808420815160a081018352600580830154825294845260038083015482860190815242948301948552600260608401818152608085018c8152600a909601805460018181018355918c529a89902086519b909a02909901998a55915197890197909755935195870195909555915193850193909355915180519293926112799260048501920190614a40565b50505060008381526006602090815260408083206003810154600191820154855260049093529220600a0154910110156113d35760008381526006602081815260408084206005808201805460019081019182905560038085018054830190819055865160a08101885293845297875282870197885242838701908152606084018381528751808a019098528a885260808501978852600a90960180548085018255908b529988902084519a9095029094019889559651908801559051600287015590519385019390935551805192939261135a9260048501920190614a40565b505050600083815260066020526040908190206005810154600382015460019092015492517f3bd69d0338add0787747b118da14e4aeba941afe53638eab003a9d359f3214af936113ae9391889190615ea7565b60405180910390a1600083815260066020526040902060050180546001019055611434565b60008381526006602052604090819020600260098201556005810154600382015460019092015492517f3bd69d0338add0787747b118da14e4aeba941afe53638eab003a9d359f3214af9361142b9391889190615ea7565b60405180910390a15b5050600090815260066020526040902042600890910155565b600080805b60035481101561088057600081815260026020819052604090912001546001600160a01b03858116911614801561149a57506000818152600260205260409020600401546003145b156114b15760008181526002602052604090205491505b600101611452565b60006114c4336140da565b9050806114e35760405162461bcd60e51b81526004016106629061557e565b60008b51116115045760405162461bcd60e51b81526004016106629061579d565b60008a51116115255760405162461bcd60e51b815260040161066290615957565b85518751148015611537575084518651145b6115535760405162461bcd60e51b815260040161066290615740565b82518451148015611565575081518351145b6115815760405162461bcd60e51b815260040161066290615866565b60055460008181526004602052604090205561159c3361144d565b6005805460009081526004602090815260408083206001019490945591548152919091208c516115d4926002909201918e0190614a40565b5060055460009081526004602090815260409091208b516115fd926003909201918d0190614a40565b50600580546000908152600460208190526040808320426006909101819055845484528184209092018d90558354835280832084018c905583548352808320600701919091559154815290812060016009909101555b875181101561176257600554600081815260046020908152604091829020825160a081018452600a8201548152918201939093528a51600c9093019290918201908b90859081106116a057fe5b602002602001015181526020018984815181106116b957fe5b602002602001015181526020018884815181106116d257fe5b602090810291909101810151909152825460018181018555600094855293829020835160059092020190815582820151938101939093556040820151600284015560608201516003840155608082015180519293926117379260048501920190614a40565b50506005546000908152600460205260409020600a0180546001908101909155919091019050611653565b5060005b845181101561187557600554600081815260046020908152604091829020825160a081018452600b8201548152918201939093528751600d9093019290918201908890859081106117b357fe5b602002602001015181526020018684815181106117cc57fe5b602002602001015181526020018584815181106117e557fe5b6020908102919091018101519091528254600181810185556000948552938290208351600590920201908155828201519381019390935560408201516002840155606082015160038401556080820151805192939261184a9260048501920190614a40565b50506005546000908152600460205260409020600b0180546001908101909155919091019050611766565b506005546000818152600460205260409081902090517f217f6f8566b5368c91631b32159051c0f0fc3ed5c77908901e6a2ef3f7df8359926118c1929091600282019160030190615deb565b60405180910390a15050600580546001019055505050505050505050565b60075481565b6000606060008060006118f6614abe565b600260008881526020019081526020016000206040518060a001604052908160008201548152602001600182018054600181600116156101000203166002900480601f0160208091040260200160405190810160405280929190818152602001828054600181600116156101000203166002900480156119b75780601f1061198c576101008083540402835291602001916119b7565b820191906000526020600020905b81548152906001019060200180831161199a57829003601f168201915b505050918352505060028201546001600160a01b031660208083019190915260038301546040808401919091526004909301546060928301528351908401519284015191840151608090940151909b929a5090985091965090945092505050565b6008546001600160a01b0316331415611a435760405162461bcd60e51b815260040161066290615b89565b6000611a4e336140da565b90508015611a6e5760405162461bcd60e51b815260040161066290615a9c565b6040805160a081018252600180548083523360208085019182528486018881524260608701526003608087015260009384528382529590922084518155905192810180546001600160a01b0319166001600160a01b03909416939093179092559251805192939192611ae69260028501920190614a40565b506060820151600382015560809091015160049091015560018054810190556040517f67bf623e5c0c95725ab7b0d181e969032a96122e243710f76311bae55f89df7190611b359033906151c8565b60405180910390a15050565b600080805b600154811015610880576000818152602081905260409020600101546001600160a01b038581169116148015611b8d57506000818152602081905260409020600401546003145b15611ba75760008181526020819052604090206004015491505b600101611b46565b6000611bba33612e7d565b905080611bd95760405162461bcd60e51b81526004016106629061583c565b600083815260066020526040902060090154600514611c0a5760405162461bcd60e51b815260040161066290615606565b6000838152600660208181526040808420815160a08101835281850154815293835260048082015485850190815242938601938452600260608701818152608088018b8152600b909501805460018181018355918b529988902089516005909b0201998a5592519289019290925593519387019390935591516003860155518051939493611ca093928501929190910190614a40565b5050506000838152600660209081526040808320600480820154600192830154865293529220600b015491011015611d95576000838152600660208181526040808420808401805460019081019182905560048084018054830190819055855160a0810187529384529686528286019687524294830194855260608301828152608084018b8152600b90950180548085018255908a529887902084516005909a02019889559651918801919091559251600287015593516003860155518051939493611d7493928501929190910190614a40565b50505060008381526006602081905260409091200180546001019055611dab565b6000838152600660208190526040909120600901555b505050565b6000606080600080600080600080600460008b815260200190815260200160002090508060010154816002018260030183600401548460050154856006015486600701548760090154868054600181600116156101000203166002900480601f016020809104026020016040519081016040528092919081815260200182805460018160011615610100020316600290048015611e8e5780601f10611e6357610100808354040283529160200191611e8e565b820191906000526020600020905b815481529060010190602001808311611e7157829003601f168201915b5050895460408051602060026001851615610100026000190190941693909304601f8101849004840282018401909252818152959c508b945092508401905082828015611f1c5780601f10611ef157610100808354040283529160200191611f1c565b820191906000526020600020905b815481529060010190602001808311611eff57829003601f168201915b505050505095509850985098509850985098509850985050919395975091939597565b6000611f4a336140da565b905080611f695760405162461bcd60e51b81526004016106629061557e565b600085815260046020526040902060090154600114611f9a5760405162461bcd60e51b815260040161066290615985565b6000858152600460208181526040808420815160a081018352600b82015481528084018b81529281018a8152606082018a8152608083018a8152600d909401805460018181018355918a529887902084516005909a0201988955945194880194909455516002870155915160038601555180519194936120209390850192910190614a40565b505050600094855250506004602052505060409020600b0180546001019055565b6000818152600460205260409020600a81015460609182918291829182906001600160401b038111801561207457600080fd5b5060405190808252806020026020018201604052801561209e578160200160208202803683370190505b509050606082600a01546001600160401b03811180156120bd57600080fd5b506040519080825280602002602001820160405280156120e7578160200160208202803683370190505b509050606083600a01546001600160401b038111801561210657600080fd5b50604051908082528060200260200182016040528015612130578160200160208202803683370190505b509050606084600a01546001600160401b038111801561214f57600080fd5b5060405190808252806020026020018201604052801561218357816020015b606081526020019060019003908161216e5790505b50905060005b85600a01548110156111705761219d614a11565b86600c0182815481106121ac57fe5b90600052602060002090600502016040518060a001604052908160008201548152602001600182015481526020016002820154815260200160038201548152602001600482018054600181600116156101000203166002900480601f0160208091040260200160405190810160405280929190818152602001828054600181600116156101000203166002900480156122865780601f1061225b57610100808354040283529160200191612286565b820191906000526020600020905b81548152906001019060200180831161226957829003601f168201915b505050505081525050905080600001518683815181106122a257fe5b60200260200101818152505080604001518583815181106122bf57fe5b60200260200101818152505080606001518483815181106122dc57fe5b60200260200101818152505080608001518383815181106122f957fe5b602090810291909101015250600101612189565b60608060608060606001546001600160401b038111801561232d57600080fd5b50604051908082528060200260200182016040528015612357578160200160208202803683370190505b50905060606001546001600160401b038111801561237457600080fd5b5060405190808252806020026020018201604052801561239e578160200160208202803683370190505b50905060606001546001600160401b03811180156123bb57600080fd5b506040519080825280602002602001820160405280156123e5578160200160208202803683370190505b50905060606001546001600160401b038111801561240257600080fd5b5060405190808252806020026020018201604052801561242c578160200160208202803683370190505b50905060005b6001548110156125ae57612444614af6565b60008281526020818152604091829020825160a081018452815481526001808301546001600160a01b0316828501526002808401805487516101009482161594909402600019011691909104601f810186900486028301860187528083529295939493860193919290918301828280156124ff5780601f106124d4576101008083540402835291602001916124ff565b820191906000526020600020905b8154815290600101906020018083116124e257829003601f168201915b50505050508152602001600382015481526020016004820154815250509050806000015186838151811061252f57fe5b602002602001018181525050806020015185838151811061254c57fe5b60200260200101906001600160a01b031690816001600160a01b031681525050806060015184838151811061257d57fe5b602002602001018181525050806080015183838151811061259a57fe5b602090810291909101015250600101612432565b50929791965094509092509050565b6125c5614a11565b6125cd614a11565b6000848152600660205260409020600b018054849081106125ea57fe5b90600052602060002090600502016040518060a001604052908160008201548152602001600182015481526020016002820154815260200160038201548152602001600482018054600181600116156101000203166002900480601f0160208091040260200160405190810160405280929190818152602001828054600181600116156101000203166002900480156126c45780601f10612699576101008083540402835291602001916126c4565b820191906000526020600020905b8154815290600101906020018083116126a757829003601f168201915b5050509190925250919695505050505050565b6008546001600160a01b031633146127015760405162461bcd60e51b81526004016106629061571c565b6040805160a081018252600180548083526001600160a01b0387811660208086019182528587018981524260608801526080870189905260009485528482529690932085518155905193810180546001600160a01b03191694909216939093179055925180519293919261277b9260028501920190614a40565b506060820151600382015560809091015160049091015560018054810190556040517f67bf623e5c0c95725ab7b0d181e969032a96122e243710f76311bae55f89df71906127ca9085906151c8565b60405180910390a1505050565b6060806060806060806003546001600160401b03811180156127f857600080fd5b50604051908082528060200260200182016040528015612822578160200160208202803683370190505b50905060606003546001600160401b038111801561283f57600080fd5b5060405190808252806020026020018201604052801561287357816020015b606081526020019060019003908161285e5790505b50905060606003546001600160401b038111801561289057600080fd5b506040519080825280602002602001820160405280156128ba578160200160208202803683370190505b50905060606003546001600160401b03811180156128d757600080fd5b50604051908082528060200260200182016040528015612901578160200160208202803683370190505b50905060606003546001600160401b038111801561291e57600080fd5b50604051908082528060200260200182016040528015612948578160200160208202803683370190505b50905060005b600354811015612b0157612960614abe565b600260008381526020019081526020016000206040518060a001604052908160008201548152602001600182018054600181600116156101000203166002900480601f016020809104026020016040519081016040528092919081815260200182805460018160011615610100020316600290048015612a215780601f106129f657610100808354040283529160200191612a21565b820191906000526020600020905b815481529060010190602001808311612a0457829003601f168201915b505050918352505060028201546001600160a01b03166020820152600382015460408201526004909101546060909101528051885191925090889084908110612a6657fe5b6020026020010181815250508060200151868381518110612a8357fe5b60200260200101819052508060400151858381518110612a9f57fe5b60200260200101906001600160a01b031690816001600160a01b0316815250508060600151848381518110612ad057fe5b6020026020010181815250508060800151838381518110612aed57fe5b60209081029190910101525060010161294e565b50939992985090965094509092509050565b6000806000806000806000612b2788610a2c565b9050612b31614b2e565b60005b600754811015612e48576000818152600660205260409020600101548b148015612b6e575060008181526006602052604090206002015483145b15612e40576000818152600660208181526040808420815161018081018352815481526001820154818501526002820154818401526003820154606082015260048201546080820152600582015460a08201529381015460c0850152600781015460e085015260088101546101008501526009810154610120850152600a81018054835181860281018601909452808452949591946101408701949192909184015b82821015612d0c57838290600052602060002090600502016040518060a001604052908160008201548152602001600182015481526020016002820154815260200160038201548152602001600482018054600181600116156101000203166002900480601f016020809104026020016040519081016040528092919081815260200182805460018160011615610100020316600290048015612cf45780601f10612cc957610100808354040283529160200191612cf4565b820191906000526020600020905b815481529060010190602001808311612cd757829003601f168201915b50505050508152505081526020019060010190612c10565b505050508152602001600b8201805480602002602001604051908101604052809291908181526020016000905b82821015612e3557838290600052602060002090600502016040518060a001604052908160008201548152602001600182015481526020016002820154815260200160038201548152602001600482018054600181600116156101000203166002900480601f016020809104026020016040519081016040528092919081815260200182805460018160011615610100020316600290048015612e1d5780601f10612df257610100808354040283529160200191612e1d565b820191906000526020600020905b815481529060010190602001808311612e0057829003601f168201915b50505050508152505081526020019060010190612d39565b505050508152505091505b600101612b34565b5080516020820151604083015160e084015161010085015161012090950151939e929d50909b50995091975095509350505050565b600080805b600154811015610880576000818152602081905260409020600101546001600160a01b0385811691161415612eb657600191505b600101612e82565b600080600080612ecc614af6565b60008681526020818152604091829020825160a081018452815481526001808301546001600160a01b0316828501526002808401805487516101009482161594909402600019011691909104601f81018690048602830186018752808352929593949386019391929091830182828015612f875780601f10612f5c57610100808354040283529160200191612f87565b820191906000526020600020905b815481529060010190602001808311612f6a57829003601f168201915b5050509183525050600382015460208083019190915260049092015460409091015281519082015160608301516080909301519199909850919650945092505050565b6000818152600660205260409020600a81015460609182918291829182919082906001600160401b038111801561300057600080fd5b5060405190808252806020026020018201604052801561302a578160200160208202803683370190505b50600a8301549091506060906001600160401b038111801561304b57600080fd5b50604051908082528060200260200182016040528015613075578160200160208202803683370190505b50600a8401549091506060906001600160401b038111801561309657600080fd5b506040519080825280602002602001820160405280156130c0578160200160208202803683370190505b50600a8501549091506060906001600160401b03811180156130e157600080fd5b5060405190808252806020026020018201604052801561310b578160200160208202803683370190505b50600a8601549091506060906001600160401b038111801561312c57600080fd5b5060405190808252806020026020018201604052801561316057816020015b606081526020019060019003908161314b5790505b50905060005b600a8701548110156133075761317a614a11565b87600a01828154811061318957fe5b90600052602060002090600502016040518060a001604052908160008201548152602001600182015481526020016002820154815260200160038201548152602001600482018054600181600116156101000203166002900480601f0160208091040260200160405190810160405280929190818152602001828054600181600116156101000203166002900480156132635780601f1061323857610100808354040283529160200191613263565b820191906000526020600020905b81548152906001019060200180831161324657829003601f168201915b5050505050815250509050806000015187838151811061327f57fe5b602002602001018181525050806020015186838151811061329c57fe5b60200260200101818152505080604001518583815181106132b957fe5b60200260200101818152505080606001518483815181106132d657fe5b60200260200101818152505080608001518383815181106132f357fe5b602090810291909101015250600101613166565b506005860154600a87015411156134be57613320614a11565b86600a0187600501548154811061333357fe5b90600052602060002090600502016040518060a001604052908160008201548152602001600182015481526020016002820154815260200160038201548152602001600482018054600181600116156101000203166002900480601f01602080910402602001604051908101604052809291908181526020018280546001816001161561010002031660029004801561340d5780601f106133e25761010080835404028352916020019161340d565b820191906000526020600020905b8154815290600101906020018083116133f057829003601f168201915b505050505081525050905080600001518688600501548151811061342d57fe5b60200260200101818152505080602001518588600501548151811061344e57fe5b60200260200101818152505080604001518488600501548151811061346f57fe5b60200260200101818152505080606001518388600501548151811061349057fe5b6020026020010181815250508060800151828860050154815181106134b157fe5b6020026020010181905250505b939b929a50909850965090945092505050565b60046020908152600091825260409182902080546001808301546002808501805488519481161561010002600019011691909104601f8101879004870284018701909752868352929590949192918301828280156135705780601f1061354557610100808354040283529160200191613570565b820191906000526020600020905b81548152906001019060200180831161355357829003601f168201915b5050505060038301805460408051602060026001851615610100026000190190941693909304601f81018490048402820184019092528181529495949350908301828280156136005780601f106135d557610100808354040283529160200191613600565b820191906000526020600020905b8154815290600101906020018083116135e357829003601f168201915b50505050509080600401549080600501549080600601549080600701549080600801549080600901549080600a01549080600b015490508c565b6000818152600460205260409020600881015460609182918291829182906001600160401b038111801561366d57600080fd5b50604051908082528060200260200182016040528015613697578160200160208202803683370190505b509050606082600801546001600160401b03811180156136b657600080fd5b506040519080825280602002602001820160405280156136e0578160200160208202803683370190505b509050606083600801546001600160401b03811180156136ff57600080fd5b5060405190808252806020026020018201604052801561373357816020015b606081526020019060019003908161371e5790505b509050606084600801546001600160401b038111801561375257600080fd5b5060405190808252806020026020018201604052801561377c578160200160208202803683370190505b5090506000805b600754811015613beb57613795614b2e565b6000828152600660208181526040808420815161018081018352815481526001820154818501526002820154818401526003820154606082015260048201546080820152600582015460a08201529381015460c0850152600781015460e085015260088101546101008501526009810154610120850152600a81018054835181860281018601909452808452949591946101408701949192909184015b8282101561392e57838290600052602060002090600502016040518060a001604052908160008201548152602001600182015481526020016002820154815260200160038201548152602001600482018054600181600116156101000203166002900480601f0160208091040260200160405190810160405280929190818152602001828054600181600116156101000203166002900480156139165780601f106138eb57610100808354040283529160200191613916565b820191906000526020600020905b8154815290600101906020018083116138f957829003601f168201915b50505050508152505081526020019060010190613832565b505050508152602001600b8201805480602002602001604051908101604052809291908181526020016000905b82821015613a5757838290600052602060002090600502016040518060a001604052908160008201548152602001600182015481526020016002820154815260200160038201548152602001600482018054600181600116156101000203166002900480601f016020809104026020016040519081016040528092919081815260200182805460018160011615610100020316600290048015613a3f5780601f10613a1457610100808354040283529160200191613a3f565b820191906000526020600020905b815481529060010190602001808311613a2257829003601f168201915b5050505050815250508152602001906001019061395b565b50505050815250509050613a69614af6565b6040828101516000908152602081815290829020825160a081018452815481526001808301546001600160a01b0316828501526002808401805487516101009482161594909402600019011691909104601f81018690048602830186018752808352929593949386019391929091830182828015613b285780601f10613afd57610100808354040283529160200191613b28565b820191906000526020600020905b815481529060010190602001808311613b0b57829003601f168201915b505050505081526020016003820154815260200160048201548152505090508d82602001511415613be1578160000151888581518110613b6457fe5b6020026020010181815250508060200151878581518110613b8157fe5b60200260200101906001600160a01b031690816001600160a01b0316815250508060400151868581518110613bb257fe5b6020026020010181905250816101200151858581518110613bcf57fe5b60209081029190910101526001909301925b5050600101613783565b50939a92995090975095509350505050565b6060806060806060806060806005546001600160401b0381118015613c2157600080fd5b50604051908082528060200260200182016040528015613c4b578160200160208202803683370190505b50905060606005546001600160401b0381118015613c6857600080fd5b50604051908082528060200260200182016040528015613c9c57816020015b6060815260200190600190039081613c875790505b50905060606005546001600160401b0381118015613cb957600080fd5b50604051908082528060200260200182016040528015613ced57816020015b6060815260200190600190039081613cd85790505b50905060606005546001600160401b0381118015613d0a57600080fd5b50604051908082528060200260200182016040528015613d3e57816020015b6060815260200190600190039081613d295790505b50905060606005546001600160401b0381118015613d5b57600080fd5b50604051908082528060200260200182016040528015613d85578160200160208202803683370190505b50905060606005546001600160401b0381118015613da257600080fd5b50604051908082528060200260200182016040528015613dcc578160200160208202803683370190505b50905060606005546001600160401b0381118015613de957600080fd5b50604051908082528060200260200182016040528015613e13578160200160208202803683370190505b50905060005b6005548110156140c3576000818152600460205260409020805489518a9084908110613e4157fe5b60200260200101818152505060026000826001015481526020019081526020016000206001018054600181600116156101000203166002900480601f016020809104026020016040519081016040528092919081815260200182805460018160011615610100020316600290048015613efb5780601f10613ed057610100808354040283529160200191613efb565b820191906000526020600020905b815481529060010190602001808311613ede57829003601f168201915b5050505050888381518110613f0c57fe5b60209081029190910181019190915260028281018054604080516001831615610100026000190190921693909304601f810185900485028201850190935282815292909190830182828015613fa25780601f10613f7757610100808354040283529160200191613fa2565b820191906000526020600020905b815481529060010190602001808311613f8557829003601f168201915b5050505050878381518110613fb357fe5b60209081029190910181019190915260038201805460408051601f60026000196101006001871615020190941693909304928301859004850281018501909152818152928301828280156140485780601f1061401d57610100808354040283529160200191614048565b820191906000526020600020905b81548152906001019060200180831161402b57829003601f168201915b505050505086838151811061405957fe5b6020026020010181905250806004015485838151811061407557fe5b602002602001018181525050806005015484838151811061409257fe5b60200260200101818152505080600901548383815181106140af57fe5b602090810291909101015250600101613e19565b50959d949c50929a50909850965094509092509050565b600080805b60035481101561088057600081815260026020819052604090912001546001600160a01b03858116911614801561412757506000818152600260205260409020600401546003145b1561413157600191505b6001016140df565b614141614a11565b614149614a11565b6000848152600660205260409020600a018054849081106125ea57fe5b6000808080805b6001548110156142a35761417f614af6565b60008281526020818152604091829020825160a081018452815481526001808301546001600160a01b0316828501526002808401805487516101009482161594909402600019011691909104601f8101869004860283018601875280835292959394938601939192909183018282801561423a5780601f1061420f5761010080835404028352916020019161423a565b820191906000526020600020905b81548152906001019060200180831161421d57829003601f168201915b50505050508152602001600382015481526020016004820154815250509050866001600160a01b031681602001516001600160a01b0316141561429a578051602082015160608301516080909301519197509550909350915061117d9050565b5060010161416d565b50600095869550859450849350915050565b60006142c0336140da565b905060006142cd33612e7d565b905081806142d85750805b6142f45760405162461bcd60e51b8152600401610662906158c3565b6000848152600660205260409020600901548015801590614316575060078111155b6143325760405162461bcd60e51b8152600401610662906154ea565b8360021415614380578060011461435b5760405162461bcd60e51b815260040161066290615663565b61436433612e7d565b6143805760405162461bcd60e51b8152600401610662906155a9565b836003148061438f5750836004145b156143d957806002146143b45760405162461bcd60e51b8152600401610662906157c4565b6143bd336140da565b6143d95760405162461bcd60e51b815260040161066290615c28565b83600514156144325780600314806143f15750806004145b61440d5760405162461bcd60e51b815260040161066290615bac565b614416336140da565b6144325760405162461bcd60e51b815260040161066290615c28565b8360061415614480578060051461445b5760405162461bcd60e51b815260040161066290615a21565b61446433612e7d565b6144805760405162461bcd60e51b8152600401610662906155a9565b836007148061448f5750836008145b156144d957806006146144b45760405162461bcd60e51b815260040161066290615c85565b6144bd336140da565b6144d95760405162461bcd60e51b815260040161066290615c28565b50505060009182526006602052604090912060090155565b60006144fc336140da565b90508061451b5760405162461bcd60e51b81526004016106629061557e565b60008581526004602052604090206009015460011461454c5760405162461bcd60e51b815260040161066290615985565b6000858152600460208181526040808420815160a081018352600a82015481528084018b81529281018a8152606082018a8152608083018a8152600c909401805460018181018355918a529887902084516005909a0201988955945194880194909455516002870155915160038601555180519194936145d29390850192910190614a40565b505050600094855250506004602052505060409020600a0180546001019055565b60035481565b6008546000906001600160a01b031633146146265760405162461bcd60e51b81526004016106629061571c565b6003546040805160a08101825282815260208082018881526001600160a01b03881683850152426060840152608083018790526000858152600283529390932082518155925180519293926146819260018501920190614a40565b5060408201516002820180546001600160a01b0319166001600160a01b03909216919091179055606082015160038083019190915560809092015160049091015580546001019055949350505050565b6006602052806000526040600020600091509050806000015490806001015490806002015490806003015490806004015490806005015490806006015490806007015490806008015490806009015490508a565b6000614730336140da565b90508061474f5760405162461bcd60e51b81526004016106629061557e565b600082118015614760575060078211155b61477c5760405162461bcd60e51b815260040161066290615ac6565b81600214156147b6576000838152600460205260409020600901546001146147b65760405162461bcd60e51b815260040161066290615afd565b81600314156147f0576000838152600460205260409020600901546002146147f05760405162461bcd60e51b8152600401610662906156d9565b816004141561482a5760008381526004602052604090206009015460031461482a5760405162461bcd60e51b815260040161066290615521565b816005141561486557600083815260046020819052604090912060090154146148655760405162461bcd60e51b81526004016106629061547e565b81600614156149a65760008381526004602052604090206009015460051461489f5760405162461bcd60e51b815260040161066290615431565b60005b6007548110156149a45760008181526006602052604090206001015484141561499c576000818152600660205260409020600901546003141561499c57600081815260066020526040902060056009909101556148fd614a11565b60008082526020808301828152426040808601918252600160608701818152825180870184528781526080890190815289885260068752928720600b0180548084018255908852968690208851600590980201968755935190860155905160028501559051600384015551805184939261497e926004850192910190614a40565b50505060008281526006602081905260409091200180546001019055505b6001016148a2565b505b81600714156149e0576000838152600460205260409020600901546006146149e05760405162461bcd60e51b8152600401610662906159ba565b5060009182526004602052604090912042600782015560090155565b6008546001600160a01b031681565b60055481565b6040518060a0016040528060008152602001600081526020016000815260200160008152602001606081525090565b828054600181600116156101000203166002900490600052602060002090601f016020900481019282601f10614a8157805160ff1916838001178555614aae565b82800160010185558215614aae579182015b82811115614aae578251825591602001919060010190614a93565b50614aba929150614b8f565b5090565b6040518060a00160405280600081526020016060815260200160006001600160a01b0316815260200160008152602001600081525090565b6040518060a001604052806000815260200160006001600160a01b031681526020016060815260200160008152602001600081525090565b6040518061018001604052806000815260200160008152602001600081526020016000815260200160008152602001600081526020016000815260200160008152602001600081526020016000815260200160608152602001606081525090565b614ba991905b80821115614aba5760008155600101614b95565b90565b600082601f830112614bbc578081fd5b8135614bcf614bca82615f55565b615f2f565b818152915060208083019084810160005b84811015614c0957614bf7888484358a0101614c72565b84529282019290820190600101614be0565b505050505092915050565b600082601f830112614c24578081fd5b8135614c32614bca82615f55565b818152915060208083019084810181840286018201871015614c5357600080fd5b60005b84811015614c0957813584529282019290820190600101614c56565b600082601f830112614c82578081fd5b81356001600160401b03811115614c97578182fd5b614caa601f8201601f1916602001615f2f565b9150808252836020828501011115614cc157600080fd5b8060208401602084013760009082016020015292915050565b600060208284031215614ceb578081fd5b8135614cf681615f80565b9392505050565b600080600060608486031215614d11578182fd5b8335614d1c81615f80565b925060208401356001600160401b03811115614d36578283fd5b614d4286828701614c72565b925050604084013590509250925092565b600060208284031215614d64578081fd5b81356001600160401b03811115614d79578182fd5b614d8584828501614c72565b949350505050565b600080600060608486031215614da1578283fd5b83356001600160401b03811115614db6578384fd5b614dc286828701614c72565b9350506020840135614dd381615f80565b929592945050506040919091013590565b6000806000806000806000806000806101408b8d031215614e03578586fd5b8a356001600160401b0380821115614e19578788fd5b614e258e838f01614c72565b9b5060208d0135915080821115614e3a578788fd5b614e468e838f01614c72565b9a5060408d0135995060608d0135985060808d0135915080821115614e69578788fd5b614e758e838f01614c14565b975060a08d0135915080821115614e8a578687fd5b614e968e838f01614c14565b965060c08d0135915080821115614eab578586fd5b614eb78e838f01614bac565b955060e08d0135915080821115614ecc578485fd5b614ed88e838f01614c14565b94506101008d0135915080821115614eee578384fd5b614efa8e838f01614c14565b93506101208d0135915080821115614f10578283fd5b50614f1d8d828e01614bac565b9150509295989b9194979a5092959850565b600060208284031215614f40578081fd5b5035919050565b60008060408385031215614f59578182fd5b823591506020830135614f6b81615f80565b809150509250929050565b60008060408385031215614f88578182fd5b8235915060208301356001600160401b03811115614fa4578182fd5b614fb085828601614c72565b9150509250929050565b60008060408385031215614fcc578182fd5b50508035926020909101359150565b60008060008060808587031215614ff0578384fd5b84359350602085013592506040850135915060608501356001600160401b0381111561501a578182fd5b61502687828801614c72565b91505092959194509250565b6000815180845260208085019450808401835b8381101561506a5781516001600160a01b031687529582019590820190600101615045565b509495945050505050565b60008282518085526020808601955080818302840101818601855b848110156150be57601f198684030189526150ac8383516150fa565b98840198925090830190600101615090565b5090979650505050505050565b6000815180845260208085019450808401835b8381101561506a578151875295820195908201906001016150de565b60008151808452815b8181101561511f57602081850181015186830182015201615103565b818111156151305782602083870101525b50601f01601f19169290920160200192915050565b600081546001808216600081146151635760018114615181576151bf565b60028304607f16865260ff19831660208701526040860193506151bf565b6002830480875261519186615f74565b60005b828110156151b55781546020828b0101528482019150602081019050615194565b8801602001955050505b50505092915050565b6001600160a01b0391909116815260200190565b6000608082526151ef60808301876150cb565b82810360208401526152018187615032565b83810360408501526152138187615075565b915050828103606084015261522881856150cb565b979650505050505050565b60006080825261524660808301876150cb565b82810360208401526152588187615032565b838103604085015261521381876150cb565b600060a0825261527d60a08301886150cb565b828103602084015261528f8188615075565b83810360408501526152a18188615032565b91505082810360608401526152b681866150cb565b83810360808501526152c881866150cb565b9998505050505050505050565b600060e082526152e860e083018a6150cb565b82810360208401526152fa818a615075565b838103604085015261530c818a615075565b91505082810360608401526153218188615075565b838103608085015261533381886150cb565b91505082810360a084015261534881866150cb565b83810360c085015261535a81866150cb565b9b9a5050505050505050505050565b60006080825261537c60808301876150cb565b828103602084015261538e81876150cb565b83810360408501526153a081876150cb565b91505082810360608401526152288185615075565b600060a082526153c860a08301886150cb565b82810360208401526153da81886150cb565b83810360408501526153ec81886150cb565b915050828103606084015261540181866150cb565b83810360808501526152c88186615075565b901515815260200190565b600060208252614cf660208301846150fa565b6020808252602d908201527f6f70706f7274756e697479206d75737420626520696e20696e6974696174656460408201526c20666f722066696e616c697a6560981b606082015260800190565b60208082526046908201527f6f70706f7274756e697479206d75737420626520696e206170706c696361746960408201527f6f6e732073656c656374656420666f72206f70706f7274756e69747920696e696060820152651d1a585d195960d21b608082015260a00190565b6020808252601c908201527f6170706c69636174696f6e20737461747573206e6f742076616c696400000000604082015260600190565b60208082526037908201527f6f70706f7274756e697479206d75737420626520696e2072657669657720666f60408201527f72206170706c69636174696f6e732073656c6563746564000000000000000000606082015260800190565b60208082526011908201527037b7363c9037b933b0b734bd30ba34b7b760791b604082015260600190565b60208082526039908201527f6170706c69636174696f6e20737461747573206368616e6765206d757374206260408201527f652065786563757465642062792062656e656669636961727900000000000000606082015260800190565b6020808252603a908201527f6170706c69636174696f6e20686173206e6f74207374617274656420746f207260408201527f65636569766520706f73744163636f6d706c6973686d656e7473000000000000606082015260800190565b60208082526050908201527f6170706c69636174696f6e206d757374206265207072654163636f6d706c697360408201527f686d656e7473207374617274656420746f2062652066696e616c697a6520707260608201526f654163636f6d706c6973686d656e747360801b608082015260a00190565b60208082526023908201527f6f70706f7274756e697479206d757374206265206f70656e20666f722072657660408201526269657760e81b606082015260800190565b6020808252600a908201526937b7363c9030b236b4b760b11b604082015260600190565b60208082526037908201527f70726520726571756972656d656e742076616c756573206e756d626572206d7560408201527f73742068617665207468652073616d65206c656e677468000000000000000000606082015260800190565b6020808252600d908201526c6e616d6520697320656d70747960981b604082015260600190565b60208082526052908201527f6170706c69636174696f6e206d757374206265207072654163636f6d706c697360408201527f686d656e74732066696e616c697a656420746f206265206569746865722061706060820152711c1c9bdd9959081bdc881c995a9958dd195960721b608082015260a00190565b60208082526010908201526f6f6e6c792062656e656669636961727960801b604082015260600190565b60208082526038908201527f706f737420726571756972656d656e742076616c756573206e756d626572206d60408201527f7573742068617665207468652073616d65206c656e6774680000000000000000606082015260800190565b60208082526018908201527f6f6e6c7920616374697665206f7267616e697a6174696f6e0000000000000000604082015260600190565b60208082526039908201527f6170706c69636174696f6e20686173206e6f74207374617274656420746f207260408201527f656365697665207072654163636f6d706c6973686d656e747300000000000000606082015260800190565b6020808252601490820152736465736372697074696f6e20697320656d70747960601b604082015260600190565b6020808252818101527f6f70706f7274756e697479206973206e6f7420696e206472616674206d6f6465604082015260600190565b60208082526041908201527f6f70706f7274756e697479206d7573742062652066696e616c697a656420666f60408201527f7220636c6f736520706f7374526571756972656d656e7420726563657074696f6060820152603760f91b608082015260a00190565b60208082526055908201527f6170706c69636174696f6e206d7573742068617665207374617274656420726560408201527f63656976696e6720706f73744163636f6d706c6973686d656e747320746f206660608201527434b730b634bd329034ba39903932b1b2b83a34b7b760591b608082015260a00190565b60208082526010908201526f3737ba1037b933b0b734bd30ba34b7b760811b604082015260600190565b6020808252601c908201527f6f70706f7274756e69747920737461747573206e6f742076616c696400000000604082015260600190565b60208082526027908201527f6f70706f7274756e697479206d75737420626520696e20647261667420746f2060408201526631329037b832b760c91b606082015260800190565b60208082526025908201527f6f70706f7274756e697479206e6f74206f70656e20666f72206170706c69636160408201526474696f6e7360d81b606082015260800190565b6020808252600990820152683737ba1030b236b4b760b91b604082015260600190565b60208082526056908201527f6170706c69636174696f6e206d7573742062652065697468657220617070726f60408201527f766564206f722072656a656374656420746f20737461727420726563656976696060820152756e6720706f73744163636f6d706c6973686d656e747360501b608082015260a00190565b6020808252603a908201527f6170706c69636174696f6e20737461747573206368616e6765206d757374206260408201527f65206578656375746564206279206f7267616e697a6174696f6e000000000000606082015260800190565b602080825260409082018190527f6170706c69636174696f6e20706f73744163636f6d706c6973686d656e747320908201527f6d7573742062652066696e616c697a656420746f2066696e616c697a65206974606082015260800190565b60006020825282516020830152602083015160408301526040830151606083015260608301516080830152608083015160a080840152614d8560c08401826150fa565b90815260200190565b9384526001600160a01b039290921660208401526040830152606082015260800190565b600086825260a06020830152615d6c60a08301876150fa565b6001600160a01b0395909516604083015250606081019290925260809091015292915050565b60006101008a8352806020840152615dac8184018b6150fa565b8381036040850152615dbe818b6150fa565b6060850199909952505050608081019490945260a084019290925260c083015260e0909101529392505050565b600084825260606020830152615e046060830185615145565b8281036040840152615e168185615145565b9695505050505050565b918252602082015260400190565b60006101808e83528d6020840152806040840152615e4e8184018e6150fa565b8381036060850152615e60818e6150fa565b608085019c909c5250505060a081019790975260c087019590955260e086019390935261010085019190915261012084015261014083015261016090910152949350505050565b93845260208401929092526040830152606082015260800190565b958652602086019490945260408501929092526060840152608083015260a082015260c00190565b998a5260208a019890985260408901969096526060880194909452608087019290925260a086015260c085015260e08401526101008301526101208201526101400190565b6040518181016001600160401b0381118282101715615f4d57600080fd5b604052919050565b60006001600160401b03821115615f6a578081fd5b5060209081020190565b60009081526020902090565b6001600160a01b0381168114615f9557600080fd5b5056fea2646970667358221220a38d92797578c4493690b37316b30ae796174c2da5986081a5caaffeb549dd0764736f6c63430006070033",
  "linkReferences": {},
  "deployedLinkReferences": {}
}