{
  "_format": "hh-sol-artifact-1",
  "contractName": "AkasifyCoreContract",
  "sourceName": "contracts/AkasifyCoreContract.sol",
  "abi": [
    {
      "inputs": [
        {
          "internalType": "address",
          "name": "_admin",
          "type": "address"
        }
      ],
      "stateMutability": "nonpayable",
      "type": "constructor"
    },
    {
      "anonymous": false,
      "inputs": [
        {
          "indexed": false,
          "internalType": "uint256",
          "name": "id",
          "type": "uint256"
        },
        {
          "indexed": false,
          "internalType": "uint256",
          "name": "opportunityId",
          "type": "uint256"
        }
      ],
      "name": "ApplicationCreated",
      "type": "event"
    },
    {
      "anonymous": false,
      "inputs": [
        {
          "indexed": false,
          "internalType": "uint256",
          "name": "id",
          "type": "uint256"
        },
        {
          "indexed": false,
          "internalType": "uint256",
          "name": "requirementId",
          "type": "uint256"
        },
        {
          "indexed": false,
          "internalType": "uint256",
          "name": "accomplishDate",
          "type": "uint256"
        },
        {
          "indexed": false,
          "internalType": "uint256",
          "name": "accomplishCategory",
          "type": "uint256"
        },
        {
          "indexed": false,
          "internalType": "uint256",
          "name": "accomplishValue",
          "type": "uint256"
        }
      ],
      "name": "ApplicationPostAccomplishmentCreated",
      "type": "event"
    },
    {
      "anonymous": false,
      "inputs": [
        {
          "indexed": false,
          "internalType": "uint256",
          "name": "id",
          "type": "uint256"
        },
        {
          "indexed": false,
          "internalType": "uint256",
          "name": "requirementId",
          "type": "uint256"
        },
        {
          "indexed": false,
          "internalType": "uint256",
          "name": "accomplishDate",
          "type": "uint256"
        },
        {
          "indexed": false,
          "internalType": "uint256",
          "name": "accomplishCategory",
          "type": "uint256"
        },
        {
          "indexed": false,
          "internalType": "uint256",
          "name": "accomplishValue",
          "type": "uint256"
        }
      ],
      "name": "ApplicationPreAccomplishmentCreated",
      "type": "event"
    },
    {
      "anonymous": false,
      "inputs": [
        {
          "indexed": false,
          "internalType": "uint256",
          "name": "id",
          "type": "uint256"
        },
        {
          "indexed": false,
          "internalType": "uint256",
          "name": "status",
          "type": "uint256"
        }
      ],
      "name": "ApplicationStatusUpdated",
      "type": "event"
    },
    {
      "anonymous": false,
      "inputs": [
        {
          "indexed": false,
          "internalType": "uint256",
          "name": "id",
          "type": "uint256"
        },
        {
          "indexed": false,
          "internalType": "string",
          "name": "name",
          "type": "string"
        },
        {
          "indexed": false,
          "internalType": "string",
          "name": "description",
          "type": "string"
        }
      ],
      "name": "OpportunityCreated",
      "type": "event"
    },
    {
      "anonymous": false,
      "inputs": [
        {
          "indexed": false,
          "internalType": "uint256",
          "name": "id",
          "type": "uint256"
        },
        {
          "indexed": false,
          "internalType": "uint256",
          "name": "status",
          "type": "uint256"
        }
      ],
      "name": "OpportunityStatusUpdated",
      "type": "event"
    },
    {
      "anonymous": false,
      "inputs": [
        {
          "indexed": false,
          "internalType": "address",
          "name": "account",
          "type": "address"
        }
      ],
      "name": "RegisterBeneficiary",
      "type": "event"
    },
    {
      "inputs": [],
      "name": "admin",
      "outputs": [
        {
          "internalType": "address",
          "name": "",
          "type": "address"
        }
      ],
      "stateMutability": "view",
      "type": "function"
    },
    {
      "inputs": [
        {
          "internalType": "uint256",
          "name": "",
          "type": "uint256"
        }
      ],
      "name": "applications",
      "outputs": [
        {
          "internalType": "uint256",
          "name": "id",
          "type": "uint256"
        },
        {
          "internalType": "uint256",
          "name": "opportunityId",
          "type": "uint256"
        },
        {
          "internalType": "uint256",
          "name": "beneficiaryId",
          "type": "uint256"
        },
        {
          "internalType": "uint256",
          "name": "nextPreRequirementId",
          "type": "uint256"
        },
        {
          "internalType": "uint256",
          "name": "nextPostRequirementId",
          "type": "uint256"
        },
        {
          "internalType": "uint256",
          "name": "nextPreAccomplishmentId",
          "type": "uint256"
        },
        {
          "internalType": "uint256",
          "name": "nextPostAccomplishmentId",
          "type": "uint256"
        },
        {
          "internalType": "uint256",
          "name": "creationDate",
          "type": "uint256"
        },
        {
          "internalType": "uint256",
          "name": "lastUpdate",
          "type": "uint256"
        },
        {
          "internalType": "uint256",
          "name": "status",
          "type": "uint256"
        }
      ],
      "stateMutability": "view",
      "type": "function"
    },
    {
      "inputs": [
        {
          "internalType": "uint256",
          "name": "opportunityId",
          "type": "uint256"
        }
      ],
      "name": "createApplication",
      "outputs": [],
      "stateMutability": "nonpayable",
      "type": "function"
    },
    {
      "inputs": [
        {
          "internalType": "string",
          "name": "name",
          "type": "string"
        },
        {
          "internalType": "string",
          "name": "description",
          "type": "string"
        },
        {
          "internalType": "uint256",
          "name": "preRequirementsDeadline",
          "type": "uint256"
        },
        {
          "internalType": "uint256",
          "name": "postRequirementsDeadline",
          "type": "uint256"
        },
        {
          "internalType": "uint256[]",
          "name": "preRequirementTypes",
          "type": "uint256[]"
        },
        {
          "internalType": "uint256[]",
          "name": "preRequirementValues",
          "type": "uint256[]"
        },
        {
          "internalType": "string[]",
          "name": "preRequirementNames",
          "type": "string[]"
        },
        {
          "internalType": "uint256[]",
          "name": "postRequirementTypes",
          "type": "uint256[]"
        },
        {
          "internalType": "uint256[]",
          "name": "postRequirementValues",
          "type": "uint256[]"
        },
        {
          "internalType": "string[]",
          "name": "postRequirementNames",
          "type": "string[]"
        }
      ],
      "name": "createOpportunity",
      "outputs": [],
      "stateMutability": "nonpayable",
      "type": "function"
    },
    {
      "inputs": [
        {
          "internalType": "uint256",
          "name": "applicationId",
          "type": "uint256"
        },
        {
          "internalType": "string",
          "name": "accomplishmentValue",
          "type": "string"
        }
      ],
      "name": "createPostAccomplishment",
      "outputs": [],
      "stateMutability": "nonpayable",
      "type": "function"
    },
    {
      "inputs": [
        {
          "internalType": "uint256",
          "name": "applicationId",
          "type": "uint256"
        },
        {
          "internalType": "string",
          "name": "accomplishmentValue",
          "type": "string"
        }
      ],
      "name": "createPreAccomplishment",
      "outputs": [],
      "stateMutability": "nonpayable",
      "type": "function"
    },
    {
      "inputs": [
        {
          "internalType": "uint256",
          "name": "opportunityId",
          "type": "uint256"
        },
        {
          "internalType": "address",
          "name": "beneficiaryAddress",
          "type": "address"
        }
      ],
      "name": "getApplication",
      "outputs": [
        {
          "internalType": "uint256",
          "name": "",
          "type": "uint256"
        },
        {
          "internalType": "uint256",
          "name": "",
          "type": "uint256"
        },
        {
          "internalType": "uint256",
          "name": "",
          "type": "uint256"
        },
        {
          "internalType": "uint256",
          "name": "",
          "type": "uint256"
        },
        {
          "internalType": "uint256",
          "name": "",
          "type": "uint256"
        },
        {
          "internalType": "uint256",
          "name": "",
          "type": "uint256"
        }
      ],
      "stateMutability": "view",
      "type": "function"
    },
    {
      "inputs": [],
      "name": "getBeneficiaries",
      "outputs": [
        {
          "internalType": "uint256[]",
          "name": "",
          "type": "uint256[]"
        },
        {
          "internalType": "address[]",
          "name": "",
          "type": "address[]"
        },
        {
          "internalType": "uint256[]",
          "name": "",
          "type": "uint256[]"
        },
        {
          "internalType": "uint256[]",
          "name": "",
          "type": "uint256[]"
        }
      ],
      "stateMutability": "view",
      "type": "function"
    },
    {
      "inputs": [
        {
          "internalType": "address",
          "name": "_account",
          "type": "address"
        }
      ],
      "name": "getBeneficiaryByAddress",
      "outputs": [
        {
          "internalType": "uint256",
          "name": "",
          "type": "uint256"
        },
        {
          "internalType": "address",
          "name": "",
          "type": "address"
        },
        {
          "internalType": "uint256",
          "name": "",
          "type": "uint256"
        },
        {
          "internalType": "uint256",
          "name": "",
          "type": "uint256"
        }
      ],
      "stateMutability": "view",
      "type": "function"
    },
    {
      "inputs": [
        {
          "internalType": "uint256",
          "name": "_id",
          "type": "uint256"
        }
      ],
      "name": "getBeneficiaryById",
      "outputs": [
        {
          "internalType": "uint256",
          "name": "",
          "type": "uint256"
        },
        {
          "internalType": "address",
          "name": "",
          "type": "address"
        },
        {
          "internalType": "uint256",
          "name": "",
          "type": "uint256"
        },
        {
          "internalType": "uint256",
          "name": "",
          "type": "uint256"
        }
      ],
      "stateMutability": "view",
      "type": "function"
    },
    {
      "inputs": [
        {
          "internalType": "address",
          "name": "account",
          "type": "address"
        }
      ],
      "name": "getBeneficiaryIdByAddress",
      "outputs": [
        {
          "internalType": "uint256",
          "name": "",
          "type": "uint256"
        }
      ],
      "stateMutability": "view",
      "type": "function"
    },
    {
      "inputs": [
        {
          "internalType": "address",
          "name": "account",
          "type": "address"
        }
      ],
      "name": "getBeneficiaryStatusByAddress",
      "outputs": [
        {
          "internalType": "uint256",
          "name": "",
          "type": "uint256"
        }
      ],
      "stateMutability": "view",
      "type": "function"
    },
    {
      "inputs": [],
      "name": "getOpportunities",
      "outputs": [
        {
          "internalType": "uint256[]",
          "name": "",
          "type": "uint256[]"
        },
        {
          "internalType": "string[]",
          "name": "",
          "type": "string[]"
        },
        {
          "internalType": "string[]",
          "name": "",
          "type": "string[]"
        },
        {
          "internalType": "string[]",
          "name": "",
          "type": "string[]"
        },
        {
          "internalType": "uint256[]",
          "name": "",
          "type": "uint256[]"
        },
        {
          "internalType": "uint256[]",
          "name": "",
          "type": "uint256[]"
        },
        {
          "internalType": "uint256[]",
          "name": "",
          "type": "uint256[]"
        }
      ],
      "stateMutability": "view",
      "type": "function"
    },
    {
      "inputs": [
        {
          "internalType": "uint256",
          "name": "opportunityId",
          "type": "uint256"
        }
      ],
      "name": "getOpportunityById",
      "outputs": [
        {
          "internalType": "uint256",
          "name": "",
          "type": "uint256"
        },
        {
          "internalType": "string",
          "name": "",
          "type": "string"
        },
        {
          "internalType": "string",
          "name": "",
          "type": "string"
        },
        {
          "internalType": "uint256",
          "name": "",
          "type": "uint256"
        },
        {
          "internalType": "uint256",
          "name": "",
          "type": "uint256"
        },
        {
          "internalType": "uint256",
          "name": "",
          "type": "uint256"
        },
        {
          "internalType": "uint256",
          "name": "",
          "type": "uint256"
        },
        {
          "internalType": "uint256",
          "name": "",
          "type": "uint256"
        }
      ],
      "stateMutability": "view",
      "type": "function"
    },
    {
      "inputs": [
        {
          "internalType": "address",
          "name": "_account",
          "type": "address"
        }
      ],
      "name": "getOrganizationByAddress",
      "outputs": [
        {
          "internalType": "uint256",
          "name": "",
          "type": "uint256"
        },
        {
          "internalType": "string",
          "name": "",
          "type": "string"
        },
        {
          "internalType": "address",
          "name": "",
          "type": "address"
        },
        {
          "internalType": "uint256",
          "name": "",
          "type": "uint256"
        },
        {
          "internalType": "uint256",
          "name": "",
          "type": "uint256"
        }
      ],
      "stateMutability": "view",
      "type": "function"
    },
    {
      "inputs": [
        {
          "internalType": "uint256",
          "name": "_id",
          "type": "uint256"
        }
      ],
      "name": "getOrganizationById",
      "outputs": [
        {
          "internalType": "uint256",
          "name": "",
          "type": "uint256"
        },
        {
          "internalType": "string",
          "name": "",
          "type": "string"
        },
        {
          "internalType": "address",
          "name": "",
          "type": "address"
        },
        {
          "internalType": "uint256",
          "name": "",
          "type": "uint256"
        },
        {
          "internalType": "uint256",
          "name": "",
          "type": "uint256"
        }
      ],
      "stateMutability": "view",
      "type": "function"
    },
    {
      "inputs": [
        {
          "internalType": "address",
          "name": "account",
          "type": "address"
        }
      ],
      "name": "getOrganizationIdByAddress",
      "outputs": [
        {
          "internalType": "uint256",
          "name": "",
          "type": "uint256"
        }
      ],
      "stateMutability": "view",
      "type": "function"
    },
    {
      "inputs": [],
      "name": "getOrganizations",
      "outputs": [
        {
          "internalType": "uint256[]",
          "name": "",
          "type": "uint256[]"
        },
        {
          "internalType": "string[]",
          "name": "",
          "type": "string[]"
        },
        {
          "internalType": "address[]",
          "name": "",
          "type": "address[]"
        },
        {
          "internalType": "uint256[]",
          "name": "",
          "type": "uint256[]"
        },
        {
          "internalType": "uint256[]",
          "name": "",
          "type": "uint256[]"
        }
      ],
      "stateMutability": "view",
      "type": "function"
    },
    {
      "inputs": [
        {
          "internalType": "uint256",
          "name": "applicationId",
          "type": "uint256"
        },
        {
          "internalType": "uint256",
          "name": "postAccomplishmentId",
          "type": "uint256"
        }
      ],
      "name": "getPostAccomplishment",
      "outputs": [
        {
          "components": [
            {
              "internalType": "uint256",
              "name": "id",
              "type": "uint256"
            },
            {
              "internalType": "uint256",
              "name": "requirementId",
              "type": "uint256"
            },
            {
              "internalType": "uint256",
              "name": "accomplishDate",
              "type": "uint256"
            },
            {
              "internalType": "uint256",
              "name": "accomplishCategory",
              "type": "uint256"
            },
            {
              "internalType": "string",
              "name": "accomplishValue",
              "type": "string"
            }
          ],
          "internalType": "struct AkasifyCoreContract.Accomplishment",
          "name": "_accomplishment",
          "type": "tuple"
        }
      ],
      "stateMutability": "view",
      "type": "function"
    },
    {
      "inputs": [
        {
          "internalType": "uint256",
          "name": "opportunityId",
          "type": "uint256"
        }
      ],
      "name": "getPostRequirementsByOpportunityId",
      "outputs": [
        {
          "internalType": "uint256[]",
          "name": "",
          "type": "uint256[]"
        },
        {
          "internalType": "uint256[]",
          "name": "",
          "type": "uint256[]"
        },
        {
          "internalType": "uint256[]",
          "name": "",
          "type": "uint256[]"
        },
        {
          "internalType": "string[]",
          "name": "",
          "type": "string[]"
        }
      ],
      "stateMutability": "view",
      "type": "function"
    },
    {
      "inputs": [
        {
          "internalType": "uint256",
          "name": "applicationId",
          "type": "uint256"
        },
        {
          "internalType": "uint256",
          "name": "preAccomplishmentId",
          "type": "uint256"
        }
      ],
      "name": "getPreAccomplishment",
      "outputs": [
        {
          "components": [
            {
              "internalType": "uint256",
              "name": "id",
              "type": "uint256"
            },
            {
              "internalType": "uint256",
              "name": "requirementId",
              "type": "uint256"
            },
            {
              "internalType": "uint256",
              "name": "accomplishDate",
              "type": "uint256"
            },
            {
              "internalType": "uint256",
              "name": "accomplishCategory",
              "type": "uint256"
            },
            {
              "internalType": "string",
              "name": "accomplishValue",
              "type": "string"
            }
          ],
          "internalType": "struct AkasifyCoreContract.Accomplishment",
          "name": "_accomplishment",
          "type": "tuple"
        }
      ],
      "stateMutability": "view",
      "type": "function"
    },
    {
      "inputs": [
        {
          "internalType": "uint256",
          "name": "opportunityId",
          "type": "uint256"
        }
      ],
      "name": "getPreRequirementsByOpportunityId",
      "outputs": [
        {
          "internalType": "uint256[]",
          "name": "",
          "type": "uint256[]"
        },
        {
          "internalType": "uint256[]",
          "name": "",
          "type": "uint256[]"
        },
        {
          "internalType": "uint256[]",
          "name": "",
          "type": "uint256[]"
        },
        {
          "internalType": "string[]",
          "name": "",
          "type": "string[]"
        }
      ],
      "stateMutability": "view",
      "type": "function"
    },
    {
      "inputs": [
        {
          "internalType": "address",
          "name": "account",
          "type": "address"
        }
      ],
      "name": "getRole",
      "outputs": [
        {
          "internalType": "string",
          "name": "",
          "type": "string"
        }
      ],
      "stateMutability": "view",
      "type": "function"
    },
    {
      "inputs": [
        {
          "internalType": "address",
          "name": "account",
          "type": "address"
        }
      ],
      "name": "isActiveBeneficiary",
      "outputs": [
        {
          "internalType": "bool",
          "name": "",
          "type": "bool"
        }
      ],
      "stateMutability": "view",
      "type": "function"
    },
    {
      "inputs": [
        {
          "internalType": "address",
          "name": "account",
          "type": "address"
        }
      ],
      "name": "isBeneficiary",
      "outputs": [
        {
          "internalType": "bool",
          "name": "",
          "type": "bool"
        }
      ],
      "stateMutability": "view",
      "type": "function"
    },
    {
      "inputs": [
        {
          "internalType": "address",
          "name": "account",
          "type": "address"
        }
      ],
      "name": "isOrganization",
      "outputs": [
        {
          "internalType": "bool",
          "name": "",
          "type": "bool"
        }
      ],
      "stateMutability": "view",
      "type": "function"
    },
    {
      "inputs": [],
      "name": "nextApplicationId",
      "outputs": [
        {
          "internalType": "uint256",
          "name": "",
          "type": "uint256"
        }
      ],
      "stateMutability": "view",
      "type": "function"
    },
    {
      "inputs": [],
      "name": "nextBeneficiaryId",
      "outputs": [
        {
          "internalType": "uint256",
          "name": "",
          "type": "uint256"
        }
      ],
      "stateMutability": "view",
      "type": "function"
    },
    {
      "inputs": [],
      "name": "nextOpportunityId",
      "outputs": [
        {
          "internalType": "uint256",
          "name": "",
          "type": "uint256"
        }
      ],
      "stateMutability": "view",
      "type": "function"
    },
    {
      "inputs": [],
      "name": "nextOrganizationId",
      "outputs": [
        {
          "internalType": "uint256",
          "name": "",
          "type": "uint256"
        }
      ],
      "stateMutability": "view",
      "type": "function"
    },
    {
      "inputs": [
        {
          "internalType": "uint256",
          "name": "",
          "type": "uint256"
        }
      ],
      "name": "opportunities",
      "outputs": [
        {
          "internalType": "uint256",
          "name": "id",
          "type": "uint256"
        },
        {
          "internalType": "uint256",
          "name": "organizationId",
          "type": "uint256"
        },
        {
          "internalType": "string",
          "name": "name",
          "type": "string"
        },
        {
          "internalType": "string",
          "name": "description",
          "type": "string"
        },
        {
          "internalType": "uint256",
          "name": "preRequirementsDeadline",
          "type": "uint256"
        },
        {
          "internalType": "uint256",
          "name": "postRequirementsDeadline",
          "type": "uint256"
        },
        {
          "internalType": "uint256",
          "name": "creationDate",
          "type": "uint256"
        },
        {
          "internalType": "uint256",
          "name": "lastUpdate",
          "type": "uint256"
        },
        {
          "internalType": "uint256",
          "name": "status",
          "type": "uint256"
        },
        {
          "internalType": "uint256",
          "name": "nextPreRequirementId",
          "type": "uint256"
        },
        {
          "internalType": "uint256",
          "name": "nextPostRequirementId",
          "type": "uint256"
        }
      ],
      "stateMutability": "view",
      "type": "function"
    },
    {
      "inputs": [],
      "name": "registerBeneficiary",
      "outputs": [],
      "stateMutability": "nonpayable",
      "type": "function"
    },
    {
      "inputs": [
        {
          "internalType": "address payable",
          "name": "account",
          "type": "address"
        },
        {
          "internalType": "uint256",
          "name": "status",
          "type": "uint256"
        }
      ],
      "name": "registerBeneficiaryByAdmin",
      "outputs": [],
      "stateMutability": "nonpayable",
      "type": "function"
    },
    {
      "inputs": [
        {
          "internalType": "string",
          "name": "name",
          "type": "string"
        },
        {
          "internalType": "address payable",
          "name": "account",
          "type": "address"
        },
        {
          "internalType": "uint256",
          "name": "status",
          "type": "uint256"
        }
      ],
      "name": "registerOrganizationByAdmin",
      "outputs": [
        {
          "internalType": "uint256",
          "name": "",
          "type": "uint256"
        }
      ],
      "stateMutability": "nonpayable",
      "type": "function"
    },
    {
      "inputs": [
        {
          "internalType": "uint256",
          "name": "applicationId",
          "type": "uint256"
        },
        {
          "internalType": "uint256",
          "name": "status",
          "type": "uint256"
        }
      ],
      "name": "updateApplicationStatus",
      "outputs": [],
      "stateMutability": "nonpayable",
      "type": "function"
    },
    {
      "inputs": [
        {
          "internalType": "uint256",
          "name": "opportunityId",
          "type": "uint256"
        },
        {
          "internalType": "uint256",
          "name": "status",
          "type": "uint256"
        }
      ],
      "name": "updateOpportunityStatus",
      "outputs": [],
      "stateMutability": "nonpayable",
      "type": "function"
    }
  ],
  "bytecode": "0x60806040523480156200001157600080fd5b5060405162004a6838038062004a6883398101604081905262000034916200005a565b600880546001600160a01b0319166001600160a01b03929092169190911790556200008a565b6000602082840312156200006c578081fd5b81516001600160a01b038116811462000083578182fd5b9392505050565b6149ce806200009a6000396000f3fe608060405234801561001057600080fd5b506004361061021c5760003560e01c8063957abe0b11610125578063c821b4fb116100ad578063df19ce4d1161007c578063df19ce4d14610502578063dfefadff14610515578063eadd2f611461053e578063f851a44014610551578063fcfb8bb2146105665761021c565b8063c821b4fb146104c1578063cbdbc9a6146104d4578063cfd664d6146104e7578063d2830de3146104fa5761021c565b80639d19b226116100f45780639d19b22614610433578063aa0a57ab14610446578063acd6c98f14610469578063aed35ccc14610493578063b1ce8eab146104ae5761021c565b8063957abe0b146103cd57806395c32445146103ed5780639754a3a8146103f5578063980770311461040e5761021c565b80635825271a116101a8578063706f48b111610177578063706f48b11461035557806371e0e09e146103685780637a47523b1461037b5780638c4be5eb146103a2578063913b722c146103b55761021c565b80635825271a14610314578063625338cb14610327578063635c54551461032f5780636e46cc4e146103425761021c565b80633859305e116101ef5780633859305e146102a357806344276733146102ab5780634bcaaa01146102cb5780634f4e4534146102ee5780635080d5fb146103015761021c565b80631283ca701461022157806327f9e105146102365780632832163f1461025f578063292719d314610283575b600080fd5b61023461022f366004613a6c565b61056e565b005b61024961024436600461387c565b61073f565b6040516102569190613e64565b60405180910390f35b61027261026d36600461387c565b6107a6565b604051610256959493929190614777565b61029661029136600461387c565b610949565b604051610256919061474a565b610296610997565b6102be6102b936600461387c565b61099d565b6040516102569190613e6f565b6102de6102d9366004613a6c565b610a73565b6040516102569493929190613e18565b6102346102fc366004613ab3565b610d28565b61029661030f36600461387c565b610f2f565b610234610322366004613921565b610f9b565b61029661139b565b61027261033d366004613a6c565b6113a1565b61029661035036600461387c565b6114d4565b610234610363366004613ab3565b611542565b61023461037636600461389f565b611741565b61038e610389366004613a6c565b611818565b6040516102569897969594939291906147b6565b6102de6103b0366004613a6c565b6119a7565b6103bd611c48565b6040516102569493929190613cc2565b6103e06103db366004613af7565b611e63565b60405161025691906146ff565b610234611f7d565b6103fd61207d565b604051610256959493929190613d19565b61042161041c366004613a84565b6123b9565b604051610256969594939291906148c2565b61024961044136600461387c565b612723565b610459610454366004613a6c565b612764565b6040516102569493929190614753565b61047c610477366004613a6c565b6127c8565b6040516102569b9a99989796959493929190614852565b61049b61292b565b6040516102569796959493929190613d84565b6102496104bc36600461387c565b612e08565b6103e06104cf366004613af7565b612e67565b6104596104e236600461387c565b612e94565b6102346104f5366004613af7565b612f3e565b61029661317a565b6102966105103660046138ca565b613180565b610528610523366004613a6c565b613258565b6040516102569a999897969594939291906148ea565b61023461054c366004613af7565b6132ac565b61055961357d565b6040516102569190613cae565b61029661358c565b6000818152600460205260409020600801546002146105a85760405162461bcd60e51b815260040161059f90614560565b60405180910390fd5b60075460008181526006602052604090209081556001018190556105cb33610949565b60058054600090815260066020819052604080832060020194909455600780548352848320600301839055805483528483206004018390558054835284832090930182905582548252838220018190558154815282812042908301819055825482528382206008015590548152206001600990910155610649613592565b600080825260208083018281524260408086019182526001606087018181528251808701845287815260808901908152600754885260068752928720600a018054808401825590885296869020885160059098020196875593519086015590516002850155905160038401555180518493926106cc9260048501929101906135c1565b505060078054600090815260066020526040808220600501805460019081019091559254808352918190209092015491517f4f1d11d7514d07b07aae80054a59f900905d1b462fdc43d033043ced6712d027935061072a9290614844565b60405180910390a15050600780546001019055565b600080805b60015481101561079d576000818152602081905260409020600101546001600160a01b03858116911614801561078b57506000818152602081905260409020600390810154145b1561079557600191505b600101610744565b5090505b919050565b60006060818080805b600354811015610922576107c161363f565b600260008381526020019081526020016000206040518060a001604052908160008201548152602001600182018054600181600116156101000203166002900480601f0160208091040260200160405190810160405280929190818152602001828054600181600116156101000203166002900480156108825780601f1061085757610100808354040283529160200191610882565b820191906000526020600020905b81548152906001019060200180831161086557829003601f168201915b505050505081526020016002820160009054906101000a90046001600160a01b03166001600160a01b03166001600160a01b03168152602001600382015481526020016004820154815250509050876001600160a01b031681604001516001600160a01b03161415610919578051602082015160408301516060840151608090940151929950909750955090935091506109409050565b506001016107af565b50506040805160208101909152600080825294509250839150819050805b91939590929450565b600080805b60015481101561079d576000818152602081905260409020600101546001600160a01b038581169116141561098f5760008181526020819052604090205491505b60010161094e565b60015481565b6008546060906001600160a01b03838116911614156109d8575060408051808201909152600581526430b236b4b760d91b60208201526107a1565b6109e182612e08565b151560011415610a14575060408051808201909152600c81526b37b933b0b734bd30ba34b7b760a11b60208201526107a1565b610a1d82612723565b151560011415610a4f575060408051808201909152600b81526a62656e656669636961727960a81b60208201526107a1565b506040805180820190915260078152663b34b9b4ba37b960c91b60208201526107a1565b6000818152600460205260409020600a81015460609182918291829182906001600160401b0381118015610aa657600080fd5b50604051908082528060200260200182016040528015610ad0578160200160208202803683370190505b509050606082600a01546001600160401b0381118015610aef57600080fd5b50604051908082528060200260200182016040528015610b19578160200160208202803683370190505b509050606083600a01546001600160401b0381118015610b3857600080fd5b50604051908082528060200260200182016040528015610b62578160200160208202803683370190505b509050606084600a01546001600160401b0381118015610b8157600080fd5b50604051908082528060200260200182016040528015610bb557816020015b6060815260200190600190039081610ba05790505b50905060005b85600a0154811015610d1457610bcf613677565b6000828152600c88016020908152604091829020825160808101845281548152600180830154828501526002808401548387015260038401805487519381161561010002600019011691909104601f810186900486028301860190965285825291949293606086019391929190830182828015610c8d5780601f10610c6257610100808354040283529160200191610c8d565b820191906000526020600020905b815481529060010190602001808311610c7057829003601f168201915b50505050508152505090508060000151868381518110610ca957fe5b6020026020010181815250508060200151858381518110610cc657fe5b6020026020010181815250508060400151848381518110610ce357fe5b6020026020010181815250508060600151838381518110610d0057fe5b602090810291909101015250600101610bbb565b5092975090955093509150505b9193509193565b6000610d3333612723565b905080610d525760405162461bcd60e51b815260040161059f9061428d565b600083815260066020526040902060090154600114610d835760405162461bcd60e51b815260040161059f9061434b565b6000838152600660208181526040808420815160a081018352600580830154825294845260038083015482860190815242948301948552600260608401818152608085018c8152600a909601805460018181018355918c529a89902086519b909a02909901998a5591519789019790975593519587019590955591519385019390935591518051929392610e1d92600485019201906135c1565b505050600083815260066020908152604080832060038101546001918201548552600490935292206009015491011015610f135760008381526006602081815260408084206005808201805460019081019182905560038085018054830190819055865160a0810188529384529787528287019788524295830195865260608301828152608084018c8152600a90960180548085018255908b529988902084519a90950290940198895596519088015592516002870155519385019390935591518051929392610ef392600485019201906135c1565b505050600083815260066020526040902060050180546001019055610f2a565b600083815260066020526040902060026009909101555b505050565b600080805b60035481101561079d57600081815260026020819052604090912001546001600160a01b038581169116148015610f7c57506000818152600260205260409020600401546003145b15610f935760008181526002602052604090205491505b600101610f34565b6000610fa633612e08565b905080610fc55760405162461bcd60e51b815260040161059f90613fcf565b60008b5111610fe65760405162461bcd60e51b815260040161059f906141ee565b60008a51116110075760405162461bcd60e51b815260040161059f906143a8565b85518751148015611019575084518651145b6110355760405162461bcd60e51b815260040161059f90614191565b82518451148015611047575081518351145b6110635760405162461bcd60e51b815260040161059f906142b7565b60055460008181526004602052604090205561107e33610f2f565b6005805460009081526004602090815260408083206001019490945591548152919091208c516110b6926002909201918e01906135c1565b5060055460009081526004602090815260409091208b516110df926003909201918d01906135c1565b50600580546000908152600460208190526040808320426006909101819055845484528184209092018d90558354835280832084018c905583548352808320600701919091559154815290812060016008909101555b875181101561123157604051806080016040528060046000600554815260200190815260200160002060090154815260200189838151811061117357fe5b6020026020010151815260200188838151811061118c57fe5b602002602001015181526020018783815181106111a557fe5b602090810291909101810151909152600554600090815260048252604080822060098101548352600b0183529081902083518155838301516001820155908301516002820155606083015180519192611206926003850192909101906135c1565b5050600554600090815260046020526040902060090180546001908101909155919091019050611135565b5060005b8451811015611331576040518060800160405280600460006005548152602001908152602001600020600a0154815260200186838151811061127357fe5b6020026020010151815260200185838151811061128c57fe5b602002602001015181526020018483815181106112a557fe5b6020908102919091018101519091526005546000908152600482526040808220600a8101548352600c0183529081902083518155838301516001820155908301516002820155606083015180519192611306926003850192909101906135c1565b50506005546000908152600460205260409020600a0180546001908101909155919091019050611235565b506005546000818152600460205260409081902090517f93cac2d03b387f53f5dc8a5055164c7664b547195c59088475e4c704069d96ad9261137d92909160028201916003019061480f565b60405180910390a15050600580546001019055505050505050505050565b60075481565b6000606060008060006113b261363f565b600260008881526020019081526020016000206040518060a001604052908160008201548152602001600182018054600181600116156101000203166002900480601f0160208091040260200160405190810160405280929190818152602001828054600181600116156101000203166002900480156114735780601f1061144857610100808354040283529160200191611473565b820191906000526020600020905b81548152906001019060200180831161145657829003601f168201915b505050918352505060028201546001600160a01b031660208083019190915260038301546040808401919091526004909301546060928301528351908401519284015191840151608090940151909b929a5090985091965090945092505050565b600080805b60015481101561079d576000818152602081905260409020600101546001600160a01b03858116911614801561152057506000818152602081905260409020600390810154145b1561153a5760008181526020819052604090206003015491505b6001016114d9565b600061154d33612723565b90508061156c5760405162461bcd60e51b815260040161059f9061428d565b60008381526006602052604090206009015460051461159d5760405162461bcd60e51b815260040161059f90614057565b6000838152600660208181526040808420815160a08101835281850154815293835260048082015485850190815242938601938452600260608701818152608088018b8152600b909501805460018181018355918b529988902089516005909b0201998a5592519289019290925593519387019390935591516003860155518051939493611633939285019291909101906135c1565b5050506000838152600660209081526040808320600480820154600192830154865293529220600a015491011015611728576000838152600660208181526040808420808401805460019081019182905560048084018054830190819055855160a0810187529384529686528286019687524294830194855260608301828152608084018b8152600b90950180548085018255908a529887902084516005909a02019889559651918801919091559251600287015593516003860155518051939493611707939285019291909101906135c1565b50505060008381526006602081905260409091200180546001019055610f2a565b5050600090815260066020819052604090912060090155565b6008546001600160a01b0316331461176b5760405162461bcd60e51b815260040161059f9061416d565b60408051608081018252600180548083526001600160a01b03868116602080860191825242868801908152606087018981526000958652918590529387902095518655905185850180546001600160a01b03191691909316179091559051600284015551600390920191909155805481019055517f67bf623e5c0c95725ab7b0d181e969032a96122e243710f76311bae55f89df719061180c908490613cae565b60405180910390a15050565b6000606080600080600080600080600460008b815260200190815260200160002090508060010154816002018260030183600401548460050154856006015486600701548760080154868054600181600116156101000203166002900480601f0160208091040260200160405190810160405280929190818152602001828054600181600116156101000203166002900480156118f65780601f106118cb576101008083540402835291602001916118f6565b820191906000526020600020905b8154815290600101906020018083116118d957829003601f168201915b5050895460408051602060026001851615610100026000190190941693909304601f8101849004840282018401909252818152959c508b9450925084019050828280156119845780601f1061195957610100808354040283529160200191611984565b820191906000526020600020905b81548152906001019060200180831161196757829003601f168201915b505050505095509850985098509850985098509850985050919395975091939597565b6000818152600460205260409020600981015460609182918291829182906001600160401b03811180156119da57600080fd5b50604051908082528060200260200182016040528015611a04578160200160208202803683370190505b509050606082600901546001600160401b0381118015611a2357600080fd5b50604051908082528060200260200182016040528015611a4d578160200160208202803683370190505b509050606083600901546001600160401b0381118015611a6c57600080fd5b50604051908082528060200260200182016040528015611a96578160200160208202803683370190505b509050606084600901546001600160401b0381118015611ab557600080fd5b50604051908082528060200260200182016040528015611ae957816020015b6060815260200190600190039081611ad45790505b50905060005b8560090154811015610d1457611b03613677565b6000828152600b88016020908152604091829020825160808101845281548152600180830154828501526002808401548387015260038401805487519381161561010002600019011691909104601f810186900486028301860190965285825291949293606086019391929190830182828015611bc15780601f10611b9657610100808354040283529160200191611bc1565b820191906000526020600020905b815481529060010190602001808311611ba457829003601f168201915b50505050508152505090508060000151868381518110611bdd57fe5b6020026020010181815250508060200151858381518110611bfa57fe5b6020026020010181815250508060400151848381518110611c1757fe5b6020026020010181815250508060600151838381518110611c3457fe5b602090810291909101015250600101611aef565b60608060608060606001546001600160401b0381118015611c6857600080fd5b50604051908082528060200260200182016040528015611c92578160200160208202803683370190505b50905060606001546001600160401b0381118015611caf57600080fd5b50604051908082528060200260200182016040528015611cd9578160200160208202803683370190505b50905060606001546001600160401b0381118015611cf657600080fd5b50604051908082528060200260200182016040528015611d20578160200160208202803683370190505b50905060606001546001600160401b0381118015611d3d57600080fd5b50604051908082528060200260200182016040528015611d67578160200160208202803683370190505b50905060005b600154811015611e5457611d7f61369f565b50600081815260208181526040918290208251608081018452815480825260018301546001600160a01b0316938201939093526002820154938101939093526003015460608301528651879084908110611dd557fe5b6020026020010181815250508060200151858381518110611df257fe5b60200260200101906001600160a01b031690816001600160a01b0316815250508060400151848381518110611e2357fe5b6020026020010181815250508060600151838381518110611e4057fe5b602090810291909101015250600101611d6d565b50929791965094509092509050565b611e6b613592565b611e73613592565b6000848152600660205260409020600b01805484908110611e9057fe5b90600052602060002090600502016040518060a001604052908160008201548152602001600182015481526020016002820154815260200160038201548152602001600482018054600181600116156101000203166002900480601f016020809104026020016040519081016040528092919081815260200182805460018160011615610100020316600290048015611f6a5780601f10611f3f57610100808354040283529160200191611f6a565b820191906000526020600020905b815481529060010190602001808311611f4d57829003601f168201915b5050509190925250919695505050505050565b6008546001600160a01b0316331415611fa85760405162461bcd60e51b815260040161059f906145a5565b6000611fb333612e08565b90508015611fd35760405162461bcd60e51b815260040161059f906144b8565b6040805160808101825260018054808352336020808501828152428688019081526003606088018181526000968752938690529488902096518755905186860180546001600160a01b0319166001600160a01b0390921691909117905551600286015551939091019290925580548101905590517f67bf623e5c0c95725ab7b0d181e969032a96122e243710f76311bae55f89df719161207291613cae565b60405180910390a150565b6060806060806060806003546001600160401b038111801561209e57600080fd5b506040519080825280602002602001820160405280156120c8578160200160208202803683370190505b50905060606003546001600160401b03811180156120e557600080fd5b5060405190808252806020026020018201604052801561211957816020015b60608152602001906001900390816121045790505b50905060606003546001600160401b038111801561213657600080fd5b50604051908082528060200260200182016040528015612160578160200160208202803683370190505b50905060606003546001600160401b038111801561217d57600080fd5b506040519080825280602002602001820160405280156121a7578160200160208202803683370190505b50905060606003546001600160401b03811180156121c457600080fd5b506040519080825280602002602001820160405280156121ee578160200160208202803683370190505b50905060005b6003548110156123a75761220661363f565b600260008381526020019081526020016000206040518060a001604052908160008201548152602001600182018054600181600116156101000203166002900480601f0160208091040260200160405190810160405280929190818152602001828054600181600116156101000203166002900480156122c75780601f1061229c576101008083540402835291602001916122c7565b820191906000526020600020905b8154815290600101906020018083116122aa57829003601f168201915b505050918352505060028201546001600160a01b0316602082015260038201546040820152600490910154606090910152805188519192509088908490811061230c57fe5b602002602001018181525050806020015186838151811061232957fe5b6020026020010181905250806040015185838151811061234557fe5b60200260200101906001600160a01b031690816001600160a01b031681525050806060015184838151811061237657fe5b602002602001018181525050806080015183838151811061239357fe5b6020908102919091010152506001016121f4565b50939992985090965094509092509050565b60008060008060008060006123cd88610949565b90506123d76136d0565b60005b6007548110156126ee576000818152600660205260409020600101548b148015612414575060008181526006602052604090206002015483145b156126e6576000818152600660208181526040808420815161018081018352815481526001820154818501526002820154818401526003820154606082015260048201546080820152600582015460a08201529381015460c0850152600781015460e085015260088101546101008501526009810154610120850152600a81018054835181860281018601909452808452949591946101408701949192909184015b828210156125b257838290600052602060002090600502016040518060a001604052908160008201548152602001600182015481526020016002820154815260200160038201548152602001600482018054600181600116156101000203166002900480601f01602080910402602001604051908101604052809291908181526020018280546001816001161561010002031660029004801561259a5780601f1061256f5761010080835404028352916020019161259a565b820191906000526020600020905b81548152906001019060200180831161257d57829003601f168201915b505050505081525050815260200190600101906124b6565b505050508152602001600b8201805480602002602001604051908101604052809291908181526020016000905b828210156126db57838290600052602060002090600502016040518060a001604052908160008201548152602001600182015481526020016002820154815260200160038201548152602001600482018054600181600116156101000203166002900480601f0160208091040260200160405190810160405280929190818152602001828054600181600116156101000203166002900480156126c35780601f10612698576101008083540402835291602001916126c3565b820191906000526020600020905b8154815290600101906020018083116126a657829003601f168201915b505050505081525050815260200190600101906125df565b505050508152505091505b6001016123da565b5080516020820151604083015160e084015161010085015161012090950151939e929d50909b50995091975095509350505050565b600080805b60015481101561079d576000818152602081905260409020600101546001600160a01b038581169116141561275c57600191505b600101612728565b60008060008061277261369f565b5050506000928352505060208181526040918290208251608081018452815480825260018301546001600160a01b0316938201849052600283015494820185905260039092015460609091018190529093919291565b60046020908152600091825260409182902080546001808301546002808501805488519481161561010002600019011691909104601f8101879004870284018701909752868352929590949192918301828280156128675780601f1061283c57610100808354040283529160200191612867565b820191906000526020600020905b81548152906001019060200180831161284a57829003601f168201915b5050505060038301805460408051602060026001851615610100026000190190941693909304601f81018490048402820184019092528181529495949350908301828280156128f75780601f106128cc576101008083540402835291602001916128f7565b820191906000526020600020905b8154815290600101906020018083116128da57829003601f168201915b50505050509080600401549080600501549080600601549080600701549080600801549080600901549080600a015490508b565b6060806060806060806060806005546001600160401b038111801561294f57600080fd5b50604051908082528060200260200182016040528015612979578160200160208202803683370190505b50905060606005546001600160401b038111801561299657600080fd5b506040519080825280602002602001820160405280156129ca57816020015b60608152602001906001900390816129b55790505b50905060606005546001600160401b03811180156129e757600080fd5b50604051908082528060200260200182016040528015612a1b57816020015b6060815260200190600190039081612a065790505b50905060606005546001600160401b0381118015612a3857600080fd5b50604051908082528060200260200182016040528015612a6c57816020015b6060815260200190600190039081612a575790505b50905060606005546001600160401b0381118015612a8957600080fd5b50604051908082528060200260200182016040528015612ab3578160200160208202803683370190505b50905060606005546001600160401b0381118015612ad057600080fd5b50604051908082528060200260200182016040528015612afa578160200160208202803683370190505b50905060606005546001600160401b0381118015612b1757600080fd5b50604051908082528060200260200182016040528015612b41578160200160208202803683370190505b50905060005b600554811015612df1576000818152600460205260409020805489518a9084908110612b6f57fe5b60200260200101818152505060026000826001015481526020019081526020016000206001018054600181600116156101000203166002900480601f016020809104026020016040519081016040528092919081815260200182805460018160011615610100020316600290048015612c295780601f10612bfe57610100808354040283529160200191612c29565b820191906000526020600020905b815481529060010190602001808311612c0c57829003601f168201915b5050505050888381518110612c3a57fe5b60209081029190910181019190915260028281018054604080516001831615610100026000190190921693909304601f810185900485028201850190935282815292909190830182828015612cd05780601f10612ca557610100808354040283529160200191612cd0565b820191906000526020600020905b815481529060010190602001808311612cb357829003601f168201915b5050505050878381518110612ce157fe5b60209081029190910181019190915260038201805460408051601f6002600019610100600187161502019094169390930492830185900485028101850190915281815292830182828015612d765780601f10612d4b57610100808354040283529160200191612d76565b820191906000526020600020905b815481529060010190602001808311612d5957829003601f168201915b5050505050868381518110612d8757fe5b60200260200101819052508060040154858381518110612da357fe5b6020026020010181815250508060050154848381518110612dc057fe5b6020026020010181815250508060080154838381518110612ddd57fe5b602090810291909101015250600101612b47565b50959d949c50929a50909850965094509092509050565b600080805b60035481101561079d57600081815260026020819052604090912001546001600160a01b038581169116148015612e5557506000818152600260205260409020600401546003145b15612e5f57600191505b600101612e0d565b612e6f613592565b612e77613592565b6000848152600660205260409020600a01805484908110611e9057fe5b6000808080805b600154811015612f2c57612ead61369f565b506000818152602081815260409182902082516080810184528154815260018201546001600160a01b0390811693820184905260028301549482019490945260039091015460608201529188161415612f235780516020820151604083015160609093015191975095509093509150610d219050565b50600101612e9b565b50600095869550859450849350915050565b6000612f4933612e08565b90506000612f5633612723565b90508180612f615750805b612f7d5760405162461bcd60e51b815260040161059f90614314565b6000848152600660205260409020600901548015801590612f9f575060078111155b612fbb5760405162461bcd60e51b815260040161059f90613f3b565b83600214156130095780600114612fe45760405162461bcd60e51b815260040161059f906140b4565b612fed33612723565b6130095760405162461bcd60e51b815260040161059f90613ffa565b83600314806130185750836004145b15613062578060021461303d5760405162461bcd60e51b815260040161059f90614215565b61304633612e08565b6130625760405162461bcd60e51b815260040161059f90614644565b83600514156130bb57806003148061307a5750806004145b6130965760405162461bcd60e51b815260040161059f906145c8565b61309f33612e08565b6130bb5760405162461bcd60e51b815260040161059f90614644565b836006141561310957806005146130e45760405162461bcd60e51b815260040161059f9061443d565b6130ed33612723565b6131095760405162461bcd60e51b815260040161059f90613ffa565b83600714806131185750836008145b15613162578060061461313d5760405162461bcd60e51b815260040161059f906146a1565b61314633612e08565b6131625760405162461bcd60e51b815260040161059f90614644565b50505060009182526006602052604090912060090155565b60035481565b6008546000906001600160a01b031633146131ad5760405162461bcd60e51b815260040161059f9061416d565b6003546040805160a08101825282815260208082018881526001600160a01b038816838501524260608401526080830187905260008581526002835293909320825181559251805192939261320892600185019201906135c1565b5060408201516002820180546001600160a01b0319166001600160a01b03909216919091179055606082015160038083019190915560809092015160049091015580546001019055949350505050565b6006602052806000526040600020600091509050806000015490806001015490806002015490806003015490806004015490806005015490806006015490806007015490806008015490806009015490508a565b60006132b733612e08565b9050806132d65760405162461bcd60e51b815260040161059f90613fcf565b6000821180156132e7575060078211155b6133035760405162461bcd60e51b815260040161059f906144e2565b816002141561333d5760008381526004602052604090206008015460011461333d5760405162461bcd60e51b815260040161059f90614519565b8160031415613377576000838152600460205260409020600801546002146133775760405162461bcd60e51b815260040161059f9061412a565b81600414156133b1576000838152600460205260409020600801546003146133b15760405162461bcd60e51b815260040161059f90613f72565b81600514156133ec57600083815260046020819052604090912060080154146133ec5760405162461bcd60e51b815260040161059f90613ecf565b816006141561352d576000838152600460205260409020600801546005146134265760405162461bcd60e51b815260040161059f90613e82565b60005b60075481101561352b5760008181526006602052604090206001015484141561352357600081815260066020526040902060090154600314156135235760008181526006602052604090206005600990910155613484613592565b60008082526020808301828152426040808601918252600160608701818152825180870184528781526080890190815289885260068752928720600b018054808401825590885296869020885160059098020196875593519086015590516002850155905160038401555180518493926135059260048501929101906135c1565b50505060008281526006602081905260409091200180546001019055505b600101613429565b505b8160071415613567576000838152600460205260409020600801546006146135675760405162461bcd60e51b815260040161059f906143d6565b5060009182526004602052604090912060080155565b6008546001600160a01b031681565b60055481565b6040518060a0016040528060008152602001600081526020016000815260200160008152602001606081525090565b828054600181600116156101000203166002900490600052602060002090601f016020900481019282601f1061360257805160ff191683800117855561362f565b8280016001018555821561362f579182015b8281111561362f578251825591602001919060010190613614565b5061363b929150613731565b5090565b6040518060a00160405280600081526020016060815260200160006001600160a01b0316815260200160008152602001600081525090565b6040518060800160405280600081526020016000815260200160008152602001606081525090565b60405180608001604052806000815260200160006001600160a01b0316815260200160008152602001600081525090565b6040518061018001604052806000815260200160008152602001600081526020016000815260200160008152602001600081526020016000815260200160008152602001600081526020016000815260200160608152602001606081525090565b61374b91905b8082111561363b5760008155600101613737565b90565b600082601f83011261375e578081fd5b813561377161376c82614955565b61492f565b818152915060208083019084810160005b848110156137ab57613799888484358a0101613814565b84529282019290820190600101613782565b505050505092915050565b600082601f8301126137c6578081fd5b81356137d461376c82614955565b8181529150602080830190848101818402860182018710156137f557600080fd5b60005b848110156137ab578135845292820192908201906001016137f8565b600082601f830112613824578081fd5b81356001600160401b03811115613839578182fd5b61384c601f8201601f191660200161492f565b915080825283602082850101111561386357600080fd5b8060208401602084013760009082016020015292915050565b60006020828403121561388d578081fd5b813561389881614980565b9392505050565b600080604083850312156138b1578081fd5b82356138bc81614980565b946020939093013593505050565b6000806000606084860312156138de578081fd5b83356001600160401b038111156138f3578182fd5b6138ff86828701613814565b935050602084013561391081614980565b929592945050506040919091013590565b6000806000806000806000806000806101408b8d031215613940578586fd5b8a356001600160401b0380821115613956578788fd5b6139628e838f01613814565b9b5060208d0135915080821115613977578788fd5b6139838e838f01613814565b9a5060408d0135995060608d0135985060808d01359150808211156139a6578788fd5b6139b28e838f016137b6565b975060a08d01359150808211156139c7578687fd5b6139d38e838f016137b6565b965060c08d01359150808211156139e8578586fd5b6139f48e838f0161374e565b955060e08d0135915080821115613a09578485fd5b613a158e838f016137b6565b94506101008d0135915080821115613a2b578384fd5b613a378e838f016137b6565b93506101208d0135915080821115613a4d578283fd5b50613a5a8d828e0161374e565b9150509295989b9194979a5092959850565b600060208284031215613a7d578081fd5b5035919050565b60008060408385031215613a96578182fd5b823591506020830135613aa881614980565b809150509250929050565b60008060408385031215613ac5578182fd5b8235915060208301356001600160401b03811115613ae1578182fd5b613aed85828601613814565b9150509250929050565b60008060408385031215613b09578182fd5b50508035926020909101359150565b6000815180845260208085019450808401835b83811015613b505781516001600160a01b031687529582019590820190600101613b2b565b509495945050505050565b60008282518085526020808601955080818302840101818601855b84811015613ba457601f19868403018952613b92838351613be0565b98840198925090830190600101613b76565b5090979650505050505050565b6000815180845260208085019450808401835b83811015613b5057815187529582019590820190600101613bc4565b60008151808452815b81811015613c0557602081850181015186830182015201613be9565b81811115613c165782602083870101525b50601f01601f19169290920160200192915050565b60008154600180821660008114613c495760018114613c6757613ca5565b60028304607f16865260ff1983166020870152604086019350613ca5565b60028304808752613c7786614974565b60005b82811015613c9b5781546020828b0101528482019150602081019050613c7a565b8801602001955050505b50505092915050565b6001600160a01b0391909116815260200190565b600060808252613cd56080830187613bb1565b8281036020840152613ce78187613b18565b8381036040850152613cf98187613bb1565b9150508281036060840152613d0e8185613bb1565b979650505050505050565b600060a08252613d2c60a0830188613bb1565b8281036020840152613d3e8188613b5b565b8381036040850152613d508188613b18565b9150508281036060840152613d658186613bb1565b8381036080850152613d778186613bb1565b9998505050505050505050565b600060e08252613d9760e083018a613bb1565b8281036020840152613da9818a613b5b565b8381036040850152613dbb818a613b5b565b9150508281036060840152613dd08188613b5b565b8381036080850152613de28188613bb1565b91505082810360a0840152613df78186613bb1565b83810360c0850152613e098186613bb1565b9b9a5050505050505050505050565b600060808252613e2b6080830187613bb1565b8281036020840152613e3d8187613bb1565b8381036040850152613e4f8187613bb1565b9150508281036060840152613d0e8185613b5b565b901515815260200190565b6000602082526138986020830184613be0565b6020808252602d908201527f6f70706f7274756e697479206d75737420626520696e20696e6974696174656460408201526c20666f722066696e616c697a6560981b606082015260800190565b60208082526046908201527f6f70706f7274756e697479206d75737420626520696e206170706c696361746960408201527f6f6e732073656c656374656420666f72206f70706f7274756e69747920696e696060820152651d1a585d195960d21b608082015260a00190565b6020808252601c908201527f6170706c69636174696f6e20737461747573206e6f742076616c696400000000604082015260600190565b60208082526037908201527f6f70706f7274756e697479206d75737420626520696e2072657669657720666f60408201527f72206170706c69636174696f6e732073656c6563746564000000000000000000606082015260800190565b60208082526011908201527037b7363c9037b933b0b734bd30ba34b7b760791b604082015260600190565b60208082526039908201527f6170706c69636174696f6e20737461747573206368616e6765206d757374206260408201527f652065786563757465642062792062656e656669636961727900000000000000606082015260800190565b6020808252603a908201527f6170706c69636174696f6e20686173206e6f74207374617274656420746f207260408201527f65636569766520706f73744163636f6d706c6973686d656e7473000000000000606082015260800190565b60208082526050908201527f6170706c69636174696f6e206d757374206265207072654163636f6d706c697360408201527f686d656e7473207374617274656420746f2062652066696e616c697a6520707260608201526f654163636f6d706c6973686d656e747360801b608082015260a00190565b60208082526023908201527f6f70706f7274756e697479206d757374206265206f70656e20666f722072657660408201526269657760e81b606082015260800190565b6020808252600a908201526937b7363c9030b236b4b760b11b604082015260600190565b60208082526037908201527f70726520726571756972656d656e742076616c756573206e756d626572206d7560408201527f73742068617665207468652073616d65206c656e677468000000000000000000606082015260800190565b6020808252600d908201526c6e616d6520697320656d70747960981b604082015260600190565b60208082526052908201527f6170706c69636174696f6e206d757374206265207072654163636f6d706c697360408201527f686d656e74732066696e616c697a656420746f206265206569746865722061706060820152711c1c9bdd9959081bdc881c995a9958dd195960721b608082015260a00190565b60208082526010908201526f6f6e6c792062656e656669636961727960801b604082015260600190565b60208082526038908201527f706f737420726571756972656d656e742076616c756573206e756d626572206d60408201527f7573742068617665207468652073616d65206c656e6774680000000000000000606082015260800190565b60208082526018908201527f6f6e6c7920616374697665206f7267616e697a6174696f6e0000000000000000604082015260600190565b60208082526039908201527f6170706c69636174696f6e20686173206e6f74207374617274656420746f207260408201527f656365697665207072654163636f6d706c6973686d656e747300000000000000606082015260800190565b6020808252601490820152736465736372697074696f6e20697320656d70747960601b604082015260600190565b60208082526041908201527f6f70706f7274756e697479206d7573742062652066696e616c697a656420666f60408201527f7220636c6f736520706f7374526571756972656d656e7420726563657074696f6060820152603760f91b608082015260a00190565b60208082526055908201527f6170706c69636174696f6e206d7573742068617665207374617274656420726560408201527f63656976696e6720706f73744163636f6d706c6973686d656e747320746f206660608201527434b730b634bd329034ba39903932b1b2b83a34b7b760591b608082015260a00190565b60208082526010908201526f3737ba1037b933b0b734bd30ba34b7b760811b604082015260600190565b6020808252601c908201527f6f70706f7274756e69747920737461747573206e6f742076616c696400000000604082015260600190565b60208082526027908201527f6f70706f7274756e697479206d75737420626520696e20647261667420746f2060408201526631329037b832b760c91b606082015260800190565b60208082526025908201527f6f70706f7274756e697479206e6f74206f70656e20666f72206170706c69636160408201526474696f6e7360d81b606082015260800190565b6020808252600990820152683737ba1030b236b4b760b91b604082015260600190565b60208082526056908201527f6170706c69636174696f6e206d7573742062652065697468657220617070726f60408201527f766564206f722072656a656374656420746f20737461727420726563656976696060820152756e6720706f73744163636f6d706c6973686d656e747360501b608082015260a00190565b6020808252603a908201527f6170706c69636174696f6e20737461747573206368616e6765206d757374206260408201527f65206578656375746564206279206f7267616e697a6174696f6e000000000000606082015260800190565b602080825260409082018190527f6170706c69636174696f6e20706f73744163636f6d706c6973686d656e747320908201527f6d7573742062652066696e616c697a656420746f2066696e616c697a65206974606082015260800190565b60006020825282516020830152602083015160408301526040830151606083015260608301516080830152608083015160a08084015261474260c0840182613be0565b949350505050565b90815260200190565b9384526001600160a01b039290921660208401526040830152606082015260800190565b600086825260a0602083015261479060a0830187613be0565b6001600160a01b0395909516604083015250606081019290925260809091015292915050565b60006101008a83528060208401526147d08184018b613be0565b83810360408501526147e2818b613be0565b6060850199909952505050608081019490945260a084019290925260c083015260e0909101529392505050565b6000848252606060208301526148286060830185613c2b565b828103604084015261483a8185613c2b565b9695505050505050565b918252602082015260400190565b60006101608d83528c60208401528060408401526148728184018d613be0565b8381036060850152614884818d613be0565b608085019b909b5250505060a081019690965260c086019490945260e085019290925261010084015261012083015261014090910152949350505050565b958652602086019490945260408501929092526060840152608083015260a082015260c00190565b998a5260208a019890985260408901969096526060880194909452608087019290925260a086015260c085015260e08401526101008301526101208201526101400190565b6040518181016001600160401b038111828210171561494d57600080fd5b604052919050565b60006001600160401b0382111561496a578081fd5b5060209081020190565b60009081526020902090565b6001600160a01b038116811461499557600080fd5b5056fea2646970667358221220f96c4c4db12a42752101231b4490fe2fc055837aa37aeb9018405676c34b62ec64736f6c63430006070033",
  "linkReferences": {},
  "deployedLinkReferences": {}
}