{
  "_format": "hh-sol-artifact-1",
  "contractName": "AkasifyCoreContract",
  "sourceName": "contracts/AkasifyCoreContract.sol",
  "abi": [
    {
      "inputs": [
        {
          "internalType": "address",
          "name": "_admin",
          "type": "address"
        }
      ],
      "stateMutability": "nonpayable",
      "type": "constructor"
    },
    {
      "anonymous": false,
      "inputs": [
        {
          "indexed": false,
          "internalType": "uint256",
          "name": "id",
          "type": "uint256"
        },
        {
          "indexed": false,
          "internalType": "uint256",
          "name": "opportunityId",
          "type": "uint256"
        }
      ],
      "name": "RegisterApplication",
      "type": "event"
    },
    {
      "anonymous": false,
      "inputs": [
        {
          "indexed": false,
          "internalType": "uint256",
          "name": "id",
          "type": "uint256"
        },
        {
          "indexed": false,
          "internalType": "uint256",
          "name": "requirementId",
          "type": "uint256"
        },
        {
          "indexed": false,
          "internalType": "uint256",
          "name": "applicationId",
          "type": "uint256"
        },
        {
          "indexed": false,
          "internalType": "uint256",
          "name": "opportunityId",
          "type": "uint256"
        }
      ],
      "name": "RegisterApplicationPostAccomplishment",
      "type": "event"
    },
    {
      "anonymous": false,
      "inputs": [
        {
          "indexed": false,
          "internalType": "uint256",
          "name": "id",
          "type": "uint256"
        },
        {
          "indexed": false,
          "internalType": "uint256",
          "name": "requirementId",
          "type": "uint256"
        },
        {
          "indexed": false,
          "internalType": "uint256",
          "name": "applicationId",
          "type": "uint256"
        },
        {
          "indexed": false,
          "internalType": "uint256",
          "name": "opportunityId",
          "type": "uint256"
        }
      ],
      "name": "RegisterApplicationPreAccomplishment",
      "type": "event"
    },
    {
      "anonymous": false,
      "inputs": [
        {
          "indexed": false,
          "internalType": "address",
          "name": "account",
          "type": "address"
        }
      ],
      "name": "RegisterBeneficiary",
      "type": "event"
    },
    {
      "anonymous": false,
      "inputs": [
        {
          "indexed": false,
          "internalType": "uint256",
          "name": "id",
          "type": "uint256"
        },
        {
          "indexed": false,
          "internalType": "string",
          "name": "name",
          "type": "string"
        },
        {
          "indexed": false,
          "internalType": "string",
          "name": "description",
          "type": "string"
        }
      ],
      "name": "RegisterOpportunity",
      "type": "event"
    },
    {
      "anonymous": false,
      "inputs": [
        {
          "indexed": false,
          "internalType": "uint256",
          "name": "id",
          "type": "uint256"
        },
        {
          "indexed": false,
          "internalType": "uint256",
          "name": "status",
          "type": "uint256"
        }
      ],
      "name": "UpdateApplicationStatus",
      "type": "event"
    },
    {
      "anonymous": false,
      "inputs": [
        {
          "indexed": false,
          "internalType": "uint256",
          "name": "id",
          "type": "uint256"
        },
        {
          "indexed": false,
          "internalType": "uint256",
          "name": "status",
          "type": "uint256"
        }
      ],
      "name": "UpdateOpportunityStatus",
      "type": "event"
    },
    {
      "inputs": [],
      "name": "admin",
      "outputs": [
        {
          "internalType": "address",
          "name": "",
          "type": "address"
        }
      ],
      "stateMutability": "view",
      "type": "function"
    },
    {
      "inputs": [
        {
          "internalType": "uint256",
          "name": "",
          "type": "uint256"
        }
      ],
      "name": "applications",
      "outputs": [
        {
          "internalType": "uint256",
          "name": "id",
          "type": "uint256"
        },
        {
          "internalType": "uint256",
          "name": "opportunityId",
          "type": "uint256"
        },
        {
          "internalType": "uint256",
          "name": "beneficiaryId",
          "type": "uint256"
        },
        {
          "internalType": "uint256",
          "name": "nextPreRequirementId",
          "type": "uint256"
        },
        {
          "internalType": "uint256",
          "name": "nextPostRequirementId",
          "type": "uint256"
        },
        {
          "internalType": "uint256",
          "name": "nextPreAccomplishmentId",
          "type": "uint256"
        },
        {
          "internalType": "uint256",
          "name": "nextPostAccomplishmentId",
          "type": "uint256"
        },
        {
          "internalType": "uint256",
          "name": "creationDate",
          "type": "uint256"
        },
        {
          "internalType": "uint256",
          "name": "lastUpdate",
          "type": "uint256"
        },
        {
          "internalType": "uint256",
          "name": "status",
          "type": "uint256"
        }
      ],
      "stateMutability": "view",
      "type": "function"
    },
    {
      "inputs": [
        {
          "internalType": "uint256",
          "name": "opportunityId",
          "type": "uint256"
        }
      ],
      "name": "createApplication",
      "outputs": [],
      "stateMutability": "nonpayable",
      "type": "function"
    },
    {
      "inputs": [
        {
          "internalType": "string",
          "name": "name",
          "type": "string"
        },
        {
          "internalType": "string",
          "name": "description",
          "type": "string"
        },
        {
          "internalType": "uint256",
          "name": "preRequirementsDeadline",
          "type": "uint256"
        },
        {
          "internalType": "uint256",
          "name": "postRequirementsDeadline",
          "type": "uint256"
        },
        {
          "internalType": "uint256[]",
          "name": "preRequirementTypes",
          "type": "uint256[]"
        },
        {
          "internalType": "uint256[]",
          "name": "preRequirementValues",
          "type": "uint256[]"
        },
        {
          "internalType": "string[]",
          "name": "preRequirementNames",
          "type": "string[]"
        },
        {
          "internalType": "uint256[]",
          "name": "postRequirementTypes",
          "type": "uint256[]"
        },
        {
          "internalType": "uint256[]",
          "name": "postRequirementValues",
          "type": "uint256[]"
        },
        {
          "internalType": "string[]",
          "name": "postRequirementNames",
          "type": "string[]"
        }
      ],
      "name": "createOpportunity",
      "outputs": [],
      "stateMutability": "nonpayable",
      "type": "function"
    },
    {
      "inputs": [
        {
          "internalType": "uint256",
          "name": "applicationId",
          "type": "uint256"
        },
        {
          "internalType": "string",
          "name": "accomplishmentValue",
          "type": "string"
        }
      ],
      "name": "createPostAccomplishment",
      "outputs": [],
      "stateMutability": "nonpayable",
      "type": "function"
    },
    {
      "inputs": [
        {
          "internalType": "uint256",
          "name": "opportunityId",
          "type": "uint256"
        },
        {
          "internalType": "uint256",
          "name": "requirementType",
          "type": "uint256"
        },
        {
          "internalType": "uint256",
          "name": "transferValue",
          "type": "uint256"
        },
        {
          "internalType": "string",
          "name": "name",
          "type": "string"
        }
      ],
      "name": "createPostRequirement",
      "outputs": [],
      "stateMutability": "nonpayable",
      "type": "function"
    },
    {
      "inputs": [
        {
          "internalType": "uint256",
          "name": "applicationId",
          "type": "uint256"
        },
        {
          "internalType": "string",
          "name": "accomplishmentValue",
          "type": "string"
        }
      ],
      "name": "createPreAccomplishment",
      "outputs": [],
      "stateMutability": "nonpayable",
      "type": "function"
    },
    {
      "inputs": [
        {
          "internalType": "uint256",
          "name": "opportunityId",
          "type": "uint256"
        },
        {
          "internalType": "uint256",
          "name": "requirementType",
          "type": "uint256"
        },
        {
          "internalType": "uint256",
          "name": "transferValue",
          "type": "uint256"
        },
        {
          "internalType": "string",
          "name": "name",
          "type": "string"
        }
      ],
      "name": "createPreRequirement",
      "outputs": [],
      "stateMutability": "nonpayable",
      "type": "function"
    },
    {
      "inputs": [
        {
          "internalType": "uint256",
          "name": "opportunityId",
          "type": "uint256"
        },
        {
          "internalType": "address",
          "name": "beneficiaryAddress",
          "type": "address"
        }
      ],
      "name": "getApplication",
      "outputs": [
        {
          "internalType": "uint256",
          "name": "",
          "type": "uint256"
        },
        {
          "internalType": "uint256",
          "name": "",
          "type": "uint256"
        },
        {
          "internalType": "uint256",
          "name": "",
          "type": "uint256"
        },
        {
          "internalType": "uint256",
          "name": "",
          "type": "uint256"
        },
        {
          "internalType": "uint256",
          "name": "",
          "type": "uint256"
        },
        {
          "internalType": "uint256",
          "name": "",
          "type": "uint256"
        }
      ],
      "stateMutability": "view",
      "type": "function"
    },
    {
      "inputs": [
        {
          "internalType": "uint256",
          "name": "opportunityId",
          "type": "uint256"
        }
      ],
      "name": "getApplicationsByOpportunityId",
      "outputs": [
        {
          "internalType": "uint256[]",
          "name": "",
          "type": "uint256[]"
        },
        {
          "internalType": "address[]",
          "name": "",
          "type": "address[]"
        },
        {
          "internalType": "string[]",
          "name": "",
          "type": "string[]"
        },
        {
          "internalType": "uint256[]",
          "name": "",
          "type": "uint256[]"
        }
      ],
      "stateMutability": "view",
      "type": "function"
    },
    {
      "inputs": [],
      "name": "getBeneficiaries",
      "outputs": [
        {
          "internalType": "uint256[]",
          "name": "",
          "type": "uint256[]"
        },
        {
          "internalType": "address[]",
          "name": "",
          "type": "address[]"
        },
        {
          "internalType": "uint256[]",
          "name": "",
          "type": "uint256[]"
        },
        {
          "internalType": "uint256[]",
          "name": "",
          "type": "uint256[]"
        }
      ],
      "stateMutability": "view",
      "type": "function"
    },
    {
      "inputs": [
        {
          "internalType": "uint256",
          "name": "_id",
          "type": "uint256"
        }
      ],
      "name": "getBeneficiaryById",
      "outputs": [
        {
          "internalType": "uint256",
          "name": "",
          "type": "uint256"
        },
        {
          "internalType": "address",
          "name": "",
          "type": "address"
        },
        {
          "internalType": "string",
          "name": "",
          "type": "string"
        },
        {
          "internalType": "uint256",
          "name": "",
          "type": "uint256"
        },
        {
          "internalType": "uint256",
          "name": "",
          "type": "uint256"
        }
      ],
      "stateMutability": "view",
      "type": "function"
    },
    {
      "inputs": [
        {
          "internalType": "address",
          "name": "account",
          "type": "address"
        }
      ],
      "name": "getBeneficiaryIdByAddress",
      "outputs": [
        {
          "internalType": "uint256",
          "name": "",
          "type": "uint256"
        }
      ],
      "stateMutability": "view",
      "type": "function"
    },
    {
      "inputs": [
        {
          "internalType": "address",
          "name": "account",
          "type": "address"
        }
      ],
      "name": "getBeneficiaryStatusByAddress",
      "outputs": [
        {
          "internalType": "uint256",
          "name": "",
          "type": "uint256"
        }
      ],
      "stateMutability": "view",
      "type": "function"
    },
    {
      "inputs": [],
      "name": "getOpportunities",
      "outputs": [
        {
          "internalType": "uint256[]",
          "name": "",
          "type": "uint256[]"
        },
        {
          "internalType": "string[]",
          "name": "",
          "type": "string[]"
        },
        {
          "internalType": "string[]",
          "name": "",
          "type": "string[]"
        },
        {
          "internalType": "string[]",
          "name": "",
          "type": "string[]"
        },
        {
          "internalType": "uint256[]",
          "name": "",
          "type": "uint256[]"
        },
        {
          "internalType": "uint256[]",
          "name": "",
          "type": "uint256[]"
        },
        {
          "internalType": "uint256[]",
          "name": "",
          "type": "uint256[]"
        }
      ],
      "stateMutability": "view",
      "type": "function"
    },
    {
      "inputs": [
        {
          "internalType": "uint256",
          "name": "opportunityId",
          "type": "uint256"
        }
      ],
      "name": "getOpportunityById",
      "outputs": [
        {
          "internalType": "uint256",
          "name": "",
          "type": "uint256"
        },
        {
          "internalType": "string",
          "name": "",
          "type": "string"
        },
        {
          "internalType": "string",
          "name": "",
          "type": "string"
        },
        {
          "internalType": "uint256",
          "name": "",
          "type": "uint256"
        },
        {
          "internalType": "uint256",
          "name": "",
          "type": "uint256"
        },
        {
          "internalType": "uint256",
          "name": "",
          "type": "uint256"
        },
        {
          "internalType": "uint256",
          "name": "",
          "type": "uint256"
        },
        {
          "internalType": "uint256",
          "name": "",
          "type": "uint256"
        }
      ],
      "stateMutability": "view",
      "type": "function"
    },
    {
      "inputs": [
        {
          "internalType": "uint256",
          "name": "_id",
          "type": "uint256"
        }
      ],
      "name": "getOrganizationById",
      "outputs": [
        {
          "internalType": "uint256",
          "name": "",
          "type": "uint256"
        },
        {
          "internalType": "string",
          "name": "",
          "type": "string"
        },
        {
          "internalType": "address",
          "name": "",
          "type": "address"
        },
        {
          "internalType": "uint256",
          "name": "",
          "type": "uint256"
        },
        {
          "internalType": "uint256",
          "name": "",
          "type": "uint256"
        }
      ],
      "stateMutability": "view",
      "type": "function"
    },
    {
      "inputs": [
        {
          "internalType": "address",
          "name": "account",
          "type": "address"
        }
      ],
      "name": "getOrganizationIdByAddress",
      "outputs": [
        {
          "internalType": "uint256",
          "name": "",
          "type": "uint256"
        }
      ],
      "stateMutability": "view",
      "type": "function"
    },
    {
      "inputs": [],
      "name": "getOrganizations",
      "outputs": [
        {
          "internalType": "uint256[]",
          "name": "",
          "type": "uint256[]"
        },
        {
          "internalType": "string[]",
          "name": "",
          "type": "string[]"
        },
        {
          "internalType": "address[]",
          "name": "",
          "type": "address[]"
        },
        {
          "internalType": "uint256[]",
          "name": "",
          "type": "uint256[]"
        },
        {
          "internalType": "uint256[]",
          "name": "",
          "type": "uint256[]"
        }
      ],
      "stateMutability": "view",
      "type": "function"
    },
    {
      "inputs": [
        {
          "internalType": "uint256",
          "name": "applicationId",
          "type": "uint256"
        },
        {
          "internalType": "uint256",
          "name": "postAccomplishmentId",
          "type": "uint256"
        }
      ],
      "name": "getPostAccomplishment",
      "outputs": [
        {
          "components": [
            {
              "internalType": "uint256",
              "name": "id",
              "type": "uint256"
            },
            {
              "internalType": "uint256",
              "name": "requirementId",
              "type": "uint256"
            },
            {
              "internalType": "uint256",
              "name": "accomplishDate",
              "type": "uint256"
            },
            {
              "internalType": "uint256",
              "name": "accomplishCategory",
              "type": "uint256"
            },
            {
              "internalType": "string",
              "name": "accomplishValue",
              "type": "string"
            }
          ],
          "internalType": "struct AkasifyCoreContract.Accomplishment",
          "name": "_accomplishment",
          "type": "tuple"
        }
      ],
      "stateMutability": "view",
      "type": "function"
    },
    {
      "inputs": [
        {
          "internalType": "uint256",
          "name": "opportunityId",
          "type": "uint256"
        }
      ],
      "name": "getPostRequirementsByOpportunityId",
      "outputs": [
        {
          "internalType": "uint256[]",
          "name": "",
          "type": "uint256[]"
        },
        {
          "internalType": "uint256[]",
          "name": "",
          "type": "uint256[]"
        },
        {
          "internalType": "uint256[]",
          "name": "",
          "type": "uint256[]"
        },
        {
          "internalType": "string[]",
          "name": "",
          "type": "string[]"
        }
      ],
      "stateMutability": "view",
      "type": "function"
    },
    {
      "inputs": [
        {
          "internalType": "uint256",
          "name": "applicationId",
          "type": "uint256"
        },
        {
          "internalType": "uint256",
          "name": "preAccomplishmentId",
          "type": "uint256"
        }
      ],
      "name": "getPreAccomplishment",
      "outputs": [
        {
          "components": [
            {
              "internalType": "uint256",
              "name": "id",
              "type": "uint256"
            },
            {
              "internalType": "uint256",
              "name": "requirementId",
              "type": "uint256"
            },
            {
              "internalType": "uint256",
              "name": "accomplishDate",
              "type": "uint256"
            },
            {
              "internalType": "uint256",
              "name": "accomplishCategory",
              "type": "uint256"
            },
            {
              "internalType": "string",
              "name": "accomplishValue",
              "type": "string"
            }
          ],
          "internalType": "struct AkasifyCoreContract.Accomplishment",
          "name": "_accomplishment",
          "type": "tuple"
        }
      ],
      "stateMutability": "view",
      "type": "function"
    },
    {
      "inputs": [
        {
          "internalType": "uint256",
          "name": "applicationId",
          "type": "uint256"
        }
      ],
      "name": "getPreAccomplishmentsByApplicationId",
      "outputs": [
        {
          "internalType": "uint256[]",
          "name": "",
          "type": "uint256[]"
        },
        {
          "internalType": "uint256[]",
          "name": "",
          "type": "uint256[]"
        },
        {
          "internalType": "uint256[]",
          "name": "",
          "type": "uint256[]"
        },
        {
          "internalType": "uint256[]",
          "name": "",
          "type": "uint256[]"
        },
        {
          "internalType": "string[]",
          "name": "",
          "type": "string[]"
        }
      ],
      "stateMutability": "view",
      "type": "function"
    },
    {
      "inputs": [
        {
          "internalType": "uint256",
          "name": "opportunityId",
          "type": "uint256"
        }
      ],
      "name": "getPreRequirementsByOpportunityId",
      "outputs": [
        {
          "internalType": "uint256[]",
          "name": "",
          "type": "uint256[]"
        },
        {
          "internalType": "uint256[]",
          "name": "",
          "type": "uint256[]"
        },
        {
          "internalType": "uint256[]",
          "name": "",
          "type": "uint256[]"
        },
        {
          "internalType": "string[]",
          "name": "",
          "type": "string[]"
        }
      ],
      "stateMutability": "view",
      "type": "function"
    },
    {
      "inputs": [
        {
          "internalType": "address",
          "name": "account",
          "type": "address"
        }
      ],
      "name": "getRole",
      "outputs": [
        {
          "internalType": "string",
          "name": "",
          "type": "string"
        }
      ],
      "stateMutability": "view",
      "type": "function"
    },
    {
      "inputs": [
        {
          "internalType": "address",
          "name": "account",
          "type": "address"
        }
      ],
      "name": "isActiveBeneficiary",
      "outputs": [
        {
          "internalType": "bool",
          "name": "",
          "type": "bool"
        }
      ],
      "stateMutability": "view",
      "type": "function"
    },
    {
      "inputs": [
        {
          "internalType": "address",
          "name": "account",
          "type": "address"
        }
      ],
      "name": "isBeneficiary",
      "outputs": [
        {
          "internalType": "bool",
          "name": "",
          "type": "bool"
        }
      ],
      "stateMutability": "view",
      "type": "function"
    },
    {
      "inputs": [
        {
          "internalType": "address",
          "name": "account",
          "type": "address"
        }
      ],
      "name": "isOrganization",
      "outputs": [
        {
          "internalType": "bool",
          "name": "",
          "type": "bool"
        }
      ],
      "stateMutability": "view",
      "type": "function"
    },
    {
      "inputs": [],
      "name": "nextApplicationId",
      "outputs": [
        {
          "internalType": "uint256",
          "name": "",
          "type": "uint256"
        }
      ],
      "stateMutability": "view",
      "type": "function"
    },
    {
      "inputs": [],
      "name": "nextBeneficiaryId",
      "outputs": [
        {
          "internalType": "uint256",
          "name": "",
          "type": "uint256"
        }
      ],
      "stateMutability": "view",
      "type": "function"
    },
    {
      "inputs": [],
      "name": "nextOpportunityId",
      "outputs": [
        {
          "internalType": "uint256",
          "name": "",
          "type": "uint256"
        }
      ],
      "stateMutability": "view",
      "type": "function"
    },
    {
      "inputs": [],
      "name": "nextOrganizationId",
      "outputs": [
        {
          "internalType": "uint256",
          "name": "",
          "type": "uint256"
        }
      ],
      "stateMutability": "view",
      "type": "function"
    },
    {
      "inputs": [
        {
          "internalType": "uint256",
          "name": "",
          "type": "uint256"
        }
      ],
      "name": "opportunities",
      "outputs": [
        {
          "internalType": "uint256",
          "name": "id",
          "type": "uint256"
        },
        {
          "internalType": "uint256",
          "name": "organizationId",
          "type": "uint256"
        },
        {
          "internalType": "string",
          "name": "name",
          "type": "string"
        },
        {
          "internalType": "string",
          "name": "description",
          "type": "string"
        },
        {
          "internalType": "uint256",
          "name": "preRequirementsDeadline",
          "type": "uint256"
        },
        {
          "internalType": "uint256",
          "name": "postRequirementsDeadline",
          "type": "uint256"
        },
        {
          "internalType": "uint256",
          "name": "creationDate",
          "type": "uint256"
        },
        {
          "internalType": "uint256",
          "name": "lastUpdate",
          "type": "uint256"
        },
        {
          "internalType": "uint256",
          "name": "applicationCount",
          "type": "uint256"
        },
        {
          "internalType": "uint256",
          "name": "status",
          "type": "uint256"
        },
        {
          "internalType": "uint256",
          "name": "nextPreRequirementId",
          "type": "uint256"
        },
        {
          "internalType": "uint256",
          "name": "nextPostRequirementId",
          "type": "uint256"
        }
      ],
      "stateMutability": "view",
      "type": "function"
    },
    {
      "inputs": [
        {
          "internalType": "string",
          "name": "_oasisAddress",
          "type": "string"
        }
      ],
      "name": "registerBeneficiary",
      "outputs": [],
      "stateMutability": "nonpayable",
      "type": "function"
    },
    {
      "inputs": [
        {
          "internalType": "string",
          "name": "name",
          "type": "string"
        },
        {
          "internalType": "address payable",
          "name": "account",
          "type": "address"
        },
        {
          "internalType": "uint256",
          "name": "status",
          "type": "uint256"
        }
      ],
      "name": "registerOrganizationByAdmin",
      "outputs": [
        {
          "internalType": "uint256",
          "name": "",
          "type": "uint256"
        }
      ],
      "stateMutability": "nonpayable",
      "type": "function"
    },
    {
      "inputs": [
        {
          "internalType": "uint256",
          "name": "applicationId",
          "type": "uint256"
        },
        {
          "internalType": "uint256",
          "name": "status",
          "type": "uint256"
        }
      ],
      "name": "updateApplicationStatus",
      "outputs": [],
      "stateMutability": "nonpayable",
      "type": "function"
    },
    {
      "inputs": [
        {
          "internalType": "uint256",
          "name": "opportunityId",
          "type": "uint256"
        },
        {
          "internalType": "uint256",
          "name": "status",
          "type": "uint256"
        }
      ],
      "name": "updateOpportunityStatus",
      "outputs": [],
      "stateMutability": "nonpayable",
      "type": "function"
    }
  ],
  "bytecode": "0x60806040523480156200001157600080fd5b50604051620058773803806200587783398101604081905262000034916200005a565b600880546001600160a01b0319166001600160a01b03929092169190911790556200008a565b6000602082840312156200006c578081fd5b81516001600160a01b038116811462000083578182fd5b9392505050565b6157dd806200009a6000396000f3fe608060405234801561001057600080fd5b50600436106102275760003560e01c8063957abe0b11610130578063b1ce8eab116100b8578063df19ce4d1161007c578063df19ce4d1461054e578063dfefadff14610561578063eadd2f611461058a578063f851a4401461059d578063fcfb8bb2146105b257610227565b8063b1ce8eab146104fa578063c821b4fb1461050d578063cfd664d614610520578063d11f3c4714610533578063d2830de31461054657610227565b8063aa0a57ab116100ff578063aa0a57ab14610449578063acaf764d1461046d578063acd6c98f14610491578063ad41ac3d146104bc578063aed35ccc146104df57610227565b8063957abe0b146103d85780639754a3a8146103f857806398077031146104115780639d19b2261461043657610227565b8063625338cb116101b3578063706f48b111610182578063706f48b1146103605780637a47523b14610373578063857bbd281461039a5780638c4be5eb146103ad578063913b722c146103c057610227565b8063625338cb1461030e578063635c5455146103165780636ddc232b1461033a5780636e46cc4e1461034d57610227565b806344276733116101fa57806344276733146102925780634bcaaa01146102b25780634f4e4534146102d55780635080d5fb146102e85780635825271a146102fb57610227565b80631283ca701461022c57806327f9e10514610241578063292719d31461026a5780633859305e1461028a575b600080fd5b61023f61023a366004614727565b6105ba565b005b61025461024f366004614528565b6107ab565b6040516102619190614c08565b60405180910390f35b61027d610278366004614528565b610812565b604051610261919061551b565b61027d610860565b6102a56102a0366004614528565b610866565b6040516102619190614c13565b6102c56102c0366004614727565b61093c565b6040516102619493929190614b5e565b61023f6102e336600461476e565b610c19565b61027d6102f6366004614528565b610ee2565b61023f6103093660046145dc565b610f4e565b61027d611374565b610329610324366004614727565b61137a565b604051610261959493929190615562565b61023f61034836600461454b565b6114ad565b61027d61035b366004614528565b6115d6565b61023f61036e36600461476e565b611644565b610386610381366004614727565b611845565b6040516102619897969594939291906155a1565b61023f6103a83660046147d3565b6119d4565b6102c56103bb366004614727565b611ad6565b6103c8611da2565b6040516102619493929190614a28565b6103eb6103e63660046147b2565b612052565b60405161026191906154d8565b61040061216c565b604051610261959493929190614a5f565b61042461041f36600461473f565b6124a8565b604051610261969594939291906156d1565b610254610444366004614528565b612812565b61045c610457366004614727565b612853565b604051610261959493929190615524565b61048061047b366004614727565b612967565b604051610261959493929190614baa565b6104a461049f366004614727565b612e6e565b6040516102619c9b9a9998979695949392919061563d565b6104cf6104ca366004614727565b612fd7565b60405161026194939291906149d1565b6104e761359a565b6040516102619796959493929190614aca565b610254610508366004614528565b613a77565b6103eb61051b3660046147b2565b613ad6565b61023f61052e3660046147b2565b613b03565b61023f6105413660046147d3565b613d3f565b61027d613e41565b61027d61055c366004614585565b613e47565b61057461056f366004614727565b613f1f565b6040516102619a999897969594939291906156f9565b61023f6105983660046147b2565b613f73565b6105a561424a565b60405161026191906149bd565b61027d614259565b6000818152600460205260409020600901546002146105f45760405162461bcd60e51b81526004016105eb90615339565b60405180910390fd5b600754600081815260066020526040902090815560010181905561061733610812565b6005805460009081526006602081815260408084206002019590955560078054845285842060030184905580548452858420600490810185905581548552868520909501849055805484528584209092018390558154835284832042908301819055825484528584206008908101919091559154835284832060016009909101819055868452939052929020909101805490910190556106b561425f565b600080825260208083018281524260408086019182526001606087018181528251808701845287815260808901908152600754885260068752928720600a0180548084018255908852968690208851600590980201968755935190860155905160028501559051600384015551805184939261073892600485019291019061428e565b505060078054600090815260066020526040808220600501805460019081019091559254808352918190209092015491517ff0ecfc9d01e072b344ab803487dff20893bdb9f671d08bd9e260d0f8b5fae84d9350610796929061562f565b60405180910390a15050600780546001019055565b600080805b600154811015610809576000818152602081905260409020600101546001600160a01b0385811691161480156107f757506000818152602081905260409020600401546003145b1561080157600191505b6001016107b0565b5090505b919050565b600080805b600154811015610809576000818152602081905260409020600101546001600160a01b03858116911614156108585760008181526020819052604090205491505b600101610817565b60015481565b6008546060906001600160a01b03838116911614156108a1575060408051808201909152600581526430b236b4b760d91b602082015261080d565b6108aa82613a77565b1515600114156108dd575060408051808201909152600c81526b37b933b0b734bd30ba34b7b760a11b602082015261080d565b6108e682612812565b151560011415610918575060408051808201909152600b81526a62656e656669636961727960a81b602082015261080d565b506040805180820190915260078152663b34b9b4ba37b960c91b602082015261080d565b6000818152600460205260409020600b81015460609182918291829182906001600160401b038111801561096f57600080fd5b50604051908082528060200260200182016040528015610999578160200160208202803683370190505b509050606082600b01546001600160401b03811180156109b857600080fd5b506040519080825280602002602001820160405280156109e2578160200160208202803683370190505b509050606083600b01546001600160401b0381118015610a0157600080fd5b50604051908082528060200260200182016040528015610a2b578160200160208202803683370190505b509050606084600b01546001600160401b0381118015610a4a57600080fd5b50604051908082528060200260200182016040528015610a7e57816020015b6060815260200190600190039081610a695790505b50905060005b85600b0154811015610c0857610a9861425f565b86600d018281548110610aa757fe5b90600052602060002090600502016040518060a001604052908160008201548152602001600182015481526020016002820154815260200160038201548152602001600482018054600181600116156101000203166002900480601f016020809104026020016040519081016040528092919081815260200182805460018160011615610100020316600290048015610b815780601f10610b5657610100808354040283529160200191610b81565b820191906000526020600020905b815481529060010190602001808311610b6457829003601f168201915b50505050508152505090508060000151868381518110610b9d57fe5b6020026020010181815250508060400151858381518110610bba57fe5b6020026020010181815250508060600151848381518110610bd757fe5b6020026020010181815250508060800151838381518110610bf457fe5b602090810291909101015250600101610a84565b509299919850965090945092505050565b6000610c2433612812565b905080610c435760405162461bcd60e51b81526004016105eb90615031565b600083815260066020526040902060090154600114610c745760405162461bcd60e51b81526004016105eb906150ef565b6000838152600660208181526040808420815160a081018352600580830154825294845260038083015482860190815242948301948552600260608401818152608085018c8152600a909601805460018181018355918c529a89902086519b909a02909901998a5591519789019790975593519587019590955591519385019390935591518051929392610d0e926004850192019061428e565b50505060008381526006602090815260408083206003810154600191820154855260049093529220600a015491011015610e685760008381526006602081815260408084206005808201805460019081019182905560038085018054830190819055865160a08101885293845297875282870197885242838701908152606084018381528751808a019098528a885260808501978852600a90960180548085018255908b529988902084519a90950290940198895596519088015590516002870155905193850193909355518051929392610def926004850192019061428e565b505050600083815260066020526040908190206005810154600382015460019092015492517f3bd69d0338add0787747b118da14e4aeba941afe53638eab003a9d359f3214af93610e4393918891906156b6565b60405180910390a1600083815260066020526040902060050180546001019055610ec9565b60008381526006602052604090819020600260098201556005810154600382015460019092015492517f3bd69d0338add0787747b118da14e4aeba941afe53638eab003a9d359f3214af93610ec093918891906156b6565b60405180910390a15b5050600090815260066020526040902042600890910155565b600080805b60035481101561080957600081815260026020819052604090912001546001600160a01b038581169116148015610f2f57506000818152600260205260409020600401546003145b15610f465760008181526002602052604090205491505b600101610ee7565b6000610f5933613a77565b905080610f785760405162461bcd60e51b81526004016105eb90614d73565b60008b5111610f995760405162461bcd60e51b81526004016105eb90614f92565b60008a5111610fba5760405162461bcd60e51b81526004016105eb9061514c565b85518751148015610fcc575084518651145b610fe85760405162461bcd60e51b81526004016105eb90614f35565b82518451148015610ffa575081518351145b6110165760405162461bcd60e51b81526004016105eb9061505b565b60055460008181526004602052604090205561103133610ee2565b6005805460009081526004602090815260408083206001019490945591548152919091208c51611069926002909201918e019061428e565b5060055460009081526004602090815260409091208b51611092926003909201918d019061428e565b50600580546000908152600460208190526040808320426006909101819055845484528184209092018d90558354835280832084018c905583548352808320600701919091559154815290812060016009909101555b87518110156111f757600554600081815260046020908152604091829020825160a081018452600a8201548152918201939093528a51600c9093019290918201908b908590811061113557fe5b6020026020010151815260200189848151811061114e57fe5b6020026020010151815260200188848151811061116757fe5b602090810291909101810151909152825460018181018555600094855293829020835160059092020190815582820151938101939093556040820151600284015560608201516003840155608082015180519293926111cc926004850192019061428e565b50506005546000908152600460205260409020600a01805460019081019091559190910190506110e8565b5060005b845181101561130a57600554600081815260046020908152604091829020825160a081018452600b8201548152918201939093528751600d90930192909182019088908590811061124857fe5b6020026020010151815260200186848151811061126157fe5b6020026020010151815260200185848151811061127a57fe5b602090810291909101810151909152825460018181018555600094855293829020835160059092020190815582820151938101939093556040820151600284015560608201516003840155608082015180519293926112df926004850192019061428e565b50506005546000908152600460205260409020600b01805460019081019091559190910190506111fb565b506005546000818152600460205260409081902090517f217f6f8566b5368c91631b32159051c0f0fc3ed5c77908901e6a2ef3f7df8359926113569290916002820191600301906155fa565b60405180910390a15050600580546001019055505050505050505050565b60075481565b60006060600080600061138b61430c565b600260008881526020019081526020016000206040518060a001604052908160008201548152602001600182018054600181600116156101000203166002900480601f01602080910402602001604051908101604052809291908181526020018280546001816001161561010002031660029004801561144c5780601f106114215761010080835404028352916020019161144c565b820191906000526020600020905b81548152906001019060200180831161142f57829003601f168201915b505050918352505060028201546001600160a01b031660208083019190915260038301546040808401919091526004909301546060928301528351908401519284015191840151608090940151909b929a5090985091965090945092505050565b6008546001600160a01b03163314156114d85760405162461bcd60e51b81526004016105eb9061537e565b60006114e333613a77565b905080156115035760405162461bcd60e51b81526004016105eb90615291565b6040805160a081018252600180548083523360208085019182528486018881524260608701526003608087015260009384528382529590922084518155905192810180546001600160a01b0319166001600160a01b0390941693909317909255925180519293919261157b926002850192019061428e565b506060820151600382015560809091015160049091015560018054810190556040517f67bf623e5c0c95725ab7b0d181e969032a96122e243710f76311bae55f89df71906115ca9033906149bd565b60405180910390a15050565b600080805b600154811015610809576000818152602081905260409020600101546001600160a01b03858116911614801561162257506000818152602081905260409020600401546003145b1561163c5760008181526020819052604090206004015491505b6001016115db565b600061164f33612812565b90508061166e5760405162461bcd60e51b81526004016105eb90615031565b60008381526006602052604090206009015460051461169f5760405162461bcd60e51b81526004016105eb90614dfb565b6000838152600660208181526040808420815160a08101835281850154815293835260048082015485850190815242938601938452600260608701818152608088018b8152600b909501805460018181018355918b529988902089516005909b0201998a55925192890192909255935193870193909355915160038601555180519394936117359392850192919091019061428e565b5050506000838152600660209081526040808320600480820154600192830154865293529220600b01549101101561182a576000838152600660208181526040808420808401805460019081019182905560048084018054830190819055855160a0810187529384529686528286019687524294830194855260608301828152608084018b8152600b90950180548085018255908a529887902084516005909a020198895596519188019190915592516002870155935160038601555180519394936118099392850192919091019061428e565b50505060008381526006602081905260409091200180546001019055611840565b6000838152600660208190526040909120600901555b505050565b6000606080600080600080600080600460008b815260200190815260200160002090508060010154816002018260030183600401548460050154856006015486600701548760090154868054600181600116156101000203166002900480601f0160208091040260200160405190810160405280929190818152602001828054600181600116156101000203166002900480156119235780601f106118f857610100808354040283529160200191611923565b820191906000526020600020905b81548152906001019060200180831161190657829003601f168201915b5050895460408051602060026001851615610100026000190190941693909304601f8101849004840282018401909252818152959c508b9450925084019050828280156119b15780601f10611986576101008083540402835291602001916119b1565b820191906000526020600020905b81548152906001019060200180831161199457829003601f168201915b505050505095509850985098509850985098509850985050919395975091939597565b60006119df33613a77565b9050806119fe5760405162461bcd60e51b81526004016105eb90614d73565b600085815260046020526040902060090154600114611a2f5760405162461bcd60e51b81526004016105eb9061517a565b6000858152600460208181526040808420815160a081018352600b82015481528084018b81529281018a8152606082018a8152608083018a8152600d909401805460018181018355918a529887902084516005909a020198895594519488019490945551600287015591516003860155518051919493611ab5939085019291019061428e565b505050600094855250506004602052505060409020600b0180546001019055565b6000818152600460205260409020600a81015460609182918291829182906001600160401b0381118015611b0957600080fd5b50604051908082528060200260200182016040528015611b33578160200160208202803683370190505b509050606082600a01546001600160401b0381118015611b5257600080fd5b50604051908082528060200260200182016040528015611b7c578160200160208202803683370190505b509050606083600a01546001600160401b0381118015611b9b57600080fd5b50604051908082528060200260200182016040528015611bc5578160200160208202803683370190505b509050606084600a01546001600160401b0381118015611be457600080fd5b50604051908082528060200260200182016040528015611c1857816020015b6060815260200190600190039081611c035790505b50905060005b85600a0154811015610c0857611c3261425f565b86600c018281548110611c4157fe5b90600052602060002090600502016040518060a001604052908160008201548152602001600182015481526020016002820154815260200160038201548152602001600482018054600181600116156101000203166002900480601f016020809104026020016040519081016040528092919081815260200182805460018160011615610100020316600290048015611d1b5780601f10611cf057610100808354040283529160200191611d1b565b820191906000526020600020905b815481529060010190602001808311611cfe57829003601f168201915b50505050508152505090508060000151868381518110611d3757fe5b6020026020010181815250508060400151858381518110611d5457fe5b6020026020010181815250508060600151848381518110611d7157fe5b6020026020010181815250508060800151838381518110611d8e57fe5b602090810291909101015250600101611c1e565b60608060608060606001546001600160401b0381118015611dc257600080fd5b50604051908082528060200260200182016040528015611dec578160200160208202803683370190505b50905060606001546001600160401b0381118015611e0957600080fd5b50604051908082528060200260200182016040528015611e33578160200160208202803683370190505b50905060606001546001600160401b0381118015611e5057600080fd5b50604051908082528060200260200182016040528015611e7a578160200160208202803683370190505b50905060606001546001600160401b0381118015611e9757600080fd5b50604051908082528060200260200182016040528015611ec1578160200160208202803683370190505b50905060005b60015481101561204357611ed9614344565b60008281526020818152604091829020825160a081018452815481526001808301546001600160a01b0316828501526002808401805487516101009482161594909402600019011691909104601f81018690048602830186018752808352929593949386019391929091830182828015611f945780601f10611f6957610100808354040283529160200191611f94565b820191906000526020600020905b815481529060010190602001808311611f7757829003601f168201915b505050505081526020016003820154815260200160048201548152505090508060000151868381518110611fc457fe5b6020026020010181815250508060200151858381518110611fe157fe5b60200260200101906001600160a01b031690816001600160a01b031681525050806060015184838151811061201257fe5b602002602001018181525050806080015183838151811061202f57fe5b602090810291909101015250600101611ec7565b50929791965094509092509050565b61205a61425f565b61206261425f565b6000848152600660205260409020600b0180548490811061207f57fe5b90600052602060002090600502016040518060a001604052908160008201548152602001600182015481526020016002820154815260200160038201548152602001600482018054600181600116156101000203166002900480601f0160208091040260200160405190810160405280929190818152602001828054600181600116156101000203166002900480156121595780601f1061212e57610100808354040283529160200191612159565b820191906000526020600020905b81548152906001019060200180831161213c57829003601f168201915b5050509190925250919695505050505050565b6060806060806060806003546001600160401b038111801561218d57600080fd5b506040519080825280602002602001820160405280156121b7578160200160208202803683370190505b50905060606003546001600160401b03811180156121d457600080fd5b5060405190808252806020026020018201604052801561220857816020015b60608152602001906001900390816121f35790505b50905060606003546001600160401b038111801561222557600080fd5b5060405190808252806020026020018201604052801561224f578160200160208202803683370190505b50905060606003546001600160401b038111801561226c57600080fd5b50604051908082528060200260200182016040528015612296578160200160208202803683370190505b50905060606003546001600160401b03811180156122b357600080fd5b506040519080825280602002602001820160405280156122dd578160200160208202803683370190505b50905060005b600354811015612496576122f561430c565b600260008381526020019081526020016000206040518060a001604052908160008201548152602001600182018054600181600116156101000203166002900480601f0160208091040260200160405190810160405280929190818152602001828054600181600116156101000203166002900480156123b65780601f1061238b576101008083540402835291602001916123b6565b820191906000526020600020905b81548152906001019060200180831161239957829003601f168201915b505050918352505060028201546001600160a01b031660208201526003820154604082015260049091015460609091015280518851919250908890849081106123fb57fe5b602002602001018181525050806020015186838151811061241857fe5b6020026020010181905250806040015185838151811061243457fe5b60200260200101906001600160a01b031690816001600160a01b031681525050806060015184838151811061246557fe5b602002602001018181525050806080015183838151811061248257fe5b6020908102919091010152506001016122e3565b50939992985090965094509092509050565b60008060008060008060006124bc88610812565b90506124c661437c565b60005b6007548110156127dd576000818152600660205260409020600101548b148015612503575060008181526006602052604090206002015483145b156127d5576000818152600660208181526040808420815161018081018352815481526001820154818501526002820154818401526003820154606082015260048201546080820152600582015460a08201529381015460c0850152600781015460e085015260088101546101008501526009810154610120850152600a81018054835181860281018601909452808452949591946101408701949192909184015b828210156126a157838290600052602060002090600502016040518060a001604052908160008201548152602001600182015481526020016002820154815260200160038201548152602001600482018054600181600116156101000203166002900480601f0160208091040260200160405190810160405280929190818152602001828054600181600116156101000203166002900480156126895780601f1061265e57610100808354040283529160200191612689565b820191906000526020600020905b81548152906001019060200180831161266c57829003601f168201915b505050505081525050815260200190600101906125a5565b505050508152602001600b8201805480602002602001604051908101604052809291908181526020016000905b828210156127ca57838290600052602060002090600502016040518060a001604052908160008201548152602001600182015481526020016002820154815260200160038201548152602001600482018054600181600116156101000203166002900480601f0160208091040260200160405190810160405280929190818152602001828054600181600116156101000203166002900480156127b25780601f10612787576101008083540402835291602001916127b2565b820191906000526020600020905b81548152906001019060200180831161279557829003601f168201915b505050505081525050815260200190600101906126ce565b505050508152505091505b6001016124c9565b5080516020820151604083015160e084015161010085015161012090950151939e929d50909b50995091975095509350505050565b600080805b600154811015610809576000818152602081905260409020600101546001600160a01b038581169116141561284b57600191505b600101612817565b6000806060600080612863614344565b60008781526020818152604091829020825160a081018452815481526001808301546001600160a01b0316828501526002808401805487516101009482161594909402600019011691909104601f8101869004860283018601875280835292959394938601939192909183018282801561291e5780601f106128f35761010080835404028352916020019161291e565b820191906000526020600020905b81548152906001019060200180831161290157829003601f168201915b50505091835250506003820154602080830191909152600490920154604091820152825191830151908301516060840151608090940151929b919a509850919650945092505050565b6000818152600660205260409020600a81015460609182918291829182919082906001600160401b038111801561299d57600080fd5b506040519080825280602002602001820160405280156129c7578160200160208202803683370190505b50600a8301549091506060906001600160401b03811180156129e857600080fd5b50604051908082528060200260200182016040528015612a12578160200160208202803683370190505b50600a8401549091506060906001600160401b0381118015612a3357600080fd5b50604051908082528060200260200182016040528015612a5d578160200160208202803683370190505b50600a8501549091506060906001600160401b0381118015612a7e57600080fd5b50604051908082528060200260200182016040528015612aa8578160200160208202803683370190505b50600a8601549091506060906001600160401b0381118015612ac957600080fd5b50604051908082528060200260200182016040528015612afd57816020015b6060815260200190600190039081612ae85790505b50905060005b600a870154811015612ca457612b1761425f565b87600a018281548110612b2657fe5b90600052602060002090600502016040518060a001604052908160008201548152602001600182015481526020016002820154815260200160038201548152602001600482018054600181600116156101000203166002900480601f016020809104026020016040519081016040528092919081815260200182805460018160011615610100020316600290048015612c005780601f10612bd557610100808354040283529160200191612c00565b820191906000526020600020905b815481529060010190602001808311612be357829003601f168201915b50505050508152505090508060000151878381518110612c1c57fe5b6020026020010181815250508060200151868381518110612c3957fe5b6020026020010181815250508060400151858381518110612c5657fe5b6020026020010181815250508060600151848381518110612c7357fe5b6020026020010181815250508060800151838381518110612c9057fe5b602090810291909101015250600101612b03565b506005860154600a8701541115612e5b57612cbd61425f565b86600a01876005015481548110612cd057fe5b90600052602060002090600502016040518060a001604052908160008201548152602001600182015481526020016002820154815260200160038201548152602001600482018054600181600116156101000203166002900480601f016020809104026020016040519081016040528092919081815260200182805460018160011615610100020316600290048015612daa5780601f10612d7f57610100808354040283529160200191612daa565b820191906000526020600020905b815481529060010190602001808311612d8d57829003601f168201915b5050505050815250509050806000015186886005015481518110612dca57fe5b602002602001018181525050806020015185886005015481518110612deb57fe5b602002602001018181525050806040015184886005015481518110612e0c57fe5b602002602001018181525050806060015183886005015481518110612e2d57fe5b602002602001018181525050806080015182886005015481518110612e4e57fe5b6020026020010181905250505b939b929a50909850965090945092505050565b60046020908152600091825260409182902080546001808301546002808501805488519481161561010002600019011691909104601f810187900487028401870190975286835292959094919291830182828015612f0d5780601f10612ee257610100808354040283529160200191612f0d565b820191906000526020600020905b815481529060010190602001808311612ef057829003601f168201915b5050505060038301805460408051602060026001851615610100026000190190941693909304601f8101849004840282018401909252818152949594935090830182828015612f9d5780601f10612f7257610100808354040283529160200191612f9d565b820191906000526020600020905b815481529060010190602001808311612f8057829003601f168201915b50505050509080600401549080600501549080600601549080600701549080600801549080600901549080600a01549080600b015490508c565b6000818152600460205260409020600881015460609182918291829182906001600160401b038111801561300a57600080fd5b50604051908082528060200260200182016040528015613034578160200160208202803683370190505b509050606082600801546001600160401b038111801561305357600080fd5b5060405190808252806020026020018201604052801561307d578160200160208202803683370190505b509050606083600801546001600160401b038111801561309c57600080fd5b506040519080825280602002602001820160405280156130d057816020015b60608152602001906001900390816130bb5790505b509050606084600801546001600160401b03811180156130ef57600080fd5b50604051908082528060200260200182016040528015613119578160200160208202803683370190505b5090506000805b6007548110156135885761313261437c565b6000828152600660208181526040808420815161018081018352815481526001820154818501526002820154818401526003820154606082015260048201546080820152600582015460a08201529381015460c0850152600781015460e085015260088101546101008501526009810154610120850152600a81018054835181860281018601909452808452949591946101408701949192909184015b828210156132cb57838290600052602060002090600502016040518060a001604052908160008201548152602001600182015481526020016002820154815260200160038201548152602001600482018054600181600116156101000203166002900480601f0160208091040260200160405190810160405280929190818152602001828054600181600116156101000203166002900480156132b35780601f10613288576101008083540402835291602001916132b3565b820191906000526020600020905b81548152906001019060200180831161329657829003601f168201915b505050505081525050815260200190600101906131cf565b505050508152602001600b8201805480602002602001604051908101604052809291908181526020016000905b828210156133f457838290600052602060002090600502016040518060a001604052908160008201548152602001600182015481526020016002820154815260200160038201548152602001600482018054600181600116156101000203166002900480601f0160208091040260200160405190810160405280929190818152602001828054600181600116156101000203166002900480156133dc5780601f106133b1576101008083540402835291602001916133dc565b820191906000526020600020905b8154815290600101906020018083116133bf57829003601f168201915b505050505081525050815260200190600101906132f8565b50505050815250509050613406614344565b6040828101516000908152602081815290829020825160a081018452815481526001808301546001600160a01b0316828501526002808401805487516101009482161594909402600019011691909104601f810186900486028301860187528083529295939493860193919290918301828280156134c55780601f1061349a576101008083540402835291602001916134c5565b820191906000526020600020905b8154815290600101906020018083116134a857829003601f168201915b505050505081526020016003820154815260200160048201548152505090508d8260200151141561357e57816000015188858151811061350157fe5b602002602001018181525050806020015187858151811061351e57fe5b60200260200101906001600160a01b031690816001600160a01b031681525050806040015186858151811061354f57fe5b602002602001018190525081610120015185858151811061356c57fe5b60209081029190910101526001909301925b5050600101613120565b50939a92995090975095509350505050565b6060806060806060806060806005546001600160401b03811180156135be57600080fd5b506040519080825280602002602001820160405280156135e8578160200160208202803683370190505b50905060606005546001600160401b038111801561360557600080fd5b5060405190808252806020026020018201604052801561363957816020015b60608152602001906001900390816136245790505b50905060606005546001600160401b038111801561365657600080fd5b5060405190808252806020026020018201604052801561368a57816020015b60608152602001906001900390816136755790505b50905060606005546001600160401b03811180156136a757600080fd5b506040519080825280602002602001820160405280156136db57816020015b60608152602001906001900390816136c65790505b50905060606005546001600160401b03811180156136f857600080fd5b50604051908082528060200260200182016040528015613722578160200160208202803683370190505b50905060606005546001600160401b038111801561373f57600080fd5b50604051908082528060200260200182016040528015613769578160200160208202803683370190505b50905060606005546001600160401b038111801561378657600080fd5b506040519080825280602002602001820160405280156137b0578160200160208202803683370190505b50905060005b600554811015613a60576000818152600460205260409020805489518a90849081106137de57fe5b60200260200101818152505060026000826001015481526020019081526020016000206001018054600181600116156101000203166002900480601f0160208091040260200160405190810160405280929190818152602001828054600181600116156101000203166002900480156138985780601f1061386d57610100808354040283529160200191613898565b820191906000526020600020905b81548152906001019060200180831161387b57829003601f168201915b50505050508883815181106138a957fe5b60209081029190910181019190915260028281018054604080516001831615610100026000190190921693909304601f81018590048502820185019093528281529290919083018282801561393f5780601f106139145761010080835404028352916020019161393f565b820191906000526020600020905b81548152906001019060200180831161392257829003601f168201915b505050505087838151811061395057fe5b60209081029190910181019190915260038201805460408051601f60026000196101006001871615020190941693909304928301859004850281018501909152818152928301828280156139e55780601f106139ba576101008083540402835291602001916139e5565b820191906000526020600020905b8154815290600101906020018083116139c857829003601f168201915b50505050508683815181106139f657fe5b60200260200101819052508060040154858381518110613a1257fe5b6020026020010181815250508060050154848381518110613a2f57fe5b6020026020010181815250508060090154838381518110613a4c57fe5b6020908102919091010152506001016137b6565b50959d949c50929a50909850965094509092509050565b600080805b60035481101561080957600081815260026020819052604090912001546001600160a01b038581169116148015613ac457506000818152600260205260409020600401546003145b15613ace57600191505b600101613a7c565b613ade61425f565b613ae661425f565b6000848152600660205260409020600a0180548490811061207f57fe5b6000613b0e33613a77565b90506000613b1b33612812565b90508180613b265750805b613b425760405162461bcd60e51b81526004016105eb906150b8565b6000848152600660205260409020600901548015801590613b64575060078111155b613b805760405162461bcd60e51b81526004016105eb90614cdf565b8360021415613bce5780600114613ba95760405162461bcd60e51b81526004016105eb90614e58565b613bb233612812565b613bce5760405162461bcd60e51b81526004016105eb90614d9e565b8360031480613bdd5750836004145b15613c275780600214613c025760405162461bcd60e51b81526004016105eb90614fb9565b613c0b33613a77565b613c275760405162461bcd60e51b81526004016105eb9061541d565b8360051415613c80578060031480613c3f5750806004145b613c5b5760405162461bcd60e51b81526004016105eb906153a1565b613c6433613a77565b613c805760405162461bcd60e51b81526004016105eb9061541d565b8360061415613cce5780600514613ca95760405162461bcd60e51b81526004016105eb90615216565b613cb233612812565b613cce5760405162461bcd60e51b81526004016105eb90614d9e565b8360071480613cdd5750836008145b15613d275780600614613d025760405162461bcd60e51b81526004016105eb9061547a565b613d0b33613a77565b613d275760405162461bcd60e51b81526004016105eb9061541d565b50505060009182526006602052604090912060090155565b6000613d4a33613a77565b905080613d695760405162461bcd60e51b81526004016105eb90614d73565b600085815260046020526040902060090154600114613d9a5760405162461bcd60e51b81526004016105eb9061517a565b6000858152600460208181526040808420815160a081018352600a82015481528084018b81529281018a8152606082018a8152608083018a8152600c909401805460018181018355918a529887902084516005909a020198895594519488019490945551600287015591516003860155518051919493613e20939085019291019061428e565b505050600094855250506004602052505060409020600a0180546001019055565b60035481565b6008546000906001600160a01b03163314613e745760405162461bcd60e51b81526004016105eb90614f11565b6003546040805160a08101825282815260208082018881526001600160a01b0388168385015242606084015260808301879052600085815260028352939093208251815592518051929392613ecf926001850192019061428e565b5060408201516002820180546001600160a01b0319166001600160a01b03909216919091179055606082015160038083019190915560809092015160049091015580546001019055949350505050565b6006602052806000526040600020600091509050806000015490806001015490806002015490806003015490806004015490806005015490806006015490806007015490806008015490806009015490508a565b6000613f7e33613a77565b905080613f9d5760405162461bcd60e51b81526004016105eb90614d73565b600082118015613fae575060078211155b613fca5760405162461bcd60e51b81526004016105eb906152bb565b8160021415614004576000838152600460205260409020600901546001146140045760405162461bcd60e51b81526004016105eb906152f2565b816003141561403e5760008381526004602052604090206009015460021461403e5760405162461bcd60e51b81526004016105eb90614ece565b8160041415614078576000838152600460205260409020600901546003146140785760405162461bcd60e51b81526004016105eb90614d16565b81600514156140b357600083815260046020819052604090912060090154146140b35760405162461bcd60e51b81526004016105eb90614c73565b81600614156141f4576000838152600460205260409020600901546005146140ed5760405162461bcd60e51b81526004016105eb90614c26565b60005b6007548110156141f2576000818152600660205260409020600101548414156141ea57600081815260066020526040902060090154600314156141ea576000818152600660205260409020600560099091015561414b61425f565b60008082526020808301828152426040808601918252600160608701818152825180870184528781526080890190815289885260068752928720600b018054808401825590885296869020885160059098020196875593519086015590516002850155905160038401555180518493926141cc92600485019291019061428e565b50505060008281526006602081905260409091200180546001019055505b6001016140f0565b505b816007141561422e5760008381526004602052604090206009015460061461422e5760405162461bcd60e51b81526004016105eb906151af565b5060009182526004602052604090912042600782015560090155565b6008546001600160a01b031681565b60055481565b6040518060a0016040528060008152602001600081526020016000815260200160008152602001606081525090565b828054600181600116156101000203166002900490600052602060002090601f016020900481019282601f106142cf57805160ff19168380011785556142fc565b828001600101855582156142fc579182015b828111156142fc5782518255916020019190600101906142e1565b506143089291506143dd565b5090565b6040518060a00160405280600081526020016060815260200160006001600160a01b0316815260200160008152602001600081525090565b6040518060a001604052806000815260200160006001600160a01b031681526020016060815260200160008152602001600081525090565b6040518061018001604052806000815260200160008152602001600081526020016000815260200160008152602001600081526020016000815260200160008152602001600081526020016000815260200160608152602001606081525090565b6143f791905b8082111561430857600081556001016143e3565b90565b600082601f83011261440a578081fd5b813561441d61441882615764565b61573e565b818152915060208083019084810160005b8481101561445757614445888484358a01016144c0565b8452928201929082019060010161442e565b505050505092915050565b600082601f830112614472578081fd5b813561448061441882615764565b8181529150602080830190848101818402860182018710156144a157600080fd5b60005b84811015614457578135845292820192908201906001016144a4565b600082601f8301126144d0578081fd5b81356001600160401b038111156144e5578182fd5b6144f8601f8201601f191660200161573e565b915080825283602082850101111561450f57600080fd5b8060208401602084013760009082016020015292915050565b600060208284031215614539578081fd5b81356145448161578f565b9392505050565b60006020828403121561455c578081fd5b81356001600160401b03811115614571578182fd5b61457d848285016144c0565b949350505050565b600080600060608486031215614599578182fd5b83356001600160401b038111156145ae578283fd5b6145ba868287016144c0565b93505060208401356145cb8161578f565b929592945050506040919091013590565b6000806000806000806000806000806101408b8d0312156145fb578586fd5b8a356001600160401b0380821115614611578788fd5b61461d8e838f016144c0565b9b5060208d0135915080821115614632578788fd5b61463e8e838f016144c0565b9a5060408d0135995060608d0135985060808d0135915080821115614661578788fd5b61466d8e838f01614462565b975060a08d0135915080821115614682578687fd5b61468e8e838f01614462565b965060c08d01359150808211156146a3578586fd5b6146af8e838f016143fa565b955060e08d01359150808211156146c4578485fd5b6146d08e838f01614462565b94506101008d01359150808211156146e6578384fd5b6146f28e838f01614462565b93506101208d0135915080821115614708578283fd5b506147158d828e016143fa565b9150509295989b9194979a5092959850565b600060208284031215614738578081fd5b5035919050565b60008060408385031215614751578182fd5b8235915060208301356147638161578f565b809150509250929050565b60008060408385031215614780578182fd5b8235915060208301356001600160401b0381111561479c578182fd5b6147a8858286016144c0565b9150509250929050565b600080604083850312156147c4578182fd5b50508035926020909101359150565b600080600080608085870312156147e8578384fd5b84359350602085013592506040850135915060608501356001600160401b03811115614812578182fd5b61481e878288016144c0565b91505092959194509250565b6000815180845260208085019450808401835b838110156148625781516001600160a01b03168752958201959082019060010161483d565b509495945050505050565b6000815180845260208085018081965082840281019150828601855b858110156148b35782840389526148a18483516148ef565b98850198935090840190600101614889565b5091979650505050505050565b6000815180845260208085019450808401835b83811015614862578151875295820195908201906001016148d3565b60008151808452815b81811015614914576020818501810151868301820152016148f8565b818111156149255782602083870101525b50601f01601f19169290920160200192915050565b600081546001808216600081146149585760018114614976576149b4565b60028304607f16865260ff19831660208701526040860193506149b4565b6002830480875261498686615783565b60005b828110156149aa5781546020828b0101528482019150602081019050614989565b8801602001955050505b50505092915050565b6001600160a01b0391909116815260200190565b6000608082526149e460808301876148c0565b82810360208401526149f6818761482a565b8381036040850152614a08818761486d565b9150508281036060840152614a1d81856148c0565b979650505050505050565b600060808252614a3b60808301876148c0565b8281036020840152614a4d818761482a565b8381036040850152614a0881876148c0565b600060a08252614a7260a08301886148c0565b8281036020840152614a84818861486d565b8381036040850152614a96818861482a565b9150508281036060840152614aab81866148c0565b8381036080850152614abd81866148c0565b9998505050505050505050565b600060e08252614add60e083018a6148c0565b8281036020840152614aef818a61486d565b8381036040850152614b01818a61486d565b9150508281036060840152614b16818861486d565b8381036080850152614b2881886148c0565b91505082810360a0840152614b3d81866148c0565b83810360c0850152614b4f81866148c0565b9b9a5050505050505050505050565b600060808252614b7160808301876148c0565b8281036020840152614b8381876148c0565b8381036040850152614b9581876148c0565b9150508281036060840152614a1d818561486d565b600060a08252614bbd60a08301886148c0565b8281036020840152614bcf81886148c0565b8381036040850152614be181886148c0565b9150508281036060840152614bf681866148c0565b8381036080850152614abd818661486d565b901515815260200190565b60006020825261454460208301846148ef565b6020808252602d908201527f6f70706f7274756e697479206d75737420626520696e20696e6974696174656460408201526c20666f722066696e616c697a6560981b606082015260800190565b60208082526046908201527f6f70706f7274756e697479206d75737420626520696e206170706c696361746960408201527f6f6e732073656c656374656420666f72206f70706f7274756e69747920696e696060820152651d1a585d195960d21b608082015260a00190565b6020808252601c908201527f6170706c69636174696f6e20737461747573206e6f742076616c696400000000604082015260600190565b60208082526037908201527f6f70706f7274756e697479206d75737420626520696e2072657669657720666f60408201527f72206170706c69636174696f6e732073656c6563746564000000000000000000606082015260800190565b60208082526011908201527037b7363c9037b933b0b734bd30ba34b7b760791b604082015260600190565b60208082526039908201527f6170706c69636174696f6e20737461747573206368616e6765206d757374206260408201527f652065786563757465642062792062656e656669636961727900000000000000606082015260800190565b6020808252603a908201527f6170706c69636174696f6e20686173206e6f74207374617274656420746f207260408201527f65636569766520706f73744163636f6d706c6973686d656e7473000000000000606082015260800190565b60208082526050908201527f6170706c69636174696f6e206d757374206265207072654163636f6d706c697360408201527f686d656e7473207374617274656420746f2062652066696e616c697a6520707260608201526f654163636f6d706c6973686d656e747360801b608082015260a00190565b60208082526023908201527f6f70706f7274756e697479206d757374206265206f70656e20666f722072657660408201526269657760e81b606082015260800190565b6020808252600a908201526937b7363c9030b236b4b760b11b604082015260600190565b60208082526037908201527f70726520726571756972656d656e742076616c756573206e756d626572206d7560408201527f73742068617665207468652073616d65206c656e677468000000000000000000606082015260800190565b6020808252600d908201526c6e616d6520697320656d70747960981b604082015260600190565b60208082526052908201527f6170706c69636174696f6e206d757374206265207072654163636f6d706c697360408201527f686d656e74732066696e616c697a656420746f206265206569746865722061706060820152711c1c9bdd9959081bdc881c995a9958dd195960721b608082015260a00190565b60208082526010908201526f6f6e6c792062656e656669636961727960801b604082015260600190565b60208082526038908201527f706f737420726571756972656d656e742076616c756573206e756d626572206d60408201527f7573742068617665207468652073616d65206c656e6774680000000000000000606082015260800190565b60208082526018908201527f6f6e6c7920616374697665206f7267616e697a6174696f6e0000000000000000604082015260600190565b60208082526039908201527f6170706c69636174696f6e20686173206e6f74207374617274656420746f207260408201527f656365697665207072654163636f6d706c6973686d656e747300000000000000606082015260800190565b6020808252601490820152736465736372697074696f6e20697320656d70747960601b604082015260600190565b6020808252818101527f6f70706f7274756e697479206973206e6f7420696e206472616674206d6f6465604082015260600190565b60208082526041908201527f6f70706f7274756e697479206d7573742062652066696e616c697a656420666f60408201527f7220636c6f736520706f7374526571756972656d656e7420726563657074696f6060820152603760f91b608082015260a00190565b60208082526055908201527f6170706c69636174696f6e206d7573742068617665207374617274656420726560408201527f63656976696e6720706f73744163636f6d706c6973686d656e747320746f206660608201527434b730b634bd329034ba39903932b1b2b83a34b7b760591b608082015260a00190565b60208082526010908201526f3737ba1037b933b0b734bd30ba34b7b760811b604082015260600190565b6020808252601c908201527f6f70706f7274756e69747920737461747573206e6f742076616c696400000000604082015260600190565b60208082526027908201527f6f70706f7274756e697479206d75737420626520696e20647261667420746f2060408201526631329037b832b760c91b606082015260800190565b60208082526025908201527f6f70706f7274756e697479206e6f74206f70656e20666f72206170706c69636160408201526474696f6e7360d81b606082015260800190565b6020808252600990820152683737ba1030b236b4b760b91b604082015260600190565b60208082526056908201527f6170706c69636174696f6e206d7573742062652065697468657220617070726f60408201527f766564206f722072656a656374656420746f20737461727420726563656976696060820152756e6720706f73744163636f6d706c6973686d656e747360501b608082015260a00190565b6020808252603a908201527f6170706c69636174696f6e20737461747573206368616e6765206d757374206260408201527f65206578656375746564206279206f7267616e697a6174696f6e000000000000606082015260800190565b602080825260409082018190527f6170706c69636174696f6e20706f73744163636f6d706c6973686d656e747320908201527f6d7573742062652066696e616c697a656420746f2066696e616c697a65206974606082015260800190565b60006020825282516020830152602083015160408301526040830151606083015260608301516080830152608083015160a08084015261457d60c08401826148ef565b90815260200190565b8581526001600160a01b038516602082015260a06040820181905260009061554e908301866148ef565b606083019490945250608001529392505050565b600086825260a0602083015261557b60a08301876148ef565b6001600160a01b0395909516604083015250606081019290925260809091015292915050565b60006101008a83528060208401526155bb8184018b6148ef565b83810360408501526155cd818b6148ef565b6060850199909952505050608081019490945260a084019290925260c083015260e0909101529392505050565b600084825260606020830152615613606083018561493a565b8281036040840152615625818561493a565b9695505050505050565b918252602082015260400190565b60006101808e83528d602084015280604084015261565d8184018e6148ef565b838103606085015261566f818e6148ef565b608085019c909c5250505060a081019790975260c087019590955260e086019390935261010085019190915261012084015261014083015261016090910152949350505050565b93845260208401929092526040830152606082015260800190565b958652602086019490945260408501929092526060840152608083015260a082015260c00190565b998a5260208a019890985260408901969096526060880194909452608087019290925260a086015260c085015260e08401526101008301526101208201526101400190565b6040518181016001600160401b038111828210171561575c57600080fd5b604052919050565b60006001600160401b03821115615779578081fd5b5060209081020190565b60009081526020902090565b6001600160a01b03811681146157a457600080fd5b5056fea2646970667358221220a498bc3ff83d360f59ded5bcb452ec26113ad38ccba945a09eafc89d53148ad164736f6c63430006070033",
  "linkReferences": {},
  "deployedLinkReferences": {}
}