{
  "_format": "hh-sol-artifact-1",
  "contractName": "AkasifyCoreContract",
  "sourceName": "contracts/AkasifyCoreContract.sol",
  "abi": [
    {
      "inputs": [
        {
          "internalType": "address",
          "name": "_admin",
          "type": "address"
        }
      ],
      "stateMutability": "nonpayable",
      "type": "constructor"
    },
    {
      "anonymous": false,
      "inputs": [
        {
          "indexed": false,
          "internalType": "uint256",
          "name": "id",
          "type": "uint256"
        },
        {
          "indexed": false,
          "internalType": "uint256",
          "name": "opportunityId",
          "type": "uint256"
        }
      ],
      "name": "RegisterApplication",
      "type": "event"
    },
    {
      "anonymous": false,
      "inputs": [
        {
          "indexed": false,
          "internalType": "uint256",
          "name": "id",
          "type": "uint256"
        },
        {
          "indexed": false,
          "internalType": "uint256",
          "name": "requirementId",
          "type": "uint256"
        },
        {
          "indexed": false,
          "internalType": "uint256",
          "name": "applicationId",
          "type": "uint256"
        },
        {
          "indexed": false,
          "internalType": "uint256",
          "name": "opportunityId",
          "type": "uint256"
        }
      ],
      "name": "RegisterApplicationPostAccomplishment",
      "type": "event"
    },
    {
      "anonymous": false,
      "inputs": [
        {
          "indexed": false,
          "internalType": "uint256",
          "name": "id",
          "type": "uint256"
        },
        {
          "indexed": false,
          "internalType": "uint256",
          "name": "requirementId",
          "type": "uint256"
        },
        {
          "indexed": false,
          "internalType": "uint256",
          "name": "applicationId",
          "type": "uint256"
        },
        {
          "indexed": false,
          "internalType": "uint256",
          "name": "opportunityId",
          "type": "uint256"
        }
      ],
      "name": "RegisterApplicationPreAccomplishment",
      "type": "event"
    },
    {
      "anonymous": false,
      "inputs": [
        {
          "indexed": false,
          "internalType": "address",
          "name": "account",
          "type": "address"
        }
      ],
      "name": "RegisterBeneficiary",
      "type": "event"
    },
    {
      "anonymous": false,
      "inputs": [
        {
          "indexed": false,
          "internalType": "uint256",
          "name": "id",
          "type": "uint256"
        },
        {
          "indexed": false,
          "internalType": "string",
          "name": "name",
          "type": "string"
        },
        {
          "indexed": false,
          "internalType": "string",
          "name": "description",
          "type": "string"
        }
      ],
      "name": "RegisterOpportunity",
      "type": "event"
    },
    {
      "anonymous": false,
      "inputs": [
        {
          "indexed": false,
          "internalType": "uint256",
          "name": "id",
          "type": "uint256"
        },
        {
          "indexed": false,
          "internalType": "uint256",
          "name": "status",
          "type": "uint256"
        }
      ],
      "name": "UpdateApplicationStatus",
      "type": "event"
    },
    {
      "anonymous": false,
      "inputs": [
        {
          "indexed": false,
          "internalType": "uint256",
          "name": "id",
          "type": "uint256"
        },
        {
          "indexed": false,
          "internalType": "uint256",
          "name": "status",
          "type": "uint256"
        }
      ],
      "name": "UpdateOpportunityStatus",
      "type": "event"
    },
    {
      "inputs": [],
      "name": "admin",
      "outputs": [
        {
          "internalType": "address",
          "name": "",
          "type": "address"
        }
      ],
      "stateMutability": "view",
      "type": "function"
    },
    {
      "inputs": [
        {
          "internalType": "uint256",
          "name": "",
          "type": "uint256"
        }
      ],
      "name": "applications",
      "outputs": [
        {
          "internalType": "uint256",
          "name": "id",
          "type": "uint256"
        },
        {
          "internalType": "uint256",
          "name": "opportunityId",
          "type": "uint256"
        },
        {
          "internalType": "uint256",
          "name": "beneficiaryId",
          "type": "uint256"
        },
        {
          "internalType": "uint256",
          "name": "nextPreRequirementId",
          "type": "uint256"
        },
        {
          "internalType": "uint256",
          "name": "nextPostRequirementId",
          "type": "uint256"
        },
        {
          "internalType": "uint256",
          "name": "nextPreAccomplishmentId",
          "type": "uint256"
        },
        {
          "internalType": "uint256",
          "name": "nextPostAccomplishmentId",
          "type": "uint256"
        },
        {
          "internalType": "uint256",
          "name": "creationDate",
          "type": "uint256"
        },
        {
          "internalType": "uint256",
          "name": "lastUpdate",
          "type": "uint256"
        },
        {
          "internalType": "uint256",
          "name": "status",
          "type": "uint256"
        }
      ],
      "stateMutability": "view",
      "type": "function"
    },
    {
      "inputs": [
        {
          "internalType": "uint256",
          "name": "opportunityId",
          "type": "uint256"
        }
      ],
      "name": "createApplication",
      "outputs": [],
      "stateMutability": "nonpayable",
      "type": "function"
    },
    {
      "inputs": [
        {
          "internalType": "string",
          "name": "name",
          "type": "string"
        },
        {
          "internalType": "string",
          "name": "description",
          "type": "string"
        },
        {
          "internalType": "string",
          "name": "imageHash",
          "type": "string"
        },
        {
          "internalType": "uint256",
          "name": "preRequirementsDeadline",
          "type": "uint256"
        },
        {
          "internalType": "uint256",
          "name": "postRequirementsDeadline",
          "type": "uint256"
        },
        {
          "internalType": "uint256[]",
          "name": "preRequirementTypes",
          "type": "uint256[]"
        },
        {
          "internalType": "uint256[]",
          "name": "preRequirementValues",
          "type": "uint256[]"
        },
        {
          "internalType": "string[]",
          "name": "preRequirementNames",
          "type": "string[]"
        },
        {
          "internalType": "uint256[]",
          "name": "postRequirementTypes",
          "type": "uint256[]"
        },
        {
          "internalType": "uint256[]",
          "name": "postRequirementValues",
          "type": "uint256[]"
        },
        {
          "internalType": "string[]",
          "name": "postRequirementNames",
          "type": "string[]"
        }
      ],
      "name": "createOpportunity",
      "outputs": [],
      "stateMutability": "nonpayable",
      "type": "function"
    },
    {
      "inputs": [
        {
          "internalType": "uint256",
          "name": "applicationId",
          "type": "uint256"
        },
        {
          "internalType": "string",
          "name": "accomplishmentValue",
          "type": "string"
        }
      ],
      "name": "createPostAccomplishment",
      "outputs": [],
      "stateMutability": "nonpayable",
      "type": "function"
    },
    {
      "inputs": [
        {
          "internalType": "uint256",
          "name": "opportunityId",
          "type": "uint256"
        },
        {
          "internalType": "uint256",
          "name": "requirementType",
          "type": "uint256"
        },
        {
          "internalType": "uint256",
          "name": "transferValue",
          "type": "uint256"
        },
        {
          "internalType": "string",
          "name": "name",
          "type": "string"
        }
      ],
      "name": "createPostRequirement",
      "outputs": [],
      "stateMutability": "nonpayable",
      "type": "function"
    },
    {
      "inputs": [
        {
          "internalType": "uint256",
          "name": "applicationId",
          "type": "uint256"
        },
        {
          "internalType": "string",
          "name": "accomplishmentValue",
          "type": "string"
        }
      ],
      "name": "createPreAccomplishment",
      "outputs": [],
      "stateMutability": "nonpayable",
      "type": "function"
    },
    {
      "inputs": [
        {
          "internalType": "uint256",
          "name": "opportunityId",
          "type": "uint256"
        },
        {
          "internalType": "uint256",
          "name": "requirementType",
          "type": "uint256"
        },
        {
          "internalType": "uint256",
          "name": "transferValue",
          "type": "uint256"
        },
        {
          "internalType": "string",
          "name": "name",
          "type": "string"
        }
      ],
      "name": "createPreRequirement",
      "outputs": [],
      "stateMutability": "nonpayable",
      "type": "function"
    },
    {
      "inputs": [
        {
          "internalType": "uint256",
          "name": "opportunityId",
          "type": "uint256"
        },
        {
          "internalType": "address",
          "name": "beneficiaryAddress",
          "type": "address"
        }
      ],
      "name": "getApplication",
      "outputs": [
        {
          "internalType": "uint256",
          "name": "",
          "type": "uint256"
        },
        {
          "internalType": "uint256",
          "name": "",
          "type": "uint256"
        },
        {
          "internalType": "uint256",
          "name": "",
          "type": "uint256"
        },
        {
          "internalType": "uint256",
          "name": "",
          "type": "uint256"
        },
        {
          "internalType": "uint256",
          "name": "",
          "type": "uint256"
        },
        {
          "internalType": "uint256",
          "name": "",
          "type": "uint256"
        }
      ],
      "stateMutability": "view",
      "type": "function"
    },
    {
      "inputs": [
        {
          "internalType": "uint256",
          "name": "opportunityId",
          "type": "uint256"
        }
      ],
      "name": "getApplicationsByOpportunityId",
      "outputs": [
        {
          "internalType": "uint256[]",
          "name": "",
          "type": "uint256[]"
        },
        {
          "internalType": "address[]",
          "name": "",
          "type": "address[]"
        },
        {
          "internalType": "string[]",
          "name": "",
          "type": "string[]"
        },
        {
          "internalType": "uint256[]",
          "name": "",
          "type": "uint256[]"
        }
      ],
      "stateMutability": "view",
      "type": "function"
    },
    {
      "inputs": [],
      "name": "getBeneficiaries",
      "outputs": [
        {
          "internalType": "uint256[]",
          "name": "",
          "type": "uint256[]"
        },
        {
          "internalType": "address[]",
          "name": "",
          "type": "address[]"
        },
        {
          "internalType": "uint256[]",
          "name": "",
          "type": "uint256[]"
        },
        {
          "internalType": "uint256[]",
          "name": "",
          "type": "uint256[]"
        }
      ],
      "stateMutability": "view",
      "type": "function"
    },
    {
      "inputs": [
        {
          "internalType": "uint256",
          "name": "_id",
          "type": "uint256"
        }
      ],
      "name": "getBeneficiaryById",
      "outputs": [
        {
          "internalType": "uint256",
          "name": "",
          "type": "uint256"
        },
        {
          "internalType": "address",
          "name": "",
          "type": "address"
        },
        {
          "internalType": "string",
          "name": "",
          "type": "string"
        },
        {
          "internalType": "uint256",
          "name": "",
          "type": "uint256"
        },
        {
          "internalType": "uint256",
          "name": "",
          "type": "uint256"
        }
      ],
      "stateMutability": "view",
      "type": "function"
    },
    {
      "inputs": [
        {
          "internalType": "address",
          "name": "account",
          "type": "address"
        }
      ],
      "name": "getBeneficiaryIdByAddress",
      "outputs": [
        {
          "internalType": "uint256",
          "name": "",
          "type": "uint256"
        }
      ],
      "stateMutability": "view",
      "type": "function"
    },
    {
      "inputs": [
        {
          "internalType": "address",
          "name": "account",
          "type": "address"
        }
      ],
      "name": "getBeneficiaryStatusByAddress",
      "outputs": [
        {
          "internalType": "uint256",
          "name": "",
          "type": "uint256"
        }
      ],
      "stateMutability": "view",
      "type": "function"
    },
    {
      "inputs": [],
      "name": "getOpportunities",
      "outputs": [
        {
          "internalType": "uint256[]",
          "name": "",
          "type": "uint256[]"
        },
        {
          "internalType": "string[]",
          "name": "",
          "type": "string[]"
        },
        {
          "internalType": "string[]",
          "name": "",
          "type": "string[]"
        },
        {
          "internalType": "string[]",
          "name": "",
          "type": "string[]"
        },
        {
          "internalType": "string[]",
          "name": "",
          "type": "string[]"
        },
        {
          "internalType": "uint256[]",
          "name": "",
          "type": "uint256[]"
        },
        {
          "internalType": "uint256[]",
          "name": "",
          "type": "uint256[]"
        },
        {
          "internalType": "uint256[]",
          "name": "",
          "type": "uint256[]"
        }
      ],
      "stateMutability": "view",
      "type": "function"
    },
    {
      "inputs": [
        {
          "internalType": "uint256",
          "name": "opportunityId",
          "type": "uint256"
        }
      ],
      "name": "getOpportunityById",
      "outputs": [
        {
          "internalType": "uint256",
          "name": "",
          "type": "uint256"
        },
        {
          "internalType": "string",
          "name": "",
          "type": "string"
        },
        {
          "internalType": "string",
          "name": "",
          "type": "string"
        },
        {
          "internalType": "string",
          "name": "",
          "type": "string"
        },
        {
          "internalType": "uint256",
          "name": "",
          "type": "uint256"
        },
        {
          "internalType": "uint256",
          "name": "",
          "type": "uint256"
        },
        {
          "internalType": "uint256",
          "name": "",
          "type": "uint256"
        },
        {
          "internalType": "uint256",
          "name": "",
          "type": "uint256"
        },
        {
          "internalType": "uint256",
          "name": "",
          "type": "uint256"
        }
      ],
      "stateMutability": "view",
      "type": "function"
    },
    {
      "inputs": [
        {
          "internalType": "uint256",
          "name": "_id",
          "type": "uint256"
        }
      ],
      "name": "getOrganizationById",
      "outputs": [
        {
          "internalType": "uint256",
          "name": "",
          "type": "uint256"
        },
        {
          "internalType": "string",
          "name": "",
          "type": "string"
        },
        {
          "internalType": "address",
          "name": "",
          "type": "address"
        },
        {
          "internalType": "uint256",
          "name": "",
          "type": "uint256"
        },
        {
          "internalType": "uint256",
          "name": "",
          "type": "uint256"
        }
      ],
      "stateMutability": "view",
      "type": "function"
    },
    {
      "inputs": [
        {
          "internalType": "address",
          "name": "account",
          "type": "address"
        }
      ],
      "name": "getOrganizationIdByAddress",
      "outputs": [
        {
          "internalType": "uint256",
          "name": "",
          "type": "uint256"
        }
      ],
      "stateMutability": "view",
      "type": "function"
    },
    {
      "inputs": [],
      "name": "getOrganizations",
      "outputs": [
        {
          "internalType": "uint256[]",
          "name": "",
          "type": "uint256[]"
        },
        {
          "internalType": "string[]",
          "name": "",
          "type": "string[]"
        },
        {
          "internalType": "address[]",
          "name": "",
          "type": "address[]"
        },
        {
          "internalType": "uint256[]",
          "name": "",
          "type": "uint256[]"
        },
        {
          "internalType": "uint256[]",
          "name": "",
          "type": "uint256[]"
        }
      ],
      "stateMutability": "view",
      "type": "function"
    },
    {
      "inputs": [
        {
          "internalType": "uint256",
          "name": "applicationId",
          "type": "uint256"
        },
        {
          "internalType": "uint256",
          "name": "postAccomplishmentId",
          "type": "uint256"
        }
      ],
      "name": "getPostAccomplishment",
      "outputs": [
        {
          "components": [
            {
              "internalType": "uint256",
              "name": "id",
              "type": "uint256"
            },
            {
              "internalType": "uint256",
              "name": "requirementId",
              "type": "uint256"
            },
            {
              "internalType": "uint256",
              "name": "accomplishDate",
              "type": "uint256"
            },
            {
              "internalType": "uint256",
              "name": "accomplishCategory",
              "type": "uint256"
            },
            {
              "internalType": "string",
              "name": "accomplishValue",
              "type": "string"
            }
          ],
          "internalType": "struct AkasifyCoreContract.Accomplishment",
          "name": "_accomplishment",
          "type": "tuple"
        }
      ],
      "stateMutability": "view",
      "type": "function"
    },
    {
      "inputs": [
        {
          "internalType": "uint256",
          "name": "opportunityId",
          "type": "uint256"
        }
      ],
      "name": "getPostRequirementsByOpportunityId",
      "outputs": [
        {
          "internalType": "uint256[]",
          "name": "",
          "type": "uint256[]"
        },
        {
          "internalType": "uint256[]",
          "name": "",
          "type": "uint256[]"
        },
        {
          "internalType": "uint256[]",
          "name": "",
          "type": "uint256[]"
        },
        {
          "internalType": "string[]",
          "name": "",
          "type": "string[]"
        }
      ],
      "stateMutability": "view",
      "type": "function"
    },
    {
      "inputs": [
        {
          "internalType": "uint256",
          "name": "applicationId",
          "type": "uint256"
        },
        {
          "internalType": "uint256",
          "name": "preAccomplishmentId",
          "type": "uint256"
        }
      ],
      "name": "getPreAccomplishment",
      "outputs": [
        {
          "components": [
            {
              "internalType": "uint256",
              "name": "id",
              "type": "uint256"
            },
            {
              "internalType": "uint256",
              "name": "requirementId",
              "type": "uint256"
            },
            {
              "internalType": "uint256",
              "name": "accomplishDate",
              "type": "uint256"
            },
            {
              "internalType": "uint256",
              "name": "accomplishCategory",
              "type": "uint256"
            },
            {
              "internalType": "string",
              "name": "accomplishValue",
              "type": "string"
            }
          ],
          "internalType": "struct AkasifyCoreContract.Accomplishment",
          "name": "_accomplishment",
          "type": "tuple"
        }
      ],
      "stateMutability": "view",
      "type": "function"
    },
    {
      "inputs": [
        {
          "internalType": "uint256",
          "name": "applicationId",
          "type": "uint256"
        }
      ],
      "name": "getPreAccomplishmentsByApplicationId",
      "outputs": [
        {
          "internalType": "uint256[]",
          "name": "",
          "type": "uint256[]"
        },
        {
          "internalType": "uint256[]",
          "name": "",
          "type": "uint256[]"
        },
        {
          "internalType": "uint256[]",
          "name": "",
          "type": "uint256[]"
        },
        {
          "internalType": "uint256[]",
          "name": "",
          "type": "uint256[]"
        },
        {
          "internalType": "string[]",
          "name": "",
          "type": "string[]"
        }
      ],
      "stateMutability": "view",
      "type": "function"
    },
    {
      "inputs": [
        {
          "internalType": "uint256",
          "name": "opportunityId",
          "type": "uint256"
        }
      ],
      "name": "getPreRequirementsByOpportunityId",
      "outputs": [
        {
          "internalType": "uint256[]",
          "name": "",
          "type": "uint256[]"
        },
        {
          "internalType": "uint256[]",
          "name": "",
          "type": "uint256[]"
        },
        {
          "internalType": "uint256[]",
          "name": "",
          "type": "uint256[]"
        },
        {
          "internalType": "string[]",
          "name": "",
          "type": "string[]"
        }
      ],
      "stateMutability": "view",
      "type": "function"
    },
    {
      "inputs": [
        {
          "internalType": "address",
          "name": "account",
          "type": "address"
        }
      ],
      "name": "getRole",
      "outputs": [
        {
          "internalType": "string",
          "name": "",
          "type": "string"
        }
      ],
      "stateMutability": "view",
      "type": "function"
    },
    {
      "inputs": [
        {
          "internalType": "address",
          "name": "account",
          "type": "address"
        }
      ],
      "name": "isActiveBeneficiary",
      "outputs": [
        {
          "internalType": "bool",
          "name": "",
          "type": "bool"
        }
      ],
      "stateMutability": "view",
      "type": "function"
    },
    {
      "inputs": [
        {
          "internalType": "address",
          "name": "account",
          "type": "address"
        }
      ],
      "name": "isBeneficiary",
      "outputs": [
        {
          "internalType": "bool",
          "name": "",
          "type": "bool"
        }
      ],
      "stateMutability": "view",
      "type": "function"
    },
    {
      "inputs": [
        {
          "internalType": "address",
          "name": "account",
          "type": "address"
        }
      ],
      "name": "isOrganization",
      "outputs": [
        {
          "internalType": "bool",
          "name": "",
          "type": "bool"
        }
      ],
      "stateMutability": "view",
      "type": "function"
    },
    {
      "inputs": [],
      "name": "nextApplicationId",
      "outputs": [
        {
          "internalType": "uint256",
          "name": "",
          "type": "uint256"
        }
      ],
      "stateMutability": "view",
      "type": "function"
    },
    {
      "inputs": [],
      "name": "nextBeneficiaryId",
      "outputs": [
        {
          "internalType": "uint256",
          "name": "",
          "type": "uint256"
        }
      ],
      "stateMutability": "view",
      "type": "function"
    },
    {
      "inputs": [],
      "name": "nextOpportunityId",
      "outputs": [
        {
          "internalType": "uint256",
          "name": "",
          "type": "uint256"
        }
      ],
      "stateMutability": "view",
      "type": "function"
    },
    {
      "inputs": [],
      "name": "nextOrganizationId",
      "outputs": [
        {
          "internalType": "uint256",
          "name": "",
          "type": "uint256"
        }
      ],
      "stateMutability": "view",
      "type": "function"
    },
    {
      "inputs": [
        {
          "internalType": "uint256",
          "name": "",
          "type": "uint256"
        }
      ],
      "name": "opportunities",
      "outputs": [
        {
          "internalType": "uint256",
          "name": "id",
          "type": "uint256"
        },
        {
          "internalType": "uint256",
          "name": "organizationId",
          "type": "uint256"
        },
        {
          "internalType": "string",
          "name": "name",
          "type": "string"
        },
        {
          "internalType": "string",
          "name": "description",
          "type": "string"
        },
        {
          "internalType": "string",
          "name": "imageHash",
          "type": "string"
        },
        {
          "internalType": "uint256",
          "name": "preRequirementsDeadline",
          "type": "uint256"
        },
        {
          "internalType": "uint256",
          "name": "postRequirementsDeadline",
          "type": "uint256"
        },
        {
          "internalType": "uint256",
          "name": "creationDate",
          "type": "uint256"
        },
        {
          "internalType": "uint256",
          "name": "lastUpdate",
          "type": "uint256"
        },
        {
          "internalType": "uint256",
          "name": "applicationCount",
          "type": "uint256"
        },
        {
          "internalType": "uint256",
          "name": "status",
          "type": "uint256"
        },
        {
          "internalType": "uint256",
          "name": "nextPreRequirementId",
          "type": "uint256"
        },
        {
          "internalType": "uint256",
          "name": "nextPostRequirementId",
          "type": "uint256"
        }
      ],
      "stateMutability": "view",
      "type": "function"
    },
    {
      "inputs": [
        {
          "internalType": "string",
          "name": "_oasisAddress",
          "type": "string"
        }
      ],
      "name": "registerBeneficiary",
      "outputs": [],
      "stateMutability": "nonpayable",
      "type": "function"
    },
    {
      "inputs": [
        {
          "internalType": "string",
          "name": "name",
          "type": "string"
        },
        {
          "internalType": "address payable",
          "name": "account",
          "type": "address"
        },
        {
          "internalType": "uint256",
          "name": "status",
          "type": "uint256"
        }
      ],
      "name": "registerOrganizationByAdmin",
      "outputs": [
        {
          "internalType": "uint256",
          "name": "",
          "type": "uint256"
        }
      ],
      "stateMutability": "nonpayable",
      "type": "function"
    },
    {
      "inputs": [
        {
          "internalType": "uint256",
          "name": "applicationId",
          "type": "uint256"
        },
        {
          "internalType": "uint256",
          "name": "status",
          "type": "uint256"
        }
      ],
      "name": "updateApplicationStatus",
      "outputs": [],
      "stateMutability": "nonpayable",
      "type": "function"
    },
    {
      "inputs": [
        {
          "internalType": "uint256",
          "name": "opportunityId",
          "type": "uint256"
        },
        {
          "internalType": "uint256",
          "name": "status",
          "type": "uint256"
        }
      ],
      "name": "updateOpportunityStatus",
      "outputs": [],
      "stateMutability": "nonpayable",
      "type": "function"
    }
  ],
  "bytecode": "0x60806040523480156200001157600080fd5b5060405162005b3038038062005b3083398101604081905262000034916200005a565b600880546001600160a01b0319166001600160a01b03929092169190911790556200008a565b6000602082840312156200006c578081fd5b81516001600160a01b038116811462000083578182fd5b9392505050565b615a96806200009a6000396000f3fe608060405234801561001057600080fd5b50600436106102275760003560e01c8063957abe0b11610130578063b1ce8eab116100b8578063df19ce4d1161007c578063df19ce4d14610551578063dfefadff14610564578063eadd2f611461058d578063f851a440146105a0578063fcfb8bb2146105b557610227565b8063b1ce8eab146104fd578063c821b4fb14610510578063cfd664d614610523578063d11f3c4714610536578063d2830de31461054957610227565b8063aa0a57ab116100ff578063aa0a57ab1461044a578063acaf764d1461046e578063acd6c98f14610492578063ad41ac3d146104be578063aed35ccc146104e157610227565b8063957abe0b146103d95780639754a3a8146103f957806398077031146104125780639d19b2261461043757610227565b8063625338cb116101b3578063706f48b111610182578063706f48b1146103605780637a47523b14610373578063857bbd281461039b5780638c4be5eb146103ae578063913b722c146103c157610227565b8063625338cb1461030e578063635c5455146103165780636ddc232b1461033a5780636e46cc4e1461034d57610227565b80633859305e116101fa5780633859305e1461029d57806344276733146102a55780634bcaaa01146102c55780634f4e4534146102e85780635080d5fb146102fb57610227565b80631283ca701461022c578063222f926c1461024157806327f9e10514610254578063292719d31461027d575b600080fd5b61023f61023a36600461499d565b6105bd565b005b61023f61024f366004614823565b6107aa565b61026761026236600461476f565b610bf5565b6040516102749190614e95565b60405180910390f35b61029061028b36600461476f565b610c5c565b60405161027491906157a8565b610290610caa565b6102b86102b336600461476f565b610cb0565b6040516102749190614ea0565b6102d86102d336600461499d565b610d86565b6040516102749493929190614deb565b61023f6102f63660046149e4565b611063565b61029061030936600461476f565b61132c565b610290611398565b61032961032436600461499d565b61139e565b6040516102749594939291906157ef565b61023f610348366004614792565b6114d1565b61029061035b36600461476f565b6115fa565b61023f61036e3660046149e4565b611668565b61038661038136600461499d565b611869565b6040516102749998979695949392919061582e565b61023f6103a9366004614a49565b611a90565b6102d86103bc36600461499d565b611b92565b6103c9611e5e565b6040516102749493929190614c9e565b6103ec6103e7366004614a28565b61210e565b6040516102749190615765565b610401612228565b604051610274959493929190614cd5565b6104256104203660046149b5565b612564565b6040516102749695949392919061598a565b61026761044536600461476f565b6128ce565b61045d61045836600461499d565b61290f565b6040516102749594939291906157b1565b61048161047c36600461499d565b612a23565b604051610274959493929190614e37565b6104a56104a036600461499d565b612f2a565b6040516102749d9c9b9a999897969594939291906158e0565b6104d16104cc36600461499d565b613123565b6040516102749493929190614c47565b6104e96136e6565b604051610274989796959493929190614d40565b61026761050b36600461476f565b613cbe565b6103ec61051e366004614a28565b613d1d565b61023f610531366004614a28565b613d4a565b61023f610544366004614a49565b613f86565b610290614088565b61029061055f3660046147cc565b61408e565b61057761057236600461499d565b614166565b6040516102749a999897969594939291906159b2565b61023f61059b366004614a28565b6141ba565b6105a8614491565b6040516102749190614c33565b6102906144a0565b6000818152600460205260409020600a01546002146105f75760405162461bcd60e51b81526004016105ee906155c6565b60405180910390fd5b600754600081815260066020526040902090815560010181905561061a33610c5c565b60058054600090815260066020818152604080842060020195909555600780548452858420600301849055805484528584206004908101859055815485528685209095018490558054845285842090920183905581548352848320429083018190558254845285842060080155905482528382206001600991820181905586845293909152929020909101805490910190556106b46144a6565b600080825260208083018281524260408086019182526001606087018181528251808701845287815260808901908152600754885260068752928720600a018054808401825590885296869020885160059098020196875593519086015590516002850155905160038401555180518493926107379260048501929101906144d5565b505060078054600090815260066020526040808220600501805460019081019091559254808352918190209092015491517ff0ecfc9d01e072b344ab803487dff20893bdb9f671d08bd9e260d0f8b5fae84d935061079592906158d2565b60405180910390a15050600780546001019055565b60006107b533613cbe565b9050806107d45760405162461bcd60e51b81526004016105ee90615000565b60008c51116107f55760405162461bcd60e51b81526004016105ee9061521f565b60008b51116108165760405162461bcd60e51b81526004016105ee906153d9565b85518751148015610828575084518651145b6108445760405162461bcd60e51b81526004016105ee906151c2565b82518451148015610856575081518351145b6108725760405162461bcd60e51b81526004016105ee906152e8565b60055460008181526004602052604090205561088d3361132c565b6005805460009081526004602090815260408083206001019490945591548152919091208d516108c5926002909201918f01906144d5565b5060055460009081526004602081815260409092208c516108ee939190920191908d01906144d5565b5060055460009081526004602090815260409091208c51610917926003909201918e01906144d5565b50600580546000908152600460205260408082204260079091018190558354835281832084018d9055835483528183206006018c90558354835281832060080155915481529081206001600a909101555b8751811015610a7757600554600081815260046020908152604091829020825160a081018452600b8201548152918201939093528a51600d9093019290918201908b90859081106109b557fe5b602002602001015181526020018984815181106109ce57fe5b602002602001015181526020018884815181106109e757fe5b60209081029190910181015190915282546001818101855560009485529382902083516005909202019081558282015193810193909355604082015160028401556060820151600384015560808201518051929392610a4c92600485019201906144d5565b50506005546000908152600460205260409020600b0180546001908101909155919091019050610968565b5060005b8451811015610b8a57600554600081815260046020908152604091829020825160a081018452600c8201548152918201939093528751600e909301929091820190889085908110610ac857fe5b60200260200101518152602001868481518110610ae157fe5b60200260200101518152602001858481518110610afa57fe5b60209081029190910181015190915282546001818101855560009485529382902083516005909202019081558282015193810193909355604082015160028401556060820151600384015560808201518051929392610b5f92600485019201906144d5565b50506005546000908152600460205260409020600c0180546001908101909155919091019050610a7b565b506005546000818152600460205260409081902090517f217f6f8566b5368c91631b32159051c0f0fc3ed5c77908901e6a2ef3f7df835992610bd692909160028201916003019061589d565b60405180910390a1505060058054600101905550505050505050505050565b600080805b600154811015610c53576000818152602081905260409020600101546001600160a01b038581169116148015610c4157506000818152602081905260409020600401546003145b15610c4b57600191505b600101610bfa565b5090505b919050565b600080805b600154811015610c53576000818152602081905260409020600101546001600160a01b0385811691161415610ca25760008181526020819052604090205491505b600101610c61565b60015481565b6008546060906001600160a01b0383811691161415610ceb575060408051808201909152600581526430b236b4b760d91b6020820152610c57565b610cf482613cbe565b151560011415610d27575060408051808201909152600c81526b37b933b0b734bd30ba34b7b760a11b6020820152610c57565b610d30826128ce565b151560011415610d62575060408051808201909152600b81526a62656e656669636961727960a81b6020820152610c57565b506040805180820190915260078152663b34b9b4ba37b960c91b6020820152610c57565b6000818152600460205260409020600c81015460609182918291829182906001600160401b0381118015610db957600080fd5b50604051908082528060200260200182016040528015610de3578160200160208202803683370190505b509050606082600c01546001600160401b0381118015610e0257600080fd5b50604051908082528060200260200182016040528015610e2c578160200160208202803683370190505b509050606083600c01546001600160401b0381118015610e4b57600080fd5b50604051908082528060200260200182016040528015610e75578160200160208202803683370190505b509050606084600c01546001600160401b0381118015610e9457600080fd5b50604051908082528060200260200182016040528015610ec857816020015b6060815260200190600190039081610eb35790505b50905060005b85600c015481101561105257610ee26144a6565b86600e018281548110610ef157fe5b90600052602060002090600502016040518060a001604052908160008201548152602001600182015481526020016002820154815260200160038201548152602001600482018054600181600116156101000203166002900480601f016020809104026020016040519081016040528092919081815260200182805460018160011615610100020316600290048015610fcb5780601f10610fa057610100808354040283529160200191610fcb565b820191906000526020600020905b815481529060010190602001808311610fae57829003601f168201915b50505050508152505090508060000151868381518110610fe757fe5b602002602001018181525050806040015185838151811061100457fe5b602002602001018181525050806060015184838151811061102157fe5b602002602001018181525050806080015183838151811061103e57fe5b602090810291909101015250600101610ece565b509299919850965090945092505050565b600061106e336128ce565b90508061108d5760405162461bcd60e51b81526004016105ee906152be565b6000838152600660205260409020600901546001146110be5760405162461bcd60e51b81526004016105ee9061537c565b6000838152600660208181526040808420815160a081018352600580830154825294845260038083015482860190815242948301948552600260608401818152608085018c8152600a909601805460018181018355918c529a89902086519b909a02909901998a559151978901979097559351958701959095559151938501939093559151805192939261115892600485019201906144d5565b50505060008381526006602090815260408083206003810154600191820154855260049093529220600b0154910110156112b25760008381526006602081815260408084206005808201805460019081019182905560038085018054830190819055865160a08101885293845297875282870197885242838701908152606084018381528751808a019098528a885260808501978852600a90960180548085018255908b529988902084519a9095029094019889559651908801559051600287015590519385019390935551805192939261123992600485019201906144d5565b505050600083815260066020526040908190206005810154600382015460019092015492517f3bd69d0338add0787747b118da14e4aeba941afe53638eab003a9d359f3214af9361128d939188919061596f565b60405180910390a1600083815260066020526040902060050180546001019055611313565b60008381526006602052604090819020600260098201556005810154600382015460019092015492517f3bd69d0338add0787747b118da14e4aeba941afe53638eab003a9d359f3214af9361130a939188919061596f565b60405180910390a15b5050600090815260066020526040902042600890910155565b600080805b600354811015610c5357600081815260026020819052604090912001546001600160a01b03858116911614801561137957506000818152600260205260409020600401546003145b156113905760008181526002602052604090205491505b600101611331565b60075481565b6000606060008060006113af614553565b600260008881526020019081526020016000206040518060a001604052908160008201548152602001600182018054600181600116156101000203166002900480601f0160208091040260200160405190810160405280929190818152602001828054600181600116156101000203166002900480156114705780601f1061144557610100808354040283529160200191611470565b820191906000526020600020905b81548152906001019060200180831161145357829003601f168201915b505050918352505060028201546001600160a01b031660208083019190915260038301546040808401919091526004909301546060928301528351908401519284015191840151608090940151909b929a5090985091965090945092505050565b6008546001600160a01b03163314156114fc5760405162461bcd60e51b81526004016105ee9061560b565b600061150733613cbe565b905080156115275760405162461bcd60e51b81526004016105ee9061551e565b6040805160a081018252600180548083523360208085019182528486018881524260608701526003608087015260009384528382529590922084518155905192810180546001600160a01b0319166001600160a01b0390941693909317909255925180519293919261159f92600285019201906144d5565b506060820151600382015560809091015160049091015560018054810190556040517f67bf623e5c0c95725ab7b0d181e969032a96122e243710f76311bae55f89df71906115ee903390614c33565b60405180910390a15050565b600080805b600154811015610c53576000818152602081905260409020600101546001600160a01b03858116911614801561164657506000818152602081905260409020600401546003145b156116605760008181526020819052604090206004015491505b6001016115ff565b6000611673336128ce565b9050806116925760405162461bcd60e51b81526004016105ee906152be565b6000838152600660205260409020600901546005146116c35760405162461bcd60e51b81526004016105ee90615088565b6000838152600660208181526040808420815160a08101835281850154815293835260048082015485850190815242938601938452600260608701818152608088018b8152600b909501805460018181018355918b529988902089516005909b0201998a5592519289019290925593519387019390935591516003860155518051939493611759939285019291909101906144d5565b5050506000838152600660209081526040808320600480820154600192830154865293529220600c01549101101561184e576000838152600660208181526040808420808401805460019081019182905560048084018054830190819055855160a0810187529384529686528286019687524294830194855260608301828152608084018b8152600b90950180548085018255908a529887902084516005909a0201988955965191880191909155925160028701559351600386015551805193949361182d939285019291909101906144d5565b50505060008381526006602081905260409091200180546001019055611864565b6000838152600660208190526040909120600901555b505050565b60006060806060600080600080600080600460008c815260200190815260200160002090508060010154816002018260030183600401846005015485600601548660070154876008015488600a0154878054600181600116156101000203166002900480601f01602080910402602001604051908101604052809291908181526020018280546001816001161561010002031660029004801561194d5780601f106119225761010080835404028352916020019161194d565b820191906000526020600020905b81548152906001019060200180831161193057829003601f168201915b50508a5460408051602060026001851615610100026000190190941693909304601f8101849004840282018401909252818152959d508c9450925084019050828280156119db5780601f106119b0576101008083540402835291602001916119db565b820191906000526020600020905b8154815290600101906020018083116119be57829003601f168201915b5050895460408051602060026001851615610100026000190190941693909304601f8101849004840282018401909252818152959c508b945092508401905082828015611a695780601f10611a3e57610100808354040283529160200191611a69565b820191906000526020600020905b815481529060010190602001808311611a4c57829003601f168201915b50505050509550995099509950995099509950995099509950509193959799909294969850565b6000611a9b33613cbe565b905080611aba5760405162461bcd60e51b81526004016105ee90615000565b6000858152600460205260409020600a0154600114611aeb5760405162461bcd60e51b81526004016105ee90615407565b6000858152600460208181526040808420815160a081018352600c82015481528084018b81529281018a8152606082018a8152608083018a8152600e909401805460018181018355918a529887902084516005909a020198895594519488019490945551600287015591516003860155518051919493611b7193908501929101906144d5565b505050600094855250506004602052505060409020600c0180546001019055565b6000818152600460205260409020600b81015460609182918291829182906001600160401b0381118015611bc557600080fd5b50604051908082528060200260200182016040528015611bef578160200160208202803683370190505b509050606082600b01546001600160401b0381118015611c0e57600080fd5b50604051908082528060200260200182016040528015611c38578160200160208202803683370190505b509050606083600b01546001600160401b0381118015611c5757600080fd5b50604051908082528060200260200182016040528015611c81578160200160208202803683370190505b509050606084600b01546001600160401b0381118015611ca057600080fd5b50604051908082528060200260200182016040528015611cd457816020015b6060815260200190600190039081611cbf5790505b50905060005b85600b015481101561105257611cee6144a6565b86600d018281548110611cfd57fe5b90600052602060002090600502016040518060a001604052908160008201548152602001600182015481526020016002820154815260200160038201548152602001600482018054600181600116156101000203166002900480601f016020809104026020016040519081016040528092919081815260200182805460018160011615610100020316600290048015611dd75780601f10611dac57610100808354040283529160200191611dd7565b820191906000526020600020905b815481529060010190602001808311611dba57829003601f168201915b50505050508152505090508060000151868381518110611df357fe5b6020026020010181815250508060400151858381518110611e1057fe5b6020026020010181815250508060600151848381518110611e2d57fe5b6020026020010181815250508060800151838381518110611e4a57fe5b602090810291909101015250600101611cda565b60608060608060606001546001600160401b0381118015611e7e57600080fd5b50604051908082528060200260200182016040528015611ea8578160200160208202803683370190505b50905060606001546001600160401b0381118015611ec557600080fd5b50604051908082528060200260200182016040528015611eef578160200160208202803683370190505b50905060606001546001600160401b0381118015611f0c57600080fd5b50604051908082528060200260200182016040528015611f36578160200160208202803683370190505b50905060606001546001600160401b0381118015611f5357600080fd5b50604051908082528060200260200182016040528015611f7d578160200160208202803683370190505b50905060005b6001548110156120ff57611f9561458b565b60008281526020818152604091829020825160a081018452815481526001808301546001600160a01b0316828501526002808401805487516101009482161594909402600019011691909104601f810186900486028301860187528083529295939493860193919290918301828280156120505780601f1061202557610100808354040283529160200191612050565b820191906000526020600020905b81548152906001019060200180831161203357829003601f168201915b50505050508152602001600382015481526020016004820154815250509050806000015186838151811061208057fe5b602002602001018181525050806020015185838151811061209d57fe5b60200260200101906001600160a01b031690816001600160a01b03168152505080606001518483815181106120ce57fe5b60200260200101818152505080608001518383815181106120eb57fe5b602090810291909101015250600101611f83565b50929791965094509092509050565b6121166144a6565b61211e6144a6565b6000848152600660205260409020600b0180548490811061213b57fe5b90600052602060002090600502016040518060a001604052908160008201548152602001600182015481526020016002820154815260200160038201548152602001600482018054600181600116156101000203166002900480601f0160208091040260200160405190810160405280929190818152602001828054600181600116156101000203166002900480156122155780601f106121ea57610100808354040283529160200191612215565b820191906000526020600020905b8154815290600101906020018083116121f857829003601f168201915b5050509190925250919695505050505050565b6060806060806060806003546001600160401b038111801561224957600080fd5b50604051908082528060200260200182016040528015612273578160200160208202803683370190505b50905060606003546001600160401b038111801561229057600080fd5b506040519080825280602002602001820160405280156122c457816020015b60608152602001906001900390816122af5790505b50905060606003546001600160401b03811180156122e157600080fd5b5060405190808252806020026020018201604052801561230b578160200160208202803683370190505b50905060606003546001600160401b038111801561232857600080fd5b50604051908082528060200260200182016040528015612352578160200160208202803683370190505b50905060606003546001600160401b038111801561236f57600080fd5b50604051908082528060200260200182016040528015612399578160200160208202803683370190505b50905060005b600354811015612552576123b1614553565b600260008381526020019081526020016000206040518060a001604052908160008201548152602001600182018054600181600116156101000203166002900480601f0160208091040260200160405190810160405280929190818152602001828054600181600116156101000203166002900480156124725780601f1061244757610100808354040283529160200191612472565b820191906000526020600020905b81548152906001019060200180831161245557829003601f168201915b505050918352505060028201546001600160a01b031660208201526003820154604082015260049091015460609091015280518851919250908890849081106124b757fe5b60200260200101818152505080602001518683815181106124d457fe5b602002602001018190525080604001518583815181106124f057fe5b60200260200101906001600160a01b031690816001600160a01b031681525050806060015184838151811061252157fe5b602002602001018181525050806080015183838151811061253e57fe5b60209081029190910101525060010161239f565b50939992985090965094509092509050565b600080600080600080600061257888610c5c565b90506125826145c3565b60005b600754811015612899576000818152600660205260409020600101548b1480156125bf575060008181526006602052604090206002015483145b15612891576000818152600660208181526040808420815161018081018352815481526001820154818501526002820154818401526003820154606082015260048201546080820152600582015460a08201529381015460c0850152600781015460e085015260088101546101008501526009810154610120850152600a81018054835181860281018601909452808452949591946101408701949192909184015b8282101561275d57838290600052602060002090600502016040518060a001604052908160008201548152602001600182015481526020016002820154815260200160038201548152602001600482018054600181600116156101000203166002900480601f0160208091040260200160405190810160405280929190818152602001828054600181600116156101000203166002900480156127455780601f1061271a57610100808354040283529160200191612745565b820191906000526020600020905b81548152906001019060200180831161272857829003601f168201915b50505050508152505081526020019060010190612661565b505050508152602001600b8201805480602002602001604051908101604052809291908181526020016000905b8282101561288657838290600052602060002090600502016040518060a001604052908160008201548152602001600182015481526020016002820154815260200160038201548152602001600482018054600181600116156101000203166002900480601f01602080910402602001604051908101604052809291908181526020018280546001816001161561010002031660029004801561286e5780601f106128435761010080835404028352916020019161286e565b820191906000526020600020905b81548152906001019060200180831161285157829003601f168201915b5050505050815250508152602001906001019061278a565b505050508152505091505b600101612585565b5080516020820151604083015160e084015161010085015161012090950151939e929d50909b50995091975095509350505050565b600080805b600154811015610c53576000818152602081905260409020600101546001600160a01b038581169116141561290757600191505b6001016128d3565b600080606060008061291f61458b565b60008781526020818152604091829020825160a081018452815481526001808301546001600160a01b0316828501526002808401805487516101009482161594909402600019011691909104601f810186900486028301860187528083529295939493860193919290918301828280156129da5780601f106129af576101008083540402835291602001916129da565b820191906000526020600020905b8154815290600101906020018083116129bd57829003601f168201915b50505091835250506003820154602080830191909152600490920154604091820152825191830151908301516060840151608090940151929b919a509850919650945092505050565b6000818152600660205260409020600a81015460609182918291829182919082906001600160401b0381118015612a5957600080fd5b50604051908082528060200260200182016040528015612a83578160200160208202803683370190505b50600a8301549091506060906001600160401b0381118015612aa457600080fd5b50604051908082528060200260200182016040528015612ace578160200160208202803683370190505b50600a8401549091506060906001600160401b0381118015612aef57600080fd5b50604051908082528060200260200182016040528015612b19578160200160208202803683370190505b50600a8501549091506060906001600160401b0381118015612b3a57600080fd5b50604051908082528060200260200182016040528015612b64578160200160208202803683370190505b50600a8601549091506060906001600160401b0381118015612b8557600080fd5b50604051908082528060200260200182016040528015612bb957816020015b6060815260200190600190039081612ba45790505b50905060005b600a870154811015612d6057612bd36144a6565b87600a018281548110612be257fe5b90600052602060002090600502016040518060a001604052908160008201548152602001600182015481526020016002820154815260200160038201548152602001600482018054600181600116156101000203166002900480601f016020809104026020016040519081016040528092919081815260200182805460018160011615610100020316600290048015612cbc5780601f10612c9157610100808354040283529160200191612cbc565b820191906000526020600020905b815481529060010190602001808311612c9f57829003601f168201915b50505050508152505090508060000151878381518110612cd857fe5b6020026020010181815250508060200151868381518110612cf557fe5b6020026020010181815250508060400151858381518110612d1257fe5b6020026020010181815250508060600151848381518110612d2f57fe5b6020026020010181815250508060800151838381518110612d4c57fe5b602090810291909101015250600101612bbf565b506005860154600a8701541115612f1757612d796144a6565b86600a01876005015481548110612d8c57fe5b90600052602060002090600502016040518060a001604052908160008201548152602001600182015481526020016002820154815260200160038201548152602001600482018054600181600116156101000203166002900480601f016020809104026020016040519081016040528092919081815260200182805460018160011615610100020316600290048015612e665780601f10612e3b57610100808354040283529160200191612e66565b820191906000526020600020905b815481529060010190602001808311612e4957829003601f168201915b5050505050815250509050806000015186886005015481518110612e8657fe5b602002602001018181525050806020015185886005015481518110612ea757fe5b602002602001018181525050806040015184886005015481518110612ec857fe5b602002602001018181525050806060015183886005015481518110612ee957fe5b602002602001018181525050806080015182886005015481518110612f0a57fe5b6020026020010181905250505b939b929a50909850965090945092505050565b60046020908152600091825260409182902080546001808301546002808501805488519481161561010002600019011691909104601f810187900487028401870190975286835292959094919291830182828015612fc95780601f10612f9e57610100808354040283529160200191612fc9565b820191906000526020600020905b815481529060010190602001808311612fac57829003601f168201915b5050505060038301805460408051602060026001851615610100026000190190941693909304601f81018490048402820184019092528181529495949350908301828280156130595780601f1061302e57610100808354040283529160200191613059565b820191906000526020600020905b81548152906001019060200180831161303c57829003601f168201915b5050505060048301805460408051602060026001851615610100026000190190941693909304601f81018490048402820184019092528181529495949350908301828280156130e95780601f106130be576101008083540402835291602001916130e9565b820191906000526020600020905b8154815290600101906020018083116130cc57829003601f168201915b50505050509080600501549080600601549080600701549080600801549080600901549080600a01549080600b01549080600c015490508d565b6000818152600460205260409020600981015460609182918291829182906001600160401b038111801561315657600080fd5b50604051908082528060200260200182016040528015613180578160200160208202803683370190505b509050606082600901546001600160401b038111801561319f57600080fd5b506040519080825280602002602001820160405280156131c9578160200160208202803683370190505b509050606083600901546001600160401b03811180156131e857600080fd5b5060405190808252806020026020018201604052801561321c57816020015b60608152602001906001900390816132075790505b509050606084600901546001600160401b038111801561323b57600080fd5b50604051908082528060200260200182016040528015613265578160200160208202803683370190505b5090506000805b6007548110156136d45761327e6145c3565b6000828152600660208181526040808420815161018081018352815481526001820154818501526002820154818401526003820154606082015260048201546080820152600582015460a08201529381015460c0850152600781015460e085015260088101546101008501526009810154610120850152600a81018054835181860281018601909452808452949591946101408701949192909184015b8282101561341757838290600052602060002090600502016040518060a001604052908160008201548152602001600182015481526020016002820154815260200160038201548152602001600482018054600181600116156101000203166002900480601f0160208091040260200160405190810160405280929190818152602001828054600181600116156101000203166002900480156133ff5780601f106133d4576101008083540402835291602001916133ff565b820191906000526020600020905b8154815290600101906020018083116133e257829003601f168201915b5050505050815250508152602001906001019061331b565b505050508152602001600b8201805480602002602001604051908101604052809291908181526020016000905b8282101561354057838290600052602060002090600502016040518060a001604052908160008201548152602001600182015481526020016002820154815260200160038201548152602001600482018054600181600116156101000203166002900480601f0160208091040260200160405190810160405280929190818152602001828054600181600116156101000203166002900480156135285780601f106134fd57610100808354040283529160200191613528565b820191906000526020600020905b81548152906001019060200180831161350b57829003601f168201915b50505050508152505081526020019060010190613444565b5050505081525050905061355261458b565b6040828101516000908152602081815290829020825160a081018452815481526001808301546001600160a01b0316828501526002808401805487516101009482161594909402600019011691909104601f810186900486028301860187528083529295939493860193919290918301828280156136115780601f106135e657610100808354040283529160200191613611565b820191906000526020600020905b8154815290600101906020018083116135f457829003601f168201915b505050505081526020016003820154815260200160048201548152505090508d826020015114156136ca57816000015188858151811061364d57fe5b602002602001018181525050806020015187858151811061366a57fe5b60200260200101906001600160a01b031690816001600160a01b031681525050806040015186858151811061369b57fe5b60200260200101819052508161012001518585815181106136b857fe5b60209081029190910101526001909301925b505060010161326c565b50939a92995090975095509350505050565b60608060608060608060608060606005546001600160401b038111801561370c57600080fd5b50604051908082528060200260200182016040528015613736578160200160208202803683370190505b50905060606005546001600160401b038111801561375357600080fd5b5060405190808252806020026020018201604052801561378757816020015b60608152602001906001900390816137725790505b50905060606005546001600160401b03811180156137a457600080fd5b506040519080825280602002602001820160405280156137d857816020015b60608152602001906001900390816137c35790505b50905060606005546001600160401b03811180156137f557600080fd5b5060405190808252806020026020018201604052801561382957816020015b60608152602001906001900390816138145790505b50905060606005546001600160401b038111801561384657600080fd5b5060405190808252806020026020018201604052801561387a57816020015b60608152602001906001900390816138655790505b50905060606005546001600160401b038111801561389757600080fd5b506040519080825280602002602001820160405280156138c1578160200160208202803683370190505b50905060606005546001600160401b03811180156138de57600080fd5b50604051908082528060200260200182016040528015613908578160200160208202803683370190505b50905060606005546001600160401b038111801561392557600080fd5b5060405190808252806020026020018201604052801561394f578160200160208202803683370190505b50905060005b600554811015613ca557600081815260046020526040902080548a518b908490811061397d57fe5b60200260200101818152505060026000826001015481526020019081526020016000206001018054600181600116156101000203166002900480601f016020809104026020016040519081016040528092919081815260200182805460018160011615610100020316600290048015613a375780601f10613a0c57610100808354040283529160200191613a37565b820191906000526020600020905b815481529060010190602001808311613a1a57829003601f168201915b5050505050898381518110613a4857fe5b60209081029190910181019190915260028281018054604080516001831615610100026000190190921693909304601f810185900485028201850190935282815292909190830182828015613ade5780601f10613ab357610100808354040283529160200191613ade565b820191906000526020600020905b815481529060010190602001808311613ac157829003601f168201915b5050505050888381518110613aef57fe5b60209081029190910181019190915260038201805460408051601f6002600019610100600187161502019094169390930492830185900485028101850190915281815292830182828015613b845780601f10613b5957610100808354040283529160200191613b84565b820191906000526020600020905b815481529060010190602001808311613b6757829003601f168201915b5050505050878381518110613b9557fe5b60209081029190910181019190915260048201805460408051601f6002600019610100600187161502019094169390930492830185900485028101850190915281815292830182828015613c2a5780601f10613bff57610100808354040283529160200191613c2a565b820191906000526020600020905b815481529060010190602001808311613c0d57829003601f168201915b5050505050868381518110613c3b57fe5b60200260200101819052508060050154858381518110613c5757fe5b6020026020010181815250508060060154848381518110613c7457fe5b60200260200101818152505080600a0154838381518110613c9157fe5b602090810291909101015250600101613955565b50969f959e50939c50919a509850965094509092509050565b600080805b600354811015610c5357600081815260026020819052604090912001546001600160a01b038581169116148015613d0b57506000818152600260205260409020600401546003145b15613d1557600191505b600101613cc3565b613d256144a6565b613d2d6144a6565b6000848152600660205260409020600a0180548490811061213b57fe5b6000613d5533613cbe565b90506000613d62336128ce565b90508180613d6d5750805b613d895760405162461bcd60e51b81526004016105ee90615345565b6000848152600660205260409020600901548015801590613dab575060078111155b613dc75760405162461bcd60e51b81526004016105ee90614f6c565b8360021415613e155780600114613df05760405162461bcd60e51b81526004016105ee906150e5565b613df9336128ce565b613e155760405162461bcd60e51b81526004016105ee9061502b565b8360031480613e245750836004145b15613e6e5780600214613e495760405162461bcd60e51b81526004016105ee90615246565b613e5233613cbe565b613e6e5760405162461bcd60e51b81526004016105ee906156aa565b8360051415613ec7578060031480613e865750806004145b613ea25760405162461bcd60e51b81526004016105ee9061562e565b613eab33613cbe565b613ec75760405162461bcd60e51b81526004016105ee906156aa565b8360061415613f155780600514613ef05760405162461bcd60e51b81526004016105ee906154a3565b613ef9336128ce565b613f155760405162461bcd60e51b81526004016105ee9061502b565b8360071480613f245750836008145b15613f6e5780600614613f495760405162461bcd60e51b81526004016105ee90615707565b613f5233613cbe565b613f6e5760405162461bcd60e51b81526004016105ee906156aa565b50505060009182526006602052604090912060090155565b6000613f9133613cbe565b905080613fb05760405162461bcd60e51b81526004016105ee90615000565b6000858152600460205260409020600a0154600114613fe15760405162461bcd60e51b81526004016105ee90615407565b6000858152600460208181526040808420815160a081018352600b82015481528084018b81529281018a8152606082018a8152608083018a8152600d909401805460018181018355918a529887902084516005909a02019889559451948801949094555160028701559151600386015551805191949361406793908501929101906144d5565b505050600094855250506004602052505060409020600b0180546001019055565b60035481565b6008546000906001600160a01b031633146140bb5760405162461bcd60e51b81526004016105ee9061519e565b6003546040805160a08101825282815260208082018881526001600160a01b038816838501524260608401526080830187905260008581526002835293909320825181559251805192939261411692600185019201906144d5565b5060408201516002820180546001600160a01b0319166001600160a01b03909216919091179055606082015160038083019190915560809092015160049091015580546001019055949350505050565b6006602052806000526040600020600091509050806000015490806001015490806002015490806003015490806004015490806005015490806006015490806007015490806008015490806009015490508a565b60006141c533613cbe565b9050806141e45760405162461bcd60e51b81526004016105ee90615000565b6000821180156141f5575060078211155b6142115760405162461bcd60e51b81526004016105ee90615548565b816002141561424b576000838152600460205260409020600a015460011461424b5760405162461bcd60e51b81526004016105ee9061557f565b8160031415614285576000838152600460205260409020600a01546002146142855760405162461bcd60e51b81526004016105ee9061515b565b81600414156142bf576000838152600460205260409020600a01546003146142bf5760405162461bcd60e51b81526004016105ee90614fa3565b81600514156142fa576000838152600460208190526040909120600a0154146142fa5760405162461bcd60e51b81526004016105ee90614f00565b816006141561443b576000838152600460205260409020600a01546005146143345760405162461bcd60e51b81526004016105ee90614eb3565b60005b60075481101561443957600081815260066020526040902060010154841415614431576000818152600660205260409020600901546003141561443157600081815260066020526040902060056009909101556143926144a6565b60008082526020808301828152426040808601918252600160608701818152825180870184528781526080890190815289885260068752928720600b018054808401825590885296869020885160059098020196875593519086015590516002850155905160038401555180518493926144139260048501929101906144d5565b50505060008281526006602081905260409091200180546001019055505b600101614337565b505b8160071415614475576000838152600460205260409020600a01546006146144755760405162461bcd60e51b81526004016105ee9061543c565b50600091825260046020526040909120426008820155600a0155565b6008546001600160a01b031681565b60055481565b6040518060a0016040528060008152602001600081526020016000815260200160008152602001606081525090565b828054600181600116156101000203166002900490600052602060002090601f016020900481019282601f1061451657805160ff1916838001178555614543565b82800160010185558215614543579182015b82811115614543578251825591602001919060010190614528565b5061454f929150614624565b5090565b6040518060a00160405280600081526020016060815260200160006001600160a01b0316815260200160008152602001600081525090565b6040518060a001604052806000815260200160006001600160a01b031681526020016060815260200160008152602001600081525090565b6040518061018001604052806000815260200160008152602001600081526020016000815260200160008152602001600081526020016000815260200160008152602001600081526020016000815260200160608152602001606081525090565b61463e91905b8082111561454f576000815560010161462a565b90565b600082601f830112614651578081fd5b813561466461465f82615a1d565b6159f7565b818152915060208083019084810160005b8481101561469e5761468c888484358a0101614707565b84529282019290820190600101614675565b505050505092915050565b600082601f8301126146b9578081fd5b81356146c761465f82615a1d565b8181529150602080830190848101818402860182018710156146e857600080fd5b60005b8481101561469e578135845292820192908201906001016146eb565b600082601f830112614717578081fd5b81356001600160401b0381111561472c578182fd5b61473f601f8201601f19166020016159f7565b915080825283602082850101111561475657600080fd5b8060208401602084013760009082016020015292915050565b600060208284031215614780578081fd5b813561478b81615a48565b9392505050565b6000602082840312156147a3578081fd5b81356001600160401b038111156147b8578182fd5b6147c484828501614707565b949350505050565b6000806000606084860312156147e0578182fd5b83356001600160401b038111156147f5578283fd5b61480186828701614707565b935050602084013561481281615a48565b929592945050506040919091013590565b60008060008060008060008060008060006101608c8e031215614844578687fd5b6001600160401b03808d351115614859578788fd5b6148668e8e358f01614707565b9b508060208e01351115614878578788fd5b6148888e60208f01358f01614707565b9a508060408e0135111561489a578788fd5b6148aa8e60408f01358f01614707565b995060608d0135985060808d013597508060a08e013511156148ca578687fd5b6148da8e60a08f01358f016146a9565b96508060c08e013511156148ec578586fd5b6148fc8e60c08f01358f016146a9565b95508060e08e0135111561490e578485fd5b61491e8e60e08f01358f01614641565b9450806101008e01351115614931578384fd5b6149428e6101008f01358f016146a9565b9350806101208e01351115614955578283fd5b6149668e6101208f01358f016146a9565b9250806101408e01351115614979578182fd5b5061498b8d6101408e01358e01614641565b90509295989b509295989b9093969950565b6000602082840312156149ae578081fd5b5035919050565b600080604083850312156149c7578182fd5b8235915060208301356149d981615a48565b809150509250929050565b600080604083850312156149f6578182fd5b8235915060208301356001600160401b03811115614a12578182fd5b614a1e85828601614707565b9150509250929050565b60008060408385031215614a3a578182fd5b50508035926020909101359150565b60008060008060808587031215614a5e578384fd5b84359350602085013592506040850135915060608501356001600160401b03811115614a88578182fd5b614a9487828801614707565b91505092959194509250565b6000815180845260208085019450808401835b83811015614ad85781516001600160a01b031687529582019590820190600101614ab3565b509495945050505050565b6000815180845260208085018081965082840281019150828601855b85811015614b29578284038952614b17848351614b65565b98850198935090840190600101614aff565b5091979650505050505050565b6000815180845260208085019450808401835b83811015614ad857815187529582019590820190600101614b49565b60008151808452815b81811015614b8a57602081850181015186830182015201614b6e565b81811115614b9b5782602083870101525b50601f01601f19169290920160200192915050565b60008154600180821660008114614bce5760018114614bec57614c2a565b60028304607f16865260ff1983166020870152604086019350614c2a565b60028304808752614bfc86615a3c565b60005b82811015614c205781546020828b0101528482019150602081019050614bff565b8801602001955050505b50505092915050565b6001600160a01b0391909116815260200190565b600060808252614c5a6080830187614b36565b8281036020840152614c6c8187614aa0565b8381036040850152614c7e8187614ae3565b9150508281036060840152614c938185614b36565b979650505050505050565b600060808252614cb16080830187614b36565b8281036020840152614cc38187614aa0565b8381036040850152614c7e8187614b36565b600060a08252614ce860a0830188614b36565b8281036020840152614cfa8188614ae3565b8381036040850152614d0c8188614aa0565b9150508281036060840152614d218186614b36565b8381036080850152614d338186614b36565b9998505050505050505050565b6000610100808352614d548184018c614b36565b8381036020850152614d66818c614ae3565b9150508281036040840152614d7b818a614ae3565b8381036060850152614d8d818a614ae3565b9150508281036080840152614da28188614ae3565b83810360a0850152614db48188614b36565b91505082810360c0840152614dc98186614b36565b83810360e0850152614ddb8186614b36565b9c9b505050505050505050505050565b600060808252614dfe6080830187614b36565b8281036020840152614e108187614b36565b8381036040850152614e228187614b36565b9150508281036060840152614c938185614ae3565b600060a08252614e4a60a0830188614b36565b8281036020840152614e5c8188614b36565b8381036040850152614e6e8188614b36565b9150508281036060840152614e838186614b36565b8381036080850152614d338186614ae3565b901515815260200190565b60006020825261478b6020830184614b65565b6020808252602d908201527f6f70706f7274756e697479206d75737420626520696e20696e6974696174656460408201526c20666f722066696e616c697a6560981b606082015260800190565b60208082526046908201527f6f70706f7274756e697479206d75737420626520696e206170706c696361746960408201527f6f6e732073656c656374656420666f72206f70706f7274756e69747920696e696060820152651d1a585d195960d21b608082015260a00190565b6020808252601c908201527f6170706c69636174696f6e20737461747573206e6f742076616c696400000000604082015260600190565b60208082526037908201527f6f70706f7274756e697479206d75737420626520696e2072657669657720666f60408201527f72206170706c69636174696f6e732073656c6563746564000000000000000000606082015260800190565b60208082526011908201527037b7363c9037b933b0b734bd30ba34b7b760791b604082015260600190565b60208082526039908201527f6170706c69636174696f6e20737461747573206368616e6765206d757374206260408201527f652065786563757465642062792062656e656669636961727900000000000000606082015260800190565b6020808252603a908201527f6170706c69636174696f6e20686173206e6f74207374617274656420746f207260408201527f65636569766520706f73744163636f6d706c6973686d656e7473000000000000606082015260800190565b60208082526050908201527f6170706c69636174696f6e206d757374206265207072654163636f6d706c697360408201527f686d656e7473207374617274656420746f2062652066696e616c697a6520707260608201526f654163636f6d706c6973686d656e747360801b608082015260a00190565b60208082526023908201527f6f70706f7274756e697479206d757374206265206f70656e20666f722072657660408201526269657760e81b606082015260800190565b6020808252600a908201526937b7363c9030b236b4b760b11b604082015260600190565b60208082526037908201527f70726520726571756972656d656e742076616c756573206e756d626572206d7560408201527f73742068617665207468652073616d65206c656e677468000000000000000000606082015260800190565b6020808252600d908201526c6e616d6520697320656d70747960981b604082015260600190565b60208082526052908201527f6170706c69636174696f6e206d757374206265207072654163636f6d706c697360408201527f686d656e74732066696e616c697a656420746f206265206569746865722061706060820152711c1c9bdd9959081bdc881c995a9958dd195960721b608082015260a00190565b60208082526010908201526f6f6e6c792062656e656669636961727960801b604082015260600190565b60208082526038908201527f706f737420726571756972656d656e742076616c756573206e756d626572206d60408201527f7573742068617665207468652073616d65206c656e6774680000000000000000606082015260800190565b60208082526018908201527f6f6e6c7920616374697665206f7267616e697a6174696f6e0000000000000000604082015260600190565b60208082526039908201527f6170706c69636174696f6e20686173206e6f74207374617274656420746f207260408201527f656365697665207072654163636f6d706c6973686d656e747300000000000000606082015260800190565b6020808252601490820152736465736372697074696f6e20697320656d70747960601b604082015260600190565b6020808252818101527f6f70706f7274756e697479206973206e6f7420696e206472616674206d6f6465604082015260600190565b60208082526041908201527f6f70706f7274756e697479206d7573742062652066696e616c697a656420666f60408201527f7220636c6f736520706f7374526571756972656d656e7420726563657074696f6060820152603760f91b608082015260a00190565b60208082526055908201527f6170706c69636174696f6e206d7573742068617665207374617274656420726560408201527f63656976696e6720706f73744163636f6d706c6973686d656e747320746f206660608201527434b730b634bd329034ba39903932b1b2b83a34b7b760591b608082015260a00190565b60208082526010908201526f3737ba1037b933b0b734bd30ba34b7b760811b604082015260600190565b6020808252601c908201527f6f70706f7274756e69747920737461747573206e6f742076616c696400000000604082015260600190565b60208082526027908201527f6f70706f7274756e697479206d75737420626520696e20647261667420746f2060408201526631329037b832b760c91b606082015260800190565b60208082526025908201527f6f70706f7274756e697479206e6f74206f70656e20666f72206170706c69636160408201526474696f6e7360d81b606082015260800190565b6020808252600990820152683737ba1030b236b4b760b91b604082015260600190565b60208082526056908201527f6170706c69636174696f6e206d7573742062652065697468657220617070726f60408201527f766564206f722072656a656374656420746f20737461727420726563656976696060820152756e6720706f73744163636f6d706c6973686d656e747360501b608082015260a00190565b6020808252603a908201527f6170706c69636174696f6e20737461747573206368616e6765206d757374206260408201527f65206578656375746564206279206f7267616e697a6174696f6e000000000000606082015260800190565b602080825260409082018190527f6170706c69636174696f6e20706f73744163636f6d706c6973686d656e747320908201527f6d7573742062652066696e616c697a656420746f2066696e616c697a65206974606082015260800190565b60006020825282516020830152602083015160408301526040830151606083015260608301516080830152608083015160a0808401526147c460c0840182614b65565b90815260200190565b8581526001600160a01b038516602082015260a0604082018190526000906157db90830186614b65565b606083019490945250608001529392505050565b600086825260a0602083015261580860a0830187614b65565b6001600160a01b0395909516604083015250606081019290925260809091015292915050565b60006101208b83528060208401526158488184018c614b65565b838103604085015261585a818c614b65565b915050828103606084015261586f818a614b65565b6080840198909852505060a081019490945260c084019290925260e083015261010090910152949350505050565b6000848252606060208301526158b66060830185614bb0565b82810360408401526158c88185614bb0565b9695505050505050565b918252602082015260400190565b60006101a08f83528e60208401528060408401526159008184018f614b65565b8381036060850152615912818f614b65565b9150508281036080840152615927818d614b65565b60a084019b909b52505060c081019790975260e08701959095526101008601939093526101208501919091526101408401526101608301526101809091015295945050505050565b93845260208401929092526040830152606082015260800190565b958652602086019490945260408501929092526060840152608083015260a082015260c00190565b998a5260208a019890985260408901969096526060880194909452608087019290925260a086015260c085015260e08401526101008301526101208201526101400190565b6040518181016001600160401b0381118282101715615a1557600080fd5b604052919050565b60006001600160401b03821115615a32578081fd5b5060209081020190565b60009081526020902090565b6001600160a01b0381168114615a5d57600080fd5b5056fea26469706673582212208c4445dd30d9bc755112304dc16d9bd67b543e92cc52dda44f61c21c6a41926f64736f6c63430006070033",
  "linkReferences": {},
  "deployedLinkReferences": {}
}