{
  "_format": "hh-sol-artifact-1",
  "contractName": "AkasifyCoreContract",
  "sourceName": "contracts/AkasifyCoreContract.sol",
  "abi": [
    {
      "inputs": [
        {
          "internalType": "address",
          "name": "_admin",
          "type": "address"
        }
      ],
      "stateMutability": "nonpayable",
      "type": "constructor"
    },
    {
      "anonymous": false,
      "inputs": [
        {
          "indexed": false,
          "internalType": "uint256",
          "name": "id",
          "type": "uint256"
        },
        {
          "indexed": false,
          "internalType": "uint256",
          "name": "opportunityId",
          "type": "uint256"
        }
      ],
      "name": "RegisterApplication",
      "type": "event"
    },
    {
      "anonymous": false,
      "inputs": [
        {
          "indexed": false,
          "internalType": "uint256",
          "name": "id",
          "type": "uint256"
        },
        {
          "indexed": false,
          "internalType": "uint256",
          "name": "requirementId",
          "type": "uint256"
        },
        {
          "indexed": false,
          "internalType": "uint256",
          "name": "applicationId",
          "type": "uint256"
        },
        {
          "indexed": false,
          "internalType": "uint256",
          "name": "opportunityId",
          "type": "uint256"
        }
      ],
      "name": "RegisterApplicationPostAccomplishment",
      "type": "event"
    },
    {
      "anonymous": false,
      "inputs": [
        {
          "indexed": false,
          "internalType": "uint256",
          "name": "id",
          "type": "uint256"
        },
        {
          "indexed": false,
          "internalType": "uint256",
          "name": "requirementId",
          "type": "uint256"
        },
        {
          "indexed": false,
          "internalType": "uint256",
          "name": "applicationId",
          "type": "uint256"
        },
        {
          "indexed": false,
          "internalType": "uint256",
          "name": "opportunityId",
          "type": "uint256"
        }
      ],
      "name": "RegisterApplicationPreAccomplishment",
      "type": "event"
    },
    {
      "anonymous": false,
      "inputs": [
        {
          "indexed": false,
          "internalType": "address",
          "name": "account",
          "type": "address"
        }
      ],
      "name": "RegisterBeneficiary",
      "type": "event"
    },
    {
      "anonymous": false,
      "inputs": [
        {
          "indexed": false,
          "internalType": "uint256",
          "name": "id",
          "type": "uint256"
        },
        {
          "indexed": false,
          "internalType": "string",
          "name": "name",
          "type": "string"
        },
        {
          "indexed": false,
          "internalType": "string",
          "name": "description",
          "type": "string"
        }
      ],
      "name": "RegisterOpportunity",
      "type": "event"
    },
    {
      "anonymous": false,
      "inputs": [
        {
          "indexed": false,
          "internalType": "uint256",
          "name": "id",
          "type": "uint256"
        },
        {
          "indexed": false,
          "internalType": "uint256",
          "name": "status",
          "type": "uint256"
        }
      ],
      "name": "UpdateApplicationStatus",
      "type": "event"
    },
    {
      "anonymous": false,
      "inputs": [
        {
          "indexed": false,
          "internalType": "uint256",
          "name": "id",
          "type": "uint256"
        },
        {
          "indexed": false,
          "internalType": "uint256",
          "name": "status",
          "type": "uint256"
        }
      ],
      "name": "UpdateOpportunityStatus",
      "type": "event"
    },
    {
      "inputs": [],
      "name": "admin",
      "outputs": [
        {
          "internalType": "address",
          "name": "",
          "type": "address"
        }
      ],
      "stateMutability": "view",
      "type": "function"
    },
    {
      "inputs": [
        {
          "internalType": "uint256",
          "name": "",
          "type": "uint256"
        }
      ],
      "name": "applications",
      "outputs": [
        {
          "internalType": "uint256",
          "name": "id",
          "type": "uint256"
        },
        {
          "internalType": "uint256",
          "name": "opportunityId",
          "type": "uint256"
        },
        {
          "internalType": "uint256",
          "name": "beneficiaryId",
          "type": "uint256"
        },
        {
          "internalType": "uint256",
          "name": "nextPreRequirementId",
          "type": "uint256"
        },
        {
          "internalType": "uint256",
          "name": "nextPostRequirementId",
          "type": "uint256"
        },
        {
          "internalType": "uint256",
          "name": "nextPreAccomplishmentId",
          "type": "uint256"
        },
        {
          "internalType": "uint256",
          "name": "nextPostAccomplishmentId",
          "type": "uint256"
        },
        {
          "internalType": "uint256",
          "name": "creationDate",
          "type": "uint256"
        },
        {
          "internalType": "uint256",
          "name": "lastUpdate",
          "type": "uint256"
        },
        {
          "internalType": "uint256",
          "name": "status",
          "type": "uint256"
        }
      ],
      "stateMutability": "view",
      "type": "function"
    },
    {
      "inputs": [
        {
          "internalType": "uint256",
          "name": "opportunityId",
          "type": "uint256"
        }
      ],
      "name": "createApplication",
      "outputs": [],
      "stateMutability": "nonpayable",
      "type": "function"
    },
    {
      "inputs": [
        {
          "internalType": "string",
          "name": "name",
          "type": "string"
        },
        {
          "internalType": "string",
          "name": "description",
          "type": "string"
        },
        {
          "internalType": "uint256",
          "name": "preRequirementsDeadline",
          "type": "uint256"
        },
        {
          "internalType": "uint256",
          "name": "postRequirementsDeadline",
          "type": "uint256"
        },
        {
          "internalType": "uint256[]",
          "name": "preRequirementTypes",
          "type": "uint256[]"
        },
        {
          "internalType": "uint256[]",
          "name": "preRequirementValues",
          "type": "uint256[]"
        },
        {
          "internalType": "string[]",
          "name": "preRequirementNames",
          "type": "string[]"
        },
        {
          "internalType": "uint256[]",
          "name": "postRequirementTypes",
          "type": "uint256[]"
        },
        {
          "internalType": "uint256[]",
          "name": "postRequirementValues",
          "type": "uint256[]"
        },
        {
          "internalType": "string[]",
          "name": "postRequirementNames",
          "type": "string[]"
        }
      ],
      "name": "createOpportunity",
      "outputs": [],
      "stateMutability": "nonpayable",
      "type": "function"
    },
    {
      "inputs": [
        {
          "internalType": "uint256",
          "name": "applicationId",
          "type": "uint256"
        },
        {
          "internalType": "string",
          "name": "accomplishmentValue",
          "type": "string"
        }
      ],
      "name": "createPostAccomplishment",
      "outputs": [],
      "stateMutability": "nonpayable",
      "type": "function"
    },
    {
      "inputs": [
        {
          "internalType": "uint256",
          "name": "opportunityId",
          "type": "uint256"
        },
        {
          "internalType": "uint256",
          "name": "requirementType",
          "type": "uint256"
        },
        {
          "internalType": "uint256",
          "name": "transferValue",
          "type": "uint256"
        },
        {
          "internalType": "string",
          "name": "name",
          "type": "string"
        }
      ],
      "name": "createPostRequirement",
      "outputs": [],
      "stateMutability": "nonpayable",
      "type": "function"
    },
    {
      "inputs": [
        {
          "internalType": "uint256",
          "name": "applicationId",
          "type": "uint256"
        },
        {
          "internalType": "string",
          "name": "accomplishmentValue",
          "type": "string"
        }
      ],
      "name": "createPreAccomplishment",
      "outputs": [],
      "stateMutability": "nonpayable",
      "type": "function"
    },
    {
      "inputs": [
        {
          "internalType": "uint256",
          "name": "opportunityId",
          "type": "uint256"
        },
        {
          "internalType": "uint256",
          "name": "requirementType",
          "type": "uint256"
        },
        {
          "internalType": "uint256",
          "name": "transferValue",
          "type": "uint256"
        },
        {
          "internalType": "string",
          "name": "name",
          "type": "string"
        }
      ],
      "name": "createPreRequirement",
      "outputs": [],
      "stateMutability": "nonpayable",
      "type": "function"
    },
    {
      "inputs": [
        {
          "internalType": "uint256",
          "name": "opportunityId",
          "type": "uint256"
        },
        {
          "internalType": "address",
          "name": "beneficiaryAddress",
          "type": "address"
        }
      ],
      "name": "getApplication",
      "outputs": [
        {
          "internalType": "uint256",
          "name": "",
          "type": "uint256"
        },
        {
          "internalType": "uint256",
          "name": "",
          "type": "uint256"
        },
        {
          "internalType": "uint256",
          "name": "",
          "type": "uint256"
        },
        {
          "internalType": "uint256",
          "name": "",
          "type": "uint256"
        },
        {
          "internalType": "uint256",
          "name": "",
          "type": "uint256"
        },
        {
          "internalType": "uint256",
          "name": "",
          "type": "uint256"
        }
      ],
      "stateMutability": "view",
      "type": "function"
    },
    {
      "inputs": [
        {
          "internalType": "uint256",
          "name": "opportunityId",
          "type": "uint256"
        }
      ],
      "name": "getApplicationsByOpportunityId",
      "outputs": [
        {
          "internalType": "uint256[]",
          "name": "",
          "type": "uint256[]"
        },
        {
          "internalType": "address[]",
          "name": "",
          "type": "address[]"
        },
        {
          "internalType": "string[]",
          "name": "",
          "type": "string[]"
        },
        {
          "internalType": "uint256[]",
          "name": "",
          "type": "uint256[]"
        }
      ],
      "stateMutability": "view",
      "type": "function"
    },
    {
      "inputs": [],
      "name": "getBeneficiaries",
      "outputs": [
        {
          "internalType": "uint256[]",
          "name": "",
          "type": "uint256[]"
        },
        {
          "internalType": "address[]",
          "name": "",
          "type": "address[]"
        },
        {
          "internalType": "uint256[]",
          "name": "",
          "type": "uint256[]"
        },
        {
          "internalType": "uint256[]",
          "name": "",
          "type": "uint256[]"
        }
      ],
      "stateMutability": "view",
      "type": "function"
    },
    {
      "inputs": [
        {
          "internalType": "address",
          "name": "_account",
          "type": "address"
        }
      ],
      "name": "getBeneficiaryByAddress",
      "outputs": [
        {
          "internalType": "uint256",
          "name": "",
          "type": "uint256"
        },
        {
          "internalType": "address",
          "name": "",
          "type": "address"
        },
        {
          "internalType": "uint256",
          "name": "",
          "type": "uint256"
        },
        {
          "internalType": "uint256",
          "name": "",
          "type": "uint256"
        }
      ],
      "stateMutability": "view",
      "type": "function"
    },
    {
      "inputs": [
        {
          "internalType": "uint256",
          "name": "_id",
          "type": "uint256"
        }
      ],
      "name": "getBeneficiaryById",
      "outputs": [
        {
          "internalType": "uint256",
          "name": "",
          "type": "uint256"
        },
        {
          "internalType": "address",
          "name": "",
          "type": "address"
        },
        {
          "internalType": "string",
          "name": "",
          "type": "string"
        },
        {
          "internalType": "uint256",
          "name": "",
          "type": "uint256"
        },
        {
          "internalType": "uint256",
          "name": "",
          "type": "uint256"
        }
      ],
      "stateMutability": "view",
      "type": "function"
    },
    {
      "inputs": [
        {
          "internalType": "address",
          "name": "account",
          "type": "address"
        }
      ],
      "name": "getBeneficiaryIdByAddress",
      "outputs": [
        {
          "internalType": "uint256",
          "name": "",
          "type": "uint256"
        }
      ],
      "stateMutability": "view",
      "type": "function"
    },
    {
      "inputs": [
        {
          "internalType": "address",
          "name": "account",
          "type": "address"
        }
      ],
      "name": "getBeneficiaryStatusByAddress",
      "outputs": [
        {
          "internalType": "uint256",
          "name": "",
          "type": "uint256"
        }
      ],
      "stateMutability": "view",
      "type": "function"
    },
    {
      "inputs": [],
      "name": "getOpportunities",
      "outputs": [
        {
          "internalType": "uint256[]",
          "name": "",
          "type": "uint256[]"
        },
        {
          "internalType": "string[]",
          "name": "",
          "type": "string[]"
        },
        {
          "internalType": "string[]",
          "name": "",
          "type": "string[]"
        },
        {
          "internalType": "string[]",
          "name": "",
          "type": "string[]"
        },
        {
          "internalType": "uint256[]",
          "name": "",
          "type": "uint256[]"
        },
        {
          "internalType": "uint256[]",
          "name": "",
          "type": "uint256[]"
        },
        {
          "internalType": "uint256[]",
          "name": "",
          "type": "uint256[]"
        }
      ],
      "stateMutability": "view",
      "type": "function"
    },
    {
      "inputs": [
        {
          "internalType": "uint256",
          "name": "opportunityId",
          "type": "uint256"
        }
      ],
      "name": "getOpportunityById",
      "outputs": [
        {
          "internalType": "uint256",
          "name": "",
          "type": "uint256"
        },
        {
          "internalType": "string",
          "name": "",
          "type": "string"
        },
        {
          "internalType": "string",
          "name": "",
          "type": "string"
        },
        {
          "internalType": "uint256",
          "name": "",
          "type": "uint256"
        },
        {
          "internalType": "uint256",
          "name": "",
          "type": "uint256"
        },
        {
          "internalType": "uint256",
          "name": "",
          "type": "uint256"
        },
        {
          "internalType": "uint256",
          "name": "",
          "type": "uint256"
        },
        {
          "internalType": "uint256",
          "name": "",
          "type": "uint256"
        }
      ],
      "stateMutability": "view",
      "type": "function"
    },
    {
      "inputs": [
        {
          "internalType": "address",
          "name": "_account",
          "type": "address"
        }
      ],
      "name": "getOrganizationByAddress",
      "outputs": [
        {
          "internalType": "uint256",
          "name": "",
          "type": "uint256"
        },
        {
          "internalType": "string",
          "name": "",
          "type": "string"
        },
        {
          "internalType": "address",
          "name": "",
          "type": "address"
        },
        {
          "internalType": "uint256",
          "name": "",
          "type": "uint256"
        },
        {
          "internalType": "uint256",
          "name": "",
          "type": "uint256"
        }
      ],
      "stateMutability": "view",
      "type": "function"
    },
    {
      "inputs": [
        {
          "internalType": "uint256",
          "name": "_id",
          "type": "uint256"
        }
      ],
      "name": "getOrganizationById",
      "outputs": [
        {
          "internalType": "uint256",
          "name": "",
          "type": "uint256"
        },
        {
          "internalType": "string",
          "name": "",
          "type": "string"
        },
        {
          "internalType": "address",
          "name": "",
          "type": "address"
        },
        {
          "internalType": "uint256",
          "name": "",
          "type": "uint256"
        },
        {
          "internalType": "uint256",
          "name": "",
          "type": "uint256"
        }
      ],
      "stateMutability": "view",
      "type": "function"
    },
    {
      "inputs": [
        {
          "internalType": "address",
          "name": "account",
          "type": "address"
        }
      ],
      "name": "getOrganizationIdByAddress",
      "outputs": [
        {
          "internalType": "uint256",
          "name": "",
          "type": "uint256"
        }
      ],
      "stateMutability": "view",
      "type": "function"
    },
    {
      "inputs": [],
      "name": "getOrganizations",
      "outputs": [
        {
          "internalType": "uint256[]",
          "name": "",
          "type": "uint256[]"
        },
        {
          "internalType": "string[]",
          "name": "",
          "type": "string[]"
        },
        {
          "internalType": "address[]",
          "name": "",
          "type": "address[]"
        },
        {
          "internalType": "uint256[]",
          "name": "",
          "type": "uint256[]"
        },
        {
          "internalType": "uint256[]",
          "name": "",
          "type": "uint256[]"
        }
      ],
      "stateMutability": "view",
      "type": "function"
    },
    {
      "inputs": [
        {
          "internalType": "uint256",
          "name": "applicationId",
          "type": "uint256"
        },
        {
          "internalType": "uint256",
          "name": "postAccomplishmentId",
          "type": "uint256"
        }
      ],
      "name": "getPostAccomplishment",
      "outputs": [
        {
          "components": [
            {
              "internalType": "uint256",
              "name": "id",
              "type": "uint256"
            },
            {
              "internalType": "uint256",
              "name": "requirementId",
              "type": "uint256"
            },
            {
              "internalType": "uint256",
              "name": "accomplishDate",
              "type": "uint256"
            },
            {
              "internalType": "uint256",
              "name": "accomplishCategory",
              "type": "uint256"
            },
            {
              "internalType": "string",
              "name": "accomplishValue",
              "type": "string"
            }
          ],
          "internalType": "struct AkasifyCoreContract.Accomplishment",
          "name": "_accomplishment",
          "type": "tuple"
        }
      ],
      "stateMutability": "view",
      "type": "function"
    },
    {
      "inputs": [
        {
          "internalType": "uint256",
          "name": "opportunityId",
          "type": "uint256"
        }
      ],
      "name": "getPostRequirementsByOpportunityId",
      "outputs": [
        {
          "internalType": "uint256[]",
          "name": "",
          "type": "uint256[]"
        },
        {
          "internalType": "uint256[]",
          "name": "",
          "type": "uint256[]"
        },
        {
          "internalType": "uint256[]",
          "name": "",
          "type": "uint256[]"
        },
        {
          "internalType": "string[]",
          "name": "",
          "type": "string[]"
        }
      ],
      "stateMutability": "view",
      "type": "function"
    },
    {
      "inputs": [
        {
          "internalType": "uint256",
          "name": "applicationId",
          "type": "uint256"
        },
        {
          "internalType": "uint256",
          "name": "preAccomplishmentId",
          "type": "uint256"
        }
      ],
      "name": "getPreAccomplishment",
      "outputs": [
        {
          "components": [
            {
              "internalType": "uint256",
              "name": "id",
              "type": "uint256"
            },
            {
              "internalType": "uint256",
              "name": "requirementId",
              "type": "uint256"
            },
            {
              "internalType": "uint256",
              "name": "accomplishDate",
              "type": "uint256"
            },
            {
              "internalType": "uint256",
              "name": "accomplishCategory",
              "type": "uint256"
            },
            {
              "internalType": "string",
              "name": "accomplishValue",
              "type": "string"
            }
          ],
          "internalType": "struct AkasifyCoreContract.Accomplishment",
          "name": "_accomplishment",
          "type": "tuple"
        }
      ],
      "stateMutability": "view",
      "type": "function"
    },
    {
      "inputs": [
        {
          "internalType": "uint256",
          "name": "applicationId",
          "type": "uint256"
        }
      ],
      "name": "getPreAccomplishmentsByApplicationId",
      "outputs": [
        {
          "internalType": "uint256[]",
          "name": "",
          "type": "uint256[]"
        },
        {
          "internalType": "uint256[]",
          "name": "",
          "type": "uint256[]"
        },
        {
          "internalType": "uint256[]",
          "name": "",
          "type": "uint256[]"
        },
        {
          "internalType": "uint256[]",
          "name": "",
          "type": "uint256[]"
        },
        {
          "internalType": "string[]",
          "name": "",
          "type": "string[]"
        }
      ],
      "stateMutability": "view",
      "type": "function"
    },
    {
      "inputs": [
        {
          "internalType": "uint256",
          "name": "opportunityId",
          "type": "uint256"
        }
      ],
      "name": "getPreRequirementsByOpportunityId",
      "outputs": [
        {
          "internalType": "uint256[]",
          "name": "",
          "type": "uint256[]"
        },
        {
          "internalType": "uint256[]",
          "name": "",
          "type": "uint256[]"
        },
        {
          "internalType": "uint256[]",
          "name": "",
          "type": "uint256[]"
        },
        {
          "internalType": "string[]",
          "name": "",
          "type": "string[]"
        }
      ],
      "stateMutability": "view",
      "type": "function"
    },
    {
      "inputs": [
        {
          "internalType": "address",
          "name": "account",
          "type": "address"
        }
      ],
      "name": "getRole",
      "outputs": [
        {
          "internalType": "string",
          "name": "",
          "type": "string"
        }
      ],
      "stateMutability": "view",
      "type": "function"
    },
    {
      "inputs": [
        {
          "internalType": "address",
          "name": "account",
          "type": "address"
        }
      ],
      "name": "isActiveBeneficiary",
      "outputs": [
        {
          "internalType": "bool",
          "name": "",
          "type": "bool"
        }
      ],
      "stateMutability": "view",
      "type": "function"
    },
    {
      "inputs": [
        {
          "internalType": "address",
          "name": "account",
          "type": "address"
        }
      ],
      "name": "isBeneficiary",
      "outputs": [
        {
          "internalType": "bool",
          "name": "",
          "type": "bool"
        }
      ],
      "stateMutability": "view",
      "type": "function"
    },
    {
      "inputs": [
        {
          "internalType": "address",
          "name": "account",
          "type": "address"
        }
      ],
      "name": "isOrganization",
      "outputs": [
        {
          "internalType": "bool",
          "name": "",
          "type": "bool"
        }
      ],
      "stateMutability": "view",
      "type": "function"
    },
    {
      "inputs": [],
      "name": "nextApplicationId",
      "outputs": [
        {
          "internalType": "uint256",
          "name": "",
          "type": "uint256"
        }
      ],
      "stateMutability": "view",
      "type": "function"
    },
    {
      "inputs": [],
      "name": "nextBeneficiaryId",
      "outputs": [
        {
          "internalType": "uint256",
          "name": "",
          "type": "uint256"
        }
      ],
      "stateMutability": "view",
      "type": "function"
    },
    {
      "inputs": [],
      "name": "nextOpportunityId",
      "outputs": [
        {
          "internalType": "uint256",
          "name": "",
          "type": "uint256"
        }
      ],
      "stateMutability": "view",
      "type": "function"
    },
    {
      "inputs": [],
      "name": "nextOrganizationId",
      "outputs": [
        {
          "internalType": "uint256",
          "name": "",
          "type": "uint256"
        }
      ],
      "stateMutability": "view",
      "type": "function"
    },
    {
      "inputs": [
        {
          "internalType": "uint256",
          "name": "",
          "type": "uint256"
        }
      ],
      "name": "opportunities",
      "outputs": [
        {
          "internalType": "uint256",
          "name": "id",
          "type": "uint256"
        },
        {
          "internalType": "uint256",
          "name": "organizationId",
          "type": "uint256"
        },
        {
          "internalType": "string",
          "name": "name",
          "type": "string"
        },
        {
          "internalType": "string",
          "name": "description",
          "type": "string"
        },
        {
          "internalType": "uint256",
          "name": "preRequirementsDeadline",
          "type": "uint256"
        },
        {
          "internalType": "uint256",
          "name": "postRequirementsDeadline",
          "type": "uint256"
        },
        {
          "internalType": "uint256",
          "name": "creationDate",
          "type": "uint256"
        },
        {
          "internalType": "uint256",
          "name": "lastUpdate",
          "type": "uint256"
        },
        {
          "internalType": "uint256",
          "name": "applicationCount",
          "type": "uint256"
        },
        {
          "internalType": "uint256",
          "name": "status",
          "type": "uint256"
        },
        {
          "internalType": "uint256",
          "name": "nextPreRequirementId",
          "type": "uint256"
        },
        {
          "internalType": "uint256",
          "name": "nextPostRequirementId",
          "type": "uint256"
        }
      ],
      "stateMutability": "view",
      "type": "function"
    },
    {
      "inputs": [
        {
          "internalType": "string",
          "name": "_oasisAddress",
          "type": "string"
        }
      ],
      "name": "registerBeneficiary",
      "outputs": [],
      "stateMutability": "nonpayable",
      "type": "function"
    },
    {
      "inputs": [
        {
          "internalType": "address payable",
          "name": "_account",
          "type": "address"
        },
        {
          "internalType": "string",
          "name": "_oasisAddress",
          "type": "string"
        },
        {
          "internalType": "uint256",
          "name": "_status",
          "type": "uint256"
        }
      ],
      "name": "registerBeneficiaryByAdmin",
      "outputs": [],
      "stateMutability": "nonpayable",
      "type": "function"
    },
    {
      "inputs": [
        {
          "internalType": "string",
          "name": "name",
          "type": "string"
        },
        {
          "internalType": "address payable",
          "name": "account",
          "type": "address"
        },
        {
          "internalType": "uint256",
          "name": "status",
          "type": "uint256"
        }
      ],
      "name": "registerOrganizationByAdmin",
      "outputs": [
        {
          "internalType": "uint256",
          "name": "",
          "type": "uint256"
        }
      ],
      "stateMutability": "nonpayable",
      "type": "function"
    },
    {
      "inputs": [
        {
          "internalType": "uint256",
          "name": "applicationId",
          "type": "uint256"
        },
        {
          "internalType": "uint256",
          "name": "status",
          "type": "uint256"
        }
      ],
      "name": "updateApplicationStatus",
      "outputs": [],
      "stateMutability": "nonpayable",
      "type": "function"
    },
    {
      "inputs": [
        {
          "internalType": "uint256",
          "name": "opportunityId",
          "type": "uint256"
        },
        {
          "internalType": "uint256",
          "name": "status",
          "type": "uint256"
        }
      ],
      "name": "updateOpportunityStatus",
      "outputs": [],
      "stateMutability": "nonpayable",
      "type": "function"
    }
  ],
  "bytecode": "0x60806040523480156200001157600080fd5b5060405162005d5338038062005d5383398101604081905262000034916200005a565b600880546001600160a01b0319166001600160a01b03929092169190911790556200008a565b6000602082840312156200006c578081fd5b81516001600160a01b038116811462000083578182fd5b9392505050565b615cb9806200009a6000396000f3fe608060405234801561001057600080fd5b50600436106102485760003560e01c806396210f931161013b578063c821b4fb116100b8578063df19ce4d1161007c578063df19ce4d146105b8578063dfefadff146105cb578063eadd2f61146105f4578063f851a44014610607578063fcfb8bb21461061c57610248565b8063c821b4fb14610554578063cbdbc9a614610567578063cfd664d61461058a578063d11f3c471461059d578063d2830de3146105b057610248565b8063acaf764d116100ff578063acaf764d146104b4578063acd6c98f146104d8578063ad41ac3d14610503578063aed35ccc14610526578063b1ce8eab1461054157610248565b806396210f931461042c5780639754a3a81461043f57806398077031146104585780639d19b2261461047d578063aa0a57ab1461049057610248565b8063625338cb116101c95780637a47523b1161018d5780637a47523b146103a7578063857bbd28146103ce5780638c4be5eb146103e1578063913b722c146103f4578063957abe0b1461040c57610248565b8063625338cb14610353578063635c54551461035b5780636ddc232b1461036e5780636e46cc4e14610381578063706f48b11461039457610248565b8063442767331161021057806344276733146102d75780634bcaaa01146102f75780634f4e45341461031a5780635080d5fb1461032d5780635825271a1461034057610248565b80631283ca701461024d57806327f9e105146102625780632832163f1461028b578063292719d3146102af5780633859305e146102cf575b600080fd5b61026061025b366004614bdc565b610624565b005b610275610270366004614987565b610815565b60405161028291906150c0565b60405180910390f35b61029e610299366004614987565b61087c565b604051610282959493929190615a3e565b6102c26102bd366004614987565b610a1f565b60405161028291906159d3565b6102c2610a6d565b6102ea6102e5366004614987565b610a73565b60405161028291906150cb565b61030a610305366004614bdc565b610b49565b6040516102829493929190615016565b610260610328366004614c23565b610e29565b6102c261033b366004614987565b6110f2565b61026061034e366004614a91565b61115e565b6102c2611584565b61029e610369366004614bdc565b61158a565b61026061037c366004614a00565b6116bd565b6102c261038f366004614987565b6117e6565b6102606103a2366004614c23565b611854565b6103ba6103b5366004614bdc565b611a55565b604051610282989796959493929190615a7d565b6102606103dc366004614c88565b611be4565b61030a6103ef366004614bdc565b611ce6565b6103fc611fb2565b6040516102829493929190614ee0565b61041f61041a366004614c67565b612262565b6040516102829190615990565b61026061043a3660046149aa565b61237c565b61044761247c565b604051610282959493929190614f17565b61046b610466366004614bf4565b6127b8565b60405161028296959493929190615bad565b61027561048b366004614987565b612b22565b6104a361049e366004614bdc565b612b63565b6040516102829594939291906159dc565b6104c76104c2366004614bdc565b612c77565b604051610282959493929190615062565b6104eb6104e6366004614bdc565b61317e565b6040516102829c9b9a99989796959493929190615b19565b610516610511366004614bdc565b6132e7565b6040516102829493929190614e89565b61052e6138aa565b6040516102829796959493929190614f82565b61027561054f366004614987565b613d87565b61041f610562366004614c67565b613de6565b61057a610575366004614987565b613e13565b6040516102829493929190615a1a565b610260610598366004614c67565b613f62565b6102606105ab366004614c88565b61419e565b6102c26142a0565b6102c26105c6366004614a3a565b6142a6565b6105de6105d9366004614bdc565b61437e565b6040516102829a99989796959493929190615bd5565b610260610602366004614c67565b6143d2565b61060f6146a9565b6040516102829190614e75565b6102c26146b8565b60008181526004602052604090206009015460021461065e5760405162461bcd60e51b8152600401610655906157f1565b60405180910390fd5b600754600081815260066020526040902090815560010181905561068133610a1f565b60058054600090815260066020818152604080842060020195909555600780548452858420600301849055805484528584206004908101859055815485528685209095018490558054845285842090920183905581548352848320429083018190558254845285842060089081019190915591548352848320600160099091018190558684529390529290209091018054909101905561071f6146be565b600080825260208083018281524260408086019182526001606087018181528251808701845287815260808901908152600754885260068752928720600a018054808401825590885296869020885160059098020196875593519086015590516002850155905160038401555180518493926107a29260048501929101906146ed565b505060078054600090815260066020526040808220600501805460019081019091559254808352918190209092015491517ff0ecfc9d01e072b344ab803487dff20893bdb9f671d08bd9e260d0f8b5fae84d93506108009290615b0b565b60405180910390a15050600780546001019055565b600080805b600154811015610873576000818152602081905260409020600101546001600160a01b03858116911614801561086157506000818152602081905260409020600401546003145b1561086b57600191505b60010161081a565b5090505b919050565b60006060818080805b6003548110156109f85761089761476b565b600260008381526020019081526020016000206040518060a001604052908160008201548152602001600182018054600181600116156101000203166002900480601f0160208091040260200160405190810160405280929190818152602001828054600181600116156101000203166002900480156109585780601f1061092d57610100808354040283529160200191610958565b820191906000526020600020905b81548152906001019060200180831161093b57829003601f168201915b505050505081526020016002820160009054906101000a90046001600160a01b03166001600160a01b03166001600160a01b03168152602001600382015481526020016004820154815250509050876001600160a01b031681604001516001600160a01b031614156109ef57805160208201516040830151606084015160809094015192995090975095509093509150610a169050565b50600101610885565b50506040805160208101909152600080825294509250839150819050805b91939590929450565b600080805b600154811015610873576000818152602081905260409020600101546001600160a01b0385811691161415610a655760008181526020819052604090205491505b600101610a24565b60015481565b6008546060906001600160a01b0383811691161415610aae575060408051808201909152600581526430b236b4b760d91b6020820152610877565b610ab782613d87565b151560011415610aea575060408051808201909152600c81526b37b933b0b734bd30ba34b7b760a11b6020820152610877565b610af382612b22565b151560011415610b25575060408051808201909152600b81526a62656e656669636961727960a81b6020820152610877565b506040805180820190915260078152663b34b9b4ba37b960c91b6020820152610877565b6000818152600460205260409020600b81015460609182918291829182906001600160401b0381118015610b7c57600080fd5b50604051908082528060200260200182016040528015610ba6578160200160208202803683370190505b509050606082600b01546001600160401b0381118015610bc557600080fd5b50604051908082528060200260200182016040528015610bef578160200160208202803683370190505b509050606083600b01546001600160401b0381118015610c0e57600080fd5b50604051908082528060200260200182016040528015610c38578160200160208202803683370190505b509050606084600b01546001600160401b0381118015610c5757600080fd5b50604051908082528060200260200182016040528015610c8b57816020015b6060815260200190600190039081610c765790505b50905060005b85600b0154811015610e1557610ca56146be565b86600d018281548110610cb457fe5b90600052602060002090600502016040518060a001604052908160008201548152602001600182015481526020016002820154815260200160038201548152602001600482018054600181600116156101000203166002900480601f016020809104026020016040519081016040528092919081815260200182805460018160011615610100020316600290048015610d8e5780601f10610d6357610100808354040283529160200191610d8e565b820191906000526020600020905b815481529060010190602001808311610d7157829003601f168201915b50505050508152505090508060000151868381518110610daa57fe5b6020026020010181815250508060400151858381518110610dc757fe5b6020026020010181815250508060600151848381518110610de457fe5b6020026020010181815250508060800151838381518110610e0157fe5b602090810291909101015250600101610c91565b5092975090955093509150505b9193509193565b6000610e3433612b22565b905080610e535760405162461bcd60e51b8152600401610655906154e9565b600083815260066020526040902060090154600114610e845760405162461bcd60e51b8152600401610655906155a7565b6000838152600660208181526040808420815160a081018352600580830154825294845260038083015482860190815242948301948552600260608401818152608085018c8152600a909601805460018181018355918c529a89902086519b909a02909901998a5591519789019790975593519587019590955591519385019390935591518051929392610f1e92600485019201906146ed565b50505060008381526006602090815260408083206003810154600191820154855260049093529220600a0154910110156110785760008381526006602081815260408084206005808201805460019081019182905560038085018054830190819055865160a08101885293845297875282870197885242838701908152606084018381528751808a019098528a885260808501978852600a90960180548085018255908b529988902084519a90950290940198895596519088015590516002870155905193850193909355518051929392610fff92600485019201906146ed565b505050600083815260066020526040908190206005810154600382015460019092015492517f3bd69d0338add0787747b118da14e4aeba941afe53638eab003a9d359f3214af936110539391889190615b92565b60405180910390a16000838152600660205260409020600501805460010190556110d9565b60008381526006602052604090819020600260098201556005810154600382015460019092015492517f3bd69d0338add0787747b118da14e4aeba941afe53638eab003a9d359f3214af936110d09391889190615b92565b60405180910390a15b5050600090815260066020526040902042600890910155565b600080805b60035481101561087357600081815260026020819052604090912001546001600160a01b03858116911614801561113f57506000818152600260205260409020600401546003145b156111565760008181526002602052604090205491505b6001016110f7565b600061116933613d87565b9050806111885760405162461bcd60e51b81526004016106559061522b565b60008b51116111a95760405162461bcd60e51b81526004016106559061544a565b60008a51116111ca5760405162461bcd60e51b815260040161065590615604565b855187511480156111dc575084518651145b6111f85760405162461bcd60e51b8152600401610655906153ed565b8251845114801561120a575081518351145b6112265760405162461bcd60e51b815260040161065590615513565b600554600081815260046020526040902055611241336110f2565b6005805460009081526004602090815260408083206001019490945591548152919091208c51611279926002909201918e01906146ed565b5060055460009081526004602090815260409091208b516112a2926003909201918d01906146ed565b50600580546000908152600460208190526040808320426006909101819055845484528184209092018d90558354835280832084018c905583548352808320600701919091559154815290812060016009909101555b875181101561140757600554600081815260046020908152604091829020825160a081018452600a8201548152918201939093528a51600c9093019290918201908b908590811061134557fe5b6020026020010151815260200189848151811061135e57fe5b6020026020010151815260200188848151811061137757fe5b602090810291909101810151909152825460018181018555600094855293829020835160059092020190815582820151938101939093556040820151600284015560608201516003840155608082015180519293926113dc92600485019201906146ed565b50506005546000908152600460205260409020600a01805460019081019091559190910190506112f8565b5060005b845181101561151a57600554600081815260046020908152604091829020825160a081018452600b8201548152918201939093528751600d90930192909182019088908590811061145857fe5b6020026020010151815260200186848151811061147157fe5b6020026020010151815260200185848151811061148a57fe5b602090810291909101810151909152825460018181018555600094855293829020835160059092020190815582820151938101939093556040820151600284015560608201516003840155608082015180519293926114ef92600485019201906146ed565b50506005546000908152600460205260409020600b018054600190810190915591909101905061140b565b506005546000818152600460205260409081902090517f217f6f8566b5368c91631b32159051c0f0fc3ed5c77908901e6a2ef3f7df835992611566929091600282019160030190615ad6565b60405180910390a15050600580546001019055505050505050505050565b60075481565b60006060600080600061159b61476b565b600260008881526020019081526020016000206040518060a001604052908160008201548152602001600182018054600181600116156101000203166002900480601f01602080910402602001604051908101604052809291908181526020018280546001816001161561010002031660029004801561165c5780601f106116315761010080835404028352916020019161165c565b820191906000526020600020905b81548152906001019060200180831161163f57829003601f168201915b505050918352505060028201546001600160a01b031660208083019190915260038301546040808401919091526004909301546060928301528351908401519284015191840151608090940151909b929a5090985091965090945092505050565b6008546001600160a01b03163314156116e85760405162461bcd60e51b815260040161065590615836565b60006116f333613d87565b905080156117135760405162461bcd60e51b815260040161065590615749565b6040805160a081018252600180548083523360208085019182528486018881524260608701526003608087015260009384528382529590922084518155905192810180546001600160a01b0319166001600160a01b0390941693909317909255925180519293919261178b92600285019201906146ed565b506060820151600382015560809091015160049091015560018054810190556040517f67bf623e5c0c95725ab7b0d181e969032a96122e243710f76311bae55f89df71906117da903390614e75565b60405180910390a15050565b600080805b600154811015610873576000818152602081905260409020600101546001600160a01b03858116911614801561183257506000818152602081905260409020600401546003145b1561184c5760008181526020819052604090206004015491505b6001016117eb565b600061185f33612b22565b90508061187e5760405162461bcd60e51b8152600401610655906154e9565b6000838152600660205260409020600901546005146118af5760405162461bcd60e51b8152600401610655906152b3565b6000838152600660208181526040808420815160a08101835281850154815293835260048082015485850190815242938601938452600260608701818152608088018b8152600b909501805460018181018355918b529988902089516005909b0201998a5592519289019290925593519387019390935591516003860155518051939493611945939285019291909101906146ed565b5050506000838152600660209081526040808320600480820154600192830154865293529220600b015491011015611a3a576000838152600660208181526040808420808401805460019081019182905560048084018054830190819055855160a0810187529384529686528286019687524294830194855260608301828152608084018b8152600b90950180548085018255908a529887902084516005909a02019889559651918801919091559251600287015593516003860155518051939493611a19939285019291909101906146ed565b50505060008381526006602081905260409091200180546001019055611a50565b6000838152600660208190526040909120600901555b505050565b6000606080600080600080600080600460008b815260200190815260200160002090508060010154816002018260030183600401548460050154856006015486600701548760090154868054600181600116156101000203166002900480601f016020809104026020016040519081016040528092919081815260200182805460018160011615610100020316600290048015611b335780601f10611b0857610100808354040283529160200191611b33565b820191906000526020600020905b815481529060010190602001808311611b1657829003601f168201915b5050895460408051602060026001851615610100026000190190941693909304601f8101849004840282018401909252818152959c508b945092508401905082828015611bc15780601f10611b9657610100808354040283529160200191611bc1565b820191906000526020600020905b815481529060010190602001808311611ba457829003601f168201915b505050505095509850985098509850985098509850985050919395975091939597565b6000611bef33613d87565b905080611c0e5760405162461bcd60e51b81526004016106559061522b565b600085815260046020526040902060090154600114611c3f5760405162461bcd60e51b815260040161065590615632565b6000858152600460208181526040808420815160a081018352600b82015481528084018b81529281018a8152606082018a8152608083018a8152600d909401805460018181018355918a529887902084516005909a020198895594519488019490945551600287015591516003860155518051919493611cc593908501929101906146ed565b505050600094855250506004602052505060409020600b0180546001019055565b6000818152600460205260409020600a81015460609182918291829182906001600160401b0381118015611d1957600080fd5b50604051908082528060200260200182016040528015611d43578160200160208202803683370190505b509050606082600a01546001600160401b0381118015611d6257600080fd5b50604051908082528060200260200182016040528015611d8c578160200160208202803683370190505b509050606083600a01546001600160401b0381118015611dab57600080fd5b50604051908082528060200260200182016040528015611dd5578160200160208202803683370190505b509050606084600a01546001600160401b0381118015611df457600080fd5b50604051908082528060200260200182016040528015611e2857816020015b6060815260200190600190039081611e135790505b50905060005b85600a0154811015610e1557611e426146be565b86600c018281548110611e5157fe5b90600052602060002090600502016040518060a001604052908160008201548152602001600182015481526020016002820154815260200160038201548152602001600482018054600181600116156101000203166002900480601f016020809104026020016040519081016040528092919081815260200182805460018160011615610100020316600290048015611f2b5780601f10611f0057610100808354040283529160200191611f2b565b820191906000526020600020905b815481529060010190602001808311611f0e57829003601f168201915b50505050508152505090508060000151868381518110611f4757fe5b6020026020010181815250508060400151858381518110611f6457fe5b6020026020010181815250508060600151848381518110611f8157fe5b6020026020010181815250508060800151838381518110611f9e57fe5b602090810291909101015250600101611e2e565b60608060608060606001546001600160401b0381118015611fd257600080fd5b50604051908082528060200260200182016040528015611ffc578160200160208202803683370190505b50905060606001546001600160401b038111801561201957600080fd5b50604051908082528060200260200182016040528015612043578160200160208202803683370190505b50905060606001546001600160401b038111801561206057600080fd5b5060405190808252806020026020018201604052801561208a578160200160208202803683370190505b50905060606001546001600160401b03811180156120a757600080fd5b506040519080825280602002602001820160405280156120d1578160200160208202803683370190505b50905060005b600154811015612253576120e96147a3565b60008281526020818152604091829020825160a081018452815481526001808301546001600160a01b0316828501526002808401805487516101009482161594909402600019011691909104601f810186900486028301860187528083529295939493860193919290918301828280156121a45780601f10612179576101008083540402835291602001916121a4565b820191906000526020600020905b81548152906001019060200180831161218757829003601f168201915b5050505050815260200160038201548152602001600482015481525050905080600001518683815181106121d457fe5b60200260200101818152505080602001518583815181106121f157fe5b60200260200101906001600160a01b031690816001600160a01b031681525050806060015184838151811061222257fe5b602002602001018181525050806080015183838151811061223f57fe5b6020908102919091010152506001016120d7565b50929791965094509092509050565b61226a6146be565b6122726146be565b6000848152600660205260409020600b0180548490811061228f57fe5b90600052602060002090600502016040518060a001604052908160008201548152602001600182015481526020016002820154815260200160038201548152602001600482018054600181600116156101000203166002900480601f0160208091040260200160405190810160405280929190818152602001828054600181600116156101000203166002900480156123695780601f1061233e57610100808354040283529160200191612369565b820191906000526020600020905b81548152906001019060200180831161234c57829003601f168201915b5050509190925250919695505050505050565b6008546001600160a01b031633146123a65760405162461bcd60e51b8152600401610655906153c9565b6040805160a081018252600180548083526001600160a01b0387811660208086019182528587018981524260608801526080870189905260009485528482529690932085518155905193810180546001600160a01b03191694909216939093179055925180519293919261242092600285019201906146ed565b506060820151600382015560809091015160049091015560018054810190556040517f67bf623e5c0c95725ab7b0d181e969032a96122e243710f76311bae55f89df719061246f908590614e75565b60405180910390a1505050565b6060806060806060806003546001600160401b038111801561249d57600080fd5b506040519080825280602002602001820160405280156124c7578160200160208202803683370190505b50905060606003546001600160401b03811180156124e457600080fd5b5060405190808252806020026020018201604052801561251857816020015b60608152602001906001900390816125035790505b50905060606003546001600160401b038111801561253557600080fd5b5060405190808252806020026020018201604052801561255f578160200160208202803683370190505b50905060606003546001600160401b038111801561257c57600080fd5b506040519080825280602002602001820160405280156125a6578160200160208202803683370190505b50905060606003546001600160401b03811180156125c357600080fd5b506040519080825280602002602001820160405280156125ed578160200160208202803683370190505b50905060005b6003548110156127a65761260561476b565b600260008381526020019081526020016000206040518060a001604052908160008201548152602001600182018054600181600116156101000203166002900480601f0160208091040260200160405190810160405280929190818152602001828054600181600116156101000203166002900480156126c65780601f1061269b576101008083540402835291602001916126c6565b820191906000526020600020905b8154815290600101906020018083116126a957829003601f168201915b505050918352505060028201546001600160a01b0316602082015260038201546040820152600490910154606090910152805188519192509088908490811061270b57fe5b602002602001018181525050806020015186838151811061272857fe5b6020026020010181905250806040015185838151811061274457fe5b60200260200101906001600160a01b031690816001600160a01b031681525050806060015184838151811061277557fe5b602002602001018181525050806080015183838151811061279257fe5b6020908102919091010152506001016125f3565b50939992985090965094509092509050565b60008060008060008060006127cc88610a1f565b90506127d66147db565b60005b600754811015612aed576000818152600660205260409020600101548b148015612813575060008181526006602052604090206002015483145b15612ae5576000818152600660208181526040808420815161018081018352815481526001820154818501526002820154818401526003820154606082015260048201546080820152600582015460a08201529381015460c0850152600781015460e085015260088101546101008501526009810154610120850152600a81018054835181860281018601909452808452949591946101408701949192909184015b828210156129b157838290600052602060002090600502016040518060a001604052908160008201548152602001600182015481526020016002820154815260200160038201548152602001600482018054600181600116156101000203166002900480601f0160208091040260200160405190810160405280929190818152602001828054600181600116156101000203166002900480156129995780601f1061296e57610100808354040283529160200191612999565b820191906000526020600020905b81548152906001019060200180831161297c57829003601f168201915b505050505081525050815260200190600101906128b5565b505050508152602001600b8201805480602002602001604051908101604052809291908181526020016000905b82821015612ada57838290600052602060002090600502016040518060a001604052908160008201548152602001600182015481526020016002820154815260200160038201548152602001600482018054600181600116156101000203166002900480601f016020809104026020016040519081016040528092919081815260200182805460018160011615610100020316600290048015612ac25780601f10612a9757610100808354040283529160200191612ac2565b820191906000526020600020905b815481529060010190602001808311612aa557829003601f168201915b505050505081525050815260200190600101906129de565b505050508152505091505b6001016127d9565b5080516020820151604083015160e084015161010085015161012090950151939e929d50909b50995091975095509350505050565b600080805b600154811015610873576000818152602081905260409020600101546001600160a01b0385811691161415612b5b57600191505b600101612b27565b6000806060600080612b736147a3565b60008781526020818152604091829020825160a081018452815481526001808301546001600160a01b0316828501526002808401805487516101009482161594909402600019011691909104601f81018690048602830186018752808352929593949386019391929091830182828015612c2e5780601f10612c0357610100808354040283529160200191612c2e565b820191906000526020600020905b815481529060010190602001808311612c1157829003601f168201915b50505091835250506003820154602080830191909152600490920154604091820152825191830151908301516060840151608090940151929b919a509850919650945092505050565b6000818152600660205260409020600a81015460609182918291829182919082906001600160401b0381118015612cad57600080fd5b50604051908082528060200260200182016040528015612cd7578160200160208202803683370190505b50600a8301549091506060906001600160401b0381118015612cf857600080fd5b50604051908082528060200260200182016040528015612d22578160200160208202803683370190505b50600a8401549091506060906001600160401b0381118015612d4357600080fd5b50604051908082528060200260200182016040528015612d6d578160200160208202803683370190505b50600a8501549091506060906001600160401b0381118015612d8e57600080fd5b50604051908082528060200260200182016040528015612db8578160200160208202803683370190505b50600a8601549091506060906001600160401b0381118015612dd957600080fd5b50604051908082528060200260200182016040528015612e0d57816020015b6060815260200190600190039081612df85790505b50905060005b600a870154811015612fb457612e276146be565b87600a018281548110612e3657fe5b90600052602060002090600502016040518060a001604052908160008201548152602001600182015481526020016002820154815260200160038201548152602001600482018054600181600116156101000203166002900480601f016020809104026020016040519081016040528092919081815260200182805460018160011615610100020316600290048015612f105780601f10612ee557610100808354040283529160200191612f10565b820191906000526020600020905b815481529060010190602001808311612ef357829003601f168201915b50505050508152505090508060000151878381518110612f2c57fe5b6020026020010181815250508060200151868381518110612f4957fe5b6020026020010181815250508060400151858381518110612f6657fe5b6020026020010181815250508060600151848381518110612f8357fe5b6020026020010181815250508060800151838381518110612fa057fe5b602090810291909101015250600101612e13565b506005860154600a870154111561316b57612fcd6146be565b86600a01876005015481548110612fe057fe5b90600052602060002090600502016040518060a001604052908160008201548152602001600182015481526020016002820154815260200160038201548152602001600482018054600181600116156101000203166002900480601f0160208091040260200160405190810160405280929190818152602001828054600181600116156101000203166002900480156130ba5780601f1061308f576101008083540402835291602001916130ba565b820191906000526020600020905b81548152906001019060200180831161309d57829003601f168201915b50505050508152505090508060000151868860050154815181106130da57fe5b6020026020010181815250508060200151858860050154815181106130fb57fe5b60200260200101818152505080604001518488600501548151811061311c57fe5b60200260200101818152505080606001518388600501548151811061313d57fe5b60200260200101818152505080608001518288600501548151811061315e57fe5b6020026020010181905250505b939b929a50909850965090945092505050565b60046020908152600091825260409182902080546001808301546002808501805488519481161561010002600019011691909104601f81018790048702840187019097528683529295909491929183018282801561321d5780601f106131f25761010080835404028352916020019161321d565b820191906000526020600020905b81548152906001019060200180831161320057829003601f168201915b5050505060038301805460408051602060026001851615610100026000190190941693909304601f81018490048402820184019092528181529495949350908301828280156132ad5780601f10613282576101008083540402835291602001916132ad565b820191906000526020600020905b81548152906001019060200180831161329057829003601f168201915b50505050509080600401549080600501549080600601549080600701549080600801549080600901549080600a01549080600b015490508c565b6000818152600460205260409020600881015460609182918291829182906001600160401b038111801561331a57600080fd5b50604051908082528060200260200182016040528015613344578160200160208202803683370190505b509050606082600801546001600160401b038111801561336357600080fd5b5060405190808252806020026020018201604052801561338d578160200160208202803683370190505b509050606083600801546001600160401b03811180156133ac57600080fd5b506040519080825280602002602001820160405280156133e057816020015b60608152602001906001900390816133cb5790505b509050606084600801546001600160401b03811180156133ff57600080fd5b50604051908082528060200260200182016040528015613429578160200160208202803683370190505b5090506000805b600754811015613898576134426147db565b6000828152600660208181526040808420815161018081018352815481526001820154818501526002820154818401526003820154606082015260048201546080820152600582015460a08201529381015460c0850152600781015460e085015260088101546101008501526009810154610120850152600a81018054835181860281018601909452808452949591946101408701949192909184015b828210156135db57838290600052602060002090600502016040518060a001604052908160008201548152602001600182015481526020016002820154815260200160038201548152602001600482018054600181600116156101000203166002900480601f0160208091040260200160405190810160405280929190818152602001828054600181600116156101000203166002900480156135c35780601f10613598576101008083540402835291602001916135c3565b820191906000526020600020905b8154815290600101906020018083116135a657829003601f168201915b505050505081525050815260200190600101906134df565b505050508152602001600b8201805480602002602001604051908101604052809291908181526020016000905b8282101561370457838290600052602060002090600502016040518060a001604052908160008201548152602001600182015481526020016002820154815260200160038201548152602001600482018054600181600116156101000203166002900480601f0160208091040260200160405190810160405280929190818152602001828054600181600116156101000203166002900480156136ec5780601f106136c1576101008083540402835291602001916136ec565b820191906000526020600020905b8154815290600101906020018083116136cf57829003601f168201915b50505050508152505081526020019060010190613608565b505050508152505090506137166147a3565b6040828101516000908152602081815290829020825160a081018452815481526001808301546001600160a01b0316828501526002808401805487516101009482161594909402600019011691909104601f810186900486028301860187528083529295939493860193919290918301828280156137d55780601f106137aa576101008083540402835291602001916137d5565b820191906000526020600020905b8154815290600101906020018083116137b857829003601f168201915b505050505081526020016003820154815260200160048201548152505090508d8260200151141561388e57816000015188858151811061381157fe5b602002602001018181525050806020015187858151811061382e57fe5b60200260200101906001600160a01b031690816001600160a01b031681525050806040015186858151811061385f57fe5b602002602001018190525081610120015185858151811061387c57fe5b60209081029190910101526001909301925b5050600101613430565b50939a92995090975095509350505050565b6060806060806060806060806005546001600160401b03811180156138ce57600080fd5b506040519080825280602002602001820160405280156138f8578160200160208202803683370190505b50905060606005546001600160401b038111801561391557600080fd5b5060405190808252806020026020018201604052801561394957816020015b60608152602001906001900390816139345790505b50905060606005546001600160401b038111801561396657600080fd5b5060405190808252806020026020018201604052801561399a57816020015b60608152602001906001900390816139855790505b50905060606005546001600160401b03811180156139b757600080fd5b506040519080825280602002602001820160405280156139eb57816020015b60608152602001906001900390816139d65790505b50905060606005546001600160401b0381118015613a0857600080fd5b50604051908082528060200260200182016040528015613a32578160200160208202803683370190505b50905060606005546001600160401b0381118015613a4f57600080fd5b50604051908082528060200260200182016040528015613a79578160200160208202803683370190505b50905060606005546001600160401b0381118015613a9657600080fd5b50604051908082528060200260200182016040528015613ac0578160200160208202803683370190505b50905060005b600554811015613d70576000818152600460205260409020805489518a9084908110613aee57fe5b60200260200101818152505060026000826001015481526020019081526020016000206001018054600181600116156101000203166002900480601f016020809104026020016040519081016040528092919081815260200182805460018160011615610100020316600290048015613ba85780601f10613b7d57610100808354040283529160200191613ba8565b820191906000526020600020905b815481529060010190602001808311613b8b57829003601f168201915b5050505050888381518110613bb957fe5b60209081029190910181019190915260028281018054604080516001831615610100026000190190921693909304601f810185900485028201850190935282815292909190830182828015613c4f5780601f10613c2457610100808354040283529160200191613c4f565b820191906000526020600020905b815481529060010190602001808311613c3257829003601f168201915b5050505050878381518110613c6057fe5b60209081029190910181019190915260038201805460408051601f6002600019610100600187161502019094169390930492830185900485028101850190915281815292830182828015613cf55780601f10613cca57610100808354040283529160200191613cf5565b820191906000526020600020905b815481529060010190602001808311613cd857829003601f168201915b5050505050868381518110613d0657fe5b60200260200101819052508060040154858381518110613d2257fe5b6020026020010181815250508060050154848381518110613d3f57fe5b6020026020010181815250508060090154838381518110613d5c57fe5b602090810291909101015250600101613ac6565b50959d949c50929a50909850965094509092509050565b600080805b60035481101561087357600081815260026020819052604090912001546001600160a01b038581169116148015613dd457506000818152600260205260409020600401546003145b15613dde57600191505b600101613d8c565b613dee6146be565b613df66146be565b6000848152600660205260409020600a0180548490811061228f57fe5b6000808080805b600154811015613f5057613e2c6147a3565b60008281526020818152604091829020825160a081018452815481526001808301546001600160a01b0316828501526002808401805487516101009482161594909402600019011691909104601f81018690048602830186018752808352929593949386019391929091830182828015613ee75780601f10613ebc57610100808354040283529160200191613ee7565b820191906000526020600020905b815481529060010190602001808311613eca57829003601f168201915b50505050508152602001600382015481526020016004820154815250509050866001600160a01b031681602001516001600160a01b03161415613f475780516020820151606083015160809093015191975095509093509150610e229050565b50600101613e1a565b50600095869550859450849350915050565b6000613f6d33613d87565b90506000613f7a33612b22565b90508180613f855750805b613fa15760405162461bcd60e51b815260040161065590615570565b6000848152600660205260409020600901548015801590613fc3575060078111155b613fdf5760405162461bcd60e51b815260040161065590615197565b836002141561402d57806001146140085760405162461bcd60e51b815260040161065590615310565b61401133612b22565b61402d5760405162461bcd60e51b815260040161065590615256565b836003148061403c5750836004145b1561408657806002146140615760405162461bcd60e51b815260040161065590615471565b61406a33613d87565b6140865760405162461bcd60e51b8152600401610655906158d5565b83600514156140df57806003148061409e5750806004145b6140ba5760405162461bcd60e51b815260040161065590615859565b6140c333613d87565b6140df5760405162461bcd60e51b8152600401610655906158d5565b836006141561412d57806005146141085760405162461bcd60e51b8152600401610655906156ce565b61411133612b22565b61412d5760405162461bcd60e51b815260040161065590615256565b836007148061413c5750836008145b1561418657806006146141615760405162461bcd60e51b815260040161065590615932565b61416a33613d87565b6141865760405162461bcd60e51b8152600401610655906158d5565b50505060009182526006602052604090912060090155565b60006141a933613d87565b9050806141c85760405162461bcd60e51b81526004016106559061522b565b6000858152600460205260409020600901546001146141f95760405162461bcd60e51b815260040161065590615632565b6000858152600460208181526040808420815160a081018352600a82015481528084018b81529281018a8152606082018a8152608083018a8152600c909401805460018181018355918a529887902084516005909a02019889559451948801949094555160028701559151600386015551805191949361427f93908501929101906146ed565b505050600094855250506004602052505060409020600a0180546001019055565b60035481565b6008546000906001600160a01b031633146142d35760405162461bcd60e51b8152600401610655906153c9565b6003546040805160a08101825282815260208082018881526001600160a01b038816838501524260608401526080830187905260008581526002835293909320825181559251805192939261432e92600185019201906146ed565b5060408201516002820180546001600160a01b0319166001600160a01b03909216919091179055606082015160038083019190915560809092015160049091015580546001019055949350505050565b6006602052806000526040600020600091509050806000015490806001015490806002015490806003015490806004015490806005015490806006015490806007015490806008015490806009015490508a565b60006143dd33613d87565b9050806143fc5760405162461bcd60e51b81526004016106559061522b565b60008211801561440d575060078211155b6144295760405162461bcd60e51b815260040161065590615773565b8160021415614463576000838152600460205260409020600901546001146144635760405162461bcd60e51b8152600401610655906157aa565b816003141561449d5760008381526004602052604090206009015460021461449d5760405162461bcd60e51b815260040161065590615386565b81600414156144d7576000838152600460205260409020600901546003146144d75760405162461bcd60e51b8152600401610655906151ce565b816005141561451257600083815260046020819052604090912060090154146145125760405162461bcd60e51b81526004016106559061512b565b81600614156146535760008381526004602052604090206009015460051461454c5760405162461bcd60e51b8152600401610655906150de565b60005b60075481101561465157600081815260066020526040902060010154841415614649576000818152600660205260409020600901546003141561464957600081815260066020526040902060056009909101556145aa6146be565b60008082526020808301828152426040808601918252600160608701818152825180870184528781526080890190815289885260068752928720600b0180548084018255908852968690208851600590980201968755935190860155905160028501559051600384015551805184939261462b9260048501929101906146ed565b50505060008281526006602081905260409091200180546001019055505b60010161454f565b505b816007141561468d5760008381526004602052604090206009015460061461468d5760405162461bcd60e51b815260040161065590615667565b5060009182526004602052604090912042600782015560090155565b6008546001600160a01b031681565b60055481565b6040518060a0016040528060008152602001600081526020016000815260200160008152602001606081525090565b828054600181600116156101000203166002900490600052602060002090601f016020900481019282601f1061472e57805160ff191683800117855561475b565b8280016001018555821561475b579182015b8281111561475b578251825591602001919060010190614740565b5061476792915061483c565b5090565b6040518060a00160405280600081526020016060815260200160006001600160a01b0316815260200160008152602001600081525090565b6040518060a001604052806000815260200160006001600160a01b031681526020016060815260200160008152602001600081525090565b6040518061018001604052806000815260200160008152602001600081526020016000815260200160008152602001600081526020016000815260200160008152602001600081526020016000815260200160608152602001606081525090565b61485691905b808211156147675760008155600101614842565b90565b600082601f830112614869578081fd5b813561487c61487782615c40565b615c1a565b818152915060208083019084810160005b848110156148b6576148a4888484358a010161491f565b8452928201929082019060010161488d565b505050505092915050565b600082601f8301126148d1578081fd5b81356148df61487782615c40565b81815291506020808301908481018184028601820187101561490057600080fd5b60005b848110156148b657813584529282019290820190600101614903565b600082601f83011261492f578081fd5b81356001600160401b03811115614944578182fd5b614957601f8201601f1916602001615c1a565b915080825283602082850101111561496e57600080fd5b8060208401602084013760009082016020015292915050565b600060208284031215614998578081fd5b81356149a381615c6b565b9392505050565b6000806000606084860312156149be578182fd5b83356149c981615c6b565b925060208401356001600160401b038111156149e3578283fd5b6149ef8682870161491f565b925050604084013590509250925092565b600060208284031215614a11578081fd5b81356001600160401b03811115614a26578182fd5b614a328482850161491f565b949350505050565b600080600060608486031215614a4e578283fd5b83356001600160401b03811115614a63578384fd5b614a6f8682870161491f565b9350506020840135614a8081615c6b565b929592945050506040919091013590565b6000806000806000806000806000806101408b8d031215614ab0578586fd5b8a356001600160401b0380821115614ac6578788fd5b614ad28e838f0161491f565b9b5060208d0135915080821115614ae7578788fd5b614af38e838f0161491f565b9a5060408d0135995060608d0135985060808d0135915080821115614b16578788fd5b614b228e838f016148c1565b975060a08d0135915080821115614b37578687fd5b614b438e838f016148c1565b965060c08d0135915080821115614b58578586fd5b614b648e838f01614859565b955060e08d0135915080821115614b79578485fd5b614b858e838f016148c1565b94506101008d0135915080821115614b9b578384fd5b614ba78e838f016148c1565b93506101208d0135915080821115614bbd578283fd5b50614bca8d828e01614859565b9150509295989b9194979a5092959850565b600060208284031215614bed578081fd5b5035919050565b60008060408385031215614c06578182fd5b823591506020830135614c1881615c6b565b809150509250929050565b60008060408385031215614c35578182fd5b8235915060208301356001600160401b03811115614c51578182fd5b614c5d8582860161491f565b9150509250929050565b60008060408385031215614c79578182fd5b50508035926020909101359150565b60008060008060808587031215614c9d578384fd5b84359350602085013592506040850135915060608501356001600160401b03811115614cc7578182fd5b614cd38782880161491f565b91505092959194509250565b6000815180845260208085019450808401835b83811015614d175781516001600160a01b031687529582019590820190600101614cf2565b509495945050505050565b60008282518085526020808601955080818302840101818601855b84811015614d6b57601f19868403018952614d59838351614da7565b98840198925090830190600101614d3d565b5090979650505050505050565b6000815180845260208085019450808401835b83811015614d1757815187529582019590820190600101614d8b565b60008151808452815b81811015614dcc57602081850181015186830182015201614db0565b81811115614ddd5782602083870101525b50601f01601f19169290920160200192915050565b60008154600180821660008114614e105760018114614e2e57614e6c565b60028304607f16865260ff1983166020870152604086019350614e6c565b60028304808752614e3e86615c5f565b60005b82811015614e625781546020828b0101528482019150602081019050614e41565b8801602001955050505b50505092915050565b6001600160a01b0391909116815260200190565b600060808252614e9c6080830187614d78565b8281036020840152614eae8187614cdf565b8381036040850152614ec08187614d22565b9150508281036060840152614ed58185614d78565b979650505050505050565b600060808252614ef36080830187614d78565b8281036020840152614f058187614cdf565b8381036040850152614ec08187614d78565b600060a08252614f2a60a0830188614d78565b8281036020840152614f3c8188614d22565b8381036040850152614f4e8188614cdf565b9150508281036060840152614f638186614d78565b8381036080850152614f758186614d78565b9998505050505050505050565b600060e08252614f9560e083018a614d78565b8281036020840152614fa7818a614d22565b8381036040850152614fb9818a614d22565b9150508281036060840152614fce8188614d22565b8381036080850152614fe08188614d78565b91505082810360a0840152614ff58186614d78565b83810360c08501526150078186614d78565b9b9a5050505050505050505050565b6000608082526150296080830187614d78565b828103602084015261503b8187614d78565b838103604085015261504d8187614d78565b9150508281036060840152614ed58185614d22565b600060a0825261507560a0830188614d78565b82810360208401526150878188614d78565b83810360408501526150998188614d78565b91505082810360608401526150ae8186614d78565b8381036080850152614f758186614d22565b901515815260200190565b6000602082526149a36020830184614da7565b6020808252602d908201527f6f70706f7274756e697479206d75737420626520696e20696e6974696174656460408201526c20666f722066696e616c697a6560981b606082015260800190565b60208082526046908201527f6f70706f7274756e697479206d75737420626520696e206170706c696361746960408201527f6f6e732073656c656374656420666f72206f70706f7274756e69747920696e696060820152651d1a585d195960d21b608082015260a00190565b6020808252601c908201527f6170706c69636174696f6e20737461747573206e6f742076616c696400000000604082015260600190565b60208082526037908201527f6f70706f7274756e697479206d75737420626520696e2072657669657720666f60408201527f72206170706c69636174696f6e732073656c6563746564000000000000000000606082015260800190565b60208082526011908201527037b7363c9037b933b0b734bd30ba34b7b760791b604082015260600190565b60208082526039908201527f6170706c69636174696f6e20737461747573206368616e6765206d757374206260408201527f652065786563757465642062792062656e656669636961727900000000000000606082015260800190565b6020808252603a908201527f6170706c69636174696f6e20686173206e6f74207374617274656420746f207260408201527f65636569766520706f73744163636f6d706c6973686d656e7473000000000000606082015260800190565b60208082526050908201527f6170706c69636174696f6e206d757374206265207072654163636f6d706c697360408201527f686d656e7473207374617274656420746f2062652066696e616c697a6520707260608201526f654163636f6d706c6973686d656e747360801b608082015260a00190565b60208082526023908201527f6f70706f7274756e697479206d757374206265206f70656e20666f722072657660408201526269657760e81b606082015260800190565b6020808252600a908201526937b7363c9030b236b4b760b11b604082015260600190565b60208082526037908201527f70726520726571756972656d656e742076616c756573206e756d626572206d7560408201527f73742068617665207468652073616d65206c656e677468000000000000000000606082015260800190565b6020808252600d908201526c6e616d6520697320656d70747960981b604082015260600190565b60208082526052908201527f6170706c69636174696f6e206d757374206265207072654163636f6d706c697360408201527f686d656e74732066696e616c697a656420746f206265206569746865722061706060820152711c1c9bdd9959081bdc881c995a9958dd195960721b608082015260a00190565b60208082526010908201526f6f6e6c792062656e656669636961727960801b604082015260600190565b60208082526038908201527f706f737420726571756972656d656e742076616c756573206e756d626572206d60408201527f7573742068617665207468652073616d65206c656e6774680000000000000000606082015260800190565b60208082526018908201527f6f6e6c7920616374697665206f7267616e697a6174696f6e0000000000000000604082015260600190565b60208082526039908201527f6170706c69636174696f6e20686173206e6f74207374617274656420746f207260408201527f656365697665207072654163636f6d706c6973686d656e747300000000000000606082015260800190565b6020808252601490820152736465736372697074696f6e20697320656d70747960601b604082015260600190565b6020808252818101527f6f70706f7274756e697479206973206e6f7420696e206472616674206d6f6465604082015260600190565b60208082526041908201527f6f70706f7274756e697479206d7573742062652066696e616c697a656420666f60408201527f7220636c6f736520706f7374526571756972656d656e7420726563657074696f6060820152603760f91b608082015260a00190565b60208082526055908201527f6170706c69636174696f6e206d7573742068617665207374617274656420726560408201527f63656976696e6720706f73744163636f6d706c6973686d656e747320746f206660608201527434b730b634bd329034ba39903932b1b2b83a34b7b760591b608082015260a00190565b60208082526010908201526f3737ba1037b933b0b734bd30ba34b7b760811b604082015260600190565b6020808252601c908201527f6f70706f7274756e69747920737461747573206e6f742076616c696400000000604082015260600190565b60208082526027908201527f6f70706f7274756e697479206d75737420626520696e20647261667420746f2060408201526631329037b832b760c91b606082015260800190565b60208082526025908201527f6f70706f7274756e697479206e6f74206f70656e20666f72206170706c69636160408201526474696f6e7360d81b606082015260800190565b6020808252600990820152683737ba1030b236b4b760b91b604082015260600190565b60208082526056908201527f6170706c69636174696f6e206d7573742062652065697468657220617070726f60408201527f766564206f722072656a656374656420746f20737461727420726563656976696060820152756e6720706f73744163636f6d706c6973686d656e747360501b608082015260a00190565b6020808252603a908201527f6170706c69636174696f6e20737461747573206368616e6765206d757374206260408201527f65206578656375746564206279206f7267616e697a6174696f6e000000000000606082015260800190565b602080825260409082018190527f6170706c69636174696f6e20706f73744163636f6d706c6973686d656e747320908201527f6d7573742062652066696e616c697a656420746f2066696e616c697a65206974606082015260800190565b60006020825282516020830152602083015160408301526040830151606083015260608301516080830152608083015160a080840152614a3260c0840182614da7565b90815260200190565b8581526001600160a01b038516602082015260a060408201819052600090615a0690830186614da7565b606083019490945250608001529392505050565b9384526001600160a01b039290921660208401526040830152606082015260800190565b600086825260a06020830152615a5760a0830187614da7565b6001600160a01b0395909516604083015250606081019290925260809091015292915050565b60006101008a8352806020840152615a978184018b614da7565b8381036040850152615aa9818b614da7565b6060850199909952505050608081019490945260a084019290925260c083015260e0909101529392505050565b600084825260606020830152615aef6060830185614df2565b8281036040840152615b018185614df2565b9695505050505050565b918252602082015260400190565b60006101808e83528d6020840152806040840152615b398184018e614da7565b8381036060850152615b4b818e614da7565b608085019c909c5250505060a081019790975260c087019590955260e086019390935261010085019190915261012084015261014083015261016090910152949350505050565b93845260208401929092526040830152606082015260800190565b958652602086019490945260408501929092526060840152608083015260a082015260c00190565b998a5260208a019890985260408901969096526060880194909452608087019290925260a086015260c085015260e08401526101008301526101208201526101400190565b6040518181016001600160401b0381118282101715615c3857600080fd5b604052919050565b60006001600160401b03821115615c55578081fd5b5060209081020190565b60009081526020902090565b6001600160a01b0381168114615c8057600080fd5b5056fea2646970667358221220cfa7725948430416e3017e358df1635cd665df1f4a0110bef920fc6c493d91cc64736f6c63430006070033",
  "linkReferences": {},
  "deployedLinkReferences": {}
}