{
  "_format": "hh-sol-artifact-1",
  "contractName": "AkasifyCoreContract",
  "sourceName": "contracts/AkasifyCoreContract.sol",
  "abi": [
    {
      "inputs": [
        {
          "internalType": "address",
          "name": "_admin",
          "type": "address"
        }
      ],
      "stateMutability": "nonpayable",
      "type": "constructor"
    },
    {
      "anonymous": false,
      "inputs": [
        {
          "indexed": false,
          "internalType": "uint256",
          "name": "id",
          "type": "uint256"
        },
        {
          "indexed": false,
          "internalType": "uint256",
          "name": "opportunityId",
          "type": "uint256"
        }
      ],
      "name": "RegisterApplication",
      "type": "event"
    },
    {
      "anonymous": false,
      "inputs": [
        {
          "indexed": false,
          "internalType": "uint256",
          "name": "id",
          "type": "uint256"
        },
        {
          "indexed": false,
          "internalType": "uint256",
          "name": "requirementId",
          "type": "uint256"
        },
        {
          "indexed": false,
          "internalType": "uint256",
          "name": "applicationId",
          "type": "uint256"
        },
        {
          "indexed": false,
          "internalType": "uint256",
          "name": "opportunityId",
          "type": "uint256"
        }
      ],
      "name": "RegisterApplicationPostAccomplishment",
      "type": "event"
    },
    {
      "anonymous": false,
      "inputs": [
        {
          "indexed": false,
          "internalType": "uint256",
          "name": "id",
          "type": "uint256"
        },
        {
          "indexed": false,
          "internalType": "uint256",
          "name": "requirementId",
          "type": "uint256"
        },
        {
          "indexed": false,
          "internalType": "uint256",
          "name": "applicationId",
          "type": "uint256"
        },
        {
          "indexed": false,
          "internalType": "uint256",
          "name": "opportunityId",
          "type": "uint256"
        }
      ],
      "name": "RegisterApplicationPreAccomplishment",
      "type": "event"
    },
    {
      "anonymous": false,
      "inputs": [
        {
          "indexed": false,
          "internalType": "address",
          "name": "account",
          "type": "address"
        }
      ],
      "name": "RegisterBeneficiary",
      "type": "event"
    },
    {
      "anonymous": false,
      "inputs": [
        {
          "indexed": false,
          "internalType": "uint256",
          "name": "id",
          "type": "uint256"
        },
        {
          "indexed": false,
          "internalType": "string",
          "name": "name",
          "type": "string"
        },
        {
          "indexed": false,
          "internalType": "string",
          "name": "description",
          "type": "string"
        }
      ],
      "name": "RegisterOpportunity",
      "type": "event"
    },
    {
      "anonymous": false,
      "inputs": [
        {
          "indexed": false,
          "internalType": "uint256",
          "name": "id",
          "type": "uint256"
        },
        {
          "indexed": false,
          "internalType": "uint256",
          "name": "status",
          "type": "uint256"
        }
      ],
      "name": "UpdateApplicationStatus",
      "type": "event"
    },
    {
      "anonymous": false,
      "inputs": [
        {
          "indexed": false,
          "internalType": "uint256",
          "name": "id",
          "type": "uint256"
        },
        {
          "indexed": false,
          "internalType": "uint256",
          "name": "status",
          "type": "uint256"
        }
      ],
      "name": "UpdateOpportunityStatus",
      "type": "event"
    },
    {
      "inputs": [],
      "name": "admin",
      "outputs": [
        {
          "internalType": "address",
          "name": "",
          "type": "address"
        }
      ],
      "stateMutability": "view",
      "type": "function"
    },
    {
      "inputs": [
        {
          "internalType": "uint256",
          "name": "",
          "type": "uint256"
        }
      ],
      "name": "applications",
      "outputs": [
        {
          "internalType": "uint256",
          "name": "id",
          "type": "uint256"
        },
        {
          "internalType": "uint256",
          "name": "opportunityId",
          "type": "uint256"
        },
        {
          "internalType": "uint256",
          "name": "beneficiaryId",
          "type": "uint256"
        },
        {
          "internalType": "uint256",
          "name": "nextPreRequirementId",
          "type": "uint256"
        },
        {
          "internalType": "uint256",
          "name": "nextPostRequirementId",
          "type": "uint256"
        },
        {
          "internalType": "uint256",
          "name": "nextPreAccomplishmentId",
          "type": "uint256"
        },
        {
          "internalType": "uint256",
          "name": "nextPostAccomplishmentId",
          "type": "uint256"
        },
        {
          "internalType": "uint256",
          "name": "creationDate",
          "type": "uint256"
        },
        {
          "internalType": "uint256",
          "name": "lastUpdate",
          "type": "uint256"
        },
        {
          "internalType": "uint256",
          "name": "status",
          "type": "uint256"
        }
      ],
      "stateMutability": "view",
      "type": "function"
    },
    {
      "inputs": [
        {
          "internalType": "uint256",
          "name": "opportunityId",
          "type": "uint256"
        }
      ],
      "name": "createApplication",
      "outputs": [],
      "stateMutability": "nonpayable",
      "type": "function"
    },
    {
      "inputs": [
        {
          "internalType": "string",
          "name": "name",
          "type": "string"
        },
        {
          "internalType": "string",
          "name": "description",
          "type": "string"
        },
        {
          "internalType": "uint256",
          "name": "preRequirementsDeadline",
          "type": "uint256"
        },
        {
          "internalType": "uint256",
          "name": "postRequirementsDeadline",
          "type": "uint256"
        },
        {
          "internalType": "uint256[]",
          "name": "preRequirementTypes",
          "type": "uint256[]"
        },
        {
          "internalType": "uint256[]",
          "name": "preRequirementValues",
          "type": "uint256[]"
        },
        {
          "internalType": "string[]",
          "name": "preRequirementNames",
          "type": "string[]"
        },
        {
          "internalType": "uint256[]",
          "name": "postRequirementTypes",
          "type": "uint256[]"
        },
        {
          "internalType": "uint256[]",
          "name": "postRequirementValues",
          "type": "uint256[]"
        },
        {
          "internalType": "string[]",
          "name": "postRequirementNames",
          "type": "string[]"
        }
      ],
      "name": "createOpportunity",
      "outputs": [],
      "stateMutability": "nonpayable",
      "type": "function"
    },
    {
      "inputs": [
        {
          "internalType": "uint256",
          "name": "opportunityId",
          "type": "uint256"
        },
        {
          "internalType": "uint256",
          "name": "requirementType",
          "type": "uint256"
        },
        {
          "internalType": "uint256",
          "name": "transferValue",
          "type": "uint256"
        },
        {
          "internalType": "string",
          "name": "name",
          "type": "string"
        }
      ],
      "name": "createPostRequirement",
      "outputs": [],
      "stateMutability": "nonpayable",
      "type": "function"
    },
    {
      "inputs": [
        {
          "internalType": "uint256",
          "name": "applicationId",
          "type": "uint256"
        },
        {
          "internalType": "string",
          "name": "accomplishmentValue",
          "type": "string"
        }
      ],
      "name": "createPreAccomplishment",
      "outputs": [],
      "stateMutability": "nonpayable",
      "type": "function"
    },
    {
      "inputs": [
        {
          "internalType": "uint256",
          "name": "opportunityId",
          "type": "uint256"
        },
        {
          "internalType": "uint256",
          "name": "requirementType",
          "type": "uint256"
        },
        {
          "internalType": "uint256",
          "name": "transferValue",
          "type": "uint256"
        },
        {
          "internalType": "string",
          "name": "name",
          "type": "string"
        }
      ],
      "name": "createPreRequirement",
      "outputs": [],
      "stateMutability": "nonpayable",
      "type": "function"
    },
    {
      "inputs": [
        {
          "internalType": "uint256",
          "name": "opportunityId",
          "type": "uint256"
        },
        {
          "internalType": "address",
          "name": "beneficiaryAddress",
          "type": "address"
        }
      ],
      "name": "getApplication",
      "outputs": [
        {
          "internalType": "uint256",
          "name": "",
          "type": "uint256"
        },
        {
          "internalType": "uint256",
          "name": "",
          "type": "uint256"
        },
        {
          "internalType": "uint256",
          "name": "",
          "type": "uint256"
        },
        {
          "internalType": "uint256",
          "name": "",
          "type": "uint256"
        },
        {
          "internalType": "uint256",
          "name": "",
          "type": "uint256"
        },
        {
          "internalType": "uint256",
          "name": "",
          "type": "uint256"
        }
      ],
      "stateMutability": "view",
      "type": "function"
    },
    {
      "inputs": [
        {
          "internalType": "uint256",
          "name": "opportunityId",
          "type": "uint256"
        }
      ],
      "name": "getApplicationsByOpportunityId",
      "outputs": [
        {
          "internalType": "uint256[]",
          "name": "",
          "type": "uint256[]"
        },
        {
          "internalType": "address[]",
          "name": "",
          "type": "address[]"
        },
        {
          "internalType": "string[]",
          "name": "",
          "type": "string[]"
        },
        {
          "internalType": "uint256[]",
          "name": "",
          "type": "uint256[]"
        }
      ],
      "stateMutability": "view",
      "type": "function"
    },
    {
      "inputs": [],
      "name": "getBeneficiaries",
      "outputs": [
        {
          "internalType": "uint256[]",
          "name": "",
          "type": "uint256[]"
        },
        {
          "internalType": "address[]",
          "name": "",
          "type": "address[]"
        },
        {
          "internalType": "uint256[]",
          "name": "",
          "type": "uint256[]"
        },
        {
          "internalType": "uint256[]",
          "name": "",
          "type": "uint256[]"
        }
      ],
      "stateMutability": "view",
      "type": "function"
    },
    {
      "inputs": [
        {
          "internalType": "address",
          "name": "_account",
          "type": "address"
        }
      ],
      "name": "getBeneficiaryByAddress",
      "outputs": [
        {
          "internalType": "uint256",
          "name": "",
          "type": "uint256"
        },
        {
          "internalType": "address",
          "name": "",
          "type": "address"
        },
        {
          "internalType": "uint256",
          "name": "",
          "type": "uint256"
        },
        {
          "internalType": "uint256",
          "name": "",
          "type": "uint256"
        }
      ],
      "stateMutability": "view",
      "type": "function"
    },
    {
      "inputs": [
        {
          "internalType": "uint256",
          "name": "_id",
          "type": "uint256"
        }
      ],
      "name": "getBeneficiaryById",
      "outputs": [
        {
          "internalType": "uint256",
          "name": "",
          "type": "uint256"
        },
        {
          "internalType": "address",
          "name": "",
          "type": "address"
        },
        {
          "internalType": "string",
          "name": "",
          "type": "string"
        },
        {
          "internalType": "uint256",
          "name": "",
          "type": "uint256"
        },
        {
          "internalType": "uint256",
          "name": "",
          "type": "uint256"
        }
      ],
      "stateMutability": "view",
      "type": "function"
    },
    {
      "inputs": [
        {
          "internalType": "address",
          "name": "account",
          "type": "address"
        }
      ],
      "name": "getBeneficiaryIdByAddress",
      "outputs": [
        {
          "internalType": "uint256",
          "name": "",
          "type": "uint256"
        }
      ],
      "stateMutability": "view",
      "type": "function"
    },
    {
      "inputs": [
        {
          "internalType": "address",
          "name": "account",
          "type": "address"
        }
      ],
      "name": "getBeneficiaryStatusByAddress",
      "outputs": [
        {
          "internalType": "uint256",
          "name": "",
          "type": "uint256"
        }
      ],
      "stateMutability": "view",
      "type": "function"
    },
    {
      "inputs": [],
      "name": "getOpportunities",
      "outputs": [
        {
          "internalType": "uint256[]",
          "name": "",
          "type": "uint256[]"
        },
        {
          "internalType": "string[]",
          "name": "",
          "type": "string[]"
        },
        {
          "internalType": "string[]",
          "name": "",
          "type": "string[]"
        },
        {
          "internalType": "string[]",
          "name": "",
          "type": "string[]"
        },
        {
          "internalType": "uint256[]",
          "name": "",
          "type": "uint256[]"
        },
        {
          "internalType": "uint256[]",
          "name": "",
          "type": "uint256[]"
        },
        {
          "internalType": "uint256[]",
          "name": "",
          "type": "uint256[]"
        }
      ],
      "stateMutability": "view",
      "type": "function"
    },
    {
      "inputs": [
        {
          "internalType": "uint256",
          "name": "opportunityId",
          "type": "uint256"
        }
      ],
      "name": "getOpportunityById",
      "outputs": [
        {
          "internalType": "uint256",
          "name": "",
          "type": "uint256"
        },
        {
          "internalType": "string",
          "name": "",
          "type": "string"
        },
        {
          "internalType": "string",
          "name": "",
          "type": "string"
        },
        {
          "internalType": "uint256",
          "name": "",
          "type": "uint256"
        },
        {
          "internalType": "uint256",
          "name": "",
          "type": "uint256"
        },
        {
          "internalType": "uint256",
          "name": "",
          "type": "uint256"
        },
        {
          "internalType": "uint256",
          "name": "",
          "type": "uint256"
        },
        {
          "internalType": "uint256",
          "name": "",
          "type": "uint256"
        }
      ],
      "stateMutability": "view",
      "type": "function"
    },
    {
      "inputs": [
        {
          "internalType": "address",
          "name": "_account",
          "type": "address"
        }
      ],
      "name": "getOrganizationByAddress",
      "outputs": [
        {
          "internalType": "uint256",
          "name": "",
          "type": "uint256"
        },
        {
          "internalType": "string",
          "name": "",
          "type": "string"
        },
        {
          "internalType": "address",
          "name": "",
          "type": "address"
        },
        {
          "internalType": "uint256",
          "name": "",
          "type": "uint256"
        },
        {
          "internalType": "uint256",
          "name": "",
          "type": "uint256"
        }
      ],
      "stateMutability": "view",
      "type": "function"
    },
    {
      "inputs": [
        {
          "internalType": "uint256",
          "name": "_id",
          "type": "uint256"
        }
      ],
      "name": "getOrganizationById",
      "outputs": [
        {
          "internalType": "uint256",
          "name": "",
          "type": "uint256"
        },
        {
          "internalType": "string",
          "name": "",
          "type": "string"
        },
        {
          "internalType": "address",
          "name": "",
          "type": "address"
        },
        {
          "internalType": "uint256",
          "name": "",
          "type": "uint256"
        },
        {
          "internalType": "uint256",
          "name": "",
          "type": "uint256"
        }
      ],
      "stateMutability": "view",
      "type": "function"
    },
    {
      "inputs": [
        {
          "internalType": "address",
          "name": "account",
          "type": "address"
        }
      ],
      "name": "getOrganizationIdByAddress",
      "outputs": [
        {
          "internalType": "uint256",
          "name": "",
          "type": "uint256"
        }
      ],
      "stateMutability": "view",
      "type": "function"
    },
    {
      "inputs": [],
      "name": "getOrganizations",
      "outputs": [
        {
          "internalType": "uint256[]",
          "name": "",
          "type": "uint256[]"
        },
        {
          "internalType": "string[]",
          "name": "",
          "type": "string[]"
        },
        {
          "internalType": "address[]",
          "name": "",
          "type": "address[]"
        },
        {
          "internalType": "uint256[]",
          "name": "",
          "type": "uint256[]"
        },
        {
          "internalType": "uint256[]",
          "name": "",
          "type": "uint256[]"
        }
      ],
      "stateMutability": "view",
      "type": "function"
    },
    {
      "inputs": [
        {
          "internalType": "uint256",
          "name": "opportunityId",
          "type": "uint256"
        }
      ],
      "name": "getPostRequirementsByOpportunityId",
      "outputs": [
        {
          "internalType": "uint256[]",
          "name": "",
          "type": "uint256[]"
        },
        {
          "internalType": "uint256[]",
          "name": "",
          "type": "uint256[]"
        },
        {
          "internalType": "uint256[]",
          "name": "",
          "type": "uint256[]"
        },
        {
          "internalType": "string[]",
          "name": "",
          "type": "string[]"
        }
      ],
      "stateMutability": "view",
      "type": "function"
    },
    {
      "inputs": [
        {
          "internalType": "uint256",
          "name": "applicationId",
          "type": "uint256"
        },
        {
          "internalType": "uint256",
          "name": "preAccomplishmentId",
          "type": "uint256"
        }
      ],
      "name": "getPreAccomplishment",
      "outputs": [
        {
          "components": [
            {
              "internalType": "uint256",
              "name": "id",
              "type": "uint256"
            },
            {
              "internalType": "uint256",
              "name": "requirementId",
              "type": "uint256"
            },
            {
              "internalType": "uint256",
              "name": "accomplishDate",
              "type": "uint256"
            },
            {
              "internalType": "uint256",
              "name": "accomplishCategory",
              "type": "uint256"
            },
            {
              "internalType": "string",
              "name": "accomplishValue",
              "type": "string"
            }
          ],
          "internalType": "struct AkasifyCoreContract.Accomplishment",
          "name": "_accomplishment",
          "type": "tuple"
        }
      ],
      "stateMutability": "view",
      "type": "function"
    },
    {
      "inputs": [
        {
          "internalType": "uint256",
          "name": "applicationId",
          "type": "uint256"
        }
      ],
      "name": "getPreAccomplishmentsByApplicationId",
      "outputs": [
        {
          "internalType": "uint256[]",
          "name": "",
          "type": "uint256[]"
        },
        {
          "internalType": "uint256[]",
          "name": "",
          "type": "uint256[]"
        },
        {
          "internalType": "uint256[]",
          "name": "",
          "type": "uint256[]"
        },
        {
          "internalType": "uint256[]",
          "name": "",
          "type": "uint256[]"
        },
        {
          "internalType": "string[]",
          "name": "",
          "type": "string[]"
        }
      ],
      "stateMutability": "view",
      "type": "function"
    },
    {
      "inputs": [
        {
          "internalType": "uint256",
          "name": "opportunityId",
          "type": "uint256"
        }
      ],
      "name": "getPreRequirementsByOpportunityId",
      "outputs": [
        {
          "internalType": "uint256[]",
          "name": "",
          "type": "uint256[]"
        },
        {
          "internalType": "uint256[]",
          "name": "",
          "type": "uint256[]"
        },
        {
          "internalType": "uint256[]",
          "name": "",
          "type": "uint256[]"
        },
        {
          "internalType": "string[]",
          "name": "",
          "type": "string[]"
        }
      ],
      "stateMutability": "view",
      "type": "function"
    },
    {
      "inputs": [
        {
          "internalType": "address",
          "name": "account",
          "type": "address"
        }
      ],
      "name": "getRole",
      "outputs": [
        {
          "internalType": "string",
          "name": "",
          "type": "string"
        }
      ],
      "stateMutability": "view",
      "type": "function"
    },
    {
      "inputs": [
        {
          "internalType": "address",
          "name": "account",
          "type": "address"
        }
      ],
      "name": "isActiveBeneficiary",
      "outputs": [
        {
          "internalType": "bool",
          "name": "",
          "type": "bool"
        }
      ],
      "stateMutability": "view",
      "type": "function"
    },
    {
      "inputs": [
        {
          "internalType": "address",
          "name": "account",
          "type": "address"
        }
      ],
      "name": "isBeneficiary",
      "outputs": [
        {
          "internalType": "bool",
          "name": "",
          "type": "bool"
        }
      ],
      "stateMutability": "view",
      "type": "function"
    },
    {
      "inputs": [
        {
          "internalType": "address",
          "name": "account",
          "type": "address"
        }
      ],
      "name": "isOrganization",
      "outputs": [
        {
          "internalType": "bool",
          "name": "",
          "type": "bool"
        }
      ],
      "stateMutability": "view",
      "type": "function"
    },
    {
      "inputs": [],
      "name": "nextApplicationId",
      "outputs": [
        {
          "internalType": "uint256",
          "name": "",
          "type": "uint256"
        }
      ],
      "stateMutability": "view",
      "type": "function"
    },
    {
      "inputs": [],
      "name": "nextBeneficiaryId",
      "outputs": [
        {
          "internalType": "uint256",
          "name": "",
          "type": "uint256"
        }
      ],
      "stateMutability": "view",
      "type": "function"
    },
    {
      "inputs": [],
      "name": "nextOpportunityId",
      "outputs": [
        {
          "internalType": "uint256",
          "name": "",
          "type": "uint256"
        }
      ],
      "stateMutability": "view",
      "type": "function"
    },
    {
      "inputs": [],
      "name": "nextOrganizationId",
      "outputs": [
        {
          "internalType": "uint256",
          "name": "",
          "type": "uint256"
        }
      ],
      "stateMutability": "view",
      "type": "function"
    },
    {
      "inputs": [
        {
          "internalType": "uint256",
          "name": "",
          "type": "uint256"
        }
      ],
      "name": "opportunities",
      "outputs": [
        {
          "internalType": "uint256",
          "name": "id",
          "type": "uint256"
        },
        {
          "internalType": "uint256",
          "name": "organizationId",
          "type": "uint256"
        },
        {
          "internalType": "string",
          "name": "name",
          "type": "string"
        },
        {
          "internalType": "string",
          "name": "description",
          "type": "string"
        },
        {
          "internalType": "uint256",
          "name": "preRequirementsDeadline",
          "type": "uint256"
        },
        {
          "internalType": "uint256",
          "name": "postRequirementsDeadline",
          "type": "uint256"
        },
        {
          "internalType": "uint256",
          "name": "creationDate",
          "type": "uint256"
        },
        {
          "internalType": "uint256",
          "name": "lastUpdate",
          "type": "uint256"
        },
        {
          "internalType": "uint256",
          "name": "applicationCount",
          "type": "uint256"
        },
        {
          "internalType": "uint256",
          "name": "status",
          "type": "uint256"
        },
        {
          "internalType": "uint256",
          "name": "nextPreRequirementId",
          "type": "uint256"
        },
        {
          "internalType": "uint256",
          "name": "nextPostRequirementId",
          "type": "uint256"
        }
      ],
      "stateMutability": "view",
      "type": "function"
    },
    {
      "inputs": [
        {
          "internalType": "string",
          "name": "_oasisAddress",
          "type": "string"
        }
      ],
      "name": "registerBeneficiary",
      "outputs": [],
      "stateMutability": "nonpayable",
      "type": "function"
    },
    {
      "inputs": [
        {
          "internalType": "address payable",
          "name": "_account",
          "type": "address"
        },
        {
          "internalType": "string",
          "name": "_oasisAddress",
          "type": "string"
        },
        {
          "internalType": "uint256",
          "name": "_status",
          "type": "uint256"
        }
      ],
      "name": "registerBeneficiaryByAdmin",
      "outputs": [],
      "stateMutability": "nonpayable",
      "type": "function"
    },
    {
      "inputs": [
        {
          "internalType": "string",
          "name": "name",
          "type": "string"
        },
        {
          "internalType": "address payable",
          "name": "account",
          "type": "address"
        },
        {
          "internalType": "uint256",
          "name": "status",
          "type": "uint256"
        }
      ],
      "name": "registerOrganizationByAdmin",
      "outputs": [
        {
          "internalType": "uint256",
          "name": "",
          "type": "uint256"
        }
      ],
      "stateMutability": "nonpayable",
      "type": "function"
    },
    {
      "inputs": [
        {
          "internalType": "uint256",
          "name": "applicationId",
          "type": "uint256"
        },
        {
          "internalType": "uint256",
          "name": "status",
          "type": "uint256"
        }
      ],
      "name": "updateApplicationStatus",
      "outputs": [],
      "stateMutability": "nonpayable",
      "type": "function"
    },
    {
      "inputs": [
        {
          "internalType": "uint256",
          "name": "opportunityId",
          "type": "uint256"
        },
        {
          "internalType": "uint256",
          "name": "status",
          "type": "uint256"
        }
      ],
      "name": "updateOpportunityStatus",
      "outputs": [],
      "stateMutability": "nonpayable",
      "type": "function"
    }
  ],
  "bytecode": "0x60806040523480156200001157600080fd5b5060405162005a8938038062005a8983398101604081905262000034916200005a565b600880546001600160a01b0319166001600160a01b03929092169190911790556200008a565b6000602082840312156200006c578081fd5b81516001600160a01b038116811462000083578182fd5b9392505050565b6159ef806200009a6000396000f3fe608060405234801561001057600080fd5b50600436106102325760003560e01c80639754a3a811610130578063c821b4fb116100b8578063df19ce4d1161007c578063df19ce4d1461057c578063dfefadff1461058f578063eadd2f61146105b8578063f851a440146105cb578063fcfb8bb2146105e057610232565b8063c821b4fb1461050b578063cbdbc9a61461052b578063cfd664d61461054e578063d11f3c4714610561578063d2830de31461057457610232565b8063acaf764d116100ff578063acaf764d1461046b578063acd6c98f1461048f578063ad41ac3d146104ba578063aed35ccc146104dd578063b1ce8eab146104f857610232565b80639754a3a8146103f6578063980770311461040f5780639d19b22614610434578063aa0a57ab1461044757610232565b80635825271a116101be5780637a47523b116101825780637a47523b1461037e578063857bbd28146103a55780638c4be5eb146103b8578063913b722c146103cb57806396210f93146103e357610232565b80635825271a1461032a578063625338cb1461033d578063635c5455146103455780636ddc232b146103585780636e46cc4e1461036b57610232565b80633859305e116102055780633859305e146102b957806344276733146102c15780634bcaaa01146102e15780634f4e4534146103045780635080d5fb1461031757610232565b80631283ca701461023757806327f9e1051461024c5780632832163f14610275578063292719d314610299575b600080fd5b61024a610245366004614972565b6105e8565b005b61025f61025a36600461471d565b6107d9565b60405161026c9190614e53565b60405180910390f35b61028861028336600461471d565b610840565b60405161026c959493929190615774565b6102ac6102a736600461471d565b6109e3565b60405161026c9190615709565b6102ac610a31565b6102d46102cf36600461471d565b610a37565b60405161026c9190614e5e565b6102f46102ef366004614972565b610b0d565b60405161026c9493929190614da9565b61024a6103123660046149b9565b610ded565b6102ac61032536600461471d565b6110b6565b61024a610338366004614827565b611122565b6102ac611548565b610288610353366004614972565b61154e565b61024a610366366004614796565b611681565b6102ac61037936600461471d565b6117aa565b61039161038c366004614972565b611818565b60405161026c9897969594939291906157b3565b61024a6103b3366004614a1e565b6119a7565b6102f46103c6366004614972565b611aa9565b6103d3611d75565b60405161026c9493929190614c73565b61024a6103f1366004614740565b612025565b6103fe612125565b60405161026c959493929190614caa565b61042261041d36600461498a565b612461565b60405161026c969594939291906158e3565b61025f61044236600461471d565b6127cb565b61045a610455366004614972565b61280c565b60405161026c959493929190615712565b61047e610479366004614972565b612920565b60405161026c959493929190614df5565b6104a261049d366004614972565b612e27565b60405161026c9c9b9a9998979695949392919061584f565b6104cd6104c8366004614972565b612f90565b60405161026c9493929190614c1c565b6104e5613553565b60405161026c9796959493929190614d15565b61025f61050636600461471d565b613a30565b61051e6105193660046149fd565b613a8f565b60405161026c91906156c6565b61053e61053936600461471d565b613ba9565b60405161026c9493929190615750565b61024a61055c3660046149fd565b613cf8565b61024a61056f366004614a1e565b613f34565b6102ac614036565b6102ac61058a3660046147d0565b61403c565b6105a261059d366004614972565b614114565b60405161026c9a9998979695949392919061590b565b61024a6105c63660046149fd565b614168565b6105d361443f565b60405161026c9190614c08565b6102ac61444e565b6000818152600460205260409020600901546002146106225760405162461bcd60e51b815260040161061990615527565b60405180910390fd5b6007546000818152600660205260409020908155600101819055610645336109e3565b6005805460009081526006602081815260408084206002019590955560078054845285842060030184905580548452858420600490810185905581548552868520909501849055805484528584209092018390558154835284832042908301819055825484528584206008908101919091559154835284832060016009909101819055868452939052929020909101805490910190556106e3614454565b600080825260208083018281524260408086019182526001606087018181528251808701845287815260808901908152600754885260068752928720600a01805480840182559088529686902088516005909802019687559351908601559051600285015590516003840155518051849392610766926004850192910190614483565b505060078054600090815260066020526040808220600501805460019081019091559254808352918190209092015491517ff0ecfc9d01e072b344ab803487dff20893bdb9f671d08bd9e260d0f8b5fae84d93506107c49290615841565b60405180910390a15050600780546001019055565b600080805b600154811015610837576000818152602081905260409020600101546001600160a01b03858116911614801561082557506000818152602081905260409020600401546003145b1561082f57600191505b6001016107de565b5090505b919050565b60006060818080805b6003548110156109bc5761085b614501565b600260008381526020019081526020016000206040518060a001604052908160008201548152602001600182018054600181600116156101000203166002900480601f01602080910402602001604051908101604052809291908181526020018280546001816001161561010002031660029004801561091c5780601f106108f15761010080835404028352916020019161091c565b820191906000526020600020905b8154815290600101906020018083116108ff57829003601f168201915b505050505081526020016002820160009054906101000a90046001600160a01b03166001600160a01b03166001600160a01b03168152602001600382015481526020016004820154815250509050876001600160a01b031681604001516001600160a01b031614156109b3578051602082015160408301516060840151608090940151929950909750955090935091506109da9050565b50600101610849565b50506040805160208101909152600080825294509250839150819050805b91939590929450565b600080805b600154811015610837576000818152602081905260409020600101546001600160a01b0385811691161415610a295760008181526020819052604090205491505b6001016109e8565b60015481565b6008546060906001600160a01b0383811691161415610a72575060408051808201909152600581526430b236b4b760d91b602082015261083b565b610a7b82613a30565b151560011415610aae575060408051808201909152600c81526b37b933b0b734bd30ba34b7b760a11b602082015261083b565b610ab7826127cb565b151560011415610ae9575060408051808201909152600b81526a62656e656669636961727960a81b602082015261083b565b506040805180820190915260078152663b34b9b4ba37b960c91b602082015261083b565b6000818152600460205260409020600b81015460609182918291829182906001600160401b0381118015610b4057600080fd5b50604051908082528060200260200182016040528015610b6a578160200160208202803683370190505b509050606082600b01546001600160401b0381118015610b8957600080fd5b50604051908082528060200260200182016040528015610bb3578160200160208202803683370190505b509050606083600b01546001600160401b0381118015610bd257600080fd5b50604051908082528060200260200182016040528015610bfc578160200160208202803683370190505b509050606084600b01546001600160401b0381118015610c1b57600080fd5b50604051908082528060200260200182016040528015610c4f57816020015b6060815260200190600190039081610c3a5790505b50905060005b85600b0154811015610dd957610c69614454565b86600d018281548110610c7857fe5b90600052602060002090600502016040518060a001604052908160008201548152602001600182015481526020016002820154815260200160038201548152602001600482018054600181600116156101000203166002900480601f016020809104026020016040519081016040528092919081815260200182805460018160011615610100020316600290048015610d525780601f10610d2757610100808354040283529160200191610d52565b820191906000526020600020905b815481529060010190602001808311610d3557829003601f168201915b50505050508152505090508060000151868381518110610d6e57fe5b6020026020010181815250508060400151858381518110610d8b57fe5b6020026020010181815250508060600151848381518110610da857fe5b6020026020010181815250508060800151838381518110610dc557fe5b602090810291909101015250600101610c55565b5092975090955093509150505b9193509193565b6000610df8336127cb565b905080610e175760405162461bcd60e51b81526004016106199061521f565b600083815260066020526040902060090154600114610e485760405162461bcd60e51b8152600401610619906152dd565b6000838152600660208181526040808420815160a081018352600580830154825294845260038083015482860190815242948301948552600260608401818152608085018c8152600a909601805460018181018355918c529a89902086519b909a02909901998a5591519789019790975593519587019590955591519385019390935591518051929392610ee29260048501920190614483565b50505060008381526006602090815260408083206003810154600191820154855260049093529220600a01549101101561103c5760008381526006602081815260408084206005808201805460019081019182905560038085018054830190819055865160a08101885293845297875282870197885242838701908152606084018381528751808a019098528a885260808501978852600a90960180548085018255908b529988902084519a90950290940198895596519088015590516002870155905193850193909355518051929392610fc39260048501920190614483565b505050600083815260066020526040908190206005810154600382015460019092015492517f3bd69d0338add0787747b118da14e4aeba941afe53638eab003a9d359f3214af9361101793918891906158c8565b60405180910390a160008381526006602052604090206005018054600101905561109d565b60008381526006602052604090819020600260098201556005810154600382015460019092015492517f3bd69d0338add0787747b118da14e4aeba941afe53638eab003a9d359f3214af9361109493918891906158c8565b60405180910390a15b5050600090815260066020526040902042600890910155565b600080805b60035481101561083757600081815260026020819052604090912001546001600160a01b03858116911614801561110357506000818152600260205260409020600401546003145b1561111a5760008181526002602052604090205491505b6001016110bb565b600061112d33613a30565b90508061114c5760405162461bcd60e51b815260040161061990614fbe565b60008b511161116d5760405162461bcd60e51b815260040161061990615180565b60008a511161118e5760405162461bcd60e51b81526004016106199061533a565b855187511480156111a0575084518651145b6111bc5760405162461bcd60e51b815260040161061990615123565b825184511480156111ce575081518351145b6111ea5760405162461bcd60e51b815260040161061990615249565b600554600081815260046020526040902055611205336110b6565b6005805460009081526004602090815260408083206001019490945591548152919091208c5161123d926002909201918e0190614483565b5060055460009081526004602090815260409091208b51611266926003909201918d0190614483565b50600580546000908152600460208190526040808320426006909101819055845484528184209092018d90558354835280832084018c905583548352808320600701919091559154815290812060016009909101555b87518110156113cb57600554600081815260046020908152604091829020825160a081018452600a8201548152918201939093528a51600c9093019290918201908b908590811061130957fe5b6020026020010151815260200189848151811061132257fe5b6020026020010151815260200188848151811061133b57fe5b602090810291909101810151909152825460018181018555600094855293829020835160059092020190815582820151938101939093556040820151600284015560608201516003840155608082015180519293926113a09260048501920190614483565b50506005546000908152600460205260409020600a01805460019081019091559190910190506112bc565b5060005b84518110156114de57600554600081815260046020908152604091829020825160a081018452600b8201548152918201939093528751600d90930192909182019088908590811061141c57fe5b6020026020010151815260200186848151811061143557fe5b6020026020010151815260200185848151811061144e57fe5b602090810291909101810151909152825460018181018555600094855293829020835160059092020190815582820151938101939093556040820151600284015560608201516003840155608082015180519293926114b39260048501920190614483565b50506005546000908152600460205260409020600b01805460019081019091559190910190506113cf565b506005546000818152600460205260409081902090517f217f6f8566b5368c91631b32159051c0f0fc3ed5c77908901e6a2ef3f7df83599261152a92909160028201916003019061580c565b60405180910390a15050600580546001019055505050505050505050565b60075481565b60006060600080600061155f614501565b600260008881526020019081526020016000206040518060a001604052908160008201548152602001600182018054600181600116156101000203166002900480601f0160208091040260200160405190810160405280929190818152602001828054600181600116156101000203166002900480156116205780601f106115f557610100808354040283529160200191611620565b820191906000526020600020905b81548152906001019060200180831161160357829003601f168201915b505050918352505060028201546001600160a01b031660208083019190915260038301546040808401919091526004909301546060928301528351908401519284015191840151608090940151909b929a5090985091965090945092505050565b6008546001600160a01b03163314156116ac5760405162461bcd60e51b81526004016106199061556c565b60006116b733613a30565b905080156116d75760405162461bcd60e51b81526004016106199061547f565b6040805160a081018252600180548083523360208085019182528486018881524260608701526003608087015260009384528382529590922084518155905192810180546001600160a01b0319166001600160a01b0390941693909317909255925180519293919261174f9260028501920190614483565b506060820151600382015560809091015160049091015560018054810190556040517f67bf623e5c0c95725ab7b0d181e969032a96122e243710f76311bae55f89df719061179e903390614c08565b60405180910390a15050565b600080805b600154811015610837576000818152602081905260409020600101546001600160a01b0385811691161480156117f657506000818152602081905260409020600401546003145b156118105760008181526020819052604090206004015491505b6001016117af565b6000606080600080600080600080600460008b815260200190815260200160002090508060010154816002018260030183600401548460050154856006015486600701548760090154868054600181600116156101000203166002900480601f0160208091040260200160405190810160405280929190818152602001828054600181600116156101000203166002900480156118f65780601f106118cb576101008083540402835291602001916118f6565b820191906000526020600020905b8154815290600101906020018083116118d957829003601f168201915b5050895460408051602060026001851615610100026000190190941693909304601f8101849004840282018401909252818152959c508b9450925084019050828280156119845780601f1061195957610100808354040283529160200191611984565b820191906000526020600020905b81548152906001019060200180831161196757829003601f168201915b505050505095509850985098509850985098509850985050919395975091939597565b60006119b233613a30565b9050806119d15760405162461bcd60e51b815260040161061990614fbe565b600085815260046020526040902060090154600114611a025760405162461bcd60e51b815260040161061990615368565b6000858152600460208181526040808420815160a081018352600b82015481528084018b81529281018a8152606082018a8152608083018a8152600d909401805460018181018355918a529887902084516005909a020198895594519488019490945551600287015591516003860155518051919493611a889390850192910190614483565b505050600094855250506004602052505060409020600b0180546001019055565b6000818152600460205260409020600a81015460609182918291829182906001600160401b0381118015611adc57600080fd5b50604051908082528060200260200182016040528015611b06578160200160208202803683370190505b509050606082600a01546001600160401b0381118015611b2557600080fd5b50604051908082528060200260200182016040528015611b4f578160200160208202803683370190505b509050606083600a01546001600160401b0381118015611b6e57600080fd5b50604051908082528060200260200182016040528015611b98578160200160208202803683370190505b509050606084600a01546001600160401b0381118015611bb757600080fd5b50604051908082528060200260200182016040528015611beb57816020015b6060815260200190600190039081611bd65790505b50905060005b85600a0154811015610dd957611c05614454565b86600c018281548110611c1457fe5b90600052602060002090600502016040518060a001604052908160008201548152602001600182015481526020016002820154815260200160038201548152602001600482018054600181600116156101000203166002900480601f016020809104026020016040519081016040528092919081815260200182805460018160011615610100020316600290048015611cee5780601f10611cc357610100808354040283529160200191611cee565b820191906000526020600020905b815481529060010190602001808311611cd157829003601f168201915b50505050508152505090508060000151868381518110611d0a57fe5b6020026020010181815250508060400151858381518110611d2757fe5b6020026020010181815250508060600151848381518110611d4457fe5b6020026020010181815250508060800151838381518110611d6157fe5b602090810291909101015250600101611bf1565b60608060608060606001546001600160401b0381118015611d9557600080fd5b50604051908082528060200260200182016040528015611dbf578160200160208202803683370190505b50905060606001546001600160401b0381118015611ddc57600080fd5b50604051908082528060200260200182016040528015611e06578160200160208202803683370190505b50905060606001546001600160401b0381118015611e2357600080fd5b50604051908082528060200260200182016040528015611e4d578160200160208202803683370190505b50905060606001546001600160401b0381118015611e6a57600080fd5b50604051908082528060200260200182016040528015611e94578160200160208202803683370190505b50905060005b60015481101561201657611eac614539565b60008281526020818152604091829020825160a081018452815481526001808301546001600160a01b0316828501526002808401805487516101009482161594909402600019011691909104601f81018690048602830186018752808352929593949386019391929091830182828015611f675780601f10611f3c57610100808354040283529160200191611f67565b820191906000526020600020905b815481529060010190602001808311611f4a57829003601f168201915b505050505081526020016003820154815260200160048201548152505090508060000151868381518110611f9757fe5b6020026020010181815250508060200151858381518110611fb457fe5b60200260200101906001600160a01b031690816001600160a01b0316815250508060600151848381518110611fe557fe5b602002602001018181525050806080015183838151811061200257fe5b602090810291909101015250600101611e9a565b50929791965094509092509050565b6008546001600160a01b0316331461204f5760405162461bcd60e51b8152600401610619906150ff565b6040805160a081018252600180548083526001600160a01b0387811660208086019182528587018981524260608801526080870189905260009485528482529690932085518155905193810180546001600160a01b0319169490921693909317905592518051929391926120c99260028501920190614483565b506060820151600382015560809091015160049091015560018054810190556040517f67bf623e5c0c95725ab7b0d181e969032a96122e243710f76311bae55f89df7190612118908590614c08565b60405180910390a1505050565b6060806060806060806003546001600160401b038111801561214657600080fd5b50604051908082528060200260200182016040528015612170578160200160208202803683370190505b50905060606003546001600160401b038111801561218d57600080fd5b506040519080825280602002602001820160405280156121c157816020015b60608152602001906001900390816121ac5790505b50905060606003546001600160401b03811180156121de57600080fd5b50604051908082528060200260200182016040528015612208578160200160208202803683370190505b50905060606003546001600160401b038111801561222557600080fd5b5060405190808252806020026020018201604052801561224f578160200160208202803683370190505b50905060606003546001600160401b038111801561226c57600080fd5b50604051908082528060200260200182016040528015612296578160200160208202803683370190505b50905060005b60035481101561244f576122ae614501565b600260008381526020019081526020016000206040518060a001604052908160008201548152602001600182018054600181600116156101000203166002900480601f01602080910402602001604051908101604052809291908181526020018280546001816001161561010002031660029004801561236f5780601f106123445761010080835404028352916020019161236f565b820191906000526020600020905b81548152906001019060200180831161235257829003601f168201915b505050918352505060028201546001600160a01b031660208201526003820154604082015260049091015460609091015280518851919250908890849081106123b457fe5b60200260200101818152505080602001518683815181106123d157fe5b602002602001018190525080604001518583815181106123ed57fe5b60200260200101906001600160a01b031690816001600160a01b031681525050806060015184838151811061241e57fe5b602002602001018181525050806080015183838151811061243b57fe5b60209081029190910101525060010161229c565b50939992985090965094509092509050565b6000806000806000806000612475886109e3565b905061247f614571565b60005b600754811015612796576000818152600660205260409020600101548b1480156124bc575060008181526006602052604090206002015483145b1561278e576000818152600660208181526040808420815161018081018352815481526001820154818501526002820154818401526003820154606082015260048201546080820152600582015460a08201529381015460c0850152600781015460e085015260088101546101008501526009810154610120850152600a81018054835181860281018601909452808452949591946101408701949192909184015b8282101561265a57838290600052602060002090600502016040518060a001604052908160008201548152602001600182015481526020016002820154815260200160038201548152602001600482018054600181600116156101000203166002900480601f0160208091040260200160405190810160405280929190818152602001828054600181600116156101000203166002900480156126425780601f1061261757610100808354040283529160200191612642565b820191906000526020600020905b81548152906001019060200180831161262557829003601f168201915b5050505050815250508152602001906001019061255e565b505050508152602001600b8201805480602002602001604051908101604052809291908181526020016000905b8282101561278357838290600052602060002090600502016040518060a001604052908160008201548152602001600182015481526020016002820154815260200160038201548152602001600482018054600181600116156101000203166002900480601f01602080910402602001604051908101604052809291908181526020018280546001816001161561010002031660029004801561276b5780601f106127405761010080835404028352916020019161276b565b820191906000526020600020905b81548152906001019060200180831161274e57829003601f168201915b50505050508152505081526020019060010190612687565b505050508152505091505b600101612482565b5080516020820151604083015160e084015161010085015161012090950151939e929d50909b50995091975095509350505050565b600080805b600154811015610837576000818152602081905260409020600101546001600160a01b038581169116141561280457600191505b6001016127d0565b600080606060008061281c614539565b60008781526020818152604091829020825160a081018452815481526001808301546001600160a01b0316828501526002808401805487516101009482161594909402600019011691909104601f810186900486028301860187528083529295939493860193919290918301828280156128d75780601f106128ac576101008083540402835291602001916128d7565b820191906000526020600020905b8154815290600101906020018083116128ba57829003601f168201915b50505091835250506003820154602080830191909152600490920154604091820152825191830151908301516060840151608090940151929b919a509850919650945092505050565b6000818152600660205260409020600a81015460609182918291829182919082906001600160401b038111801561295657600080fd5b50604051908082528060200260200182016040528015612980578160200160208202803683370190505b50600a8301549091506060906001600160401b03811180156129a157600080fd5b506040519080825280602002602001820160405280156129cb578160200160208202803683370190505b50600a8401549091506060906001600160401b03811180156129ec57600080fd5b50604051908082528060200260200182016040528015612a16578160200160208202803683370190505b50600a8501549091506060906001600160401b0381118015612a3757600080fd5b50604051908082528060200260200182016040528015612a61578160200160208202803683370190505b50600a8601549091506060906001600160401b0381118015612a8257600080fd5b50604051908082528060200260200182016040528015612ab657816020015b6060815260200190600190039081612aa15790505b50905060005b600a870154811015612c5d57612ad0614454565b87600a018281548110612adf57fe5b90600052602060002090600502016040518060a001604052908160008201548152602001600182015481526020016002820154815260200160038201548152602001600482018054600181600116156101000203166002900480601f016020809104026020016040519081016040528092919081815260200182805460018160011615610100020316600290048015612bb95780601f10612b8e57610100808354040283529160200191612bb9565b820191906000526020600020905b815481529060010190602001808311612b9c57829003601f168201915b50505050508152505090508060000151878381518110612bd557fe5b6020026020010181815250508060200151868381518110612bf257fe5b6020026020010181815250508060400151858381518110612c0f57fe5b6020026020010181815250508060600151848381518110612c2c57fe5b6020026020010181815250508060800151838381518110612c4957fe5b602090810291909101015250600101612abc565b506005860154600a8701541115612e1457612c76614454565b86600a01876005015481548110612c8957fe5b90600052602060002090600502016040518060a001604052908160008201548152602001600182015481526020016002820154815260200160038201548152602001600482018054600181600116156101000203166002900480601f016020809104026020016040519081016040528092919081815260200182805460018160011615610100020316600290048015612d635780601f10612d3857610100808354040283529160200191612d63565b820191906000526020600020905b815481529060010190602001808311612d4657829003601f168201915b5050505050815250509050806000015186886005015481518110612d8357fe5b602002602001018181525050806020015185886005015481518110612da457fe5b602002602001018181525050806040015184886005015481518110612dc557fe5b602002602001018181525050806060015183886005015481518110612de657fe5b602002602001018181525050806080015182886005015481518110612e0757fe5b6020026020010181905250505b939b929a50909850965090945092505050565b60046020908152600091825260409182902080546001808301546002808501805488519481161561010002600019011691909104601f810187900487028401870190975286835292959094919291830182828015612ec65780601f10612e9b57610100808354040283529160200191612ec6565b820191906000526020600020905b815481529060010190602001808311612ea957829003601f168201915b5050505060038301805460408051602060026001851615610100026000190190941693909304601f8101849004840282018401909252818152949594935090830182828015612f565780601f10612f2b57610100808354040283529160200191612f56565b820191906000526020600020905b815481529060010190602001808311612f3957829003601f168201915b50505050509080600401549080600501549080600601549080600701549080600801549080600901549080600a01549080600b015490508c565b6000818152600460205260409020600881015460609182918291829182906001600160401b0381118015612fc357600080fd5b50604051908082528060200260200182016040528015612fed578160200160208202803683370190505b509050606082600801546001600160401b038111801561300c57600080fd5b50604051908082528060200260200182016040528015613036578160200160208202803683370190505b509050606083600801546001600160401b038111801561305557600080fd5b5060405190808252806020026020018201604052801561308957816020015b60608152602001906001900390816130745790505b509050606084600801546001600160401b03811180156130a857600080fd5b506040519080825280602002602001820160405280156130d2578160200160208202803683370190505b5090506000805b600754811015613541576130eb614571565b6000828152600660208181526040808420815161018081018352815481526001820154818501526002820154818401526003820154606082015260048201546080820152600582015460a08201529381015460c0850152600781015460e085015260088101546101008501526009810154610120850152600a81018054835181860281018601909452808452949591946101408701949192909184015b8282101561328457838290600052602060002090600502016040518060a001604052908160008201548152602001600182015481526020016002820154815260200160038201548152602001600482018054600181600116156101000203166002900480601f01602080910402602001604051908101604052809291908181526020018280546001816001161561010002031660029004801561326c5780601f106132415761010080835404028352916020019161326c565b820191906000526020600020905b81548152906001019060200180831161324f57829003601f168201915b50505050508152505081526020019060010190613188565b505050508152602001600b8201805480602002602001604051908101604052809291908181526020016000905b828210156133ad57838290600052602060002090600502016040518060a001604052908160008201548152602001600182015481526020016002820154815260200160038201548152602001600482018054600181600116156101000203166002900480601f0160208091040260200160405190810160405280929190818152602001828054600181600116156101000203166002900480156133955780601f1061336a57610100808354040283529160200191613395565b820191906000526020600020905b81548152906001019060200180831161337857829003601f168201915b505050505081525050815260200190600101906132b1565b505050508152505090506133bf614539565b6040828101516000908152602081815290829020825160a081018452815481526001808301546001600160a01b0316828501526002808401805487516101009482161594909402600019011691909104601f8101869004860283018601875280835292959394938601939192909183018282801561347e5780601f106134535761010080835404028352916020019161347e565b820191906000526020600020905b81548152906001019060200180831161346157829003601f168201915b505050505081526020016003820154815260200160048201548152505090508d826020015114156135375781600001518885815181106134ba57fe5b60200260200101818152505080602001518785815181106134d757fe5b60200260200101906001600160a01b031690816001600160a01b031681525050806040015186858151811061350857fe5b602002602001018190525081610120015185858151811061352557fe5b60209081029190910101526001909301925b50506001016130d9565b50939a92995090975095509350505050565b6060806060806060806060806005546001600160401b038111801561357757600080fd5b506040519080825280602002602001820160405280156135a1578160200160208202803683370190505b50905060606005546001600160401b03811180156135be57600080fd5b506040519080825280602002602001820160405280156135f257816020015b60608152602001906001900390816135dd5790505b50905060606005546001600160401b038111801561360f57600080fd5b5060405190808252806020026020018201604052801561364357816020015b606081526020019060019003908161362e5790505b50905060606005546001600160401b038111801561366057600080fd5b5060405190808252806020026020018201604052801561369457816020015b606081526020019060019003908161367f5790505b50905060606005546001600160401b03811180156136b157600080fd5b506040519080825280602002602001820160405280156136db578160200160208202803683370190505b50905060606005546001600160401b03811180156136f857600080fd5b50604051908082528060200260200182016040528015613722578160200160208202803683370190505b50905060606005546001600160401b038111801561373f57600080fd5b50604051908082528060200260200182016040528015613769578160200160208202803683370190505b50905060005b600554811015613a19576000818152600460205260409020805489518a908490811061379757fe5b60200260200101818152505060026000826001015481526020019081526020016000206001018054600181600116156101000203166002900480601f0160208091040260200160405190810160405280929190818152602001828054600181600116156101000203166002900480156138515780601f1061382657610100808354040283529160200191613851565b820191906000526020600020905b81548152906001019060200180831161383457829003601f168201915b505050505088838151811061386257fe5b60209081029190910181019190915260028281018054604080516001831615610100026000190190921693909304601f8101859004850282018501909352828152929091908301828280156138f85780601f106138cd576101008083540402835291602001916138f8565b820191906000526020600020905b8154815290600101906020018083116138db57829003601f168201915b505050505087838151811061390957fe5b60209081029190910181019190915260038201805460408051601f600260001961010060018716150201909416939093049283018590048502810185019091528181529283018282801561399e5780601f106139735761010080835404028352916020019161399e565b820191906000526020600020905b81548152906001019060200180831161398157829003601f168201915b50505050508683815181106139af57fe5b602002602001018190525080600401548583815181106139cb57fe5b60200260200101818152505080600501548483815181106139e857fe5b6020026020010181815250508060090154838381518110613a0557fe5b60209081029190910101525060010161376f565b50959d949c50929a50909850965094509092509050565b600080805b60035481101561083757600081815260026020819052604090912001546001600160a01b038581169116148015613a7d57506000818152600260205260409020600401546003145b15613a8757600191505b600101613a35565b613a97614454565b613a9f614454565b6000848152600660205260409020600a01805484908110613abc57fe5b90600052602060002090600502016040518060a001604052908160008201548152602001600182015481526020016002820154815260200160038201548152602001600482018054600181600116156101000203166002900480601f016020809104026020016040519081016040528092919081815260200182805460018160011615610100020316600290048015613b965780601f10613b6b57610100808354040283529160200191613b96565b820191906000526020600020905b815481529060010190602001808311613b7957829003601f168201915b5050509190925250919695505050505050565b6000808080805b600154811015613ce657613bc2614539565b60008281526020818152604091829020825160a081018452815481526001808301546001600160a01b0316828501526002808401805487516101009482161594909402600019011691909104601f81018690048602830186018752808352929593949386019391929091830182828015613c7d5780601f10613c5257610100808354040283529160200191613c7d565b820191906000526020600020905b815481529060010190602001808311613c6057829003601f168201915b50505050508152602001600382015481526020016004820154815250509050866001600160a01b031681602001516001600160a01b03161415613cdd5780516020820151606083015160809093015191975095509093509150610de69050565b50600101613bb0565b50600095869550859450849350915050565b6000613d0333613a30565b90506000613d10336127cb565b90508180613d1b5750805b613d375760405162461bcd60e51b8152600401610619906152a6565b6000848152600660205260409020600901548015801590613d59575060078111155b613d755760405162461bcd60e51b815260040161061990614f2a565b8360021415613dc35780600114613d9e5760405162461bcd60e51b815260040161061990615046565b613da7336127cb565b613dc35760405162461bcd60e51b815260040161061990614fe9565b8360031480613dd25750836004145b15613e1c5780600214613df75760405162461bcd60e51b8152600401610619906151a7565b613e0033613a30565b613e1c5760405162461bcd60e51b81526004016106199061560b565b8360051415613e75578060031480613e345750806004145b613e505760405162461bcd60e51b81526004016106199061558f565b613e5933613a30565b613e755760405162461bcd60e51b81526004016106199061560b565b8360061415613ec35780600514613e9e5760405162461bcd60e51b815260040161061990615404565b613ea7336127cb565b613ec35760405162461bcd60e51b815260040161061990614fe9565b8360071480613ed25750836008145b15613f1c5780600614613ef75760405162461bcd60e51b815260040161061990615668565b613f0033613a30565b613f1c5760405162461bcd60e51b81526004016106199061560b565b50505060009182526006602052604090912060090155565b6000613f3f33613a30565b905080613f5e5760405162461bcd60e51b815260040161061990614fbe565b600085815260046020526040902060090154600114613f8f5760405162461bcd60e51b815260040161061990615368565b6000858152600460208181526040808420815160a081018352600a82015481528084018b81529281018a8152606082018a8152608083018a8152600c909401805460018181018355918a529887902084516005909a0201988955945194880194909455516002870155915160038601555180519194936140159390850192910190614483565b505050600094855250506004602052505060409020600a0180546001019055565b60035481565b6008546000906001600160a01b031633146140695760405162461bcd60e51b8152600401610619906150ff565b6003546040805160a08101825282815260208082018881526001600160a01b03881683850152426060840152608083018790526000858152600283529390932082518155925180519293926140c49260018501920190614483565b5060408201516002820180546001600160a01b0319166001600160a01b03909216919091179055606082015160038083019190915560809092015160049091015580546001019055949350505050565b6006602052806000526040600020600091509050806000015490806001015490806002015490806003015490806004015490806005015490806006015490806007015490806008015490806009015490508a565b600061417333613a30565b9050806141925760405162461bcd60e51b815260040161061990614fbe565b6000821180156141a3575060078211155b6141bf5760405162461bcd60e51b8152600401610619906154a9565b81600214156141f9576000838152600460205260409020600901546001146141f95760405162461bcd60e51b8152600401610619906154e0565b8160031415614233576000838152600460205260409020600901546002146142335760405162461bcd60e51b8152600401610619906150bc565b816004141561426d5760008381526004602052604090206009015460031461426d5760405162461bcd60e51b815260040161061990614f61565b81600514156142a857600083815260046020819052604090912060090154146142a85760405162461bcd60e51b815260040161061990614ebe565b81600614156143e9576000838152600460205260409020600901546005146142e25760405162461bcd60e51b815260040161061990614e71565b60005b6007548110156143e7576000818152600660205260409020600101548414156143df57600081815260066020526040902060090154600314156143df5760008181526006602052604090206005600990910155614340614454565b60008082526020808301828152426040808601918252600160608701818152825180870184528781526080890190815289885260068752928720600b018054808401825590885296869020885160059098020196875593519086015590516002850155905160038401555180518493926143c1926004850192910190614483565b50505060008281526006602081905260409091200180546001019055505b6001016142e5565b505b8160071415614423576000838152600460205260409020600901546006146144235760405162461bcd60e51b81526004016106199061539d565b5060009182526004602052604090912042600782015560090155565b6008546001600160a01b031681565b60055481565b6040518060a0016040528060008152602001600081526020016000815260200160008152602001606081525090565b828054600181600116156101000203166002900490600052602060002090601f016020900481019282601f106144c457805160ff19168380011785556144f1565b828001600101855582156144f1579182015b828111156144f15782518255916020019190600101906144d6565b506144fd9291506145d2565b5090565b6040518060a00160405280600081526020016060815260200160006001600160a01b0316815260200160008152602001600081525090565b6040518060a001604052806000815260200160006001600160a01b031681526020016060815260200160008152602001600081525090565b6040518061018001604052806000815260200160008152602001600081526020016000815260200160008152602001600081526020016000815260200160008152602001600081526020016000815260200160608152602001606081525090565b6145ec91905b808211156144fd57600081556001016145d8565b90565b600082601f8301126145ff578081fd5b813561461261460d82615976565b615950565b818152915060208083019084810160005b8481101561464c5761463a888484358a01016146b5565b84529282019290820190600101614623565b505050505092915050565b600082601f830112614667578081fd5b813561467561460d82615976565b81815291506020808301908481018184028601820187101561469657600080fd5b60005b8481101561464c57813584529282019290820190600101614699565b600082601f8301126146c5578081fd5b81356001600160401b038111156146da578182fd5b6146ed601f8201601f1916602001615950565b915080825283602082850101111561470457600080fd5b8060208401602084013760009082016020015292915050565b60006020828403121561472e578081fd5b8135614739816159a1565b9392505050565b600080600060608486031215614754578182fd5b833561475f816159a1565b925060208401356001600160401b03811115614779578283fd5b614785868287016146b5565b925050604084013590509250925092565b6000602082840312156147a7578081fd5b81356001600160401b038111156147bc578182fd5b6147c8848285016146b5565b949350505050565b6000806000606084860312156147e4578283fd5b83356001600160401b038111156147f9578384fd5b614805868287016146b5565b9350506020840135614816816159a1565b929592945050506040919091013590565b6000806000806000806000806000806101408b8d031215614846578586fd5b8a356001600160401b038082111561485c578788fd5b6148688e838f016146b5565b9b5060208d013591508082111561487d578788fd5b6148898e838f016146b5565b9a5060408d0135995060608d0135985060808d01359150808211156148ac578788fd5b6148b88e838f01614657565b975060a08d01359150808211156148cd578687fd5b6148d98e838f01614657565b965060c08d01359150808211156148ee578586fd5b6148fa8e838f016145ef565b955060e08d013591508082111561490f578485fd5b61491b8e838f01614657565b94506101008d0135915080821115614931578384fd5b61493d8e838f01614657565b93506101208d0135915080821115614953578283fd5b506149608d828e016145ef565b9150509295989b9194979a5092959850565b600060208284031215614983578081fd5b5035919050565b6000806040838503121561499c578182fd5b8235915060208301356149ae816159a1565b809150509250929050565b600080604083850312156149cb578182fd5b8235915060208301356001600160401b038111156149e7578182fd5b6149f3858286016146b5565b9150509250929050565b60008060408385031215614a0f578182fd5b50508035926020909101359150565b60008060008060808587031215614a33578384fd5b84359350602085013592506040850135915060608501356001600160401b03811115614a5d578182fd5b614a69878288016146b5565b91505092959194509250565b6000815180845260208085019450808401835b83811015614aad5781516001600160a01b031687529582019590820190600101614a88565b509495945050505050565b6000815180845260208085018081965082840281019150828601855b85811015614afe578284038952614aec848351614b3a565b98850198935090840190600101614ad4565b5091979650505050505050565b6000815180845260208085019450808401835b83811015614aad57815187529582019590820190600101614b1e565b60008151808452815b81811015614b5f57602081850181015186830182015201614b43565b81811115614b705782602083870101525b50601f01601f19169290920160200192915050565b60008154600180821660008114614ba35760018114614bc157614bff565b60028304607f16865260ff1983166020870152604086019350614bff565b60028304808752614bd186615995565b60005b82811015614bf55781546020828b0101528482019150602081019050614bd4565b8801602001955050505b50505092915050565b6001600160a01b0391909116815260200190565b600060808252614c2f6080830187614b0b565b8281036020840152614c418187614a75565b8381036040850152614c538187614ab8565b9150508281036060840152614c688185614b0b565b979650505050505050565b600060808252614c866080830187614b0b565b8281036020840152614c988187614a75565b8381036040850152614c538187614b0b565b600060a08252614cbd60a0830188614b0b565b8281036020840152614ccf8188614ab8565b8381036040850152614ce18188614a75565b9150508281036060840152614cf68186614b0b565b8381036080850152614d088186614b0b565b9998505050505050505050565b600060e08252614d2860e083018a614b0b565b8281036020840152614d3a818a614ab8565b8381036040850152614d4c818a614ab8565b9150508281036060840152614d618188614ab8565b8381036080850152614d738188614b0b565b91505082810360a0840152614d888186614b0b565b83810360c0850152614d9a8186614b0b565b9b9a5050505050505050505050565b600060808252614dbc6080830187614b0b565b8281036020840152614dce8187614b0b565b8381036040850152614de08187614b0b565b9150508281036060840152614c688185614ab8565b600060a08252614e0860a0830188614b0b565b8281036020840152614e1a8188614b0b565b8381036040850152614e2c8188614b0b565b9150508281036060840152614e418186614b0b565b8381036080850152614d088186614ab8565b901515815260200190565b6000602082526147396020830184614b3a565b6020808252602d908201527f6f70706f7274756e697479206d75737420626520696e20696e6974696174656460408201526c20666f722066696e616c697a6560981b606082015260800190565b60208082526046908201527f6f70706f7274756e697479206d75737420626520696e206170706c696361746960408201527f6f6e732073656c656374656420666f72206f70706f7274756e69747920696e696060820152651d1a585d195960d21b608082015260a00190565b6020808252601c908201527f6170706c69636174696f6e20737461747573206e6f742076616c696400000000604082015260600190565b60208082526037908201527f6f70706f7274756e697479206d75737420626520696e2072657669657720666f60408201527f72206170706c69636174696f6e732073656c6563746564000000000000000000606082015260800190565b60208082526011908201527037b7363c9037b933b0b734bd30ba34b7b760791b604082015260600190565b60208082526039908201527f6170706c69636174696f6e20737461747573206368616e6765206d757374206260408201527f652065786563757465642062792062656e656669636961727900000000000000606082015260800190565b60208082526050908201527f6170706c69636174696f6e206d757374206265207072654163636f6d706c697360408201527f686d656e7473207374617274656420746f2062652066696e616c697a6520707260608201526f654163636f6d706c6973686d656e747360801b608082015260a00190565b60208082526023908201527f6f70706f7274756e697479206d757374206265206f70656e20666f722072657660408201526269657760e81b606082015260800190565b6020808252600a908201526937b7363c9030b236b4b760b11b604082015260600190565b60208082526037908201527f70726520726571756972656d656e742076616c756573206e756d626572206d7560408201527f73742068617665207468652073616d65206c656e677468000000000000000000606082015260800190565b6020808252600d908201526c6e616d6520697320656d70747960981b604082015260600190565b60208082526052908201527f6170706c69636174696f6e206d757374206265207072654163636f6d706c697360408201527f686d656e74732066696e616c697a656420746f206265206569746865722061706060820152711c1c9bdd9959081bdc881c995a9958dd195960721b608082015260a00190565b60208082526010908201526f6f6e6c792062656e656669636961727960801b604082015260600190565b60208082526038908201527f706f737420726571756972656d656e742076616c756573206e756d626572206d60408201527f7573742068617665207468652073616d65206c656e6774680000000000000000606082015260800190565b60208082526018908201527f6f6e6c7920616374697665206f7267616e697a6174696f6e0000000000000000604082015260600190565b60208082526039908201527f6170706c69636174696f6e20686173206e6f74207374617274656420746f207260408201527f656365697665207072654163636f6d706c6973686d656e747300000000000000606082015260800190565b6020808252601490820152736465736372697074696f6e20697320656d70747960601b604082015260600190565b6020808252818101527f6f70706f7274756e697479206973206e6f7420696e206472616674206d6f6465604082015260600190565b60208082526041908201527f6f70706f7274756e697479206d7573742062652066696e616c697a656420666f60408201527f7220636c6f736520706f7374526571756972656d656e7420726563657074696f6060820152603760f91b608082015260a00190565b60208082526055908201527f6170706c69636174696f6e206d7573742068617665207374617274656420726560408201527f63656976696e6720706f73744163636f6d706c6973686d656e747320746f206660608201527434b730b634bd329034ba39903932b1b2b83a34b7b760591b608082015260a00190565b60208082526010908201526f3737ba1037b933b0b734bd30ba34b7b760811b604082015260600190565b6020808252601c908201527f6f70706f7274756e69747920737461747573206e6f742076616c696400000000604082015260600190565b60208082526027908201527f6f70706f7274756e697479206d75737420626520696e20647261667420746f2060408201526631329037b832b760c91b606082015260800190565b60208082526025908201527f6f70706f7274756e697479206e6f74206f70656e20666f72206170706c69636160408201526474696f6e7360d81b606082015260800190565b6020808252600990820152683737ba1030b236b4b760b91b604082015260600190565b60208082526056908201527f6170706c69636174696f6e206d7573742062652065697468657220617070726f60408201527f766564206f722072656a656374656420746f20737461727420726563656976696060820152756e6720706f73744163636f6d706c6973686d656e747360501b608082015260a00190565b6020808252603a908201527f6170706c69636174696f6e20737461747573206368616e6765206d757374206260408201527f65206578656375746564206279206f7267616e697a6174696f6e000000000000606082015260800190565b602080825260409082018190527f6170706c69636174696f6e20706f73744163636f6d706c6973686d656e747320908201527f6d7573742062652066696e616c697a656420746f2066696e616c697a65206974606082015260800190565b60006020825282516020830152602083015160408301526040830151606083015260608301516080830152608083015160a0808401526147c860c0840182614b3a565b90815260200190565b8581526001600160a01b038516602082015260a06040820181905260009061573c90830186614b3a565b606083019490945250608001529392505050565b9384526001600160a01b039290921660208401526040830152606082015260800190565b600086825260a0602083015261578d60a0830187614b3a565b6001600160a01b0395909516604083015250606081019290925260809091015292915050565b60006101008a83528060208401526157cd8184018b614b3a565b83810360408501526157df818b614b3a565b6060850199909952505050608081019490945260a084019290925260c083015260e0909101529392505050565b6000848252606060208301526158256060830185614b85565b82810360408401526158378185614b85565b9695505050505050565b918252602082015260400190565b60006101808e83528d602084015280604084015261586f8184018e614b3a565b8381036060850152615881818e614b3a565b608085019c909c5250505060a081019790975260c087019590955260e086019390935261010085019190915261012084015261014083015261016090910152949350505050565b93845260208401929092526040830152606082015260800190565b958652602086019490945260408501929092526060840152608083015260a082015260c00190565b998a5260208a019890985260408901969096526060880194909452608087019290925260a086015260c085015260e08401526101008301526101208201526101400190565b6040518181016001600160401b038111828210171561596e57600080fd5b604052919050565b60006001600160401b0382111561598b578081fd5b5060209081020190565b60009081526020902090565b6001600160a01b03811681146159b657600080fd5b5056fea264697066735822122044a48fb10aff48abb7a5cec92f500edd3cfeccab8f1bdd938011dc2f7b785e7764736f6c63430006070033",
  "linkReferences": {},
  "deployedLinkReferences": {}
}