{
  "_format": "hh-sol-artifact-1",
  "contractName": "AkasifyCoreContract",
  "sourceName": "contracts/AkasifyCoreContract.sol",
  "abi": [
    {
      "inputs": [
        {
          "internalType": "address",
          "name": "_admin",
          "type": "address"
        }
      ],
      "stateMutability": "nonpayable",
      "type": "constructor"
    },
    {
      "anonymous": false,
      "inputs": [
        {
          "indexed": false,
          "internalType": "uint256",
          "name": "id",
          "type": "uint256"
        },
        {
          "indexed": false,
          "internalType": "uint256",
          "name": "opportunityId",
          "type": "uint256"
        }
      ],
      "name": "ApplicationCreated",
      "type": "event"
    },
    {
      "anonymous": false,
      "inputs": [
        {
          "indexed": false,
          "internalType": "uint256",
          "name": "id",
          "type": "uint256"
        },
        {
          "indexed": false,
          "internalType": "uint256",
          "name": "requirementId",
          "type": "uint256"
        },
        {
          "indexed": false,
          "internalType": "uint256",
          "name": "accomplishDate",
          "type": "uint256"
        },
        {
          "indexed": false,
          "internalType": "uint256",
          "name": "accomplishCategory",
          "type": "uint256"
        },
        {
          "indexed": false,
          "internalType": "uint256",
          "name": "accomplishValue",
          "type": "uint256"
        }
      ],
      "name": "ApplicationPostAccomplishmentCreated",
      "type": "event"
    },
    {
      "anonymous": false,
      "inputs": [
        {
          "indexed": false,
          "internalType": "uint256",
          "name": "id",
          "type": "uint256"
        },
        {
          "indexed": false,
          "internalType": "uint256",
          "name": "requirementId",
          "type": "uint256"
        },
        {
          "indexed": false,
          "internalType": "uint256",
          "name": "accomplishDate",
          "type": "uint256"
        },
        {
          "indexed": false,
          "internalType": "uint256",
          "name": "accomplishCategory",
          "type": "uint256"
        },
        {
          "indexed": false,
          "internalType": "uint256",
          "name": "accomplishValue",
          "type": "uint256"
        }
      ],
      "name": "ApplicationPreAccomplishmentCreated",
      "type": "event"
    },
    {
      "anonymous": false,
      "inputs": [
        {
          "indexed": false,
          "internalType": "uint256",
          "name": "id",
          "type": "uint256"
        },
        {
          "indexed": false,
          "internalType": "uint256",
          "name": "status",
          "type": "uint256"
        }
      ],
      "name": "ApplicationStatusUpdated",
      "type": "event"
    },
    {
      "anonymous": false,
      "inputs": [
        {
          "indexed": false,
          "internalType": "uint256",
          "name": "id",
          "type": "uint256"
        },
        {
          "indexed": false,
          "internalType": "string",
          "name": "name",
          "type": "string"
        },
        {
          "indexed": false,
          "internalType": "string",
          "name": "description",
          "type": "string"
        }
      ],
      "name": "OpportunityCreated",
      "type": "event"
    },
    {
      "anonymous": false,
      "inputs": [
        {
          "indexed": false,
          "internalType": "uint256",
          "name": "id",
          "type": "uint256"
        },
        {
          "indexed": false,
          "internalType": "uint256",
          "name": "status",
          "type": "uint256"
        }
      ],
      "name": "OpportunityStatusUpdated",
      "type": "event"
    },
    {
      "inputs": [],
      "name": "admin",
      "outputs": [
        {
          "internalType": "address",
          "name": "",
          "type": "address"
        }
      ],
      "stateMutability": "view",
      "type": "function"
    },
    {
      "inputs": [
        {
          "internalType": "uint256",
          "name": "",
          "type": "uint256"
        }
      ],
      "name": "applications",
      "outputs": [
        {
          "internalType": "uint256",
          "name": "id",
          "type": "uint256"
        },
        {
          "internalType": "uint256",
          "name": "opportunityId",
          "type": "uint256"
        },
        {
          "internalType": "uint256",
          "name": "beneficiaryId",
          "type": "uint256"
        },
        {
          "internalType": "uint256",
          "name": "nextPreRequirementId",
          "type": "uint256"
        },
        {
          "internalType": "uint256",
          "name": "nextPostRequirementId",
          "type": "uint256"
        },
        {
          "internalType": "uint256",
          "name": "nextPreAccomplishmentId",
          "type": "uint256"
        },
        {
          "internalType": "uint256",
          "name": "nextPostAccomplishmentId",
          "type": "uint256"
        },
        {
          "internalType": "uint256",
          "name": "status",
          "type": "uint256"
        }
      ],
      "stateMutability": "view",
      "type": "function"
    },
    {
      "inputs": [
        {
          "internalType": "uint256",
          "name": "opportunityId",
          "type": "uint256"
        }
      ],
      "name": "createApplication",
      "outputs": [],
      "stateMutability": "nonpayable",
      "type": "function"
    },
    {
      "inputs": [
        {
          "internalType": "string",
          "name": "name",
          "type": "string"
        },
        {
          "internalType": "string",
          "name": "description",
          "type": "string"
        },
        {
          "internalType": "uint256",
          "name": "preRequirementsDeadline",
          "type": "uint256"
        },
        {
          "internalType": "uint256",
          "name": "postRequirementsDeadline",
          "type": "uint256"
        },
        {
          "internalType": "uint256[]",
          "name": "preRequirementTypes",
          "type": "uint256[]"
        },
        {
          "internalType": "uint256[]",
          "name": "preRequirementValues",
          "type": "uint256[]"
        },
        {
          "internalType": "string[]",
          "name": "preRequirementNames",
          "type": "string[]"
        },
        {
          "internalType": "uint256[]",
          "name": "postRequirementTypes",
          "type": "uint256[]"
        },
        {
          "internalType": "uint256[]",
          "name": "postRequirementValues",
          "type": "uint256[]"
        },
        {
          "internalType": "string[]",
          "name": "postRequirementNames",
          "type": "string[]"
        }
      ],
      "name": "createOpportunity",
      "outputs": [],
      "stateMutability": "nonpayable",
      "type": "function"
    },
    {
      "inputs": [
        {
          "internalType": "uint256",
          "name": "applicationId",
          "type": "uint256"
        },
        {
          "internalType": "string",
          "name": "accomplishmentValue",
          "type": "string"
        }
      ],
      "name": "createPostAccomplishment",
      "outputs": [],
      "stateMutability": "nonpayable",
      "type": "function"
    },
    {
      "inputs": [
        {
          "internalType": "uint256",
          "name": "applicationId",
          "type": "uint256"
        },
        {
          "internalType": "string",
          "name": "accomplishmentValue",
          "type": "string"
        }
      ],
      "name": "createPreAccomplishment",
      "outputs": [],
      "stateMutability": "nonpayable",
      "type": "function"
    },
    {
      "inputs": [],
      "name": "getBeneficiaries",
      "outputs": [
        {
          "internalType": "uint256[]",
          "name": "",
          "type": "uint256[]"
        },
        {
          "internalType": "address[]",
          "name": "",
          "type": "address[]"
        },
        {
          "internalType": "uint256[]",
          "name": "",
          "type": "uint256[]"
        },
        {
          "internalType": "uint256[]",
          "name": "",
          "type": "uint256[]"
        }
      ],
      "stateMutability": "view",
      "type": "function"
    },
    {
      "inputs": [
        {
          "internalType": "address",
          "name": "_account",
          "type": "address"
        }
      ],
      "name": "getBeneficiaryByAddress",
      "outputs": [
        {
          "internalType": "uint256",
          "name": "",
          "type": "uint256"
        },
        {
          "internalType": "address",
          "name": "",
          "type": "address"
        },
        {
          "internalType": "uint256",
          "name": "",
          "type": "uint256"
        },
        {
          "internalType": "uint256",
          "name": "",
          "type": "uint256"
        }
      ],
      "stateMutability": "view",
      "type": "function"
    },
    {
      "inputs": [
        {
          "internalType": "uint256",
          "name": "_id",
          "type": "uint256"
        }
      ],
      "name": "getBeneficiaryById",
      "outputs": [
        {
          "internalType": "uint256",
          "name": "",
          "type": "uint256"
        },
        {
          "internalType": "address",
          "name": "",
          "type": "address"
        },
        {
          "internalType": "uint256",
          "name": "",
          "type": "uint256"
        },
        {
          "internalType": "uint256",
          "name": "",
          "type": "uint256"
        }
      ],
      "stateMutability": "view",
      "type": "function"
    },
    {
      "inputs": [
        {
          "internalType": "address",
          "name": "account",
          "type": "address"
        }
      ],
      "name": "getBeneficiaryIdByAddress",
      "outputs": [
        {
          "internalType": "uint256",
          "name": "",
          "type": "uint256"
        }
      ],
      "stateMutability": "view",
      "type": "function"
    },
    {
      "inputs": [
        {
          "internalType": "address",
          "name": "account",
          "type": "address"
        }
      ],
      "name": "getBeneficiaryStatusByAddress",
      "outputs": [
        {
          "internalType": "uint256",
          "name": "",
          "type": "uint256"
        }
      ],
      "stateMutability": "view",
      "type": "function"
    },
    {
      "inputs": [],
      "name": "getOpportunities",
      "outputs": [
        {
          "internalType": "uint256[]",
          "name": "",
          "type": "uint256[]"
        },
        {
          "internalType": "string[]",
          "name": "",
          "type": "string[]"
        },
        {
          "internalType": "string[]",
          "name": "",
          "type": "string[]"
        },
        {
          "internalType": "string[]",
          "name": "",
          "type": "string[]"
        },
        {
          "internalType": "uint256[]",
          "name": "",
          "type": "uint256[]"
        },
        {
          "internalType": "uint256[]",
          "name": "",
          "type": "uint256[]"
        },
        {
          "internalType": "uint256[]",
          "name": "",
          "type": "uint256[]"
        },
        {
          "internalType": "uint256[]",
          "name": "",
          "type": "uint256[]"
        }
      ],
      "stateMutability": "view",
      "type": "function"
    },
    {
      "inputs": [
        {
          "internalType": "uint256",
          "name": "opportunityId",
          "type": "uint256"
        }
      ],
      "name": "getOpportunityById",
      "outputs": [
        {
          "internalType": "uint256",
          "name": "",
          "type": "uint256"
        },
        {
          "internalType": "string",
          "name": "",
          "type": "string"
        },
        {
          "internalType": "string",
          "name": "",
          "type": "string"
        },
        {
          "internalType": "uint256",
          "name": "",
          "type": "uint256"
        },
        {
          "internalType": "uint256",
          "name": "",
          "type": "uint256"
        },
        {
          "internalType": "uint256",
          "name": "",
          "type": "uint256"
        },
        {
          "internalType": "uint256",
          "name": "",
          "type": "uint256"
        },
        {
          "internalType": "uint256",
          "name": "",
          "type": "uint256"
        }
      ],
      "stateMutability": "view",
      "type": "function"
    },
    {
      "inputs": [
        {
          "internalType": "address",
          "name": "_account",
          "type": "address"
        }
      ],
      "name": "getOrganizationByAddress",
      "outputs": [
        {
          "internalType": "uint256",
          "name": "",
          "type": "uint256"
        },
        {
          "internalType": "string",
          "name": "",
          "type": "string"
        },
        {
          "internalType": "address",
          "name": "",
          "type": "address"
        },
        {
          "internalType": "uint256",
          "name": "",
          "type": "uint256"
        },
        {
          "internalType": "uint256",
          "name": "",
          "type": "uint256"
        }
      ],
      "stateMutability": "view",
      "type": "function"
    },
    {
      "inputs": [
        {
          "internalType": "uint256",
          "name": "_id",
          "type": "uint256"
        }
      ],
      "name": "getOrganizationById",
      "outputs": [
        {
          "internalType": "uint256",
          "name": "",
          "type": "uint256"
        },
        {
          "internalType": "string",
          "name": "",
          "type": "string"
        },
        {
          "internalType": "address",
          "name": "",
          "type": "address"
        },
        {
          "internalType": "uint256",
          "name": "",
          "type": "uint256"
        },
        {
          "internalType": "uint256",
          "name": "",
          "type": "uint256"
        }
      ],
      "stateMutability": "view",
      "type": "function"
    },
    {
      "inputs": [
        {
          "internalType": "address",
          "name": "account",
          "type": "address"
        }
      ],
      "name": "getOrganizationIdByAddress",
      "outputs": [
        {
          "internalType": "uint256",
          "name": "",
          "type": "uint256"
        }
      ],
      "stateMutability": "view",
      "type": "function"
    },
    {
      "inputs": [],
      "name": "getOrganizations",
      "outputs": [
        {
          "internalType": "uint256[]",
          "name": "",
          "type": "uint256[]"
        },
        {
          "internalType": "string[]",
          "name": "",
          "type": "string[]"
        },
        {
          "internalType": "address[]",
          "name": "",
          "type": "address[]"
        },
        {
          "internalType": "uint256[]",
          "name": "",
          "type": "uint256[]"
        },
        {
          "internalType": "uint256[]",
          "name": "",
          "type": "uint256[]"
        }
      ],
      "stateMutability": "view",
      "type": "function"
    },
    {
      "inputs": [
        {
          "internalType": "uint256",
          "name": "applicationId",
          "type": "uint256"
        },
        {
          "internalType": "uint256",
          "name": "postAccomplishmentId",
          "type": "uint256"
        }
      ],
      "name": "getPostAccomplishment",
      "outputs": [
        {
          "components": [
            {
              "internalType": "uint256",
              "name": "id",
              "type": "uint256"
            },
            {
              "internalType": "uint256",
              "name": "requirementId",
              "type": "uint256"
            },
            {
              "internalType": "uint256",
              "name": "accomplishDate",
              "type": "uint256"
            },
            {
              "internalType": "uint256",
              "name": "accomplishCategory",
              "type": "uint256"
            },
            {
              "internalType": "string",
              "name": "accomplishValue",
              "type": "string"
            }
          ],
          "internalType": "struct AkasifyCoreContract.Accomplishment",
          "name": "_accomplishment",
          "type": "tuple"
        }
      ],
      "stateMutability": "view",
      "type": "function"
    },
    {
      "inputs": [
        {
          "internalType": "uint256",
          "name": "opportunityId",
          "type": "uint256"
        }
      ],
      "name": "getPostRequirementsByOpportunityId",
      "outputs": [
        {
          "internalType": "uint256[]",
          "name": "",
          "type": "uint256[]"
        },
        {
          "internalType": "uint256[]",
          "name": "",
          "type": "uint256[]"
        },
        {
          "internalType": "uint256[]",
          "name": "",
          "type": "uint256[]"
        },
        {
          "internalType": "string[]",
          "name": "",
          "type": "string[]"
        }
      ],
      "stateMutability": "view",
      "type": "function"
    },
    {
      "inputs": [
        {
          "internalType": "uint256",
          "name": "applicationId",
          "type": "uint256"
        },
        {
          "internalType": "uint256",
          "name": "preAccomplishmentId",
          "type": "uint256"
        }
      ],
      "name": "getPreAccomplishment",
      "outputs": [
        {
          "components": [
            {
              "internalType": "uint256",
              "name": "id",
              "type": "uint256"
            },
            {
              "internalType": "uint256",
              "name": "requirementId",
              "type": "uint256"
            },
            {
              "internalType": "uint256",
              "name": "accomplishDate",
              "type": "uint256"
            },
            {
              "internalType": "uint256",
              "name": "accomplishCategory",
              "type": "uint256"
            },
            {
              "internalType": "string",
              "name": "accomplishValue",
              "type": "string"
            }
          ],
          "internalType": "struct AkasifyCoreContract.Accomplishment",
          "name": "_accomplishment",
          "type": "tuple"
        }
      ],
      "stateMutability": "view",
      "type": "function"
    },
    {
      "inputs": [
        {
          "internalType": "uint256",
          "name": "opportunityId",
          "type": "uint256"
        }
      ],
      "name": "getPreRequirementsByOpportunityId",
      "outputs": [
        {
          "internalType": "uint256[]",
          "name": "",
          "type": "uint256[]"
        },
        {
          "internalType": "uint256[]",
          "name": "",
          "type": "uint256[]"
        },
        {
          "internalType": "uint256[]",
          "name": "",
          "type": "uint256[]"
        },
        {
          "internalType": "string[]",
          "name": "",
          "type": "string[]"
        }
      ],
      "stateMutability": "view",
      "type": "function"
    },
    {
      "inputs": [
        {
          "internalType": "address",
          "name": "account",
          "type": "address"
        }
      ],
      "name": "getRole",
      "outputs": [
        {
          "internalType": "string",
          "name": "",
          "type": "string"
        }
      ],
      "stateMutability": "view",
      "type": "function"
    },
    {
      "inputs": [
        {
          "internalType": "address",
          "name": "account",
          "type": "address"
        }
      ],
      "name": "isBeneficiary",
      "outputs": [
        {
          "internalType": "bool",
          "name": "",
          "type": "bool"
        }
      ],
      "stateMutability": "view",
      "type": "function"
    },
    {
      "inputs": [
        {
          "internalType": "address",
          "name": "account",
          "type": "address"
        }
      ],
      "name": "isOrganization",
      "outputs": [
        {
          "internalType": "bool",
          "name": "",
          "type": "bool"
        }
      ],
      "stateMutability": "view",
      "type": "function"
    },
    {
      "inputs": [],
      "name": "nextApplicationId",
      "outputs": [
        {
          "internalType": "uint256",
          "name": "",
          "type": "uint256"
        }
      ],
      "stateMutability": "view",
      "type": "function"
    },
    {
      "inputs": [],
      "name": "nextBeneficiaryId",
      "outputs": [
        {
          "internalType": "uint256",
          "name": "",
          "type": "uint256"
        }
      ],
      "stateMutability": "view",
      "type": "function"
    },
    {
      "inputs": [],
      "name": "nextOpportunityId",
      "outputs": [
        {
          "internalType": "uint256",
          "name": "",
          "type": "uint256"
        }
      ],
      "stateMutability": "view",
      "type": "function"
    },
    {
      "inputs": [],
      "name": "nextOrganizationId",
      "outputs": [
        {
          "internalType": "uint256",
          "name": "",
          "type": "uint256"
        }
      ],
      "stateMutability": "view",
      "type": "function"
    },
    {
      "inputs": [
        {
          "internalType": "uint256",
          "name": "",
          "type": "uint256"
        }
      ],
      "name": "opportunities",
      "outputs": [
        {
          "internalType": "uint256",
          "name": "id",
          "type": "uint256"
        },
        {
          "internalType": "uint256",
          "name": "organizationId",
          "type": "uint256"
        },
        {
          "internalType": "string",
          "name": "name",
          "type": "string"
        },
        {
          "internalType": "string",
          "name": "description",
          "type": "string"
        },
        {
          "internalType": "uint256",
          "name": "creationDate",
          "type": "uint256"
        },
        {
          "internalType": "uint256",
          "name": "preRequirementsDeadline",
          "type": "uint256"
        },
        {
          "internalType": "uint256",
          "name": "postRequirementsDeadline",
          "type": "uint256"
        },
        {
          "internalType": "uint256",
          "name": "lastUpdate",
          "type": "uint256"
        },
        {
          "internalType": "uint256",
          "name": "status",
          "type": "uint256"
        },
        {
          "internalType": "uint256",
          "name": "nextPreRequirementId",
          "type": "uint256"
        },
        {
          "internalType": "uint256",
          "name": "nextPostRequirementId",
          "type": "uint256"
        }
      ],
      "stateMutability": "view",
      "type": "function"
    },
    {
      "inputs": [],
      "name": "registerBeneficiary",
      "outputs": [],
      "stateMutability": "nonpayable",
      "type": "function"
    },
    {
      "inputs": [
        {
          "internalType": "address payable",
          "name": "account",
          "type": "address"
        },
        {
          "internalType": "uint256",
          "name": "status",
          "type": "uint256"
        }
      ],
      "name": "registerBeneficiaryByAdmin",
      "outputs": [],
      "stateMutability": "nonpayable",
      "type": "function"
    },
    {
      "inputs": [
        {
          "internalType": "string",
          "name": "name",
          "type": "string"
        },
        {
          "internalType": "address payable",
          "name": "account",
          "type": "address"
        },
        {
          "internalType": "uint256",
          "name": "status",
          "type": "uint256"
        }
      ],
      "name": "registerOrganizationByAdmin",
      "outputs": [
        {
          "internalType": "uint256",
          "name": "",
          "type": "uint256"
        }
      ],
      "stateMutability": "nonpayable",
      "type": "function"
    },
    {
      "inputs": [
        {
          "internalType": "uint256",
          "name": "applicationId",
          "type": "uint256"
        },
        {
          "internalType": "uint256",
          "name": "status",
          "type": "uint256"
        }
      ],
      "name": "updateApplicationStatus",
      "outputs": [],
      "stateMutability": "nonpayable",
      "type": "function"
    },
    {
      "inputs": [
        {
          "internalType": "uint256",
          "name": "opportunityId",
          "type": "uint256"
        },
        {
          "internalType": "uint256",
          "name": "status",
          "type": "uint256"
        }
      ],
      "name": "updateOpportunityStatus",
      "outputs": [],
      "stateMutability": "nonpayable",
      "type": "function"
    }
  ],
  "bytecode": "0x60806040523480156200001157600080fd5b50604051620046af380380620046af83398101604081905262000034916200005a565b600880546001600160a01b0319166001600160a01b03929092169190911790556200008a565b6000602082840312156200006c578081fd5b81516001600160a01b038116811462000083578182fd5b9392505050565b614615806200009a6000396000f3fe608060405234801561001057600080fd5b50600436106102065760003560e01c8063957abe0b1161011a578063c821b4fb116100ad578063df19ce4d1161007c578063df19ce4d146104b5578063dfefadff146104c8578063eadd2f61146104ef578063f851a44014610502578063fcfb8bb21461051757610206565b8063c821b4fb14610474578063cbdbc9a614610487578063cfd664d61461049a578063d2830de3146104ad57610206565b8063aa0a57ab116100e9578063aa0a57ab146103f8578063acd6c98f1461041b578063aed35ccc14610445578063b1ce8eab1461046157610206565b8063957abe0b1461039757806395c32445146103b75780639754a3a8146103bf5780639d19b226146103d857610206565b80635825271a1161019d578063706f48b11161016c578063706f48b11461031f57806371e0e09e146103325780637a47523b146103455780638c4be5eb1461036c578063913b722c1461037f57610206565b80635825271a146102de578063625338cb146102f1578063635c5455146102f95780636e46cc4e1461030c57610206565b806344276733116101d957806344276733146102755780634bcaaa01146102955780634f4e4534146102b85780635080d5fb146102cb57610206565b80631283ca701461020b5780632832163f14610220578063292719d31461024d5780633859305e1461026d575b600080fd5b61021e6102193660046136f8565b61051f565b005b61023361022e366004613508565b610702565b6040516102449594939291906143f5565b60405180910390f35b61026061025b366004613508565b6108a5565b60405161024491906143c8565b610260610919565b610288610283366004613508565b61091f565b6040516102449190613ae0565b6102a86102a33660046136f8565b6109f5565b6040516102449493929190613a89565b61021e6102c6366004613710565b610caa565b6102606102d9366004613508565b610eb1565b61021e6102ec3660046135ad565b610f1d565b61026061131a565b6102336103073660046136f8565b611320565b61026061031a366004613508565b611453565b61021e61032d366004613710565b6114be565b61021e61034036600461352b565b6116bd565b6103586103533660046136f8565b611759565b604051610244989796959493929190614434565b6102a861037a3660046136f8565b6118e8565b610387611b89565b604051610244949392919061391c565b6103aa6103a5366004613754565b611da4565b604051610244919061437d565b61021e611ebe565b6103c7611f86565b604051610244959493929190613973565b6103eb6103e6366004613508565b6122c2565b6040516102449190613ad5565b61040b6104063660046136f8565b612320565b60405161024494939291906143d1565b61042e6104293660046136f8565b612384565b6040516102449b9a999897969594939291906144d0565b61044d6124e7565b6040516102449897969594939291906139de565b6103eb61046f366004613508565b612aa7565b6103aa610482366004613754565b612b06565b61040b610495366004613508565b612b33565b61021e6104a8366004613754565b612bdd565b610260612e19565b6102606104c3366004613556565b612e1f565b6104db6104d63660046136f8565b612ef7565b604051610244989796959493929190614540565b61021e6104fd366004613754565b612f3f565b61050a613210565b6040516102449190613908565b61026061321f565b600061052a336122c2565b9050806105525760405162461bcd60e51b815260040161054990614160565b60405180910390fd5b6000828152600460205260409020600801546002146105835760405162461bcd60e51b8152600401610549906141de565b60075460008181526006602052604090209081556001018290556105a6336108a5565b60058054600090815260066020819052604080832060020194909455600780548352848320600301839055805483528483206004018390558054835284832090930182905582548252838220018190558154815291909120600191015561060b613225565b60008082526020808301828152426040808601918252600160608701818152825180870184528781526080890190815260075488526006875292872060080180548084018255908852968690208851600590980201968755935190860155905160028501559051600384015551805184939261068e926004850192910190613254565b505060078054600090815260066020526040808220600501805460019081019091559254808352918190209092015491517f4f1d11d7514d07b07aae80054a59f900905d1b462fdc43d033043ced6712d02793506106ec92906144c2565b60405180910390a1505060078054600101905550565b60006060818080805b60035481101561087e5761071d6132d2565b600260008381526020019081526020016000206040518060a001604052908160008201548152602001600182018054600181600116156101000203166002900480601f0160208091040260200160405190810160405280929190818152602001828054600181600116156101000203166002900480156107de5780601f106107b3576101008083540402835291602001916107de565b820191906000526020600020905b8154815290600101906020018083116107c157829003601f168201915b505050505081526020016002820160009054906101000a90046001600160a01b03166001600160a01b03166001600160a01b03168152602001600382015481526020016004820154815250509050876001600160a01b031681604001516001600160a01b031614156108755780516020820151604083015160608401516080909401519299509097509550909350915061089c9050565b5060010161070b565b50506040805160208101909152600080825294509250839150819050805b91939590929450565b600080805b600154811015610910576000818152602081905260409020600101546001600160a01b0385811691161480156108f157506000818152602081905260409020600390810154145b156109085760008181526020819052604090205491505b6001016108aa565b5090505b919050565b60015481565b6008546060906001600160a01b038381169116141561095a575060408051808201909152600581526430b236b4b760d91b6020820152610914565b61096382612aa7565b151560011415610996575060408051808201909152600c81526b37b933b0b734bd30ba34b7b760a11b6020820152610914565b61099f826122c2565b1515600114156109d1575060408051808201909152600b81526a62656e656669636961727960a81b6020820152610914565b506040805180820190915260078152663b34b9b4ba37b960c91b6020820152610914565b6000818152600460205260409020600a81015460609182918291829182906001600160401b0381118015610a2857600080fd5b50604051908082528060200260200182016040528015610a52578160200160208202803683370190505b509050606082600a01546001600160401b0381118015610a7157600080fd5b50604051908082528060200260200182016040528015610a9b578160200160208202803683370190505b509050606083600a01546001600160401b0381118015610aba57600080fd5b50604051908082528060200260200182016040528015610ae4578160200160208202803683370190505b509050606084600a01546001600160401b0381118015610b0357600080fd5b50604051908082528060200260200182016040528015610b3757816020015b6060815260200190600190039081610b225790505b50905060005b85600a0154811015610c9657610b5161330a565b6000828152600c88016020908152604091829020825160808101845281548152600180830154828501526002808401548387015260038401805487519381161561010002600019011691909104601f810186900486028301860190965285825291949293606086019391929190830182828015610c0f5780601f10610be457610100808354040283529160200191610c0f565b820191906000526020600020905b815481529060010190602001808311610bf257829003601f168201915b50505050508152505090508060000151868381518110610c2b57fe5b6020026020010181815250508060200151858381518110610c4857fe5b6020026020010181815250508060400151848381518110610c6557fe5b6020026020010181815250508060600151838381518110610c8257fe5b602090810291909101015250600101610b3d565b5092975090955093509150505b9193509193565b6000610cb5336122c2565b905080610cd45760405162461bcd60e51b815260040161054990614160565b600083815260066020526040902060070154600114610d055760405162461bcd60e51b815260040161054990613f92565b6000838152600660208181526040808420815160a081018352600580830154825294845260038083015482860190815242948301948552600260608401818152608085018c81526008909601805460018181018355918c529a89902086519b909a02909901998a5591519789019790975593519587019590955591519385019390935591518051929392610d9f9260048501920190613254565b505050600083815260066020908152604080832060038101546001918201548552600490935292206009015491011015610e955760008381526006602081815260408084206005808201805460019081019182905560038085018054830190819055865160a0810188529384529787528287019788524295830195865260608301828152608084018c8152600890960180548085018255908b529988902084519a90950290940198895596519088015592516002870155519385019390935591518051929392610e759260048501920190613254565b505050600083815260066020526040902060050180546001019055610eac565b600083815260066020526040902060026007909101555b505050565b600080805b60035481101561091057600081815260026020819052604090912001546001600160a01b038581169116148015610efe57506000818152600260205260409020600401546003145b15610f155760008181526002602052604090205491505b600101610eb6565b6000610f2833612aa7565b905080610f475760405162461bcd60e51b815260040161054990613c40565b60008b5111610f685760405162461bcd60e51b815260040161054990613e5f565b60008a5111610f895760405162461bcd60e51b815260040161054990613fef565b85518751148015610f9b575084518651145b610fb75760405162461bcd60e51b815260040161054990613e02565b82518451148015610fc9575081518351145b610fe55760405162461bcd60e51b815260040161054990613efe565b60055460008181526004602052604090205561100033610eb1565b6005805460009081526004602090815260408083206001019490945591548152919091208c51611038926002909201918e0190613254565b5060055460009081526004602090815260409091208b51611061926003909201918d0190613254565b506005805460009081526004602081905260408083204292018290558354835280832084018d9055835483528083206006018c905583548352808320600701919091559154815290812060016008909101555b87518110156111b05760405180608001604052806004600060055481526020019081526020016000206009015481526020018983815181106110f257fe5b6020026020010151815260200188838151811061110b57fe5b6020026020010151815260200187838151811061112457fe5b602090810291909101810151909152600554600090815260048252604080822060098101548352600b018352908190208351815583830151600182015590830151600282015560608301518051919261118592600385019290910190613254565b50506005546000908152600460205260409020600901805460019081019091559190910190506110b4565b5060005b84518110156112b0576040518060800160405280600460006005548152602001908152602001600020600a015481526020018683815181106111f257fe5b6020026020010151815260200185838151811061120b57fe5b6020026020010151815260200184838151811061122457fe5b6020908102919091018101519091526005546000908152600482526040808220600a8101548352600c018352908190208351815583830151600182015590830151600282015560608301518051919261128592600385019290910190613254565b50506005546000908152600460205260409020600a01805460019081019091559190910190506111b4565b506005546000818152600460205260409081902090517f93cac2d03b387f53f5dc8a5055164c7664b547195c59088475e4c704069d96ad926112fc92909160028201916003019061448d565b60405180910390a15050600580546001019055505050505050505050565b60075481565b6000606060008060006113316132d2565b600260008881526020019081526020016000206040518060a001604052908160008201548152602001600182018054600181600116156101000203166002900480601f0160208091040260200160405190810160405280929190818152602001828054600181600116156101000203166002900480156113f25780601f106113c7576101008083540402835291602001916113f2565b820191906000526020600020905b8154815290600101906020018083116113d557829003601f168201915b505050918352505060028201546001600160a01b031660208083019190915260038301546040808401919091526004909301546060928301528351908401519284015191840151608090940151909b929a5090985091965090945092505050565b600080805b600154811015610910576000818152602081905260409020600101546001600160a01b03858116911614801561149f57506000818152602081905260409020600390810154145b156114b65760008181526020819052604090205491505b600101611458565b60006114c9336122c2565b9050806114e85760405162461bcd60e51b815260040161054990614160565b6000838152600660205260409020600701546005146115195760405162461bcd60e51b815260040161054990613cc8565b6000838152600660208181526040808420815160a08101835281850154815293835260048082015485850190815242938601938452600260608701818152608088018b81526009909501805460018181018355918b529988902089516005909b0201998a55925192890192909255935193870193909355915160038601555180519394936115af93928501929190910190613254565b5050506000838152600660209081526040808320600480820154600192830154865293529220600a0154910110156116a4576000838152600660208181526040808420808401805460019081019182905560048084018054830190819055855160a0810187529384529686528286019687524294830194855260608301828152608084018b8152600990950180548085018255908a529887902084516005909a0201988955965191880191909155925160028701559351600386015551805193949361168393928501929190910190613254565b50505060008381526006602081905260409091200180546001019055610eac565b5050600090815260066020819052604090912060070155565b6008546001600160a01b031633146116e75760405162461bcd60e51b815260040161054990613dde565b60408051608081018252600180548083526001600160a01b039586166020808501918252428587019081526060860197885260009384529083905294909120925183555182820180546001600160a01b0319169190961617909455905160028201559051600390910155805481019055565b6000606080600080600080600080600460008b815260200190815260200160002090508060010154816002018260030183600401548460050154856006015486600701548760080154868054600181600116156101000203166002900480601f0160208091040260200160405190810160405280929190818152602001828054600181600116156101000203166002900480156118375780601f1061180c57610100808354040283529160200191611837565b820191906000526020600020905b81548152906001019060200180831161181a57829003601f168201915b5050895460408051602060026001851615610100026000190190941693909304601f8101849004840282018401909252818152959c508b9450925084019050828280156118c55780601f1061189a576101008083540402835291602001916118c5565b820191906000526020600020905b8154815290600101906020018083116118a857829003601f168201915b505050505095509850985098509850985098509850985050919395975091939597565b6000818152600460205260409020600981015460609182918291829182906001600160401b038111801561191b57600080fd5b50604051908082528060200260200182016040528015611945578160200160208202803683370190505b509050606082600901546001600160401b038111801561196457600080fd5b5060405190808252806020026020018201604052801561198e578160200160208202803683370190505b509050606083600901546001600160401b03811180156119ad57600080fd5b506040519080825280602002602001820160405280156119d7578160200160208202803683370190505b509050606084600901546001600160401b03811180156119f657600080fd5b50604051908082528060200260200182016040528015611a2a57816020015b6060815260200190600190039081611a155790505b50905060005b8560090154811015610c9657611a4461330a565b6000828152600b88016020908152604091829020825160808101845281548152600180830154828501526002808401548387015260038401805487519381161561010002600019011691909104601f810186900486028301860190965285825291949293606086019391929190830182828015611b025780601f10611ad757610100808354040283529160200191611b02565b820191906000526020600020905b815481529060010190602001808311611ae557829003601f168201915b50505050508152505090508060000151868381518110611b1e57fe5b6020026020010181815250508060200151858381518110611b3b57fe5b6020026020010181815250508060400151848381518110611b5857fe5b6020026020010181815250508060600151838381518110611b7557fe5b602090810291909101015250600101611a30565b60608060608060606001546001600160401b0381118015611ba957600080fd5b50604051908082528060200260200182016040528015611bd3578160200160208202803683370190505b50905060606001546001600160401b0381118015611bf057600080fd5b50604051908082528060200260200182016040528015611c1a578160200160208202803683370190505b50905060606001546001600160401b0381118015611c3757600080fd5b50604051908082528060200260200182016040528015611c61578160200160208202803683370190505b50905060606001546001600160401b0381118015611c7e57600080fd5b50604051908082528060200260200182016040528015611ca8578160200160208202803683370190505b50905060005b600154811015611d9557611cc0613332565b50600081815260208181526040918290208251608081018452815480825260018301546001600160a01b0316938201939093526002820154938101939093526003015460608301528651879084908110611d1657fe5b6020026020010181815250508060200151858381518110611d3357fe5b60200260200101906001600160a01b031690816001600160a01b0316815250508060400151848381518110611d6457fe5b6020026020010181815250508060600151838381518110611d8157fe5b602090810291909101015250600101611cae565b50929791965094509092509050565b611dac613225565b611db4613225565b6000848152600660205260409020600901805484908110611dd157fe5b90600052602060002090600502016040518060a001604052908160008201548152602001600182015481526020016002820154815260200160038201548152602001600482018054600181600116156101000203166002900480601f016020809104026020016040519081016040528092919081815260200182805460018160011615610100020316600290048015611eab5780601f10611e8057610100808354040283529160200191611eab565b820191906000526020600020905b815481529060010190602001808311611e8e57829003601f168201915b5050509190925250919695505050505050565b6008546001600160a01b0316331415611ee95760405162461bcd60e51b815260040161054990614223565b6000611ef433612aa7565b90508015611f145760405162461bcd60e51b8152600401610549906140ff565b506040805160808101825260018054808352336020808501918252428587019081526060860185815260009485529184905295909220935184555183830180546001600160a01b0319166001600160a01b03909216919091179055925160028301559151600390910155805481019055565b6060806060806060806003546001600160401b0381118015611fa757600080fd5b50604051908082528060200260200182016040528015611fd1578160200160208202803683370190505b50905060606003546001600160401b0381118015611fee57600080fd5b5060405190808252806020026020018201604052801561202257816020015b606081526020019060019003908161200d5790505b50905060606003546001600160401b038111801561203f57600080fd5b50604051908082528060200260200182016040528015612069578160200160208202803683370190505b50905060606003546001600160401b038111801561208657600080fd5b506040519080825280602002602001820160405280156120b0578160200160208202803683370190505b50905060606003546001600160401b03811180156120cd57600080fd5b506040519080825280602002602001820160405280156120f7578160200160208202803683370190505b50905060005b6003548110156122b05761210f6132d2565b600260008381526020019081526020016000206040518060a001604052908160008201548152602001600182018054600181600116156101000203166002900480601f0160208091040260200160405190810160405280929190818152602001828054600181600116156101000203166002900480156121d05780601f106121a5576101008083540402835291602001916121d0565b820191906000526020600020905b8154815290600101906020018083116121b357829003601f168201915b505050918352505060028201546001600160a01b0316602082015260038201546040820152600490910154606090910152805188519192509088908490811061221557fe5b602002602001018181525050806020015186838151811061223257fe5b6020026020010181905250806040015185838151811061224e57fe5b60200260200101906001600160a01b031690816001600160a01b031681525050806060015184838151811061227f57fe5b602002602001018181525050806080015183838151811061229c57fe5b6020908102919091010152506001016120fd565b50939992985090965094509092509050565b600080805b600154811015610910576000818152602081905260409020600101546001600160a01b03858116911614801561230e57506000818152602081905260409020600390810154145b1561231857600191505b6001016122c7565b60008060008061232e613332565b5050506000928352505060208181526040918290208251608081018452815480825260018301546001600160a01b0316938201849052600283015494820185905260039092015460609091018190529093919291565b60046020908152600091825260409182902080546001808301546002808501805488519481161561010002600019011691909104601f8101879004870284018701909752868352929590949192918301828280156124235780601f106123f857610100808354040283529160200191612423565b820191906000526020600020905b81548152906001019060200180831161240657829003601f168201915b5050505060038301805460408051602060026001851615610100026000190190941693909304601f81018490048402820184019092528181529495949350908301828280156124b35780601f10612488576101008083540402835291602001916124b3565b820191906000526020600020905b81548152906001019060200180831161249657829003601f168201915b50505050509080600401549080600501549080600601549080600701549080600801549080600901549080600a015490508b565b60608060608060608060608060606005546001600160401b038111801561250d57600080fd5b50604051908082528060200260200182016040528015612537578160200160208202803683370190505b50905060606005546001600160401b038111801561255457600080fd5b5060405190808252806020026020018201604052801561258857816020015b60608152602001906001900390816125735790505b50905060606005546001600160401b03811180156125a557600080fd5b506040519080825280602002602001820160405280156125d957816020015b60608152602001906001900390816125c45790505b50905060606005546001600160401b03811180156125f657600080fd5b5060405190808252806020026020018201604052801561262a57816020015b60608152602001906001900390816126155790505b50905060606005546001600160401b038111801561264757600080fd5b50604051908082528060200260200182016040528015612671578160200160208202803683370190505b50905060606005546001600160401b038111801561268e57600080fd5b506040519080825280602002602001820160405280156126b8578160200160208202803683370190505b50905060606005546001600160401b03811180156126d557600080fd5b506040519080825280602002602001820160405280156126ff578160200160208202803683370190505b50905060606005546001600160401b038111801561271c57600080fd5b50604051908082528060200260200182016040528015612746578160200160208202803683370190505b50905060005b600554811015612a8e5761275e613363565b60046000838152602001908152602001600020604051806101600160405290816000820154815260200160018201548152602001600282018054600181600116156101000203166002900480601f01602080910402602001604051908101604052809291908181526020018280546001816001161561010002031660029004801561282a5780601f106127ff5761010080835404028352916020019161282a565b820191906000526020600020905b81548152906001019060200180831161280d57829003601f168201915b505050918352505060038201805460408051602060026001851615610100026000190190941693909304601f81018490048402820184019092528181529382019392918301828280156128be5780601f10612893576101008083540402835291602001916128be565b820191906000526020600020905b8154815290600101906020018083116128a157829003601f168201915b50505050508152602001600482015481526020016005820154815260200160068201548152602001600782015481526020016008820154815260200160098201548152602001600a82015481525050905080600001518a838151811061292057fe5b60200260200101818152505060026000826020015181526020019081526020016000206001018054600181600116156101000203166002900480601f0160208091040260200160405190810160405280929190818152602001828054600181600116156101000203166002900480156129da5780601f106129af576101008083540402835291602001916129da565b820191906000526020600020905b8154815290600101906020018083116129bd57829003601f168201915b50505050508983815181106129eb57fe5b60200260200101819052508060400151888381518110612a0757fe5b60200260200101819052508060600151878381518110612a2357fe5b60200260200101819052508060a00151868381518110612a3f57fe5b6020026020010181815250508060c00151858381518110612a5c57fe5b602002602001018181525050806101000151838381518110612a7a57fe5b60209081029190910101525060010161274c565b50969f959e50939c50919a509850965094509092509050565b600080805b60035481101561091057600081815260026020819052604090912001546001600160a01b038581169116148015612af457506000818152600260205260409020600401546003145b15612afe57600191505b600101612aac565b612b0e613225565b612b16613225565b6000848152600660205260409020600801805484908110611dd157fe5b6000808080805b600154811015612bcb57612b4c613332565b506000818152602081815260409182902082516080810184528154815260018201546001600160a01b0390811693820184905260028301549482019490945260039091015460608201529188161415612bc25780516020820151604083015160609093015191975095509093509150610ca39050565b50600101612b3a565b50600095869550859450849350915050565b6000612be833612aa7565b90506000612bf5336122c2565b90508180612c005750805b612c1c5760405162461bcd60e51b815260040161054990613f5b565b6000848152600660205260409020600701548015801590612c3e575060078111155b612c5a5760405162461bcd60e51b815260040161054990613bac565b8360021415612ca85780600114612c835760405162461bcd60e51b815260040161054990613d25565b612c8c336122c2565b612ca85760405162461bcd60e51b815260040161054990613c6b565b8360031480612cb75750836004145b15612d015780600214612cdc5760405162461bcd60e51b815260040161054990613e86565b612ce533612aa7565b612d015760405162461bcd60e51b8152600401610549906142c2565b8360051415612d5a578060031480612d195750806004145b612d355760405162461bcd60e51b815260040161054990614246565b612d3e33612aa7565b612d5a5760405162461bcd60e51b8152600401610549906142c2565b8360061415612da85780600514612d835760405162461bcd60e51b815260040161054990614084565b612d8c336122c2565b612da85760405162461bcd60e51b815260040161054990613c6b565b8360071480612db75750836008145b15612e015780600614612ddc5760405162461bcd60e51b81526004016105499061431f565b612de533612aa7565b612e015760405162461bcd60e51b8152600401610549906142c2565b50505060009182526006602052604090912060070155565b60035481565b6008546000906001600160a01b03163314612e4c5760405162461bcd60e51b815260040161054990613dde565b6003546040805160a08101825282815260208082018881526001600160a01b0388168385015242606084015260808301879052600085815260028352939093208251815592518051929392612ea79260018501920190613254565b5060408201516002820180546001600160a01b0319166001600160a01b03909216919091179055606082015160038083019190915560809092015160049091015580546001019055949350505050565b60066020528060005260406000206000915090508060000154908060010154908060020154908060030154908060040154908060050154908060060154908060070154905088565b6000612f4a33612aa7565b905080612f695760405162461bcd60e51b815260040161054990613c40565b600082118015612f7a575060078211155b612f965760405162461bcd60e51b815260040161054990614129565b8160021415612fd057600083815260046020526040902060080154600114612fd05760405162461bcd60e51b815260040161054990614197565b816003141561300a5760008381526004602052604090206008015460021461300a5760405162461bcd60e51b815260040161054990613d9b565b8160041415613044576000838152600460205260409020600801546003146130445760405162461bcd60e51b815260040161054990613be3565b816005141561307f576000838152600460208190526040909120600801541461307f5760405162461bcd60e51b815260040161054990613b40565b81600614156131c0576000838152600460205260409020600801546005146130b95760405162461bcd60e51b815260040161054990613af3565b60005b6007548110156131be576000818152600660205260409020600101548414156131b657600081815260066020526040902060070154600314156131b65760008181526006602052604090206005600790910155613117613225565b60008082526020808301828152426040808601918252600160608701818152825180870184528781526080890190815289885260068752928720600901805480840182559088529686902088516005909802019687559351908601559051600285015590516003840155518051849392613198926004850192910190613254565b50505060008281526006602081905260409091200180546001019055505b6001016130bc565b505b81600714156131fa576000838152600460205260409020600801546006146131fa5760405162461bcd60e51b81526004016105499061401d565b5060009182526004602052604090912060080155565b6008546001600160a01b031681565b60055481565b6040518060a0016040528060008152602001600081526020016000815260200160008152602001606081525090565b828054600181600116156101000203166002900490600052602060002090601f016020900481019282601f1061329557805160ff19168380011785556132c2565b828001600101855582156132c2579182015b828111156132c25782518255916020019190600101906132a7565b506132ce9291506133bd565b5090565b6040518060a00160405280600081526020016060815260200160006001600160a01b0316815260200160008152602001600081525090565b6040518060800160405280600081526020016000815260200160008152602001606081525090565b60405180608001604052806000815260200160006001600160a01b0316815260200160008152602001600081525090565b60405180610160016040528060008152602001600081526020016060815260200160608152602001600081526020016000815260200160008152602001600081526020016000815260200160008152602001600081525090565b6133d791905b808211156132ce57600081556001016133c3565b90565b600082601f8301126133ea578081fd5b81356133fd6133f88261459c565b614576565b818152915060208083019084810160005b8481101561343757613425888484358a01016134a0565b8452928201929082019060010161340e565b505050505092915050565b600082601f830112613452578081fd5b81356134606133f88261459c565b81815291506020808301908481018184028601820187101561348157600080fd5b60005b8481101561343757813584529282019290820190600101613484565b600082601f8301126134b0578081fd5b81356001600160401b038111156134c5578182fd5b6134d8601f8201601f1916602001614576565b91508082528360208285010111156134ef57600080fd5b8060208401602084013760009082016020015292915050565b600060208284031215613519578081fd5b8135613524816145c7565b9392505050565b6000806040838503121561353d578081fd5b8235613548816145c7565b946020939093013593505050565b60008060006060848603121561356a578081fd5b83356001600160401b0381111561357f578182fd5b61358b868287016134a0565b935050602084013561359c816145c7565b929592945050506040919091013590565b6000806000806000806000806000806101408b8d0312156135cc578586fd5b8a356001600160401b03808211156135e2578788fd5b6135ee8e838f016134a0565b9b5060208d0135915080821115613603578788fd5b61360f8e838f016134a0565b9a5060408d0135995060608d0135985060808d0135915080821115613632578788fd5b61363e8e838f01613442565b975060a08d0135915080821115613653578687fd5b61365f8e838f01613442565b965060c08d0135915080821115613674578586fd5b6136808e838f016133da565b955060e08d0135915080821115613695578485fd5b6136a18e838f01613442565b94506101008d01359150808211156136b7578384fd5b6136c38e838f01613442565b93506101208d01359150808211156136d9578283fd5b506136e68d828e016133da565b9150509295989b9194979a5092959850565b600060208284031215613709578081fd5b5035919050565b60008060408385031215613722578182fd5b8235915060208301356001600160401b0381111561373e578182fd5b61374a858286016134a0565b9150509250929050565b60008060408385031215613766578182fd5b50508035926020909101359150565b6000815180845260208085019450808401835b838110156137ad5781516001600160a01b031687529582019590820190600101613788565b509495945050505050565b6000815180845260208085018081965082840281019150828601855b858110156137fe5782840389526137ec84835161383a565b988501989350908401906001016137d4565b5091979650505050505050565b6000815180845260208085019450808401835b838110156137ad5781518752958201959082019060010161381e565b60008151808452815b8181101561385f57602081850181015186830182015201613843565b818111156138705782602083870101525b50601f01601f19169290920160200192915050565b600081546001808216600081146138a357600181146138c1576138ff565b60028304607f16865260ff19831660208701526040860193506138ff565b600283048087526138d1866145bb565b60005b828110156138f55781546020828b01015284820191506020810190506138d4565b8801602001955050505b50505092915050565b6001600160a01b0391909116815260200190565b60006080825261392f608083018761380b565b82810360208401526139418187613775565b8381036040850152613953818761380b565b9150508281036060840152613968818561380b565b979650505050505050565b600060a0825261398660a083018861380b565b828103602084015261399881886137b8565b83810360408501526139aa8188613775565b91505082810360608401526139bf818661380b565b83810360808501526139d1818661380b565b9998505050505050505050565b60006101008083526139f28184018c61380b565b8381036020850152613a04818c6137b8565b9150508281036040840152613a19818a6137b8565b8381036060850152613a2b818a6137b8565b9150508281036080840152613a40818861380b565b83810360a0850152613a52818861380b565b91505082810360c0840152613a67818661380b565b83810360e0850152613a79818661380b565b9c9b505050505050505050505050565b600060808252613a9c608083018761380b565b8281036020840152613aae818761380b565b8381036040850152613ac0818761380b565b915050828103606084015261396881856137b8565b901515815260200190565b600060208252613524602083018461383a565b6020808252602d908201527f6f70706f7274756e697479206d75737420626520696e20696e6974696174656460408201526c20666f722066696e616c697a6560981b606082015260800190565b60208082526046908201527f6f70706f7274756e697479206d75737420626520696e206170706c696361746960408201527f6f6e732073656c656374656420666f72206f70706f7274756e69747920696e696060820152651d1a585d195960d21b608082015260a00190565b6020808252601c908201527f6170706c69636174696f6e20737461747573206e6f742076616c696400000000604082015260600190565b60208082526037908201527f6f70706f7274756e697479206d75737420626520696e2072657669657720666f60408201527f72206170706c69636174696f6e732073656c6563746564000000000000000000606082015260800190565b60208082526011908201527037b7363c9037b933b0b734bd30ba34b7b760791b604082015260600190565b60208082526039908201527f6170706c69636174696f6e20737461747573206368616e6765206d757374206260408201527f652065786563757465642062792062656e656669636961727900000000000000606082015260800190565b6020808252603a908201527f6170706c69636174696f6e20686173206e6f74207374617274656420746f207260408201527f65636569766520706f73744163636f6d706c6973686d656e7473000000000000606082015260800190565b60208082526050908201527f6170706c69636174696f6e206d757374206265207072654163636f6d706c697360408201527f686d656e7473207374617274656420746f2062652066696e616c697a6520707260608201526f654163636f6d706c6973686d656e747360801b608082015260a00190565b60208082526023908201527f6f70706f7274756e697479206d757374206265206f70656e20666f722072657660408201526269657760e81b606082015260800190565b6020808252600a908201526937b7363c9030b236b4b760b11b604082015260600190565b60208082526037908201527f70726520726571756972656d656e742076616c756573206e756d626572206d7560408201527f73742068617665207468652073616d65206c656e677468000000000000000000606082015260800190565b6020808252600d908201526c6e616d6520697320656d70747960981b604082015260600190565b60208082526052908201527f6170706c69636174696f6e206d757374206265207072654163636f6d706c697360408201527f686d656e74732066696e616c697a656420746f206265206569746865722061706060820152711c1c9bdd9959081bdc881c995a9958dd195960721b608082015260a00190565b60208082526038908201527f706f737420726571756972656d656e742076616c756573206e756d626572206d60408201527f7573742068617665207468652073616d65206c656e6774680000000000000000606082015260800190565b60208082526018908201527f6f6e6c7920616374697665206f7267616e697a6174696f6e0000000000000000604082015260600190565b60208082526039908201527f6170706c69636174696f6e20686173206e6f74207374617274656420746f207260408201527f656365697665207072654163636f6d706c6973686d656e747300000000000000606082015260800190565b6020808252601490820152736465736372697074696f6e20697320656d70747960601b604082015260600190565b60208082526041908201527f6f70706f7274756e697479206d7573742062652066696e616c697a656420666f60408201527f7220636c6f736520706f7374526571756972656d656e7420726563657074696f6060820152603760f91b608082015260a00190565b60208082526055908201527f6170706c69636174696f6e206d7573742068617665207374617274656420726560408201527f63656976696e6720706f73744163636f6d706c6973686d656e747320746f206660608201527434b730b634bd329034ba39903932b1b2b83a34b7b760591b608082015260a00190565b60208082526010908201526f3737ba1037b933b0b734bd30ba34b7b760811b604082015260600190565b6020808252601c908201527f6f70706f7274756e69747920737461747573206e6f742076616c696400000000604082015260600190565b60208082526017908201527f6f6e6c79206163746976652062656e6566696369617279000000000000000000604082015260600190565b60208082526027908201527f6f70706f7274756e697479206d75737420626520696e20647261667420746f2060408201526631329037b832b760c91b606082015260800190565b60208082526025908201527f6f70706f7274756e697479206e6f74206f70656e20666f72206170706c69636160408201526474696f6e7360d81b606082015260800190565b6020808252600990820152683737ba1030b236b4b760b91b604082015260600190565b60208082526056908201527f6170706c69636174696f6e206d7573742062652065697468657220617070726f60408201527f766564206f722072656a656374656420746f20737461727420726563656976696060820152756e6720706f73744163636f6d706c6973686d656e747360501b608082015260a00190565b6020808252603a908201527f6170706c69636174696f6e20737461747573206368616e6765206d757374206260408201527f65206578656375746564206279206f7267616e697a6174696f6e000000000000606082015260800190565b602080825260409082018190527f6170706c69636174696f6e20706f73744163636f6d706c6973686d656e747320908201527f6d7573742062652066696e616c697a656420746f2066696e616c697a65206974606082015260800190565b60006020825282516020830152602083015160408301526040830151606083015260608301516080830152608083015160a0808401526143c060c084018261383a565b949350505050565b90815260200190565b9384526001600160a01b039290921660208401526040830152606082015260800190565b600086825260a0602083015261440e60a083018761383a565b6001600160a01b0395909516604083015250606081019290925260809091015292915050565b60006101008a835280602084015261444e8184018b61383a565b8381036040850152614460818b61383a565b6060850199909952505050608081019490945260a084019290925260c083015260e0909101529392505050565b6000848252606060208301526144a66060830185613885565b82810360408401526144b88185613885565b9695505050505050565b918252602082015260400190565b60006101608d83528c60208401528060408401526144f08184018d61383a565b8381036060850152614502818d61383a565b608085019b909b5250505060a081019690965260c086019490945260e085019290925261010084015261012083015261014090910152949350505050565b978852602088019690965260408701949094526060860192909252608085015260a084015260c083015260e08201526101000190565b6040518181016001600160401b038111828210171561459457600080fd5b604052919050565b60006001600160401b038211156145b1578081fd5b5060209081020190565b60009081526020902090565b6001600160a01b03811681146145dc57600080fd5b5056fea2646970667358221220811cbd7f9fe0b7cea5132c565e2bde169c38ad1d5f6d73cfa4f68fe48b9a983564736f6c63430006070033",
  "linkReferences": {},
  "deployedLinkReferences": {}
}