{
  "_format": "hh-sol-artifact-1",
  "contractName": "AkasifyCoreContract",
  "sourceName": "contracts/AkasifyCoreContract.sol",
  "abi": [
    {
      "inputs": [
        {
          "internalType": "address",
          "name": "_admin",
          "type": "address"
        }
      ],
      "stateMutability": "nonpayable",
      "type": "constructor"
    },
    {
      "anonymous": false,
      "inputs": [
        {
          "indexed": false,
          "internalType": "uint256",
          "name": "id",
          "type": "uint256"
        },
        {
          "indexed": false,
          "internalType": "uint256",
          "name": "opportunityId",
          "type": "uint256"
        }
      ],
      "name": "RegisterApplication",
      "type": "event"
    },
    {
      "anonymous": false,
      "inputs": [
        {
          "indexed": false,
          "internalType": "uint256",
          "name": "id",
          "type": "uint256"
        },
        {
          "indexed": false,
          "internalType": "uint256",
          "name": "requirementId",
          "type": "uint256"
        },
        {
          "indexed": false,
          "internalType": "uint256",
          "name": "applicationId",
          "type": "uint256"
        },
        {
          "indexed": false,
          "internalType": "uint256",
          "name": "opportunityId",
          "type": "uint256"
        }
      ],
      "name": "RegisterApplicationPostAccomplishment",
      "type": "event"
    },
    {
      "anonymous": false,
      "inputs": [
        {
          "indexed": false,
          "internalType": "uint256",
          "name": "id",
          "type": "uint256"
        },
        {
          "indexed": false,
          "internalType": "uint256",
          "name": "requirementId",
          "type": "uint256"
        },
        {
          "indexed": false,
          "internalType": "uint256",
          "name": "applicationId",
          "type": "uint256"
        },
        {
          "indexed": false,
          "internalType": "uint256",
          "name": "opportunityId",
          "type": "uint256"
        }
      ],
      "name": "RegisterApplicationPreAccomplishment",
      "type": "event"
    },
    {
      "anonymous": false,
      "inputs": [
        {
          "indexed": false,
          "internalType": "address",
          "name": "account",
          "type": "address"
        }
      ],
      "name": "RegisterBeneficiary",
      "type": "event"
    },
    {
      "anonymous": false,
      "inputs": [
        {
          "indexed": false,
          "internalType": "uint256",
          "name": "id",
          "type": "uint256"
        },
        {
          "indexed": false,
          "internalType": "string",
          "name": "name",
          "type": "string"
        },
        {
          "indexed": false,
          "internalType": "string",
          "name": "description",
          "type": "string"
        }
      ],
      "name": "RegisterOpportunity",
      "type": "event"
    },
    {
      "anonymous": false,
      "inputs": [
        {
          "indexed": false,
          "internalType": "uint256",
          "name": "id",
          "type": "uint256"
        },
        {
          "indexed": false,
          "internalType": "uint256",
          "name": "status",
          "type": "uint256"
        }
      ],
      "name": "UpdateApplicationStatus",
      "type": "event"
    },
    {
      "anonymous": false,
      "inputs": [
        {
          "indexed": false,
          "internalType": "uint256",
          "name": "id",
          "type": "uint256"
        },
        {
          "indexed": false,
          "internalType": "uint256",
          "name": "status",
          "type": "uint256"
        }
      ],
      "name": "UpdateOpportunityStatus",
      "type": "event"
    },
    {
      "inputs": [],
      "name": "admin",
      "outputs": [
        {
          "internalType": "address",
          "name": "",
          "type": "address"
        }
      ],
      "stateMutability": "view",
      "type": "function"
    },
    {
      "inputs": [
        {
          "internalType": "uint256",
          "name": "",
          "type": "uint256"
        }
      ],
      "name": "applications",
      "outputs": [
        {
          "internalType": "uint256",
          "name": "id",
          "type": "uint256"
        },
        {
          "internalType": "uint256",
          "name": "opportunityId",
          "type": "uint256"
        },
        {
          "internalType": "uint256",
          "name": "beneficiaryId",
          "type": "uint256"
        },
        {
          "internalType": "uint256",
          "name": "nextPreRequirementId",
          "type": "uint256"
        },
        {
          "internalType": "uint256",
          "name": "nextPostRequirementId",
          "type": "uint256"
        },
        {
          "internalType": "uint256",
          "name": "nextPreAccomplishmentId",
          "type": "uint256"
        },
        {
          "internalType": "uint256",
          "name": "nextPostAccomplishmentId",
          "type": "uint256"
        },
        {
          "internalType": "uint256",
          "name": "creationDate",
          "type": "uint256"
        },
        {
          "internalType": "uint256",
          "name": "lastUpdate",
          "type": "uint256"
        },
        {
          "internalType": "uint256",
          "name": "status",
          "type": "uint256"
        }
      ],
      "stateMutability": "view",
      "type": "function"
    },
    {
      "inputs": [
        {
          "internalType": "uint256",
          "name": "opportunityId",
          "type": "uint256"
        }
      ],
      "name": "createApplication",
      "outputs": [],
      "stateMutability": "nonpayable",
      "type": "function"
    },
    {
      "inputs": [
        {
          "internalType": "string",
          "name": "name",
          "type": "string"
        },
        {
          "internalType": "string",
          "name": "description",
          "type": "string"
        },
        {
          "internalType": "uint256",
          "name": "preRequirementsDeadline",
          "type": "uint256"
        },
        {
          "internalType": "uint256",
          "name": "postRequirementsDeadline",
          "type": "uint256"
        },
        {
          "internalType": "uint256[]",
          "name": "preRequirementTypes",
          "type": "uint256[]"
        },
        {
          "internalType": "uint256[]",
          "name": "preRequirementValues",
          "type": "uint256[]"
        },
        {
          "internalType": "string[]",
          "name": "preRequirementNames",
          "type": "string[]"
        },
        {
          "internalType": "uint256[]",
          "name": "postRequirementTypes",
          "type": "uint256[]"
        },
        {
          "internalType": "uint256[]",
          "name": "postRequirementValues",
          "type": "uint256[]"
        },
        {
          "internalType": "string[]",
          "name": "postRequirementNames",
          "type": "string[]"
        }
      ],
      "name": "createOpportunity",
      "outputs": [],
      "stateMutability": "nonpayable",
      "type": "function"
    },
    {
      "inputs": [
        {
          "internalType": "uint256",
          "name": "applicationId",
          "type": "uint256"
        },
        {
          "internalType": "string",
          "name": "accomplishmentValue",
          "type": "string"
        }
      ],
      "name": "createPostAccomplishment",
      "outputs": [],
      "stateMutability": "nonpayable",
      "type": "function"
    },
    {
      "inputs": [
        {
          "internalType": "uint256",
          "name": "opportunityId",
          "type": "uint256"
        },
        {
          "internalType": "uint256",
          "name": "requirementType",
          "type": "uint256"
        },
        {
          "internalType": "uint256",
          "name": "transferValue",
          "type": "uint256"
        },
        {
          "internalType": "string",
          "name": "name",
          "type": "string"
        }
      ],
      "name": "createPostRequirement",
      "outputs": [],
      "stateMutability": "nonpayable",
      "type": "function"
    },
    {
      "inputs": [
        {
          "internalType": "uint256",
          "name": "applicationId",
          "type": "uint256"
        },
        {
          "internalType": "string",
          "name": "accomplishmentValue",
          "type": "string"
        }
      ],
      "name": "createPreAccomplishment",
      "outputs": [],
      "stateMutability": "nonpayable",
      "type": "function"
    },
    {
      "inputs": [
        {
          "internalType": "uint256",
          "name": "opportunityId",
          "type": "uint256"
        },
        {
          "internalType": "uint256",
          "name": "requirementType",
          "type": "uint256"
        },
        {
          "internalType": "uint256",
          "name": "transferValue",
          "type": "uint256"
        },
        {
          "internalType": "string",
          "name": "name",
          "type": "string"
        }
      ],
      "name": "createPreRequirement",
      "outputs": [],
      "stateMutability": "nonpayable",
      "type": "function"
    },
    {
      "inputs": [
        {
          "internalType": "uint256",
          "name": "opportunityId",
          "type": "uint256"
        },
        {
          "internalType": "address",
          "name": "beneficiaryAddress",
          "type": "address"
        }
      ],
      "name": "getApplication",
      "outputs": [
        {
          "internalType": "uint256",
          "name": "",
          "type": "uint256"
        },
        {
          "internalType": "uint256",
          "name": "",
          "type": "uint256"
        },
        {
          "internalType": "uint256",
          "name": "",
          "type": "uint256"
        },
        {
          "internalType": "uint256",
          "name": "",
          "type": "uint256"
        },
        {
          "internalType": "uint256",
          "name": "",
          "type": "uint256"
        },
        {
          "internalType": "uint256",
          "name": "",
          "type": "uint256"
        }
      ],
      "stateMutability": "view",
      "type": "function"
    },
    {
      "inputs": [],
      "name": "getBeneficiaries",
      "outputs": [
        {
          "internalType": "uint256[]",
          "name": "",
          "type": "uint256[]"
        },
        {
          "internalType": "address[]",
          "name": "",
          "type": "address[]"
        },
        {
          "internalType": "uint256[]",
          "name": "",
          "type": "uint256[]"
        },
        {
          "internalType": "uint256[]",
          "name": "",
          "type": "uint256[]"
        }
      ],
      "stateMutability": "view",
      "type": "function"
    },
    {
      "inputs": [
        {
          "internalType": "address",
          "name": "_account",
          "type": "address"
        }
      ],
      "name": "getBeneficiaryByAddress",
      "outputs": [
        {
          "internalType": "uint256",
          "name": "",
          "type": "uint256"
        },
        {
          "internalType": "address",
          "name": "",
          "type": "address"
        },
        {
          "internalType": "uint256",
          "name": "",
          "type": "uint256"
        },
        {
          "internalType": "uint256",
          "name": "",
          "type": "uint256"
        }
      ],
      "stateMutability": "view",
      "type": "function"
    },
    {
      "inputs": [
        {
          "internalType": "uint256",
          "name": "_id",
          "type": "uint256"
        }
      ],
      "name": "getBeneficiaryById",
      "outputs": [
        {
          "internalType": "uint256",
          "name": "",
          "type": "uint256"
        },
        {
          "internalType": "address",
          "name": "",
          "type": "address"
        },
        {
          "internalType": "uint256",
          "name": "",
          "type": "uint256"
        },
        {
          "internalType": "uint256",
          "name": "",
          "type": "uint256"
        }
      ],
      "stateMutability": "view",
      "type": "function"
    },
    {
      "inputs": [
        {
          "internalType": "address",
          "name": "account",
          "type": "address"
        }
      ],
      "name": "getBeneficiaryIdByAddress",
      "outputs": [
        {
          "internalType": "uint256",
          "name": "",
          "type": "uint256"
        }
      ],
      "stateMutability": "view",
      "type": "function"
    },
    {
      "inputs": [
        {
          "internalType": "address",
          "name": "account",
          "type": "address"
        }
      ],
      "name": "getBeneficiaryStatusByAddress",
      "outputs": [
        {
          "internalType": "uint256",
          "name": "",
          "type": "uint256"
        }
      ],
      "stateMutability": "view",
      "type": "function"
    },
    {
      "inputs": [],
      "name": "getOpportunities",
      "outputs": [
        {
          "internalType": "uint256[]",
          "name": "",
          "type": "uint256[]"
        },
        {
          "internalType": "string[]",
          "name": "",
          "type": "string[]"
        },
        {
          "internalType": "string[]",
          "name": "",
          "type": "string[]"
        },
        {
          "internalType": "string[]",
          "name": "",
          "type": "string[]"
        },
        {
          "internalType": "uint256[]",
          "name": "",
          "type": "uint256[]"
        },
        {
          "internalType": "uint256[]",
          "name": "",
          "type": "uint256[]"
        },
        {
          "internalType": "uint256[]",
          "name": "",
          "type": "uint256[]"
        }
      ],
      "stateMutability": "view",
      "type": "function"
    },
    {
      "inputs": [
        {
          "internalType": "uint256",
          "name": "opportunityId",
          "type": "uint256"
        }
      ],
      "name": "getOpportunityById",
      "outputs": [
        {
          "internalType": "uint256",
          "name": "",
          "type": "uint256"
        },
        {
          "internalType": "string",
          "name": "",
          "type": "string"
        },
        {
          "internalType": "string",
          "name": "",
          "type": "string"
        },
        {
          "internalType": "uint256",
          "name": "",
          "type": "uint256"
        },
        {
          "internalType": "uint256",
          "name": "",
          "type": "uint256"
        },
        {
          "internalType": "uint256",
          "name": "",
          "type": "uint256"
        },
        {
          "internalType": "uint256",
          "name": "",
          "type": "uint256"
        },
        {
          "internalType": "uint256",
          "name": "",
          "type": "uint256"
        }
      ],
      "stateMutability": "view",
      "type": "function"
    },
    {
      "inputs": [
        {
          "internalType": "address",
          "name": "_account",
          "type": "address"
        }
      ],
      "name": "getOrganizationByAddress",
      "outputs": [
        {
          "internalType": "uint256",
          "name": "",
          "type": "uint256"
        },
        {
          "internalType": "string",
          "name": "",
          "type": "string"
        },
        {
          "internalType": "address",
          "name": "",
          "type": "address"
        },
        {
          "internalType": "uint256",
          "name": "",
          "type": "uint256"
        },
        {
          "internalType": "uint256",
          "name": "",
          "type": "uint256"
        }
      ],
      "stateMutability": "view",
      "type": "function"
    },
    {
      "inputs": [
        {
          "internalType": "uint256",
          "name": "_id",
          "type": "uint256"
        }
      ],
      "name": "getOrganizationById",
      "outputs": [
        {
          "internalType": "uint256",
          "name": "",
          "type": "uint256"
        },
        {
          "internalType": "string",
          "name": "",
          "type": "string"
        },
        {
          "internalType": "address",
          "name": "",
          "type": "address"
        },
        {
          "internalType": "uint256",
          "name": "",
          "type": "uint256"
        },
        {
          "internalType": "uint256",
          "name": "",
          "type": "uint256"
        }
      ],
      "stateMutability": "view",
      "type": "function"
    },
    {
      "inputs": [
        {
          "internalType": "address",
          "name": "account",
          "type": "address"
        }
      ],
      "name": "getOrganizationIdByAddress",
      "outputs": [
        {
          "internalType": "uint256",
          "name": "",
          "type": "uint256"
        }
      ],
      "stateMutability": "view",
      "type": "function"
    },
    {
      "inputs": [],
      "name": "getOrganizations",
      "outputs": [
        {
          "internalType": "uint256[]",
          "name": "",
          "type": "uint256[]"
        },
        {
          "internalType": "string[]",
          "name": "",
          "type": "string[]"
        },
        {
          "internalType": "address[]",
          "name": "",
          "type": "address[]"
        },
        {
          "internalType": "uint256[]",
          "name": "",
          "type": "uint256[]"
        },
        {
          "internalType": "uint256[]",
          "name": "",
          "type": "uint256[]"
        }
      ],
      "stateMutability": "view",
      "type": "function"
    },
    {
      "inputs": [
        {
          "internalType": "uint256",
          "name": "applicationId",
          "type": "uint256"
        },
        {
          "internalType": "uint256",
          "name": "postAccomplishmentId",
          "type": "uint256"
        }
      ],
      "name": "getPostAccomplishment",
      "outputs": [
        {
          "components": [
            {
              "internalType": "uint256",
              "name": "id",
              "type": "uint256"
            },
            {
              "internalType": "uint256",
              "name": "requirementId",
              "type": "uint256"
            },
            {
              "internalType": "uint256",
              "name": "accomplishDate",
              "type": "uint256"
            },
            {
              "internalType": "uint256",
              "name": "accomplishCategory",
              "type": "uint256"
            },
            {
              "internalType": "string",
              "name": "accomplishValue",
              "type": "string"
            }
          ],
          "internalType": "struct AkasifyCoreContract.Accomplishment",
          "name": "_accomplishment",
          "type": "tuple"
        }
      ],
      "stateMutability": "view",
      "type": "function"
    },
    {
      "inputs": [
        {
          "internalType": "uint256",
          "name": "applicationId",
          "type": "uint256"
        }
      ],
      "name": "getPostAccomplishments",
      "outputs": [
        {
          "internalType": "uint256[]",
          "name": "",
          "type": "uint256[]"
        },
        {
          "internalType": "uint256[]",
          "name": "",
          "type": "uint256[]"
        },
        {
          "internalType": "uint256[]",
          "name": "",
          "type": "uint256[]"
        },
        {
          "internalType": "uint256[]",
          "name": "",
          "type": "uint256[]"
        },
        {
          "internalType": "string[]",
          "name": "",
          "type": "string[]"
        }
      ],
      "stateMutability": "view",
      "type": "function"
    },
    {
      "inputs": [
        {
          "internalType": "uint256",
          "name": "opportunityId",
          "type": "uint256"
        }
      ],
      "name": "getPostRequirementsByOpportunityId",
      "outputs": [
        {
          "internalType": "uint256[]",
          "name": "",
          "type": "uint256[]"
        },
        {
          "internalType": "uint256[]",
          "name": "",
          "type": "uint256[]"
        },
        {
          "internalType": "uint256[]",
          "name": "",
          "type": "uint256[]"
        },
        {
          "internalType": "string[]",
          "name": "",
          "type": "string[]"
        }
      ],
      "stateMutability": "view",
      "type": "function"
    },
    {
      "inputs": [
        {
          "internalType": "uint256",
          "name": "applicationId",
          "type": "uint256"
        },
        {
          "internalType": "uint256",
          "name": "preAccomplishmentId",
          "type": "uint256"
        }
      ],
      "name": "getPreAccomplishment",
      "outputs": [
        {
          "components": [
            {
              "internalType": "uint256",
              "name": "id",
              "type": "uint256"
            },
            {
              "internalType": "uint256",
              "name": "requirementId",
              "type": "uint256"
            },
            {
              "internalType": "uint256",
              "name": "accomplishDate",
              "type": "uint256"
            },
            {
              "internalType": "uint256",
              "name": "accomplishCategory",
              "type": "uint256"
            },
            {
              "internalType": "string",
              "name": "accomplishValue",
              "type": "string"
            }
          ],
          "internalType": "struct AkasifyCoreContract.Accomplishment",
          "name": "_accomplishment",
          "type": "tuple"
        }
      ],
      "stateMutability": "view",
      "type": "function"
    },
    {
      "inputs": [
        {
          "internalType": "uint256",
          "name": "applicationId",
          "type": "uint256"
        }
      ],
      "name": "getPreAccomplishmentsByApplicationId",
      "outputs": [
        {
          "internalType": "uint256[]",
          "name": "",
          "type": "uint256[]"
        },
        {
          "internalType": "uint256[]",
          "name": "",
          "type": "uint256[]"
        },
        {
          "internalType": "uint256[]",
          "name": "",
          "type": "uint256[]"
        },
        {
          "internalType": "uint256[]",
          "name": "",
          "type": "uint256[]"
        },
        {
          "internalType": "string[]",
          "name": "",
          "type": "string[]"
        }
      ],
      "stateMutability": "view",
      "type": "function"
    },
    {
      "inputs": [
        {
          "internalType": "uint256",
          "name": "opportunityId",
          "type": "uint256"
        }
      ],
      "name": "getPreRequirementsByOpportunityId",
      "outputs": [
        {
          "internalType": "uint256[]",
          "name": "",
          "type": "uint256[]"
        },
        {
          "internalType": "uint256[]",
          "name": "",
          "type": "uint256[]"
        },
        {
          "internalType": "uint256[]",
          "name": "",
          "type": "uint256[]"
        },
        {
          "internalType": "string[]",
          "name": "",
          "type": "string[]"
        }
      ],
      "stateMutability": "view",
      "type": "function"
    },
    {
      "inputs": [
        {
          "internalType": "address",
          "name": "account",
          "type": "address"
        }
      ],
      "name": "getRole",
      "outputs": [
        {
          "internalType": "string",
          "name": "",
          "type": "string"
        }
      ],
      "stateMutability": "view",
      "type": "function"
    },
    {
      "inputs": [
        {
          "internalType": "address",
          "name": "account",
          "type": "address"
        }
      ],
      "name": "isActiveBeneficiary",
      "outputs": [
        {
          "internalType": "bool",
          "name": "",
          "type": "bool"
        }
      ],
      "stateMutability": "view",
      "type": "function"
    },
    {
      "inputs": [
        {
          "internalType": "address",
          "name": "account",
          "type": "address"
        }
      ],
      "name": "isBeneficiary",
      "outputs": [
        {
          "internalType": "bool",
          "name": "",
          "type": "bool"
        }
      ],
      "stateMutability": "view",
      "type": "function"
    },
    {
      "inputs": [
        {
          "internalType": "address",
          "name": "account",
          "type": "address"
        }
      ],
      "name": "isOrganization",
      "outputs": [
        {
          "internalType": "bool",
          "name": "",
          "type": "bool"
        }
      ],
      "stateMutability": "view",
      "type": "function"
    },
    {
      "inputs": [],
      "name": "nextApplicationId",
      "outputs": [
        {
          "internalType": "uint256",
          "name": "",
          "type": "uint256"
        }
      ],
      "stateMutability": "view",
      "type": "function"
    },
    {
      "inputs": [],
      "name": "nextBeneficiaryId",
      "outputs": [
        {
          "internalType": "uint256",
          "name": "",
          "type": "uint256"
        }
      ],
      "stateMutability": "view",
      "type": "function"
    },
    {
      "inputs": [],
      "name": "nextOpportunityId",
      "outputs": [
        {
          "internalType": "uint256",
          "name": "",
          "type": "uint256"
        }
      ],
      "stateMutability": "view",
      "type": "function"
    },
    {
      "inputs": [],
      "name": "nextOrganizationId",
      "outputs": [
        {
          "internalType": "uint256",
          "name": "",
          "type": "uint256"
        }
      ],
      "stateMutability": "view",
      "type": "function"
    },
    {
      "inputs": [
        {
          "internalType": "uint256",
          "name": "",
          "type": "uint256"
        }
      ],
      "name": "opportunities",
      "outputs": [
        {
          "internalType": "uint256",
          "name": "id",
          "type": "uint256"
        },
        {
          "internalType": "uint256",
          "name": "organizationId",
          "type": "uint256"
        },
        {
          "internalType": "string",
          "name": "name",
          "type": "string"
        },
        {
          "internalType": "string",
          "name": "description",
          "type": "string"
        },
        {
          "internalType": "uint256",
          "name": "preRequirementsDeadline",
          "type": "uint256"
        },
        {
          "internalType": "uint256",
          "name": "postRequirementsDeadline",
          "type": "uint256"
        },
        {
          "internalType": "uint256",
          "name": "creationDate",
          "type": "uint256"
        },
        {
          "internalType": "uint256",
          "name": "lastUpdate",
          "type": "uint256"
        },
        {
          "internalType": "uint256",
          "name": "status",
          "type": "uint256"
        },
        {
          "internalType": "uint256",
          "name": "nextPreRequirementId",
          "type": "uint256"
        },
        {
          "internalType": "uint256",
          "name": "nextPostRequirementId",
          "type": "uint256"
        }
      ],
      "stateMutability": "view",
      "type": "function"
    },
    {
      "inputs": [],
      "name": "registerBeneficiary",
      "outputs": [],
      "stateMutability": "nonpayable",
      "type": "function"
    },
    {
      "inputs": [
        {
          "internalType": "address payable",
          "name": "account",
          "type": "address"
        },
        {
          "internalType": "uint256",
          "name": "status",
          "type": "uint256"
        }
      ],
      "name": "registerBeneficiaryByAdmin",
      "outputs": [],
      "stateMutability": "nonpayable",
      "type": "function"
    },
    {
      "inputs": [
        {
          "internalType": "string",
          "name": "name",
          "type": "string"
        },
        {
          "internalType": "address payable",
          "name": "account",
          "type": "address"
        },
        {
          "internalType": "uint256",
          "name": "status",
          "type": "uint256"
        }
      ],
      "name": "registerOrganizationByAdmin",
      "outputs": [
        {
          "internalType": "uint256",
          "name": "",
          "type": "uint256"
        }
      ],
      "stateMutability": "nonpayable",
      "type": "function"
    },
    {
      "inputs": [
        {
          "internalType": "uint256",
          "name": "applicationId",
          "type": "uint256"
        },
        {
          "internalType": "uint256",
          "name": "status",
          "type": "uint256"
        }
      ],
      "name": "updateApplicationStatus",
      "outputs": [],
      "stateMutability": "nonpayable",
      "type": "function"
    },
    {
      "inputs": [
        {
          "internalType": "uint256",
          "name": "opportunityId",
          "type": "uint256"
        },
        {
          "internalType": "uint256",
          "name": "status",
          "type": "uint256"
        }
      ],
      "name": "updateOpportunityStatus",
      "outputs": [],
      "stateMutability": "nonpayable",
      "type": "function"
    }
  ],
  "bytecode": "0x60806040523480156200001157600080fd5b50604051620055803803806200558083398101604081905262000034916200005a565b600880546001600160a01b0319166001600160a01b03929092169190911790556200008a565b6000602082840312156200006c578081fd5b81516001600160a01b038116811462000083578182fd5b9392505050565b6154e6806200009a6000396000f3fe608060405234801561001057600080fd5b50600436106102485760003560e01c8063957abe0b1161013b578063c821b4fb116100b8578063df19ce4d1161007c578063df19ce4d1461058b578063dfefadff1461059e578063eadd2f61146105c7578063f851a440146105da578063fcfb8bb2146105ef57610248565b8063c821b4fb14610537578063cbdbc9a61461054a578063cfd664d61461055d578063d11f3c4714610570578063d2830de31461058357610248565b8063aa0a57ab116100ff578063aa0a57ab146104a9578063acaf764d146104cc578063acd6c98f146104df578063aed35ccc14610509578063b1ce8eab1461052457610248565b8063957abe0b1461043057806395c32445146104505780639754a3a81461045857806398077031146104715780639d19b2261461049657610248565b80635825271a116101c957806371e0e09e1161018d57806371e0e09e146103b85780637a47523b146103cb578063857bbd28146103f25780638c4be5eb14610405578063913b722c1461041857610248565b80635825271a14610364578063625338cb14610377578063635c54551461037f5780636e46cc4e14610392578063706f48b1146103a557610248565b8063442767331161021057806344276733146102d75780634854e204146102f75780634bcaaa011461031b5780634f4e45341461033e5780635080d5fb1461035157610248565b80631283ca701461024d57806327f9e105146102625780632832163f1461028b578063292719d3146102af5780633859305e146102cf575b600080fd5b61026061025b366004614482565b6105f7565b005b610275610270366004614292565b6107c8565b604051610282919061492c565b60405180910390f35b61029e610299366004614292565b61082f565b604051610282959493929190615274565b6102c26102bd366004614292565b6109d2565b6040516102829190615247565b6102c2610a20565b6102ea6102e5366004614292565b610a26565b6040516102829190614937565b61030a610305366004614482565b610afc565b6040516102829594939291906148ce565b61032e610329366004614482565b610e4a565b6040516102829493929190614882565b61026061034c3660046144c9565b61112a565b6102c261035f366004614292565b6113d8565b610260610372366004614337565b611444565b6102c261186a565b61029e61038d366004614482565b611870565b6102c26103a0366004614292565b6119a3565b6102606103b33660046144c9565b611a11565b6102606103c63660046142b5565b611c10565b6103de6103d9366004614482565b611ce7565b6040516102829897969594939291906152b3565b61026061040036600461452e565b611e76565b61032e610413366004614482565b611f78565b610420612244565b604051610282949392919061472c565b61044361043e36600461450d565b61245f565b60405161028291906151fc565b610260612579565b610460612679565b604051610282959493929190614783565b61048461047f36600461449a565b6129b5565b604051610282969594939291906153da565b6102756104a4366004614292565b612d1f565b6104bc6104b7366004614482565b612d60565b6040516102829493929190615250565b61030a6104da366004614482565b612dc4565b6104f26104ed366004614482565b6130fe565b6040516102829b9a9998979695949392919061534f565b610511613261565b60405161028297969594939291906147ee565b610275610532366004614292565b61373e565b61044361054536600461450d565b61379d565b6104bc610558366004614292565b6137ca565b61026061056b36600461450d565b613874565b61026061057e36600461452e565b613ab0565b6102c2613bb2565b6102c26105993660046142e0565b613bb8565b6105b16105ac366004614482565b613c90565b6040516102829a99989796959493929190615402565b6102606105d536600461450d565b613ce4565b6105e2613fbb565b6040516102829190614718565b6102c2613fca565b6000818152600460205260409020600801546002146106315760405162461bcd60e51b81526004016106289061505d565b60405180910390fd5b6007546000818152600660205260409020908155600101819055610654336109d2565b600580546000908152600660208190526040808320600201949094556007805483528483206003018390558054835284832060040183905580548352848320909301829055825482528382200181905581548152828120429083018190558254825283822060080155905481522060016009909101556106d2613fd0565b600080825260208083018281524260408086019182526001606087018181528251808701845287815260808901908152600754885260068752928720600a01805480840182559088529686902088516005909802019687559351908601559051600285015590516003840155518051849392610755926004850192910190613fff565b505060078054600090815260066020526040808220600501805460019081019091559254808352918190209092015491517ff0ecfc9d01e072b344ab803487dff20893bdb9f671d08bd9e260d0f8b5fae84d93506107b39290615341565b60405180910390a15050600780546001019055565b600080805b600154811015610826576000818152602081905260409020600101546001600160a01b03858116911614801561081457506000818152602081905260409020600390810154145b1561081e57600191505b6001016107cd565b5090505b919050565b60006060818080805b6003548110156109ab5761084a61407d565b600260008381526020019081526020016000206040518060a001604052908160008201548152602001600182018054600181600116156101000203166002900480601f01602080910402602001604051908101604052809291908181526020018280546001816001161561010002031660029004801561090b5780601f106108e05761010080835404028352916020019161090b565b820191906000526020600020905b8154815290600101906020018083116108ee57829003601f168201915b505050505081526020016002820160009054906101000a90046001600160a01b03166001600160a01b03166001600160a01b03168152602001600382015481526020016004820154815250509050876001600160a01b031681604001516001600160a01b031614156109a2578051602082015160408301516060840151608090940151929950909750955090935091506109c99050565b50600101610838565b50506040805160208101909152600080825294509250839150819050805b91939590929450565b600080805b600154811015610826576000818152602081905260409020600101546001600160a01b0385811691161415610a185760008181526020819052604090205491505b6001016109d7565b60015481565b6008546060906001600160a01b0383811691161415610a61575060408051808201909152600581526430b236b4b760d91b602082015261082a565b610a6a8261373e565b151560011415610a9d575060408051808201909152600c81526b37b933b0b734bd30ba34b7b760a11b602082015261082a565b610aa682612d1f565b151560011415610ad8575060408051808201909152600b81526a62656e656669636961727960a81b602082015261082a565b506040805180820190915260078152663b34b9b4ba37b960c91b602082015261082a565b60608060608060606000600660008881526020019081526020016000209050606081600401546001600160401b0381118015610b3757600080fd5b50604051908082528060200260200182016040528015610b61578160200160208202803683370190505b509050606082600401546001600160401b0381118015610b8057600080fd5b50604051908082528060200260200182016040528015610baa578160200160208202803683370190505b509050606083600401546001600160401b0381118015610bc957600080fd5b50604051908082528060200260200182016040528015610bf3578160200160208202803683370190505b509050606084600401546001600160401b0381118015610c1257600080fd5b50604051908082528060200260200182016040528015610c3c578160200160208202803683370190505b509050606085600401546001600160401b0381118015610c5b57600080fd5b50604051908082528060200260200182016040528015610c8f57816020015b6060815260200190600190039081610c7a5790505b50905060005b8660060154811015610e3657610ca9613fd0565b87600b018281548110610cb857fe5b90600052602060002090600502016040518060a001604052908160008201548152602001600182015481526020016002820154815260200160038201548152602001600482018054600181600116156101000203166002900480601f016020809104026020016040519081016040528092919081815260200182805460018160011615610100020316600290048015610d925780601f10610d6757610100808354040283529160200191610d92565b820191906000526020600020905b815481529060010190602001808311610d7557829003601f168201915b50505050508152505090508060000151878381518110610dae57fe5b6020026020010181815250508060200151868381518110610dcb57fe5b6020026020010181815250508060400151858381518110610de857fe5b6020026020010181815250508060600151848381518110610e0557fe5b6020026020010181815250508060800151838381518110610e2257fe5b602090810291909101015250600101610c95565b50939b929a50909850965090945092505050565b6000818152600460205260409020600a81015460609182918291829182906001600160401b0381118015610e7d57600080fd5b50604051908082528060200260200182016040528015610ea7578160200160208202803683370190505b509050606082600a01546001600160401b0381118015610ec657600080fd5b50604051908082528060200260200182016040528015610ef0578160200160208202803683370190505b509050606083600a01546001600160401b0381118015610f0f57600080fd5b50604051908082528060200260200182016040528015610f39578160200160208202803683370190505b509050606084600a01546001600160401b0381118015610f5857600080fd5b50604051908082528060200260200182016040528015610f8c57816020015b6060815260200190600190039081610f775790505b50905060005b85600a015481101561111657610fa6613fd0565b86600c018281548110610fb557fe5b90600052602060002090600502016040518060a001604052908160008201548152602001600182015481526020016002820154815260200160038201548152602001600482018054600181600116156101000203166002900480601f01602080910402602001604051908101604052809291908181526020018280546001816001161561010002031660029004801561108f5780601f106110645761010080835404028352916020019161108f565b820191906000526020600020905b81548152906001019060200180831161107257829003601f168201915b505050505081525050905080600001518683815181106110ab57fe5b60200260200101818152505080604001518583815181106110c857fe5b60200260200101818152505080606001518483815181106110e557fe5b602002602001018181525050806080015183838151811061110257fe5b602090810291909101015250600101610f92565b5092975090955093509150505b9193509193565b600061113533612d1f565b9050806111545760405162461bcd60e51b815260040161062890614d55565b6000838152600660205260409020600901546001146111855760405162461bcd60e51b815260040161062890614e13565b6000838152600660208181526040808420815160a081018352600580830154825294845260038083015482860190815242948301948552600260608401818152608085018c8152600a909601805460018181018355918c529a89902086519b909a02909901998a559151978901979097559351958701959095559151938501939093559151805192939261121f9260048501920190613fff565b5050506000838152600660209081526040808320600381015460019182015485526004909352922060090154910110156113635760008381526006602081815260408084206005808201805460019081019182905560038085018054830190819055865160a0810188529384529787528287019788524295830195865260608301828152608084018c8152600a90960180548085018255908b529988902084519a909502909401988955965190880155925160028701555193850193909355915180519293926112f59260048501920190613fff565b5050506000838152600660205260409081902060058101805460018082019092556003830154919092015492517f3bd69d0338add0787747b118da14e4aeba941afe53638eab003a9d359f3214af93611356939260001901918891906153bf565b60405180910390a16113d3565b600083815260066020526040908190206005810154600382015460019092015492517f3bd69d0338add0787747b118da14e4aeba941afe53638eab003a9d359f3214af936113b493918891906153bf565b60405180910390a1600083815260066020526040902060026009909101555b505050565b600080805b60035481101561082657600081815260026020819052604090912001546001600160a01b03858116911614801561142557506000818152600260205260409020600401546003145b1561143c5760008181526002602052604090205491505b6001016113dd565b600061144f3361373e565b90508061146e5760405162461bcd60e51b815260040161062890614a97565b60008b511161148f5760405162461bcd60e51b815260040161062890614cb6565b60008a51116114b05760405162461bcd60e51b815260040161062890614e70565b855187511480156114c2575084518651145b6114de5760405162461bcd60e51b815260040161062890614c59565b825184511480156114f0575081518351145b61150c5760405162461bcd60e51b815260040161062890614d7f565b600554600081815260046020526040902055611527336113d8565b6005805460009081526004602090815260408083206001019490945591548152919091208c5161155f926002909201918e0190613fff565b5060055460009081526004602090815260409091208b51611588926003909201918d0190613fff565b50600580546000908152600460208190526040808320426006909101819055845484528184209092018d90558354835280832084018c905583548352808320600701919091559154815290812060016008909101555b87518110156116ed57600554600081815260046020908152604091829020825160a08101845260098201548152918201939093528a51600b9093019290918201908b908590811061162b57fe5b6020026020010151815260200189848151811061164457fe5b6020026020010151815260200188848151811061165d57fe5b602090810291909101810151909152825460018181018555600094855293829020835160059092020190815582820151938101939093556040820151600284015560608201516003840155608082015180519293926116c29260048501920190613fff565b50506005546000908152600460205260409020600901805460019081019091559190910190506115de565b5060005b845181101561180057600554600081815260046020908152604091829020825160a081018452600a8201548152918201939093528751600c90930192909182019088908590811061173e57fe5b6020026020010151815260200186848151811061175757fe5b6020026020010151815260200185848151811061177057fe5b602090810291909101810151909152825460018181018555600094855293829020835160059092020190815582820151938101939093556040820151600284015560608201516003840155608082015180519293926117d59260048501920190613fff565b50506005546000908152600460205260409020600a01805460019081019091559190910190506116f1565b506005546000818152600460205260409081902090517f217f6f8566b5368c91631b32159051c0f0fc3ed5c77908901e6a2ef3f7df83599261184c92909160028201916003019061530c565b60405180910390a15050600580546001019055505050505050505050565b60075481565b60006060600080600061188161407d565b600260008881526020019081526020016000206040518060a001604052908160008201548152602001600182018054600181600116156101000203166002900480601f0160208091040260200160405190810160405280929190818152602001828054600181600116156101000203166002900480156119425780601f1061191757610100808354040283529160200191611942565b820191906000526020600020905b81548152906001019060200180831161192557829003601f168201915b505050918352505060028201546001600160a01b031660208083019190915260038301546040808401919091526004909301546060928301528351908401519284015191840151608090940151909b929a5090985091965090945092505050565b600080805b600154811015610826576000818152602081905260409020600101546001600160a01b0385811691161480156119ef57506000818152602081905260409020600390810154145b15611a095760008181526020819052604090206003015491505b6001016119a8565b6000611a1c33612d1f565b905080611a3b5760405162461bcd60e51b815260040161062890614d55565b600083815260066020526040902060090154600514611a6c5760405162461bcd60e51b815260040161062890614b1f565b6000838152600660208181526040808420815160a08101835281850154815293835260048082015485850190815242938601938452600260608701818152608088018b8152600b909501805460018181018355918b529988902089516005909b0201998a5592519289019290925593519387019390935591516003860155518051939493611b0293928501929190910190613fff565b5050506000838152600660209081526040808320600480820154600192830154865293529220600a015491011015611bf7576000838152600660208181526040808420808401805460019081019182905560048084018054830190819055855160a0810187529384529686528286019687524294830194855260608301828152608084018b8152600b90950180548085018255908a529887902084516005909a02019889559651918801919091559251600287015593516003860155518051939493611bd693928501929190910190613fff565b505050600083815260066020819052604090912001805460010190556113d3565b5050600090815260066020819052604090912060090155565b6008546001600160a01b03163314611c3a5760405162461bcd60e51b815260040161062890614c35565b60408051608081018252600180548083526001600160a01b03868116602080860191825242868801908152606087018981526000958652918590529387902095518655905185850180546001600160a01b03191691909316179091559051600284015551600390920191909155805481019055517f67bf623e5c0c95725ab7b0d181e969032a96122e243710f76311bae55f89df7190611cdb908490614718565b60405180910390a15050565b6000606080600080600080600080600460008b815260200190815260200160002090508060010154816002018260030183600401548460050154856006015486600701548760080154868054600181600116156101000203166002900480601f016020809104026020016040519081016040528092919081815260200182805460018160011615610100020316600290048015611dc55780601f10611d9a57610100808354040283529160200191611dc5565b820191906000526020600020905b815481529060010190602001808311611da857829003601f168201915b5050895460408051602060026001851615610100026000190190941693909304601f8101849004840282018401909252818152959c508b945092508401905082828015611e535780601f10611e2857610100808354040283529160200191611e53565b820191906000526020600020905b815481529060010190602001808311611e3657829003601f168201915b505050505095509850985098509850985098509850985050919395975091939597565b6000611e813361373e565b905080611ea05760405162461bcd60e51b815260040161062890614a97565b600085815260046020526040902060080154600114611ed15760405162461bcd60e51b815260040161062890614e9e565b6000858152600460208181526040808420815160a081018352600a82015481528084018b81529281018a8152606082018a8152608083018a8152600c909401805460018181018355918a529887902084516005909a020198895594519488019490945551600287015591516003860155518051919493611f579390850192910190613fff565b505050600094855250506004602052505060409020600a0180546001019055565b6000818152600460205260409020600981015460609182918291829182906001600160401b0381118015611fab57600080fd5b50604051908082528060200260200182016040528015611fd5578160200160208202803683370190505b509050606082600901546001600160401b0381118015611ff457600080fd5b5060405190808252806020026020018201604052801561201e578160200160208202803683370190505b509050606083600901546001600160401b038111801561203d57600080fd5b50604051908082528060200260200182016040528015612067578160200160208202803683370190505b509050606084600901546001600160401b038111801561208657600080fd5b506040519080825280602002602001820160405280156120ba57816020015b60608152602001906001900390816120a55790505b50905060005b8560090154811015611116576120d4613fd0565b86600b0182815481106120e357fe5b90600052602060002090600502016040518060a001604052908160008201548152602001600182015481526020016002820154815260200160038201548152602001600482018054600181600116156101000203166002900480601f0160208091040260200160405190810160405280929190818152602001828054600181600116156101000203166002900480156121bd5780601f10612192576101008083540402835291602001916121bd565b820191906000526020600020905b8154815290600101906020018083116121a057829003601f168201915b505050505081525050905080600001518683815181106121d957fe5b60200260200101818152505080604001518583815181106121f657fe5b602002602001018181525050806060015184838151811061221357fe5b602002602001018181525050806080015183838151811061223057fe5b6020908102919091010152506001016120c0565b60608060608060606001546001600160401b038111801561226457600080fd5b5060405190808252806020026020018201604052801561228e578160200160208202803683370190505b50905060606001546001600160401b03811180156122ab57600080fd5b506040519080825280602002602001820160405280156122d5578160200160208202803683370190505b50905060606001546001600160401b03811180156122f257600080fd5b5060405190808252806020026020018201604052801561231c578160200160208202803683370190505b50905060606001546001600160401b038111801561233957600080fd5b50604051908082528060200260200182016040528015612363578160200160208202803683370190505b50905060005b6001548110156124505761237b6140b5565b50600081815260208181526040918290208251608081018452815480825260018301546001600160a01b03169382019390935260028201549381019390935260030154606083015286518790849081106123d157fe5b60200260200101818152505080602001518583815181106123ee57fe5b60200260200101906001600160a01b031690816001600160a01b031681525050806040015184838151811061241f57fe5b602002602001018181525050806060015183838151811061243c57fe5b602090810291909101015250600101612369565b50929791965094509092509050565b612467613fd0565b61246f613fd0565b6000848152600660205260409020600b0180548490811061248c57fe5b90600052602060002090600502016040518060a001604052908160008201548152602001600182015481526020016002820154815260200160038201548152602001600482018054600181600116156101000203166002900480601f0160208091040260200160405190810160405280929190818152602001828054600181600116156101000203166002900480156125665780601f1061253b57610100808354040283529160200191612566565b820191906000526020600020905b81548152906001019060200180831161254957829003601f168201915b5050509190925250919695505050505050565b6008546001600160a01b03163314156125a45760405162461bcd60e51b8152600401610628906150a2565b60006125af3361373e565b905080156125cf5760405162461bcd60e51b815260040161062890614fb5565b6040805160808101825260018054808352336020808501828152428688019081526003606088018181526000968752938690529488902096518755905186860180546001600160a01b0319166001600160a01b0390921691909117905551600286015551939091019290925580548101905590517f67bf623e5c0c95725ab7b0d181e969032a96122e243710f76311bae55f89df719161266e91614718565b60405180910390a150565b6060806060806060806003546001600160401b038111801561269a57600080fd5b506040519080825280602002602001820160405280156126c4578160200160208202803683370190505b50905060606003546001600160401b03811180156126e157600080fd5b5060405190808252806020026020018201604052801561271557816020015b60608152602001906001900390816127005790505b50905060606003546001600160401b038111801561273257600080fd5b5060405190808252806020026020018201604052801561275c578160200160208202803683370190505b50905060606003546001600160401b038111801561277957600080fd5b506040519080825280602002602001820160405280156127a3578160200160208202803683370190505b50905060606003546001600160401b03811180156127c057600080fd5b506040519080825280602002602001820160405280156127ea578160200160208202803683370190505b50905060005b6003548110156129a35761280261407d565b600260008381526020019081526020016000206040518060a001604052908160008201548152602001600182018054600181600116156101000203166002900480601f0160208091040260200160405190810160405280929190818152602001828054600181600116156101000203166002900480156128c35780601f10612898576101008083540402835291602001916128c3565b820191906000526020600020905b8154815290600101906020018083116128a657829003601f168201915b505050918352505060028201546001600160a01b0316602082015260038201546040820152600490910154606090910152805188519192509088908490811061290857fe5b602002602001018181525050806020015186838151811061292557fe5b6020026020010181905250806040015185838151811061294157fe5b60200260200101906001600160a01b031690816001600160a01b031681525050806060015184838151811061297257fe5b602002602001018181525050806080015183838151811061298f57fe5b6020908102919091010152506001016127f0565b50939992985090965094509092509050565b60008060008060008060006129c9886109d2565b90506129d36140e6565b60005b600754811015612cea576000818152600660205260409020600101548b148015612a10575060008181526006602052604090206002015483145b15612ce2576000818152600660208181526040808420815161018081018352815481526001820154818501526002820154818401526003820154606082015260048201546080820152600582015460a08201529381015460c0850152600781015460e085015260088101546101008501526009810154610120850152600a81018054835181860281018601909452808452949591946101408701949192909184015b82821015612bae57838290600052602060002090600502016040518060a001604052908160008201548152602001600182015481526020016002820154815260200160038201548152602001600482018054600181600116156101000203166002900480601f016020809104026020016040519081016040528092919081815260200182805460018160011615610100020316600290048015612b965780601f10612b6b57610100808354040283529160200191612b96565b820191906000526020600020905b815481529060010190602001808311612b7957829003601f168201915b50505050508152505081526020019060010190612ab2565b505050508152602001600b8201805480602002602001604051908101604052809291908181526020016000905b82821015612cd757838290600052602060002090600502016040518060a001604052908160008201548152602001600182015481526020016002820154815260200160038201548152602001600482018054600181600116156101000203166002900480601f016020809104026020016040519081016040528092919081815260200182805460018160011615610100020316600290048015612cbf5780601f10612c9457610100808354040283529160200191612cbf565b820191906000526020600020905b815481529060010190602001808311612ca257829003601f168201915b50505050508152505081526020019060010190612bdb565b505050508152505091505b6001016129d6565b5080516020820151604083015160e084015161010085015161012090950151939e929d50909b50995091975095509350505050565b600080805b600154811015610826576000818152602081905260409020600101546001600160a01b0385811691161415612d5857600191505b600101612d24565b600080600080612d6e6140b5565b5050506000928352505060208181526040918290208251608081018452815480825260018301546001600160a01b0316938201849052600283015494820185905260039092015460609091018190529093919291565b60608060608060606000600660008881526020019081526020016000209050606081600501546001600160401b0381118015612dff57600080fd5b50604051908082528060200260200182016040528015612e29578160200160208202803683370190505b509050606082600501546001600160401b0381118015612e4857600080fd5b50604051908082528060200260200182016040528015612e72578160200160208202803683370190505b509050606083600501546001600160401b0381118015612e9157600080fd5b50604051908082528060200260200182016040528015612ebb578160200160208202803683370190505b509050606084600501546001600160401b0381118015612eda57600080fd5b50604051908082528060200260200182016040528015612f04578160200160208202803683370190505b509050606085600501546001600160401b0381118015612f2357600080fd5b50604051908082528060200260200182016040528015612f5757816020015b6060815260200190600190039081612f425790505b50905060005b8660050154811015610e3657612f71613fd0565b87600a018281548110612f8057fe5b90600052602060002090600502016040518060a001604052908160008201548152602001600182015481526020016002820154815260200160038201548152602001600482018054600181600116156101000203166002900480601f01602080910402602001604051908101604052809291908181526020018280546001816001161561010002031660029004801561305a5780601f1061302f5761010080835404028352916020019161305a565b820191906000526020600020905b81548152906001019060200180831161303d57829003601f168201915b5050505050815250509050806000015187838151811061307657fe5b602002602001018181525050806020015186838151811061309357fe5b60200260200101818152505080604001518583815181106130b057fe5b60200260200101818152505080606001518483815181106130cd57fe5b60200260200101818152505080608001518383815181106130ea57fe5b602090810291909101015250600101612f5d565b60046020908152600091825260409182902080546001808301546002808501805488519481161561010002600019011691909104601f81018790048702840187019097528683529295909491929183018282801561319d5780601f106131725761010080835404028352916020019161319d565b820191906000526020600020905b81548152906001019060200180831161318057829003601f168201915b5050505060038301805460408051602060026001851615610100026000190190941693909304601f810184900484028201840190925281815294959493509083018282801561322d5780601f106132025761010080835404028352916020019161322d565b820191906000526020600020905b81548152906001019060200180831161321057829003601f168201915b50505050509080600401549080600501549080600601549080600701549080600801549080600901549080600a015490508b565b6060806060806060806060806005546001600160401b038111801561328557600080fd5b506040519080825280602002602001820160405280156132af578160200160208202803683370190505b50905060606005546001600160401b03811180156132cc57600080fd5b5060405190808252806020026020018201604052801561330057816020015b60608152602001906001900390816132eb5790505b50905060606005546001600160401b038111801561331d57600080fd5b5060405190808252806020026020018201604052801561335157816020015b606081526020019060019003908161333c5790505b50905060606005546001600160401b038111801561336e57600080fd5b506040519080825280602002602001820160405280156133a257816020015b606081526020019060019003908161338d5790505b50905060606005546001600160401b03811180156133bf57600080fd5b506040519080825280602002602001820160405280156133e9578160200160208202803683370190505b50905060606005546001600160401b038111801561340657600080fd5b50604051908082528060200260200182016040528015613430578160200160208202803683370190505b50905060606005546001600160401b038111801561344d57600080fd5b50604051908082528060200260200182016040528015613477578160200160208202803683370190505b50905060005b600554811015613727576000818152600460205260409020805489518a90849081106134a557fe5b60200260200101818152505060026000826001015481526020019081526020016000206001018054600181600116156101000203166002900480601f01602080910402602001604051908101604052809291908181526020018280546001816001161561010002031660029004801561355f5780601f106135345761010080835404028352916020019161355f565b820191906000526020600020905b81548152906001019060200180831161354257829003601f168201915b505050505088838151811061357057fe5b60209081029190910181019190915260028281018054604080516001831615610100026000190190921693909304601f8101859004850282018501909352828152929091908301828280156136065780601f106135db57610100808354040283529160200191613606565b820191906000526020600020905b8154815290600101906020018083116135e957829003601f168201915b505050505087838151811061361757fe5b60209081029190910181019190915260038201805460408051601f60026000196101006001871615020190941693909304928301859004850281018501909152818152928301828280156136ac5780601f10613681576101008083540402835291602001916136ac565b820191906000526020600020905b81548152906001019060200180831161368f57829003601f168201915b50505050508683815181106136bd57fe5b602002602001018190525080600401548583815181106136d957fe5b60200260200101818152505080600501548483815181106136f657fe5b602002602001018181525050806008015483838151811061371357fe5b60209081029190910101525060010161347d565b50959d949c50929a50909850965094509092509050565b600080805b60035481101561082657600081815260026020819052604090912001546001600160a01b03858116911614801561378b57506000818152600260205260409020600401546003145b1561379557600191505b600101613743565b6137a5613fd0565b6137ad613fd0565b6000848152600660205260409020600a0180548490811061248c57fe5b6000808080805b600154811015613862576137e36140b5565b506000818152602081815260409182902082516080810184528154815260018201546001600160a01b039081169382018490526002830154948201949094526003909101546060820152918816141561385957805160208201516040830151606090930151919750955090935091506111239050565b506001016137d1565b50600095869550859450849350915050565b600061387f3361373e565b9050600061388c33612d1f565b905081806138975750805b6138b35760405162461bcd60e51b815260040161062890614ddc565b60008481526006602052604090206009015480158015906138d5575060078111155b6138f15760405162461bcd60e51b815260040161062890614a03565b836002141561393f578060011461391a5760405162461bcd60e51b815260040161062890614b7c565b61392333612d1f565b61393f5760405162461bcd60e51b815260040161062890614ac2565b836003148061394e5750836004145b1561399857806002146139735760405162461bcd60e51b815260040161062890614cdd565b61397c3361373e565b6139985760405162461bcd60e51b815260040161062890615141565b83600514156139f15780600314806139b05750806004145b6139cc5760405162461bcd60e51b8152600401610628906150c5565b6139d53361373e565b6139f15760405162461bcd60e51b815260040161062890615141565b8360061415613a3f5780600514613a1a5760405162461bcd60e51b815260040161062890614f3a565b613a2333612d1f565b613a3f5760405162461bcd60e51b815260040161062890614ac2565b8360071480613a4e5750836008145b15613a985780600614613a735760405162461bcd60e51b81526004016106289061519e565b613a7c3361373e565b613a985760405162461bcd60e51b815260040161062890615141565b50505060009182526006602052604090912060090155565b6000613abb3361373e565b905080613ada5760405162461bcd60e51b815260040161062890614a97565b600085815260046020526040902060080154600114613b0b5760405162461bcd60e51b815260040161062890614e9e565b6000858152600460208181526040808420815160a081018352600982015481528084018b81529281018a8152606082018a8152608083018a8152600b909401805460018181018355918a529887902084516005909a020198895594519488019490945551600287015591516003860155518051919493613b919390850192910190613fff565b50505060009485525050600460205250506040902060090180546001019055565b60035481565b6008546000906001600160a01b03163314613be55760405162461bcd60e51b815260040161062890614c35565b6003546040805160a08101825282815260208082018881526001600160a01b0388168385015242606084015260808301879052600085815260028352939093208251815592518051929392613c409260018501920190613fff565b5060408201516002820180546001600160a01b0319166001600160a01b03909216919091179055606082015160038083019190915560809092015160049091015580546001019055949350505050565b6006602052806000526040600020600091509050806000015490806001015490806002015490806003015490806004015490806005015490806006015490806007015490806008015490806009015490508a565b6000613cef3361373e565b905080613d0e5760405162461bcd60e51b815260040161062890614a97565b600082118015613d1f575060078211155b613d3b5760405162461bcd60e51b815260040161062890614fdf565b8160021415613d7557600083815260046020526040902060080154600114613d755760405162461bcd60e51b815260040161062890615016565b8160031415613daf57600083815260046020526040902060080154600214613daf5760405162461bcd60e51b815260040161062890614bf2565b8160041415613de957600083815260046020526040902060080154600314613de95760405162461bcd60e51b815260040161062890614a3a565b8160051415613e245760008381526004602081905260409091206008015414613e245760405162461bcd60e51b815260040161062890614997565b8160061415613f6557600083815260046020526040902060080154600514613e5e5760405162461bcd60e51b81526004016106289061494a565b60005b600754811015613f6357600081815260066020526040902060010154841415613f5b5760008181526006602052604090206009015460031415613f5b5760008181526006602052604090206005600990910155613ebc613fd0565b60008082526020808301828152426040808601918252600160608701818152825180870184528781526080890190815289885260068752928720600b01805480840182559088529686902088516005909802019687559351908601559051600285015590516003840155518051849392613f3d926004850192910190613fff565b50505060008281526006602081905260409091200180546001019055505b600101613e61565b505b8160071415613f9f57600083815260046020526040902060080154600614613f9f5760405162461bcd60e51b815260040161062890614ed3565b5060009182526004602052604090912042600782015560080155565b6008546001600160a01b031681565b60055481565b6040518060a0016040528060008152602001600081526020016000815260200160008152602001606081525090565b828054600181600116156101000203166002900490600052602060002090601f016020900481019282601f1061404057805160ff191683800117855561406d565b8280016001018555821561406d579182015b8281111561406d578251825591602001919060010190614052565b50614079929150614147565b5090565b6040518060a00160405280600081526020016060815260200160006001600160a01b0316815260200160008152602001600081525090565b60405180608001604052806000815260200160006001600160a01b0316815260200160008152602001600081525090565b6040518061018001604052806000815260200160008152602001600081526020016000815260200160008152602001600081526020016000815260200160008152602001600081526020016000815260200160608152602001606081525090565b61416191905b80821115614079576000815560010161414d565b90565b600082601f830112614174578081fd5b81356141876141828261546d565b615447565b818152915060208083019084810160005b848110156141c1576141af888484358a010161422a565b84529282019290820190600101614198565b505050505092915050565b600082601f8301126141dc578081fd5b81356141ea6141828261546d565b81815291506020808301908481018184028601820187101561420b57600080fd5b60005b848110156141c15781358452928201929082019060010161420e565b600082601f83011261423a578081fd5b81356001600160401b0381111561424f578182fd5b614262601f8201601f1916602001615447565b915080825283602082850101111561427957600080fd5b8060208401602084013760009082016020015292915050565b6000602082840312156142a3578081fd5b81356142ae81615498565b9392505050565b600080604083850312156142c7578081fd5b82356142d281615498565b946020939093013593505050565b6000806000606084860312156142f4578081fd5b83356001600160401b03811115614309578182fd5b6143158682870161422a565b935050602084013561432681615498565b929592945050506040919091013590565b6000806000806000806000806000806101408b8d031215614356578586fd5b8a356001600160401b038082111561436c578788fd5b6143788e838f0161422a565b9b5060208d013591508082111561438d578788fd5b6143998e838f0161422a565b9a5060408d0135995060608d0135985060808d01359150808211156143bc578788fd5b6143c88e838f016141cc565b975060a08d01359150808211156143dd578687fd5b6143e98e838f016141cc565b965060c08d01359150808211156143fe578586fd5b61440a8e838f01614164565b955060e08d013591508082111561441f578485fd5b61442b8e838f016141cc565b94506101008d0135915080821115614441578384fd5b61444d8e838f016141cc565b93506101208d0135915080821115614463578283fd5b506144708d828e01614164565b9150509295989b9194979a5092959850565b600060208284031215614493578081fd5b5035919050565b600080604083850312156144ac578182fd5b8235915060208301356144be81615498565b809150509250929050565b600080604083850312156144db578182fd5b8235915060208301356001600160401b038111156144f7578182fd5b6145038582860161422a565b9150509250929050565b6000806040838503121561451f578182fd5b50508035926020909101359150565b60008060008060808587031215614543578384fd5b84359350602085013592506040850135915060608501356001600160401b0381111561456d578182fd5b6145798782880161422a565b91505092959194509250565b6000815180845260208085019450808401835b838110156145bd5781516001600160a01b031687529582019590820190600101614598565b509495945050505050565b6000815180845260208085018081965082840281019150828601855b8581101561460e5782840389526145fc84835161464a565b988501989350908401906001016145e4565b5091979650505050505050565b6000815180845260208085019450808401835b838110156145bd5781518752958201959082019060010161462e565b60008151808452815b8181101561466f57602081850181015186830182015201614653565b818111156146805782602083870101525b50601f01601f19169290920160200192915050565b600081546001808216600081146146b357600181146146d15761470f565b60028304607f16865260ff198316602087015260408601935061470f565b600283048087526146e18661548c565b60005b828110156147055781546020828b01015284820191506020810190506146e4565b8801602001955050505b50505092915050565b6001600160a01b0391909116815260200190565b60006080825261473f608083018761461b565b82810360208401526147518187614585565b8381036040850152614763818761461b565b9150508281036060840152614778818561461b565b979650505050505050565b600060a0825261479660a083018861461b565b82810360208401526147a881886145c8565b83810360408501526147ba8188614585565b91505082810360608401526147cf818661461b565b83810360808501526147e1818661461b565b9998505050505050505050565b600060e0825261480160e083018a61461b565b8281036020840152614813818a6145c8565b8381036040850152614825818a6145c8565b915050828103606084015261483a81886145c8565b838103608085015261484c818861461b565b91505082810360a0840152614861818661461b565b83810360c0850152614873818661461b565b9b9a5050505050505050505050565b600060808252614895608083018761461b565b82810360208401526148a7818761461b565b83810360408501526148b9818761461b565b915050828103606084015261477881856145c8565b600060a082526148e160a083018861461b565b82810360208401526148f3818861461b565b8381036040850152614905818861461b565b915050828103606084015261491a818661461b565b83810360808501526147e181866145c8565b901515815260200190565b6000602082526142ae602083018461464a565b6020808252602d908201527f6f70706f7274756e697479206d75737420626520696e20696e6974696174656460408201526c20666f722066696e616c697a6560981b606082015260800190565b60208082526046908201527f6f70706f7274756e697479206d75737420626520696e206170706c696361746960408201527f6f6e732073656c656374656420666f72206f70706f7274756e69747920696e696060820152651d1a585d195960d21b608082015260a00190565b6020808252601c908201527f6170706c69636174696f6e20737461747573206e6f742076616c696400000000604082015260600190565b60208082526037908201527f6f70706f7274756e697479206d75737420626520696e2072657669657720666f60408201527f72206170706c69636174696f6e732073656c6563746564000000000000000000606082015260800190565b60208082526011908201527037b7363c9037b933b0b734bd30ba34b7b760791b604082015260600190565b60208082526039908201527f6170706c69636174696f6e20737461747573206368616e6765206d757374206260408201527f652065786563757465642062792062656e656669636961727900000000000000606082015260800190565b6020808252603a908201527f6170706c69636174696f6e20686173206e6f74207374617274656420746f207260408201527f65636569766520706f73744163636f6d706c6973686d656e7473000000000000606082015260800190565b60208082526050908201527f6170706c69636174696f6e206d757374206265207072654163636f6d706c697360408201527f686d656e7473207374617274656420746f2062652066696e616c697a6520707260608201526f654163636f6d706c6973686d656e747360801b608082015260a00190565b60208082526023908201527f6f70706f7274756e697479206d757374206265206f70656e20666f722072657660408201526269657760e81b606082015260800190565b6020808252600a908201526937b7363c9030b236b4b760b11b604082015260600190565b60208082526037908201527f70726520726571756972656d656e742076616c756573206e756d626572206d7560408201527f73742068617665207468652073616d65206c656e677468000000000000000000606082015260800190565b6020808252600d908201526c6e616d6520697320656d70747960981b604082015260600190565b60208082526052908201527f6170706c69636174696f6e206d757374206265207072654163636f6d706c697360408201527f686d656e74732066696e616c697a656420746f206265206569746865722061706060820152711c1c9bdd9959081bdc881c995a9958dd195960721b608082015260a00190565b60208082526010908201526f6f6e6c792062656e656669636961727960801b604082015260600190565b60208082526038908201527f706f737420726571756972656d656e742076616c756573206e756d626572206d60408201527f7573742068617665207468652073616d65206c656e6774680000000000000000606082015260800190565b60208082526018908201527f6f6e6c7920616374697665206f7267616e697a6174696f6e0000000000000000604082015260600190565b60208082526039908201527f6170706c69636174696f6e20686173206e6f74207374617274656420746f207260408201527f656365697665207072654163636f6d706c6973686d656e747300000000000000606082015260800190565b6020808252601490820152736465736372697074696f6e20697320656d70747960601b604082015260600190565b6020808252818101527f6f70706f7274756e697479206973206e6f7420696e206472616674206d6f6465604082015260600190565b60208082526041908201527f6f70706f7274756e697479206d7573742062652066696e616c697a656420666f60408201527f7220636c6f736520706f7374526571756972656d656e7420726563657074696f6060820152603760f91b608082015260a00190565b60208082526055908201527f6170706c69636174696f6e206d7573742068617665207374617274656420726560408201527f63656976696e6720706f73744163636f6d706c6973686d656e747320746f206660608201527434b730b634bd329034ba39903932b1b2b83a34b7b760591b608082015260a00190565b60208082526010908201526f3737ba1037b933b0b734bd30ba34b7b760811b604082015260600190565b6020808252601c908201527f6f70706f7274756e69747920737461747573206e6f742076616c696400000000604082015260600190565b60208082526027908201527f6f70706f7274756e697479206d75737420626520696e20647261667420746f2060408201526631329037b832b760c91b606082015260800190565b60208082526025908201527f6f70706f7274756e697479206e6f74206f70656e20666f72206170706c69636160408201526474696f6e7360d81b606082015260800190565b6020808252600990820152683737ba1030b236b4b760b91b604082015260600190565b60208082526056908201527f6170706c69636174696f6e206d7573742062652065697468657220617070726f60408201527f766564206f722072656a656374656420746f20737461727420726563656976696060820152756e6720706f73744163636f6d706c6973686d656e747360501b608082015260a00190565b6020808252603a908201527f6170706c69636174696f6e20737461747573206368616e6765206d757374206260408201527f65206578656375746564206279206f7267616e697a6174696f6e000000000000606082015260800190565b602080825260409082018190527f6170706c69636174696f6e20706f73744163636f6d706c6973686d656e747320908201527f6d7573742062652066696e616c697a656420746f2066696e616c697a65206974606082015260800190565b60006020825282516020830152602083015160408301526040830151606083015260608301516080830152608083015160a08084015261523f60c084018261464a565b949350505050565b90815260200190565b9384526001600160a01b039290921660208401526040830152606082015260800190565b600086825260a0602083015261528d60a083018761464a565b6001600160a01b0395909516604083015250606081019290925260809091015292915050565b60006101008a83528060208401526152cd8184018b61464a565b83810360408501526152df818b61464a565b6060850199909952505050608081019490945260a084019290925260c083015260e0909101529392505050565b6000848252606060208301526153256060830185614695565b82810360408401526153378185614695565b9695505050505050565b918252602082015260400190565b60006101608d83528c602084015280604084015261536f8184018d61464a565b8381036060850152615381818d61464a565b608085019b909b5250505060a081019690965260c086019490945260e085019290925261010084015261012083015261014090910152949350505050565b93845260208401929092526040830152606082015260800190565b958652602086019490945260408501929092526060840152608083015260a082015260c00190565b998a5260208a019890985260408901969096526060880194909452608087019290925260a086015260c085015260e08401526101008301526101208201526101400190565b6040518181016001600160401b038111828210171561546557600080fd5b604052919050565b60006001600160401b03821115615482578081fd5b5060209081020190565b60009081526020902090565b6001600160a01b03811681146154ad57600080fd5b5056fea264697066735822122070d2c957adced028f057ef2cf078cb944633887d5e7ac1ca6222cfaea28b432664736f6c63430006070033",
  "linkReferences": {},
  "deployedLinkReferences": {}
}