{
  "_format": "hh-sol-artifact-1",
  "contractName": "AkasifyCoreContract",
  "sourceName": "contracts/AkasifyCoreContract.sol",
  "abi": [
    {
      "inputs": [
        {
          "internalType": "address",
          "name": "_admin",
          "type": "address"
        }
      ],
      "stateMutability": "nonpayable",
      "type": "constructor"
    },
    {
      "anonymous": false,
      "inputs": [
        {
          "indexed": false,
          "internalType": "uint256",
          "name": "id",
          "type": "uint256"
        },
        {
          "indexed": false,
          "internalType": "uint256",
          "name": "opportunityId",
          "type": "uint256"
        }
      ],
      "name": "RegisterApplication",
      "type": "event"
    },
    {
      "anonymous": false,
      "inputs": [
        {
          "indexed": false,
          "internalType": "uint256",
          "name": "id",
          "type": "uint256"
        },
        {
          "indexed": false,
          "internalType": "uint256",
          "name": "requirementId",
          "type": "uint256"
        },
        {
          "indexed": false,
          "internalType": "uint256",
          "name": "applicationId",
          "type": "uint256"
        },
        {
          "indexed": false,
          "internalType": "uint256",
          "name": "opportunityId",
          "type": "uint256"
        }
      ],
      "name": "RegisterApplicationPostAccomplishment",
      "type": "event"
    },
    {
      "anonymous": false,
      "inputs": [
        {
          "indexed": false,
          "internalType": "uint256",
          "name": "id",
          "type": "uint256"
        },
        {
          "indexed": false,
          "internalType": "uint256",
          "name": "requirementId",
          "type": "uint256"
        },
        {
          "indexed": false,
          "internalType": "uint256",
          "name": "applicationId",
          "type": "uint256"
        },
        {
          "indexed": false,
          "internalType": "uint256",
          "name": "opportunityId",
          "type": "uint256"
        }
      ],
      "name": "RegisterApplicationPreAccomplishment",
      "type": "event"
    },
    {
      "anonymous": false,
      "inputs": [
        {
          "indexed": false,
          "internalType": "address",
          "name": "account",
          "type": "address"
        }
      ],
      "name": "RegisterBeneficiary",
      "type": "event"
    },
    {
      "anonymous": false,
      "inputs": [
        {
          "indexed": false,
          "internalType": "uint256",
          "name": "id",
          "type": "uint256"
        },
        {
          "indexed": false,
          "internalType": "string",
          "name": "name",
          "type": "string"
        },
        {
          "indexed": false,
          "internalType": "string",
          "name": "description",
          "type": "string"
        }
      ],
      "name": "RegisterOpportunity",
      "type": "event"
    },
    {
      "anonymous": false,
      "inputs": [
        {
          "indexed": false,
          "internalType": "uint256",
          "name": "id",
          "type": "uint256"
        },
        {
          "indexed": false,
          "internalType": "uint256",
          "name": "status",
          "type": "uint256"
        }
      ],
      "name": "UpdateApplicationStatus",
      "type": "event"
    },
    {
      "anonymous": false,
      "inputs": [
        {
          "indexed": false,
          "internalType": "uint256",
          "name": "id",
          "type": "uint256"
        },
        {
          "indexed": false,
          "internalType": "uint256",
          "name": "status",
          "type": "uint256"
        }
      ],
      "name": "UpdateOpportunityStatus",
      "type": "event"
    },
    {
      "inputs": [],
      "name": "admin",
      "outputs": [
        {
          "internalType": "address",
          "name": "",
          "type": "address"
        }
      ],
      "stateMutability": "view",
      "type": "function"
    },
    {
      "inputs": [
        {
          "internalType": "uint256",
          "name": "",
          "type": "uint256"
        }
      ],
      "name": "applications",
      "outputs": [
        {
          "internalType": "uint256",
          "name": "id",
          "type": "uint256"
        },
        {
          "internalType": "uint256",
          "name": "opportunityId",
          "type": "uint256"
        },
        {
          "internalType": "uint256",
          "name": "beneficiaryId",
          "type": "uint256"
        },
        {
          "internalType": "uint256",
          "name": "nextPreRequirementId",
          "type": "uint256"
        },
        {
          "internalType": "uint256",
          "name": "nextPostRequirementId",
          "type": "uint256"
        },
        {
          "internalType": "uint256",
          "name": "nextPreAccomplishmentId",
          "type": "uint256"
        },
        {
          "internalType": "uint256",
          "name": "nextPostAccomplishmentId",
          "type": "uint256"
        },
        {
          "internalType": "uint256",
          "name": "creationDate",
          "type": "uint256"
        },
        {
          "internalType": "uint256",
          "name": "lastUpdate",
          "type": "uint256"
        },
        {
          "internalType": "uint256",
          "name": "status",
          "type": "uint256"
        }
      ],
      "stateMutability": "view",
      "type": "function"
    },
    {
      "inputs": [
        {
          "internalType": "uint256",
          "name": "opportunityId",
          "type": "uint256"
        }
      ],
      "name": "createApplication",
      "outputs": [],
      "stateMutability": "nonpayable",
      "type": "function"
    },
    {
      "inputs": [
        {
          "internalType": "string",
          "name": "name",
          "type": "string"
        },
        {
          "internalType": "string",
          "name": "description",
          "type": "string"
        },
        {
          "internalType": "uint256",
          "name": "preRequirementsDeadline",
          "type": "uint256"
        },
        {
          "internalType": "uint256",
          "name": "postRequirementsDeadline",
          "type": "uint256"
        },
        {
          "internalType": "uint256[]",
          "name": "preRequirementTypes",
          "type": "uint256[]"
        },
        {
          "internalType": "uint256[]",
          "name": "preRequirementValues",
          "type": "uint256[]"
        },
        {
          "internalType": "string[]",
          "name": "preRequirementNames",
          "type": "string[]"
        },
        {
          "internalType": "uint256[]",
          "name": "postRequirementTypes",
          "type": "uint256[]"
        },
        {
          "internalType": "uint256[]",
          "name": "postRequirementValues",
          "type": "uint256[]"
        },
        {
          "internalType": "string[]",
          "name": "postRequirementNames",
          "type": "string[]"
        }
      ],
      "name": "createOpportunity",
      "outputs": [],
      "stateMutability": "nonpayable",
      "type": "function"
    },
    {
      "inputs": [
        {
          "internalType": "uint256",
          "name": "applicationId",
          "type": "uint256"
        },
        {
          "internalType": "string",
          "name": "accomplishmentValue",
          "type": "string"
        }
      ],
      "name": "createPostAccomplishment",
      "outputs": [],
      "stateMutability": "nonpayable",
      "type": "function"
    },
    {
      "inputs": [
        {
          "internalType": "uint256",
          "name": "opportunityId",
          "type": "uint256"
        },
        {
          "internalType": "uint256",
          "name": "requirementType",
          "type": "uint256"
        },
        {
          "internalType": "uint256",
          "name": "transferValue",
          "type": "uint256"
        },
        {
          "internalType": "string",
          "name": "name",
          "type": "string"
        }
      ],
      "name": "createPostRequirement",
      "outputs": [],
      "stateMutability": "nonpayable",
      "type": "function"
    },
    {
      "inputs": [
        {
          "internalType": "uint256",
          "name": "applicationId",
          "type": "uint256"
        },
        {
          "internalType": "string",
          "name": "accomplishmentValue",
          "type": "string"
        }
      ],
      "name": "createPreAccomplishment",
      "outputs": [],
      "stateMutability": "nonpayable",
      "type": "function"
    },
    {
      "inputs": [
        {
          "internalType": "uint256",
          "name": "opportunityId",
          "type": "uint256"
        },
        {
          "internalType": "uint256",
          "name": "requirementType",
          "type": "uint256"
        },
        {
          "internalType": "uint256",
          "name": "transferValue",
          "type": "uint256"
        },
        {
          "internalType": "string",
          "name": "name",
          "type": "string"
        }
      ],
      "name": "createPreRequirement",
      "outputs": [],
      "stateMutability": "nonpayable",
      "type": "function"
    },
    {
      "inputs": [
        {
          "internalType": "uint256",
          "name": "opportunityId",
          "type": "uint256"
        },
        {
          "internalType": "address",
          "name": "beneficiaryAddress",
          "type": "address"
        }
      ],
      "name": "getApplication",
      "outputs": [
        {
          "internalType": "uint256",
          "name": "",
          "type": "uint256"
        },
        {
          "internalType": "uint256",
          "name": "",
          "type": "uint256"
        },
        {
          "internalType": "uint256",
          "name": "",
          "type": "uint256"
        },
        {
          "internalType": "uint256",
          "name": "",
          "type": "uint256"
        },
        {
          "internalType": "uint256",
          "name": "",
          "type": "uint256"
        },
        {
          "internalType": "uint256",
          "name": "",
          "type": "uint256"
        }
      ],
      "stateMutability": "view",
      "type": "function"
    },
    {
      "inputs": [
        {
          "internalType": "uint256",
          "name": "opportunityId",
          "type": "uint256"
        }
      ],
      "name": "getApplicationsByOpportunityId",
      "outputs": [
        {
          "internalType": "uint256[]",
          "name": "",
          "type": "uint256[]"
        },
        {
          "internalType": "uint256[]",
          "name": "",
          "type": "uint256[]"
        },
        {
          "internalType": "uint256[]",
          "name": "",
          "type": "uint256[]"
        },
        {
          "internalType": "uint256[]",
          "name": "",
          "type": "uint256[]"
        },
        {
          "internalType": "uint256[]",
          "name": "",
          "type": "uint256[]"
        }
      ],
      "stateMutability": "view",
      "type": "function"
    },
    {
      "inputs": [],
      "name": "getBeneficiaries",
      "outputs": [
        {
          "internalType": "uint256[]",
          "name": "",
          "type": "uint256[]"
        },
        {
          "internalType": "address[]",
          "name": "",
          "type": "address[]"
        },
        {
          "internalType": "uint256[]",
          "name": "",
          "type": "uint256[]"
        },
        {
          "internalType": "uint256[]",
          "name": "",
          "type": "uint256[]"
        }
      ],
      "stateMutability": "view",
      "type": "function"
    },
    {
      "inputs": [
        {
          "internalType": "address",
          "name": "_account",
          "type": "address"
        }
      ],
      "name": "getBeneficiaryByAddress",
      "outputs": [
        {
          "internalType": "uint256",
          "name": "",
          "type": "uint256"
        },
        {
          "internalType": "address",
          "name": "",
          "type": "address"
        },
        {
          "internalType": "uint256",
          "name": "",
          "type": "uint256"
        },
        {
          "internalType": "uint256",
          "name": "",
          "type": "uint256"
        }
      ],
      "stateMutability": "view",
      "type": "function"
    },
    {
      "inputs": [
        {
          "internalType": "uint256",
          "name": "_id",
          "type": "uint256"
        }
      ],
      "name": "getBeneficiaryById",
      "outputs": [
        {
          "internalType": "uint256",
          "name": "",
          "type": "uint256"
        },
        {
          "internalType": "address",
          "name": "",
          "type": "address"
        },
        {
          "internalType": "uint256",
          "name": "",
          "type": "uint256"
        },
        {
          "internalType": "uint256",
          "name": "",
          "type": "uint256"
        }
      ],
      "stateMutability": "view",
      "type": "function"
    },
    {
      "inputs": [
        {
          "internalType": "address",
          "name": "account",
          "type": "address"
        }
      ],
      "name": "getBeneficiaryIdByAddress",
      "outputs": [
        {
          "internalType": "uint256",
          "name": "",
          "type": "uint256"
        }
      ],
      "stateMutability": "view",
      "type": "function"
    },
    {
      "inputs": [
        {
          "internalType": "address",
          "name": "account",
          "type": "address"
        }
      ],
      "name": "getBeneficiaryStatusByAddress",
      "outputs": [
        {
          "internalType": "uint256",
          "name": "",
          "type": "uint256"
        }
      ],
      "stateMutability": "view",
      "type": "function"
    },
    {
      "inputs": [],
      "name": "getOpportunities",
      "outputs": [
        {
          "internalType": "uint256[]",
          "name": "",
          "type": "uint256[]"
        },
        {
          "internalType": "string[]",
          "name": "",
          "type": "string[]"
        },
        {
          "internalType": "string[]",
          "name": "",
          "type": "string[]"
        },
        {
          "internalType": "string[]",
          "name": "",
          "type": "string[]"
        },
        {
          "internalType": "uint256[]",
          "name": "",
          "type": "uint256[]"
        },
        {
          "internalType": "uint256[]",
          "name": "",
          "type": "uint256[]"
        },
        {
          "internalType": "uint256[]",
          "name": "",
          "type": "uint256[]"
        }
      ],
      "stateMutability": "view",
      "type": "function"
    },
    {
      "inputs": [
        {
          "internalType": "uint256",
          "name": "opportunityId",
          "type": "uint256"
        }
      ],
      "name": "getOpportunityById",
      "outputs": [
        {
          "internalType": "uint256",
          "name": "",
          "type": "uint256"
        },
        {
          "internalType": "string",
          "name": "",
          "type": "string"
        },
        {
          "internalType": "string",
          "name": "",
          "type": "string"
        },
        {
          "internalType": "uint256",
          "name": "",
          "type": "uint256"
        },
        {
          "internalType": "uint256",
          "name": "",
          "type": "uint256"
        },
        {
          "internalType": "uint256",
          "name": "",
          "type": "uint256"
        },
        {
          "internalType": "uint256",
          "name": "",
          "type": "uint256"
        },
        {
          "internalType": "uint256",
          "name": "",
          "type": "uint256"
        }
      ],
      "stateMutability": "view",
      "type": "function"
    },
    {
      "inputs": [
        {
          "internalType": "address",
          "name": "_account",
          "type": "address"
        }
      ],
      "name": "getOrganizationByAddress",
      "outputs": [
        {
          "internalType": "uint256",
          "name": "",
          "type": "uint256"
        },
        {
          "internalType": "string",
          "name": "",
          "type": "string"
        },
        {
          "internalType": "address",
          "name": "",
          "type": "address"
        },
        {
          "internalType": "uint256",
          "name": "",
          "type": "uint256"
        },
        {
          "internalType": "uint256",
          "name": "",
          "type": "uint256"
        }
      ],
      "stateMutability": "view",
      "type": "function"
    },
    {
      "inputs": [
        {
          "internalType": "uint256",
          "name": "_id",
          "type": "uint256"
        }
      ],
      "name": "getOrganizationById",
      "outputs": [
        {
          "internalType": "uint256",
          "name": "",
          "type": "uint256"
        },
        {
          "internalType": "string",
          "name": "",
          "type": "string"
        },
        {
          "internalType": "address",
          "name": "",
          "type": "address"
        },
        {
          "internalType": "uint256",
          "name": "",
          "type": "uint256"
        },
        {
          "internalType": "uint256",
          "name": "",
          "type": "uint256"
        }
      ],
      "stateMutability": "view",
      "type": "function"
    },
    {
      "inputs": [
        {
          "internalType": "address",
          "name": "account",
          "type": "address"
        }
      ],
      "name": "getOrganizationIdByAddress",
      "outputs": [
        {
          "internalType": "uint256",
          "name": "",
          "type": "uint256"
        }
      ],
      "stateMutability": "view",
      "type": "function"
    },
    {
      "inputs": [],
      "name": "getOrganizations",
      "outputs": [
        {
          "internalType": "uint256[]",
          "name": "",
          "type": "uint256[]"
        },
        {
          "internalType": "string[]",
          "name": "",
          "type": "string[]"
        },
        {
          "internalType": "address[]",
          "name": "",
          "type": "address[]"
        },
        {
          "internalType": "uint256[]",
          "name": "",
          "type": "uint256[]"
        },
        {
          "internalType": "uint256[]",
          "name": "",
          "type": "uint256[]"
        }
      ],
      "stateMutability": "view",
      "type": "function"
    },
    {
      "inputs": [
        {
          "internalType": "uint256",
          "name": "applicationId",
          "type": "uint256"
        },
        {
          "internalType": "uint256",
          "name": "postAccomplishmentId",
          "type": "uint256"
        }
      ],
      "name": "getPostAccomplishment",
      "outputs": [
        {
          "components": [
            {
              "internalType": "uint256",
              "name": "id",
              "type": "uint256"
            },
            {
              "internalType": "uint256",
              "name": "requirementId",
              "type": "uint256"
            },
            {
              "internalType": "uint256",
              "name": "accomplishDate",
              "type": "uint256"
            },
            {
              "internalType": "uint256",
              "name": "accomplishCategory",
              "type": "uint256"
            },
            {
              "internalType": "string",
              "name": "accomplishValue",
              "type": "string"
            }
          ],
          "internalType": "struct AkasifyCoreContract.Accomplishment",
          "name": "_accomplishment",
          "type": "tuple"
        }
      ],
      "stateMutability": "view",
      "type": "function"
    },
    {
      "inputs": [
        {
          "internalType": "uint256",
          "name": "applicationId",
          "type": "uint256"
        }
      ],
      "name": "getPostAccomplishments",
      "outputs": [
        {
          "internalType": "uint256[]",
          "name": "",
          "type": "uint256[]"
        },
        {
          "internalType": "uint256[]",
          "name": "",
          "type": "uint256[]"
        },
        {
          "internalType": "uint256[]",
          "name": "",
          "type": "uint256[]"
        },
        {
          "internalType": "uint256[]",
          "name": "",
          "type": "uint256[]"
        },
        {
          "internalType": "string[]",
          "name": "",
          "type": "string[]"
        }
      ],
      "stateMutability": "view",
      "type": "function"
    },
    {
      "inputs": [
        {
          "internalType": "uint256",
          "name": "opportunityId",
          "type": "uint256"
        }
      ],
      "name": "getPostRequirementsByOpportunityId",
      "outputs": [
        {
          "internalType": "uint256[]",
          "name": "",
          "type": "uint256[]"
        },
        {
          "internalType": "uint256[]",
          "name": "",
          "type": "uint256[]"
        },
        {
          "internalType": "uint256[]",
          "name": "",
          "type": "uint256[]"
        },
        {
          "internalType": "string[]",
          "name": "",
          "type": "string[]"
        }
      ],
      "stateMutability": "view",
      "type": "function"
    },
    {
      "inputs": [
        {
          "internalType": "uint256",
          "name": "applicationId",
          "type": "uint256"
        },
        {
          "internalType": "uint256",
          "name": "preAccomplishmentId",
          "type": "uint256"
        }
      ],
      "name": "getPreAccomplishment",
      "outputs": [
        {
          "components": [
            {
              "internalType": "uint256",
              "name": "id",
              "type": "uint256"
            },
            {
              "internalType": "uint256",
              "name": "requirementId",
              "type": "uint256"
            },
            {
              "internalType": "uint256",
              "name": "accomplishDate",
              "type": "uint256"
            },
            {
              "internalType": "uint256",
              "name": "accomplishCategory",
              "type": "uint256"
            },
            {
              "internalType": "string",
              "name": "accomplishValue",
              "type": "string"
            }
          ],
          "internalType": "struct AkasifyCoreContract.Accomplishment",
          "name": "_accomplishment",
          "type": "tuple"
        }
      ],
      "stateMutability": "view",
      "type": "function"
    },
    {
      "inputs": [
        {
          "internalType": "uint256",
          "name": "applicationId",
          "type": "uint256"
        }
      ],
      "name": "getPreAccomplishmentsByApplicationId",
      "outputs": [
        {
          "internalType": "uint256[]",
          "name": "",
          "type": "uint256[]"
        },
        {
          "internalType": "uint256[]",
          "name": "",
          "type": "uint256[]"
        },
        {
          "internalType": "uint256[]",
          "name": "",
          "type": "uint256[]"
        },
        {
          "internalType": "uint256[]",
          "name": "",
          "type": "uint256[]"
        },
        {
          "internalType": "string[]",
          "name": "",
          "type": "string[]"
        }
      ],
      "stateMutability": "view",
      "type": "function"
    },
    {
      "inputs": [
        {
          "internalType": "uint256",
          "name": "opportunityId",
          "type": "uint256"
        }
      ],
      "name": "getPreRequirementsByOpportunityId",
      "outputs": [
        {
          "internalType": "uint256[]",
          "name": "",
          "type": "uint256[]"
        },
        {
          "internalType": "uint256[]",
          "name": "",
          "type": "uint256[]"
        },
        {
          "internalType": "uint256[]",
          "name": "",
          "type": "uint256[]"
        },
        {
          "internalType": "string[]",
          "name": "",
          "type": "string[]"
        }
      ],
      "stateMutability": "view",
      "type": "function"
    },
    {
      "inputs": [
        {
          "internalType": "address",
          "name": "account",
          "type": "address"
        }
      ],
      "name": "getRole",
      "outputs": [
        {
          "internalType": "string",
          "name": "",
          "type": "string"
        }
      ],
      "stateMutability": "view",
      "type": "function"
    },
    {
      "inputs": [
        {
          "internalType": "address",
          "name": "account",
          "type": "address"
        }
      ],
      "name": "isActiveBeneficiary",
      "outputs": [
        {
          "internalType": "bool",
          "name": "",
          "type": "bool"
        }
      ],
      "stateMutability": "view",
      "type": "function"
    },
    {
      "inputs": [
        {
          "internalType": "address",
          "name": "account",
          "type": "address"
        }
      ],
      "name": "isBeneficiary",
      "outputs": [
        {
          "internalType": "bool",
          "name": "",
          "type": "bool"
        }
      ],
      "stateMutability": "view",
      "type": "function"
    },
    {
      "inputs": [
        {
          "internalType": "address",
          "name": "account",
          "type": "address"
        }
      ],
      "name": "isOrganization",
      "outputs": [
        {
          "internalType": "bool",
          "name": "",
          "type": "bool"
        }
      ],
      "stateMutability": "view",
      "type": "function"
    },
    {
      "inputs": [],
      "name": "nextApplicationId",
      "outputs": [
        {
          "internalType": "uint256",
          "name": "",
          "type": "uint256"
        }
      ],
      "stateMutability": "view",
      "type": "function"
    },
    {
      "inputs": [],
      "name": "nextBeneficiaryId",
      "outputs": [
        {
          "internalType": "uint256",
          "name": "",
          "type": "uint256"
        }
      ],
      "stateMutability": "view",
      "type": "function"
    },
    {
      "inputs": [],
      "name": "nextOpportunityId",
      "outputs": [
        {
          "internalType": "uint256",
          "name": "",
          "type": "uint256"
        }
      ],
      "stateMutability": "view",
      "type": "function"
    },
    {
      "inputs": [],
      "name": "nextOrganizationId",
      "outputs": [
        {
          "internalType": "uint256",
          "name": "",
          "type": "uint256"
        }
      ],
      "stateMutability": "view",
      "type": "function"
    },
    {
      "inputs": [
        {
          "internalType": "uint256",
          "name": "",
          "type": "uint256"
        }
      ],
      "name": "opportunities",
      "outputs": [
        {
          "internalType": "uint256",
          "name": "id",
          "type": "uint256"
        },
        {
          "internalType": "uint256",
          "name": "organizationId",
          "type": "uint256"
        },
        {
          "internalType": "string",
          "name": "name",
          "type": "string"
        },
        {
          "internalType": "string",
          "name": "description",
          "type": "string"
        },
        {
          "internalType": "uint256",
          "name": "preRequirementsDeadline",
          "type": "uint256"
        },
        {
          "internalType": "uint256",
          "name": "postRequirementsDeadline",
          "type": "uint256"
        },
        {
          "internalType": "uint256",
          "name": "creationDate",
          "type": "uint256"
        },
        {
          "internalType": "uint256",
          "name": "lastUpdate",
          "type": "uint256"
        },
        {
          "internalType": "uint256",
          "name": "applicationCount",
          "type": "uint256"
        },
        {
          "internalType": "uint256",
          "name": "status",
          "type": "uint256"
        },
        {
          "internalType": "uint256",
          "name": "nextPreRequirementId",
          "type": "uint256"
        },
        {
          "internalType": "uint256",
          "name": "nextPostRequirementId",
          "type": "uint256"
        }
      ],
      "stateMutability": "view",
      "type": "function"
    },
    {
      "inputs": [],
      "name": "registerBeneficiary",
      "outputs": [],
      "stateMutability": "nonpayable",
      "type": "function"
    },
    {
      "inputs": [
        {
          "internalType": "address payable",
          "name": "account",
          "type": "address"
        },
        {
          "internalType": "uint256",
          "name": "status",
          "type": "uint256"
        }
      ],
      "name": "registerBeneficiaryByAdmin",
      "outputs": [],
      "stateMutability": "nonpayable",
      "type": "function"
    },
    {
      "inputs": [
        {
          "internalType": "string",
          "name": "name",
          "type": "string"
        },
        {
          "internalType": "address payable",
          "name": "account",
          "type": "address"
        },
        {
          "internalType": "uint256",
          "name": "status",
          "type": "uint256"
        }
      ],
      "name": "registerOrganizationByAdmin",
      "outputs": [
        {
          "internalType": "uint256",
          "name": "",
          "type": "uint256"
        }
      ],
      "stateMutability": "nonpayable",
      "type": "function"
    },
    {
      "inputs": [
        {
          "internalType": "uint256",
          "name": "applicationId",
          "type": "uint256"
        },
        {
          "internalType": "uint256",
          "name": "status",
          "type": "uint256"
        }
      ],
      "name": "updateApplicationStatus",
      "outputs": [],
      "stateMutability": "nonpayable",
      "type": "function"
    },
    {
      "inputs": [
        {
          "internalType": "uint256",
          "name": "opportunityId",
          "type": "uint256"
        },
        {
          "internalType": "uint256",
          "name": "status",
          "type": "uint256"
        }
      ],
      "name": "updateOpportunityStatus",
      "outputs": [],
      "stateMutability": "nonpayable",
      "type": "function"
    }
  ],
  "bytecode": "0x60806040523480156200001157600080fd5b5060405162005c5c38038062005c5c83398101604081905262000034916200005a565b600880546001600160a01b0319166001600160a01b03929092169190911790556200008a565b6000602082840312156200006c578081fd5b81516001600160a01b038116811462000083578182fd5b9392505050565b615bc2806200009a6000396000f3fe608060405234801561001057600080fd5b50600436106102535760003560e01c8063957abe0b11610146578063b1ce8eab116100c3578063d2830de311610087578063d2830de3146105b3578063df19ce4d146105bb578063dfefadff146105ce578063eadd2f61146105f7578063f851a4401461060a578063fcfb8bb21461061f57610253565b8063b1ce8eab14610554578063c821b4fb14610567578063cbdbc9a61461057a578063cfd664d61461058d578063d11f3c47146105a057610253565b8063aa0a57ab1161010a578063aa0a57ab146104b4578063acaf764d146104d7578063acd6c98f146104ea578063ad41ac3d14610515578063aed35ccc1461053957610253565b8063957abe0b1461043b57806395c324451461045b5780639754a3a814610463578063980770311461047c5780639d19b226146104a157610253565b80635825271a116101d457806371e0e09e1161019857806371e0e09e146103c35780637a47523b146103d6578063857bbd28146103fd5780638c4be5eb14610410578063913b722c1461042357610253565b80635825271a1461036f578063625338cb14610382578063635c54551461038a5780636e46cc4e1461039d578063706f48b1146103b057610253565b8063442767331161021b57806344276733146102e25780634854e204146103025780634bcaaa01146103265780634f4e4534146103495780635080d5fb1461035c57610253565b80631283ca701461025857806327f9e1051461026d5780632832163f14610296578063292719d3146102ba5780633859305e146102da575b600080fd5b61026b610266366004614b39565b610627565b005b61028061027b366004614949565b610818565b60405161028d919061501a565b60405180910390f35b6102a96102a4366004614949565b61087f565b60405161028d959493929190615962565b6102cd6102c8366004614949565b610a22565b60405161028d9190615935565b6102cd610a70565b6102f56102f0366004614949565b610a76565b60405161028d9190615025565b610315610310366004614b39565b610b4c565b60405161028d959493929190614f85565b610339610334366004614b39565b610e9a565b60405161028d9493929190614f39565b61026b610357366004614b80565b61117a565b6102cd61036a366004614949565b61138c565b61026b61037d3660046149ee565b6113f8565b6102cd61181e565b6102a9610398366004614b39565b611824565b6102cd6103ab366004614949565b611957565b61026b6103be366004614b80565b6119c5565b61026b6103d136600461496c565b611bc4565b6103e96103e4366004614b39565b611c9b565b60405161028d9897969594939291906159a1565b61026b61040b366004614be5565b611e2a565b61033961041e366004614b39565b611f2c565b61042b6121f8565b60405161028d9493929190614de3565b61044e610449366004614bc4565b612413565b60405161028d91906158ea565b61026b61252d565b61046b61262d565b60405161028d959493929190614e3a565b61048f61048a366004614b51565b612969565b60405161028d96959493929190615ab6565b6102806104af366004614949565b612cd3565b6104c76104c2366004614b39565b612d14565b60405161028d949392919061593e565b6103156104e5366004614b39565b612d78565b6104fd6104f8366004614b39565b61327f565b60405161028d9c9b9a99989796959493929190615a3d565b610528610523366004614b39565b6133e8565b60405161028d959493929190614fe3565b610541613918565b60405161028d9796959493929190614ea5565b610280610562366004614949565b613df5565b61044e610575366004614bc4565b613e54565b6104c7610588366004614949565b613e81565b61026b61059b366004614bc4565b613f2b565b61026b6105ae366004614be5565b614167565b6102cd614269565b6102cd6105c9366004614997565b61426f565b6105e16105dc366004614b39565b614347565b60405161028d9a99989796959493929190615ade565b61026b610605366004614bc4565b61439b565b610612614672565b60405161028d9190614dcf565b6102cd614681565b6000818152600460205260409020600901546002146106615760405162461bcd60e51b81526004016106589061574b565b60405180910390fd5b600754600081815260066020526040902090815560010181905561068433610a22565b600580546000908152600660208181526040808420600201959095556007805484528584206003018490558054845285842060049081018590558154855286852090950184905580548452858420909201839055815483528483204290830181905582548452858420600890810191909155915483528483206001600990910181905586845293905292902090910180549091019055610722614687565b600080825260208083018281524260408086019182526001606087018181528251808701845287815260808901908152600754885260068752928720600a018054808401825590885296869020885160059098020196875593519086015590516002850155905160038401555180518493926107a59260048501929101906146b6565b505060078054600090815260066020526040808220600501805460019081019091559254808352918190209092015491517ff0ecfc9d01e072b344ab803487dff20893bdb9f671d08bd9e260d0f8b5fae84d93506108039290615a2f565b60405180910390a15050600780546001019055565b600080805b600154811015610876576000818152602081905260409020600101546001600160a01b03858116911614801561086457506000818152602081905260409020600390810154145b1561086e57600191505b60010161081d565b5090505b919050565b60006060818080805b6003548110156109fb5761089a614734565b600260008381526020019081526020016000206040518060a001604052908160008201548152602001600182018054600181600116156101000203166002900480601f01602080910402602001604051908101604052809291908181526020018280546001816001161561010002031660029004801561095b5780601f106109305761010080835404028352916020019161095b565b820191906000526020600020905b81548152906001019060200180831161093e57829003601f168201915b505050505081526020016002820160009054906101000a90046001600160a01b03166001600160a01b03166001600160a01b03168152602001600382015481526020016004820154815250509050876001600160a01b031681604001516001600160a01b031614156109f257805160208201516040830151606084015160809094015192995090975095509093509150610a199050565b50600101610888565b50506040805160208101909152600080825294509250839150819050805b91939590929450565b600080805b600154811015610876576000818152602081905260409020600101546001600160a01b0385811691161415610a685760008181526020819052604090205491505b600101610a27565b60015481565b6008546060906001600160a01b0383811691161415610ab1575060408051808201909152600581526430b236b4b760d91b602082015261087a565b610aba82613df5565b151560011415610aed575060408051808201909152600c81526b37b933b0b734bd30ba34b7b760a11b602082015261087a565b610af682612cd3565b151560011415610b28575060408051808201909152600b81526a62656e656669636961727960a81b602082015261087a565b506040805180820190915260078152663b34b9b4ba37b960c91b602082015261087a565b60608060608060606000600660008881526020019081526020016000209050606081600401546001600160401b0381118015610b8757600080fd5b50604051908082528060200260200182016040528015610bb1578160200160208202803683370190505b509050606082600401546001600160401b0381118015610bd057600080fd5b50604051908082528060200260200182016040528015610bfa578160200160208202803683370190505b509050606083600401546001600160401b0381118015610c1957600080fd5b50604051908082528060200260200182016040528015610c43578160200160208202803683370190505b509050606084600401546001600160401b0381118015610c6257600080fd5b50604051908082528060200260200182016040528015610c8c578160200160208202803683370190505b509050606085600401546001600160401b0381118015610cab57600080fd5b50604051908082528060200260200182016040528015610cdf57816020015b6060815260200190600190039081610cca5790505b50905060005b8660060154811015610e8657610cf9614687565b87600b018281548110610d0857fe5b90600052602060002090600502016040518060a001604052908160008201548152602001600182015481526020016002820154815260200160038201548152602001600482018054600181600116156101000203166002900480601f016020809104026020016040519081016040528092919081815260200182805460018160011615610100020316600290048015610de25780601f10610db757610100808354040283529160200191610de2565b820191906000526020600020905b815481529060010190602001808311610dc557829003601f168201915b50505050508152505090508060000151878381518110610dfe57fe5b6020026020010181815250508060200151868381518110610e1b57fe5b6020026020010181815250508060400151858381518110610e3857fe5b6020026020010181815250508060600151848381518110610e5557fe5b6020026020010181815250508060800151838381518110610e7257fe5b602090810291909101015250600101610ce5565b50939b929a50909850965090945092505050565b6000818152600460205260409020600b81015460609182918291829182906001600160401b0381118015610ecd57600080fd5b50604051908082528060200260200182016040528015610ef7578160200160208202803683370190505b509050606082600b01546001600160401b0381118015610f1657600080fd5b50604051908082528060200260200182016040528015610f40578160200160208202803683370190505b509050606083600b01546001600160401b0381118015610f5f57600080fd5b50604051908082528060200260200182016040528015610f89578160200160208202803683370190505b509050606084600b01546001600160401b0381118015610fa857600080fd5b50604051908082528060200260200182016040528015610fdc57816020015b6060815260200190600190039081610fc75790505b50905060005b85600b015481101561116657610ff6614687565b86600d01828154811061100557fe5b90600052602060002090600502016040518060a001604052908160008201548152602001600182015481526020016002820154815260200160038201548152602001600482018054600181600116156101000203166002900480601f0160208091040260200160405190810160405280929190818152602001828054600181600116156101000203166002900480156110df5780601f106110b4576101008083540402835291602001916110df565b820191906000526020600020905b8154815290600101906020018083116110c257829003601f168201915b505050505081525050905080600001518683815181106110fb57fe5b602002602001018181525050806040015185838151811061111857fe5b602002602001018181525050806060015184838151811061113557fe5b602002602001018181525050806080015183838151811061115257fe5b602090810291909101015250600101610fe2565b5092975090955093509150505b9193509193565b600061118533612cd3565b9050806111a45760405162461bcd60e51b815260040161065890615443565b6000838152600660205260409020600901546001146111d55760405162461bcd60e51b815260040161065890615501565b6000838152600660208181526040808420815160a081018352600580830154825294845260038083015482860190815242948301948552600260608401818152608085018c8152600a909601805460018181018355918c529a89902086519b909a02909901998a559151978901979097559351958701959095559151938501939093559151805192939261126f92600485019201906146b6565b50505060008381526006602090815260408083206003810154600191820154855260049093529220600a0154910110156113705760008381526006602081815260408084206005808201805460019081019182905560038085018054830190819055865160a08101885293845297875282870197885242838701908152606084018381528751808a019098528a885260808501978852600a90960180548085018255908b529988902084519a9095029094019889559651908801559051600287015590519385019390935551805192939261135092600485019201906146b6565b505050600083815260066020526040902060050180546001019055611387565b600083815260066020526040902060026009909101555b505050565b600080805b60035481101561087657600081815260026020819052604090912001546001600160a01b0385811691161480156113d957506000818152600260205260409020600401546003145b156113f05760008181526002602052604090205491505b600101611391565b600061140333613df5565b9050806114225760405162461bcd60e51b815260040161065890615185565b60008b51116114435760405162461bcd60e51b8152600401610658906153a4565b60008a51116114645760405162461bcd60e51b81526004016106589061555e565b85518751148015611476575084518651145b6114925760405162461bcd60e51b815260040161065890615347565b825184511480156114a4575081518351145b6114c05760405162461bcd60e51b81526004016106589061546d565b6005546000818152600460205260409020556114db3361138c565b6005805460009081526004602090815260408083206001019490945591548152919091208c51611513926002909201918e01906146b6565b5060055460009081526004602090815260409091208b5161153c926003909201918d01906146b6565b50600580546000908152600460208190526040808320426006909101819055845484528184209092018d90558354835280832084018c905583548352808320600701919091559154815290812060016009909101555b87518110156116a157600554600081815260046020908152604091829020825160a081018452600a8201548152918201939093528a51600c9093019290918201908b90859081106115df57fe5b602002602001015181526020018984815181106115f857fe5b6020026020010151815260200188848151811061161157fe5b6020908102919091018101519091528254600181810185556000948552938290208351600590920201908155828201519381019390935560408201516002840155606082015160038401556080820151805192939261167692600485019201906146b6565b50506005546000908152600460205260409020600a0180546001908101909155919091019050611592565b5060005b84518110156117b457600554600081815260046020908152604091829020825160a081018452600b8201548152918201939093528751600d9093019290918201908890859081106116f257fe5b6020026020010151815260200186848151811061170b57fe5b6020026020010151815260200185848151811061172457fe5b6020908102919091018101519091528254600181810185556000948552938290208351600590920201908155828201519381019390935560408201516002840155606082015160038401556080820151805192939261178992600485019201906146b6565b50506005546000908152600460205260409020600b01805460019081019091559190910190506116a5565b506005546000818152600460205260409081902090517f217f6f8566b5368c91631b32159051c0f0fc3ed5c77908901e6a2ef3f7df8359926118009290916002820191600301906159fa565b60405180910390a15050600580546001019055505050505050505050565b60075481565b600060606000806000611835614734565b600260008881526020019081526020016000206040518060a001604052908160008201548152602001600182018054600181600116156101000203166002900480601f0160208091040260200160405190810160405280929190818152602001828054600181600116156101000203166002900480156118f65780601f106118cb576101008083540402835291602001916118f6565b820191906000526020600020905b8154815290600101906020018083116118d957829003601f168201915b505050918352505060028201546001600160a01b031660208083019190915260038301546040808401919091526004909301546060928301528351908401519284015191840151608090940151909b929a5090985091965090945092505050565b600080805b600154811015610876576000818152602081905260409020600101546001600160a01b0385811691161480156119a357506000818152602081905260409020600390810154145b156119bd5760008181526020819052604090206003015491505b60010161195c565b60006119d033612cd3565b9050806119ef5760405162461bcd60e51b815260040161065890615443565b600083815260066020526040902060090154600514611a205760405162461bcd60e51b81526004016106589061520d565b6000838152600660208181526040808420815160a08101835281850154815293835260048082015485850190815242938601938452600260608701818152608088018b8152600b909501805460018181018355918b529988902089516005909b0201998a5592519289019290925593519387019390935591516003860155518051939493611ab6939285019291909101906146b6565b5050506000838152600660209081526040808320600480820154600192830154865293529220600b015491011015611bab576000838152600660208181526040808420808401805460019081019182905560048084018054830190819055855160a0810187529384529686528286019687524294830194855260608301828152608084018b8152600b90950180548085018255908a529887902084516005909a02019889559651918801919091559251600287015593516003860155518051939493611b8a939285019291909101906146b6565b50505060008381526006602081905260409091200180546001019055611387565b5050600090815260066020819052604090912060090155565b6008546001600160a01b03163314611bee5760405162461bcd60e51b815260040161065890615323565b60408051608081018252600180548083526001600160a01b03868116602080860191825242868801908152606087018981526000958652918590529387902095518655905185850180546001600160a01b03191691909316179091559051600284015551600390920191909155805481019055517f67bf623e5c0c95725ab7b0d181e969032a96122e243710f76311bae55f89df7190611c8f908490614dcf565b60405180910390a15050565b6000606080600080600080600080600460008b815260200190815260200160002090508060010154816002018260030183600401548460050154856006015486600701548760090154868054600181600116156101000203166002900480601f016020809104026020016040519081016040528092919081815260200182805460018160011615610100020316600290048015611d795780601f10611d4e57610100808354040283529160200191611d79565b820191906000526020600020905b815481529060010190602001808311611d5c57829003601f168201915b5050895460408051602060026001851615610100026000190190941693909304601f8101849004840282018401909252818152959c508b945092508401905082828015611e075780601f10611ddc57610100808354040283529160200191611e07565b820191906000526020600020905b815481529060010190602001808311611dea57829003601f168201915b505050505095509850985098509850985098509850985050919395975091939597565b6000611e3533613df5565b905080611e545760405162461bcd60e51b815260040161065890615185565b600085815260046020526040902060090154600114611e855760405162461bcd60e51b81526004016106589061558c565b6000858152600460208181526040808420815160a081018352600b82015481528084018b81529281018a8152606082018a8152608083018a8152600d909401805460018181018355918a529887902084516005909a020198895594519488019490945551600287015591516003860155518051919493611f0b93908501929101906146b6565b505050600094855250506004602052505060409020600b0180546001019055565b6000818152600460205260409020600a81015460609182918291829182906001600160401b0381118015611f5f57600080fd5b50604051908082528060200260200182016040528015611f89578160200160208202803683370190505b509050606082600a01546001600160401b0381118015611fa857600080fd5b50604051908082528060200260200182016040528015611fd2578160200160208202803683370190505b509050606083600a01546001600160401b0381118015611ff157600080fd5b5060405190808252806020026020018201604052801561201b578160200160208202803683370190505b509050606084600a01546001600160401b038111801561203a57600080fd5b5060405190808252806020026020018201604052801561206e57816020015b60608152602001906001900390816120595790505b50905060005b85600a015481101561116657612088614687565b86600c01828154811061209757fe5b90600052602060002090600502016040518060a001604052908160008201548152602001600182015481526020016002820154815260200160038201548152602001600482018054600181600116156101000203166002900480601f0160208091040260200160405190810160405280929190818152602001828054600181600116156101000203166002900480156121715780601f1061214657610100808354040283529160200191612171565b820191906000526020600020905b81548152906001019060200180831161215457829003601f168201915b5050505050815250509050806000015186838151811061218d57fe5b60200260200101818152505080604001518583815181106121aa57fe5b60200260200101818152505080606001518483815181106121c757fe5b60200260200101818152505080608001518383815181106121e457fe5b602090810291909101015250600101612074565b60608060608060606001546001600160401b038111801561221857600080fd5b50604051908082528060200260200182016040528015612242578160200160208202803683370190505b50905060606001546001600160401b038111801561225f57600080fd5b50604051908082528060200260200182016040528015612289578160200160208202803683370190505b50905060606001546001600160401b03811180156122a657600080fd5b506040519080825280602002602001820160405280156122d0578160200160208202803683370190505b50905060606001546001600160401b03811180156122ed57600080fd5b50604051908082528060200260200182016040528015612317578160200160208202803683370190505b50905060005b6001548110156124045761232f61476c565b50600081815260208181526040918290208251608081018452815480825260018301546001600160a01b031693820193909352600282015493810193909352600301546060830152865187908490811061238557fe5b60200260200101818152505080602001518583815181106123a257fe5b60200260200101906001600160a01b031690816001600160a01b03168152505080604001518483815181106123d357fe5b60200260200101818152505080606001518383815181106123f057fe5b60209081029190910101525060010161231d565b50929791965094509092509050565b61241b614687565b612423614687565b6000848152600660205260409020600b0180548490811061244057fe5b90600052602060002090600502016040518060a001604052908160008201548152602001600182015481526020016002820154815260200160038201548152602001600482018054600181600116156101000203166002900480601f01602080910402602001604051908101604052809291908181526020018280546001816001161561010002031660029004801561251a5780601f106124ef5761010080835404028352916020019161251a565b820191906000526020600020905b8154815290600101906020018083116124fd57829003601f168201915b5050509190925250919695505050505050565b6008546001600160a01b03163314156125585760405162461bcd60e51b815260040161065890615790565b600061256333613df5565b905080156125835760405162461bcd60e51b8152600401610658906156a3565b6040805160808101825260018054808352336020808501828152428688019081526003606088018181526000968752938690529488902096518755905186860180546001600160a01b0319166001600160a01b0390921691909117905551600286015551939091019290925580548101905590517f67bf623e5c0c95725ab7b0d181e969032a96122e243710f76311bae55f89df719161262291614dcf565b60405180910390a150565b6060806060806060806003546001600160401b038111801561264e57600080fd5b50604051908082528060200260200182016040528015612678578160200160208202803683370190505b50905060606003546001600160401b038111801561269557600080fd5b506040519080825280602002602001820160405280156126c957816020015b60608152602001906001900390816126b45790505b50905060606003546001600160401b03811180156126e657600080fd5b50604051908082528060200260200182016040528015612710578160200160208202803683370190505b50905060606003546001600160401b038111801561272d57600080fd5b50604051908082528060200260200182016040528015612757578160200160208202803683370190505b50905060606003546001600160401b038111801561277457600080fd5b5060405190808252806020026020018201604052801561279e578160200160208202803683370190505b50905060005b600354811015612957576127b6614734565b600260008381526020019081526020016000206040518060a001604052908160008201548152602001600182018054600181600116156101000203166002900480601f0160208091040260200160405190810160405280929190818152602001828054600181600116156101000203166002900480156128775780601f1061284c57610100808354040283529160200191612877565b820191906000526020600020905b81548152906001019060200180831161285a57829003601f168201915b505050918352505060028201546001600160a01b031660208201526003820154604082015260049091015460609091015280518851919250908890849081106128bc57fe5b60200260200101818152505080602001518683815181106128d957fe5b602002602001018190525080604001518583815181106128f557fe5b60200260200101906001600160a01b031690816001600160a01b031681525050806060015184838151811061292657fe5b602002602001018181525050806080015183838151811061294357fe5b6020908102919091010152506001016127a4565b50939992985090965094509092509050565b600080600080600080600061297d88610a22565b905061298761479d565b60005b600754811015612c9e576000818152600660205260409020600101548b1480156129c4575060008181526006602052604090206002015483145b15612c96576000818152600660208181526040808420815161018081018352815481526001820154818501526002820154818401526003820154606082015260048201546080820152600582015460a08201529381015460c0850152600781015460e085015260088101546101008501526009810154610120850152600a81018054835181860281018601909452808452949591946101408701949192909184015b82821015612b6257838290600052602060002090600502016040518060a001604052908160008201548152602001600182015481526020016002820154815260200160038201548152602001600482018054600181600116156101000203166002900480601f016020809104026020016040519081016040528092919081815260200182805460018160011615610100020316600290048015612b4a5780601f10612b1f57610100808354040283529160200191612b4a565b820191906000526020600020905b815481529060010190602001808311612b2d57829003601f168201915b50505050508152505081526020019060010190612a66565b505050508152602001600b8201805480602002602001604051908101604052809291908181526020016000905b82821015612c8b57838290600052602060002090600502016040518060a001604052908160008201548152602001600182015481526020016002820154815260200160038201548152602001600482018054600181600116156101000203166002900480601f016020809104026020016040519081016040528092919081815260200182805460018160011615610100020316600290048015612c735780601f10612c4857610100808354040283529160200191612c73565b820191906000526020600020905b815481529060010190602001808311612c5657829003601f168201915b50505050508152505081526020019060010190612b8f565b505050508152505091505b60010161298a565b5080516020820151604083015160e084015161010085015161012090950151939e929d50909b50995091975095509350505050565b600080805b600154811015610876576000818152602081905260409020600101546001600160a01b0385811691161415612d0c57600191505b600101612cd8565b600080600080612d2261476c565b5050506000928352505060208181526040918290208251608081018452815480825260018301546001600160a01b0316938201849052600283015494820185905260039092015460609091018190529093919291565b6000818152600660205260409020600a81015460609182918291829182919082906001600160401b0381118015612dae57600080fd5b50604051908082528060200260200182016040528015612dd8578160200160208202803683370190505b50600a8301549091506060906001600160401b0381118015612df957600080fd5b50604051908082528060200260200182016040528015612e23578160200160208202803683370190505b50600a8401549091506060906001600160401b0381118015612e4457600080fd5b50604051908082528060200260200182016040528015612e6e578160200160208202803683370190505b50600a8501549091506060906001600160401b0381118015612e8f57600080fd5b50604051908082528060200260200182016040528015612eb9578160200160208202803683370190505b50600a8601549091506060906001600160401b0381118015612eda57600080fd5b50604051908082528060200260200182016040528015612f0e57816020015b6060815260200190600190039081612ef95790505b50905060005b600a8701548110156130b557612f28614687565b87600a018281548110612f3757fe5b90600052602060002090600502016040518060a001604052908160008201548152602001600182015481526020016002820154815260200160038201548152602001600482018054600181600116156101000203166002900480601f0160208091040260200160405190810160405280929190818152602001828054600181600116156101000203166002900480156130115780601f10612fe657610100808354040283529160200191613011565b820191906000526020600020905b815481529060010190602001808311612ff457829003601f168201915b5050505050815250509050806000015187838151811061302d57fe5b602002602001018181525050806020015186838151811061304a57fe5b602002602001018181525050806040015185838151811061306757fe5b602002602001018181525050806060015184838151811061308457fe5b60200260200101818152505080608001518383815181106130a157fe5b602090810291909101015250600101612f14565b506005860154600a870154111561326c576130ce614687565b86600a018760050154815481106130e157fe5b90600052602060002090600502016040518060a001604052908160008201548152602001600182015481526020016002820154815260200160038201548152602001600482018054600181600116156101000203166002900480601f0160208091040260200160405190810160405280929190818152602001828054600181600116156101000203166002900480156131bb5780601f10613190576101008083540402835291602001916131bb565b820191906000526020600020905b81548152906001019060200180831161319e57829003601f168201915b50505050508152505090508060000151868860050154815181106131db57fe5b6020026020010181815250508060200151858860050154815181106131fc57fe5b60200260200101818152505080604001518488600501548151811061321d57fe5b60200260200101818152505080606001518388600501548151811061323e57fe5b60200260200101818152505080608001518288600501548151811061325f57fe5b6020026020010181905250505b939b929a50909850965090945092505050565b60046020908152600091825260409182902080546001808301546002808501805488519481161561010002600019011691909104601f81018790048702840187019097528683529295909491929183018282801561331e5780601f106132f35761010080835404028352916020019161331e565b820191906000526020600020905b81548152906001019060200180831161330157829003601f168201915b5050505060038301805460408051602060026001851615610100026000190190941693909304601f81018490048402820184019092528181529495949350908301828280156133ae5780601f10613383576101008083540402835291602001916133ae565b820191906000526020600020905b81548152906001019060200180831161339157829003601f168201915b50505050509080600401549080600501549080600601549080600701549080600801549080600901549080600a01549080600b015490508c565b60608060608060606000600460008881526020019081526020016000209050606081600801546001600160401b038111801561342357600080fd5b5060405190808252806020026020018201604052801561344d578160200160208202803683370190505b509050606082600801546001600160401b038111801561346c57600080fd5b50604051908082528060200260200182016040528015613496578160200160208202803683370190505b509050606083600801546001600160401b03811180156134b557600080fd5b506040519080825280602002602001820160405280156134df578160200160208202803683370190505b509050606084600801546001600160401b03811180156134fe57600080fd5b50604051908082528060200260200182016040528015613528578160200160208202803683370190505b509050606085600801546001600160401b038111801561354757600080fd5b50604051908082528060200260200182016040528015613571578160200160208202803683370190505b5090506000805b6007548110156139045761358a61479d565b6000828152600660208181526040808420815161018081018352815481526001820154818501526002820154818401526003820154606082015260048201546080820152600582015460a08201529381015460c0850152600781015460e085015260088101546101008501526009810154610120850152600a81018054835181860281018601909452808452949591946101408701949192909184015b8282101561372357838290600052602060002090600502016040518060a001604052908160008201548152602001600182015481526020016002820154815260200160038201548152602001600482018054600181600116156101000203166002900480601f01602080910402602001604051908101604052809291908181526020018280546001816001161561010002031660029004801561370b5780601f106136e05761010080835404028352916020019161370b565b820191906000526020600020905b8154815290600101906020018083116136ee57829003601f168201915b50505050508152505081526020019060010190613627565b505050508152602001600b8201805480602002602001604051908101604052809291908181526020016000905b8282101561384c57838290600052602060002090600502016040518060a001604052908160008201548152602001600182015481526020016002820154815260200160038201548152602001600482018054600181600116156101000203166002900480601f0160208091040260200160405190810160405280929190818152602001828054600181600116156101000203166002900480156138345780601f1061380957610100808354040283529160200191613834565b820191906000526020600020905b81548152906001019060200180831161381757829003601f168201915b50505050508152505081526020019060010190613750565b505050508152505090508e816020015114156138fb57806000015188848151811061387357fe5b602002602001018181525050806040015187848151811061389057fe5b6020026020010181815250508060e001518684815181106138ad57fe5b6020026020010181815250508061010001518584815181106138cb57fe5b6020026020010181815250508061012001518484815181106138e957fe5b60209081029190910101526001909201915b50600101613578565b50949c939b50919950975095509350505050565b6060806060806060806060806005546001600160401b038111801561393c57600080fd5b50604051908082528060200260200182016040528015613966578160200160208202803683370190505b50905060606005546001600160401b038111801561398357600080fd5b506040519080825280602002602001820160405280156139b757816020015b60608152602001906001900390816139a25790505b50905060606005546001600160401b03811180156139d457600080fd5b50604051908082528060200260200182016040528015613a0857816020015b60608152602001906001900390816139f35790505b50905060606005546001600160401b0381118015613a2557600080fd5b50604051908082528060200260200182016040528015613a5957816020015b6060815260200190600190039081613a445790505b50905060606005546001600160401b0381118015613a7657600080fd5b50604051908082528060200260200182016040528015613aa0578160200160208202803683370190505b50905060606005546001600160401b0381118015613abd57600080fd5b50604051908082528060200260200182016040528015613ae7578160200160208202803683370190505b50905060606005546001600160401b0381118015613b0457600080fd5b50604051908082528060200260200182016040528015613b2e578160200160208202803683370190505b50905060005b600554811015613dde576000818152600460205260409020805489518a9084908110613b5c57fe5b60200260200101818152505060026000826001015481526020019081526020016000206001018054600181600116156101000203166002900480601f016020809104026020016040519081016040528092919081815260200182805460018160011615610100020316600290048015613c165780601f10613beb57610100808354040283529160200191613c16565b820191906000526020600020905b815481529060010190602001808311613bf957829003601f168201915b5050505050888381518110613c2757fe5b60209081029190910181019190915260028281018054604080516001831615610100026000190190921693909304601f810185900485028201850190935282815292909190830182828015613cbd5780601f10613c9257610100808354040283529160200191613cbd565b820191906000526020600020905b815481529060010190602001808311613ca057829003601f168201915b5050505050878381518110613cce57fe5b60209081029190910181019190915260038201805460408051601f6002600019610100600187161502019094169390930492830185900485028101850190915281815292830182828015613d635780601f10613d3857610100808354040283529160200191613d63565b820191906000526020600020905b815481529060010190602001808311613d4657829003601f168201915b5050505050868381518110613d7457fe5b60200260200101819052508060040154858381518110613d9057fe5b6020026020010181815250508060050154848381518110613dad57fe5b6020026020010181815250508060090154838381518110613dca57fe5b602090810291909101015250600101613b34565b50959d949c50929a50909850965094509092509050565b600080805b60035481101561087657600081815260026020819052604090912001546001600160a01b038581169116148015613e4257506000818152600260205260409020600401546003145b15613e4c57600191505b600101613dfa565b613e5c614687565b613e64614687565b6000848152600660205260409020600a0180548490811061244057fe5b6000808080805b600154811015613f1957613e9a61476c565b506000818152602081815260409182902082516080810184528154815260018201546001600160a01b0390811693820184905260028301549482019490945260039091015460608201529188161415613f1057805160208201516040830151606090930151919750955090935091506111739050565b50600101613e88565b50600095869550859450849350915050565b6000613f3633613df5565b90506000613f4333612cd3565b90508180613f4e5750805b613f6a5760405162461bcd60e51b8152600401610658906154ca565b6000848152600660205260409020600901548015801590613f8c575060078111155b613fa85760405162461bcd60e51b8152600401610658906150f1565b8360021415613ff65780600114613fd15760405162461bcd60e51b81526004016106589061526a565b613fda33612cd3565b613ff65760405162461bcd60e51b8152600401610658906151b0565b83600314806140055750836004145b1561404f578060021461402a5760405162461bcd60e51b8152600401610658906153cb565b61403333613df5565b61404f5760405162461bcd60e51b81526004016106589061582f565b83600514156140a85780600314806140675750806004145b6140835760405162461bcd60e51b8152600401610658906157b3565b61408c33613df5565b6140a85760405162461bcd60e51b81526004016106589061582f565b83600614156140f657806005146140d15760405162461bcd60e51b815260040161065890615628565b6140da33612cd3565b6140f65760405162461bcd60e51b8152600401610658906151b0565b83600714806141055750836008145b1561414f578060061461412a5760405162461bcd60e51b81526004016106589061588c565b61413333613df5565b61414f5760405162461bcd60e51b81526004016106589061582f565b50505060009182526006602052604090912060090155565b600061417233613df5565b9050806141915760405162461bcd60e51b815260040161065890615185565b6000858152600460205260409020600901546001146141c25760405162461bcd60e51b81526004016106589061558c565b6000858152600460208181526040808420815160a081018352600a82015481528084018b81529281018a8152606082018a8152608083018a8152600c909401805460018181018355918a529887902084516005909a02019889559451948801949094555160028701559151600386015551805191949361424893908501929101906146b6565b505050600094855250506004602052505060409020600a0180546001019055565b60035481565b6008546000906001600160a01b0316331461429c5760405162461bcd60e51b815260040161065890615323565b6003546040805160a08101825282815260208082018881526001600160a01b03881683850152426060840152608083018790526000858152600283529390932082518155925180519293926142f792600185019201906146b6565b5060408201516002820180546001600160a01b0319166001600160a01b03909216919091179055606082015160038083019190915560809092015160049091015580546001019055949350505050565b6006602052806000526040600020600091509050806000015490806001015490806002015490806003015490806004015490806005015490806006015490806007015490806008015490806009015490508a565b60006143a633613df5565b9050806143c55760405162461bcd60e51b815260040161065890615185565b6000821180156143d6575060078211155b6143f25760405162461bcd60e51b8152600401610658906156cd565b816002141561442c5760008381526004602052604090206009015460011461442c5760405162461bcd60e51b815260040161065890615704565b8160031415614466576000838152600460205260409020600901546002146144665760405162461bcd60e51b8152600401610658906152e0565b81600414156144a0576000838152600460205260409020600901546003146144a05760405162461bcd60e51b815260040161065890615128565b81600514156144db57600083815260046020819052604090912060090154146144db5760405162461bcd60e51b815260040161065890615085565b816006141561461c576000838152600460205260409020600901546005146145155760405162461bcd60e51b815260040161065890615038565b60005b60075481101561461a5760008181526006602052604090206001015484141561461257600081815260066020526040902060090154600314156146125760008181526006602052604090206005600990910155614573614687565b60008082526020808301828152426040808601918252600160608701818152825180870184528781526080890190815289885260068752928720600b018054808401825590885296869020885160059098020196875593519086015590516002850155905160038401555180518493926145f49260048501929101906146b6565b50505060008281526006602081905260409091200180546001019055505b600101614518565b505b8160071415614656576000838152600460205260409020600901546006146146565760405162461bcd60e51b8152600401610658906155c1565b5060009182526004602052604090912042600782015560090155565b6008546001600160a01b031681565b60055481565b6040518060a0016040528060008152602001600081526020016000815260200160008152602001606081525090565b828054600181600116156101000203166002900490600052602060002090601f016020900481019282601f106146f757805160ff1916838001178555614724565b82800160010185558215614724579182015b82811115614724578251825591602001919060010190614709565b506147309291506147fe565b5090565b6040518060a00160405280600081526020016060815260200160006001600160a01b0316815260200160008152602001600081525090565b60405180608001604052806000815260200160006001600160a01b0316815260200160008152602001600081525090565b6040518061018001604052806000815260200160008152602001600081526020016000815260200160008152602001600081526020016000815260200160008152602001600081526020016000815260200160608152602001606081525090565b61481891905b808211156147305760008155600101614804565b90565b600082601f83011261482b578081fd5b813561483e61483982615b49565b615b23565b818152915060208083019084810160005b8481101561487857614866888484358a01016148e1565b8452928201929082019060010161484f565b505050505092915050565b600082601f830112614893578081fd5b81356148a161483982615b49565b8181529150602080830190848101818402860182018710156148c257600080fd5b60005b84811015614878578135845292820192908201906001016148c5565b600082601f8301126148f1578081fd5b81356001600160401b03811115614906578182fd5b614919601f8201601f1916602001615b23565b915080825283602082850101111561493057600080fd5b8060208401602084013760009082016020015292915050565b60006020828403121561495a578081fd5b813561496581615b74565b9392505050565b6000806040838503121561497e578081fd5b823561498981615b74565b946020939093013593505050565b6000806000606084860312156149ab578081fd5b83356001600160401b038111156149c0578182fd5b6149cc868287016148e1565b93505060208401356149dd81615b74565b929592945050506040919091013590565b6000806000806000806000806000806101408b8d031215614a0d578586fd5b8a356001600160401b0380821115614a23578788fd5b614a2f8e838f016148e1565b9b5060208d0135915080821115614a44578788fd5b614a508e838f016148e1565b9a5060408d0135995060608d0135985060808d0135915080821115614a73578788fd5b614a7f8e838f01614883565b975060a08d0135915080821115614a94578687fd5b614aa08e838f01614883565b965060c08d0135915080821115614ab5578586fd5b614ac18e838f0161481b565b955060e08d0135915080821115614ad6578485fd5b614ae28e838f01614883565b94506101008d0135915080821115614af8578384fd5b614b048e838f01614883565b93506101208d0135915080821115614b1a578283fd5b50614b278d828e0161481b565b9150509295989b9194979a5092959850565b600060208284031215614b4a578081fd5b5035919050565b60008060408385031215614b63578182fd5b823591506020830135614b7581615b74565b809150509250929050565b60008060408385031215614b92578182fd5b8235915060208301356001600160401b03811115614bae578182fd5b614bba858286016148e1565b9150509250929050565b60008060408385031215614bd6578182fd5b50508035926020909101359150565b60008060008060808587031215614bfa578384fd5b84359350602085013592506040850135915060608501356001600160401b03811115614c24578182fd5b614c30878288016148e1565b91505092959194509250565b6000815180845260208085019450808401835b83811015614c745781516001600160a01b031687529582019590820190600101614c4f565b509495945050505050565b6000815180845260208085018081965082840281019150828601855b85811015614cc5578284038952614cb3848351614d01565b98850198935090840190600101614c9b565b5091979650505050505050565b6000815180845260208085019450808401835b83811015614c7457815187529582019590820190600101614ce5565b60008151808452815b81811015614d2657602081850181015186830182015201614d0a565b81811115614d375782602083870101525b50601f01601f19169290920160200192915050565b60008154600180821660008114614d6a5760018114614d8857614dc6565b60028304607f16865260ff1983166020870152604086019350614dc6565b60028304808752614d9886615b68565b60005b82811015614dbc5781546020828b0101528482019150602081019050614d9b565b8801602001955050505b50505092915050565b6001600160a01b0391909116815260200190565b600060808252614df66080830187614cd2565b8281036020840152614e088187614c3c565b8381036040850152614e1a8187614cd2565b9150508281036060840152614e2f8185614cd2565b979650505050505050565b600060a08252614e4d60a0830188614cd2565b8281036020840152614e5f8188614c7f565b8381036040850152614e718188614c3c565b9150508281036060840152614e868186614cd2565b8381036080850152614e988186614cd2565b9998505050505050505050565b600060e08252614eb860e083018a614cd2565b8281036020840152614eca818a614c7f565b8381036040850152614edc818a614c7f565b9150508281036060840152614ef18188614c7f565b8381036080850152614f038188614cd2565b91505082810360a0840152614f188186614cd2565b83810360c0850152614f2a8186614cd2565b9b9a5050505050505050505050565b600060808252614f4c6080830187614cd2565b8281036020840152614f5e8187614cd2565b8381036040850152614f708187614cd2565b9150508281036060840152614e2f8185614c7f565b600060a08252614f9860a0830188614cd2565b8281036020840152614faa8188614cd2565b8381036040850152614fbc8188614cd2565b9150508281036060840152614fd18186614cd2565b8381036080850152614e988186614c7f565b600060a08252614ff660a0830188614cd2565b82810360208401526150088188614cd2565b8381036040850152614e718188614cd2565b901515815260200190565b6000602082526149656020830184614d01565b6020808252602d908201527f6f70706f7274756e697479206d75737420626520696e20696e6974696174656460408201526c20666f722066696e616c697a6560981b606082015260800190565b60208082526046908201527f6f70706f7274756e697479206d75737420626520696e206170706c696361746960408201527f6f6e732073656c656374656420666f72206f70706f7274756e69747920696e696060820152651d1a585d195960d21b608082015260a00190565b6020808252601c908201527f6170706c69636174696f6e20737461747573206e6f742076616c696400000000604082015260600190565b60208082526037908201527f6f70706f7274756e697479206d75737420626520696e2072657669657720666f60408201527f72206170706c69636174696f6e732073656c6563746564000000000000000000606082015260800190565b60208082526011908201527037b7363c9037b933b0b734bd30ba34b7b760791b604082015260600190565b60208082526039908201527f6170706c69636174696f6e20737461747573206368616e6765206d757374206260408201527f652065786563757465642062792062656e656669636961727900000000000000606082015260800190565b6020808252603a908201527f6170706c69636174696f6e20686173206e6f74207374617274656420746f207260408201527f65636569766520706f73744163636f6d706c6973686d656e7473000000000000606082015260800190565b60208082526050908201527f6170706c69636174696f6e206d757374206265207072654163636f6d706c697360408201527f686d656e7473207374617274656420746f2062652066696e616c697a6520707260608201526f654163636f6d706c6973686d656e747360801b608082015260a00190565b60208082526023908201527f6f70706f7274756e697479206d757374206265206f70656e20666f722072657660408201526269657760e81b606082015260800190565b6020808252600a908201526937b7363c9030b236b4b760b11b604082015260600190565b60208082526037908201527f70726520726571756972656d656e742076616c756573206e756d626572206d7560408201527f73742068617665207468652073616d65206c656e677468000000000000000000606082015260800190565b6020808252600d908201526c6e616d6520697320656d70747960981b604082015260600190565b60208082526052908201527f6170706c69636174696f6e206d757374206265207072654163636f6d706c697360408201527f686d656e74732066696e616c697a656420746f206265206569746865722061706060820152711c1c9bdd9959081bdc881c995a9958dd195960721b608082015260a00190565b60208082526010908201526f6f6e6c792062656e656669636961727960801b604082015260600190565b60208082526038908201527f706f737420726571756972656d656e742076616c756573206e756d626572206d60408201527f7573742068617665207468652073616d65206c656e6774680000000000000000606082015260800190565b60208082526018908201527f6f6e6c7920616374697665206f7267616e697a6174696f6e0000000000000000604082015260600190565b60208082526039908201527f6170706c69636174696f6e20686173206e6f74207374617274656420746f207260408201527f656365697665207072654163636f6d706c6973686d656e747300000000000000606082015260800190565b6020808252601490820152736465736372697074696f6e20697320656d70747960601b604082015260600190565b6020808252818101527f6f70706f7274756e697479206973206e6f7420696e206472616674206d6f6465604082015260600190565b60208082526041908201527f6f70706f7274756e697479206d7573742062652066696e616c697a656420666f60408201527f7220636c6f736520706f7374526571756972656d656e7420726563657074696f6060820152603760f91b608082015260a00190565b60208082526055908201527f6170706c69636174696f6e206d7573742068617665207374617274656420726560408201527f63656976696e6720706f73744163636f6d706c6973686d656e747320746f206660608201527434b730b634bd329034ba39903932b1b2b83a34b7b760591b608082015260a00190565b60208082526010908201526f3737ba1037b933b0b734bd30ba34b7b760811b604082015260600190565b6020808252601c908201527f6f70706f7274756e69747920737461747573206e6f742076616c696400000000604082015260600190565b60208082526027908201527f6f70706f7274756e697479206d75737420626520696e20647261667420746f2060408201526631329037b832b760c91b606082015260800190565b60208082526025908201527f6f70706f7274756e697479206e6f74206f70656e20666f72206170706c69636160408201526474696f6e7360d81b606082015260800190565b6020808252600990820152683737ba1030b236b4b760b91b604082015260600190565b60208082526056908201527f6170706c69636174696f6e206d7573742062652065697468657220617070726f60408201527f766564206f722072656a656374656420746f20737461727420726563656976696060820152756e6720706f73744163636f6d706c6973686d656e747360501b608082015260a00190565b6020808252603a908201527f6170706c69636174696f6e20737461747573206368616e6765206d757374206260408201527f65206578656375746564206279206f7267616e697a6174696f6e000000000000606082015260800190565b602080825260409082018190527f6170706c69636174696f6e20706f73744163636f6d706c6973686d656e747320908201527f6d7573742062652066696e616c697a656420746f2066696e616c697a65206974606082015260800190565b60006020825282516020830152602083015160408301526040830151606083015260608301516080830152608083015160a08084015261592d60c0840182614d01565b949350505050565b90815260200190565b9384526001600160a01b039290921660208401526040830152606082015260800190565b600086825260a0602083015261597b60a0830187614d01565b6001600160a01b0395909516604083015250606081019290925260809091015292915050565b60006101008a83528060208401526159bb8184018b614d01565b83810360408501526159cd818b614d01565b6060850199909952505050608081019490945260a084019290925260c083015260e0909101529392505050565b600084825260606020830152615a136060830185614d4c565b8281036040840152615a258185614d4c565b9695505050505050565b918252602082015260400190565b60006101808e83528d6020840152806040840152615a5d8184018e614d01565b8381036060850152615a6f818e614d01565b608085019c909c5250505060a081019790975260c087019590955260e086019390935261010085019190915261012084015261014083015261016090910152949350505050565b958652602086019490945260408501929092526060840152608083015260a082015260c00190565b998a5260208a019890985260408901969096526060880194909452608087019290925260a086015260c085015260e08401526101008301526101208201526101400190565b6040518181016001600160401b0381118282101715615b4157600080fd5b604052919050565b60006001600160401b03821115615b5e578081fd5b5060209081020190565b60009081526020902090565b6001600160a01b0381168114615b8957600080fd5b5056fea264697066735822122034982183ac063395908bdd71e0f51d869aa5710301615898c696ec47fe6b894d64736f6c63430006070033",
  "linkReferences": {},
  "deployedLinkReferences": {}
}