{
  "_format": "hh-sol-artifact-1",
  "contractName": "AkasifyCoreContract",
  "sourceName": "contracts/AkasifyCoreContract.sol",
  "abi": [
    {
      "inputs": [
        {
          "internalType": "address",
          "name": "_admin",
          "type": "address"
        }
      ],
      "stateMutability": "nonpayable",
      "type": "constructor"
    },
    {
      "anonymous": false,
      "inputs": [
        {
          "indexed": false,
          "internalType": "uint256",
          "name": "id",
          "type": "uint256"
        },
        {
          "indexed": false,
          "internalType": "uint256",
          "name": "opportunityId",
          "type": "uint256"
        }
      ],
      "name": "RegisterApplication",
      "type": "event"
    },
    {
      "anonymous": false,
      "inputs": [
        {
          "indexed": false,
          "internalType": "uint256",
          "name": "id",
          "type": "uint256"
        },
        {
          "indexed": false,
          "internalType": "uint256",
          "name": "requirementId",
          "type": "uint256"
        },
        {
          "indexed": false,
          "internalType": "uint256",
          "name": "applicationId",
          "type": "uint256"
        },
        {
          "indexed": false,
          "internalType": "uint256",
          "name": "opportunityId",
          "type": "uint256"
        }
      ],
      "name": "RegisterApplicationPostAccomplishment",
      "type": "event"
    },
    {
      "anonymous": false,
      "inputs": [
        {
          "indexed": false,
          "internalType": "uint256",
          "name": "id",
          "type": "uint256"
        },
        {
          "indexed": false,
          "internalType": "uint256",
          "name": "requirementId",
          "type": "uint256"
        },
        {
          "indexed": false,
          "internalType": "uint256",
          "name": "applicationId",
          "type": "uint256"
        },
        {
          "indexed": false,
          "internalType": "uint256",
          "name": "opportunityId",
          "type": "uint256"
        }
      ],
      "name": "RegisterApplicationPreAccomplishment",
      "type": "event"
    },
    {
      "anonymous": false,
      "inputs": [
        {
          "indexed": false,
          "internalType": "address",
          "name": "account",
          "type": "address"
        }
      ],
      "name": "RegisterBeneficiary",
      "type": "event"
    },
    {
      "anonymous": false,
      "inputs": [
        {
          "indexed": false,
          "internalType": "uint256",
          "name": "id",
          "type": "uint256"
        },
        {
          "indexed": false,
          "internalType": "string",
          "name": "name",
          "type": "string"
        },
        {
          "indexed": false,
          "internalType": "string",
          "name": "description",
          "type": "string"
        }
      ],
      "name": "RegisterOpportunity",
      "type": "event"
    },
    {
      "anonymous": false,
      "inputs": [
        {
          "indexed": false,
          "internalType": "uint256",
          "name": "id",
          "type": "uint256"
        },
        {
          "indexed": false,
          "internalType": "uint256",
          "name": "status",
          "type": "uint256"
        }
      ],
      "name": "UpdateApplicationStatus",
      "type": "event"
    },
    {
      "anonymous": false,
      "inputs": [
        {
          "indexed": false,
          "internalType": "uint256",
          "name": "id",
          "type": "uint256"
        },
        {
          "indexed": false,
          "internalType": "uint256",
          "name": "status",
          "type": "uint256"
        }
      ],
      "name": "UpdateOpportunityStatus",
      "type": "event"
    },
    {
      "inputs": [],
      "name": "admin",
      "outputs": [
        {
          "internalType": "address",
          "name": "",
          "type": "address"
        }
      ],
      "stateMutability": "view",
      "type": "function"
    },
    {
      "inputs": [
        {
          "internalType": "uint256",
          "name": "",
          "type": "uint256"
        }
      ],
      "name": "applications",
      "outputs": [
        {
          "internalType": "uint256",
          "name": "id",
          "type": "uint256"
        },
        {
          "internalType": "uint256",
          "name": "opportunityId",
          "type": "uint256"
        },
        {
          "internalType": "uint256",
          "name": "beneficiaryId",
          "type": "uint256"
        },
        {
          "internalType": "uint256",
          "name": "nextPreRequirementId",
          "type": "uint256"
        },
        {
          "internalType": "uint256",
          "name": "nextPostRequirementId",
          "type": "uint256"
        },
        {
          "internalType": "uint256",
          "name": "nextPreAccomplishmentId",
          "type": "uint256"
        },
        {
          "internalType": "uint256",
          "name": "nextPostAccomplishmentId",
          "type": "uint256"
        },
        {
          "internalType": "uint256",
          "name": "creationDate",
          "type": "uint256"
        },
        {
          "internalType": "uint256",
          "name": "lastUpdate",
          "type": "uint256"
        },
        {
          "internalType": "uint256",
          "name": "status",
          "type": "uint256"
        }
      ],
      "stateMutability": "view",
      "type": "function"
    },
    {
      "inputs": [
        {
          "internalType": "uint256",
          "name": "opportunityId",
          "type": "uint256"
        }
      ],
      "name": "createApplication",
      "outputs": [],
      "stateMutability": "nonpayable",
      "type": "function"
    },
    {
      "inputs": [
        {
          "internalType": "string",
          "name": "name",
          "type": "string"
        },
        {
          "internalType": "string",
          "name": "description",
          "type": "string"
        },
        {
          "internalType": "uint256",
          "name": "preRequirementsDeadline",
          "type": "uint256"
        },
        {
          "internalType": "uint256",
          "name": "postRequirementsDeadline",
          "type": "uint256"
        },
        {
          "internalType": "uint256[]",
          "name": "preRequirementTypes",
          "type": "uint256[]"
        },
        {
          "internalType": "uint256[]",
          "name": "preRequirementValues",
          "type": "uint256[]"
        },
        {
          "internalType": "string[]",
          "name": "preRequirementNames",
          "type": "string[]"
        },
        {
          "internalType": "uint256[]",
          "name": "postRequirementTypes",
          "type": "uint256[]"
        },
        {
          "internalType": "uint256[]",
          "name": "postRequirementValues",
          "type": "uint256[]"
        },
        {
          "internalType": "string[]",
          "name": "postRequirementNames",
          "type": "string[]"
        }
      ],
      "name": "createOpportunity",
      "outputs": [],
      "stateMutability": "nonpayable",
      "type": "function"
    },
    {
      "inputs": [
        {
          "internalType": "uint256",
          "name": "applicationId",
          "type": "uint256"
        },
        {
          "internalType": "string",
          "name": "accomplishmentValue",
          "type": "string"
        }
      ],
      "name": "createPostAccomplishment",
      "outputs": [],
      "stateMutability": "nonpayable",
      "type": "function"
    },
    {
      "inputs": [
        {
          "internalType": "uint256",
          "name": "opportunityId",
          "type": "uint256"
        },
        {
          "internalType": "uint256",
          "name": "requirementType",
          "type": "uint256"
        },
        {
          "internalType": "uint256",
          "name": "transferValue",
          "type": "uint256"
        },
        {
          "internalType": "string",
          "name": "name",
          "type": "string"
        }
      ],
      "name": "createPostRequirement",
      "outputs": [],
      "stateMutability": "nonpayable",
      "type": "function"
    },
    {
      "inputs": [
        {
          "internalType": "uint256",
          "name": "applicationId",
          "type": "uint256"
        },
        {
          "internalType": "string",
          "name": "accomplishmentValue",
          "type": "string"
        }
      ],
      "name": "createPreAccomplishment",
      "outputs": [],
      "stateMutability": "nonpayable",
      "type": "function"
    },
    {
      "inputs": [
        {
          "internalType": "uint256",
          "name": "opportunityId",
          "type": "uint256"
        },
        {
          "internalType": "uint256",
          "name": "requirementType",
          "type": "uint256"
        },
        {
          "internalType": "uint256",
          "name": "transferValue",
          "type": "uint256"
        },
        {
          "internalType": "string",
          "name": "name",
          "type": "string"
        }
      ],
      "name": "createPreRequirement",
      "outputs": [],
      "stateMutability": "nonpayable",
      "type": "function"
    },
    {
      "inputs": [
        {
          "internalType": "uint256",
          "name": "opportunityId",
          "type": "uint256"
        },
        {
          "internalType": "address",
          "name": "beneficiaryAddress",
          "type": "address"
        }
      ],
      "name": "getApplication",
      "outputs": [
        {
          "internalType": "uint256",
          "name": "",
          "type": "uint256"
        },
        {
          "internalType": "uint256",
          "name": "",
          "type": "uint256"
        },
        {
          "internalType": "uint256",
          "name": "",
          "type": "uint256"
        },
        {
          "internalType": "uint256",
          "name": "",
          "type": "uint256"
        },
        {
          "internalType": "uint256",
          "name": "",
          "type": "uint256"
        },
        {
          "internalType": "uint256",
          "name": "",
          "type": "uint256"
        }
      ],
      "stateMutability": "view",
      "type": "function"
    },
    {
      "inputs": [],
      "name": "getBeneficiaries",
      "outputs": [
        {
          "internalType": "uint256[]",
          "name": "",
          "type": "uint256[]"
        },
        {
          "internalType": "address[]",
          "name": "",
          "type": "address[]"
        },
        {
          "internalType": "uint256[]",
          "name": "",
          "type": "uint256[]"
        },
        {
          "internalType": "uint256[]",
          "name": "",
          "type": "uint256[]"
        }
      ],
      "stateMutability": "view",
      "type": "function"
    },
    {
      "inputs": [
        {
          "internalType": "address",
          "name": "_account",
          "type": "address"
        }
      ],
      "name": "getBeneficiaryByAddress",
      "outputs": [
        {
          "internalType": "uint256",
          "name": "",
          "type": "uint256"
        },
        {
          "internalType": "address",
          "name": "",
          "type": "address"
        },
        {
          "internalType": "uint256",
          "name": "",
          "type": "uint256"
        },
        {
          "internalType": "uint256",
          "name": "",
          "type": "uint256"
        }
      ],
      "stateMutability": "view",
      "type": "function"
    },
    {
      "inputs": [
        {
          "internalType": "uint256",
          "name": "_id",
          "type": "uint256"
        }
      ],
      "name": "getBeneficiaryById",
      "outputs": [
        {
          "internalType": "uint256",
          "name": "",
          "type": "uint256"
        },
        {
          "internalType": "address",
          "name": "",
          "type": "address"
        },
        {
          "internalType": "uint256",
          "name": "",
          "type": "uint256"
        },
        {
          "internalType": "uint256",
          "name": "",
          "type": "uint256"
        }
      ],
      "stateMutability": "view",
      "type": "function"
    },
    {
      "inputs": [
        {
          "internalType": "address",
          "name": "account",
          "type": "address"
        }
      ],
      "name": "getBeneficiaryIdByAddress",
      "outputs": [
        {
          "internalType": "uint256",
          "name": "",
          "type": "uint256"
        }
      ],
      "stateMutability": "view",
      "type": "function"
    },
    {
      "inputs": [
        {
          "internalType": "address",
          "name": "account",
          "type": "address"
        }
      ],
      "name": "getBeneficiaryStatusByAddress",
      "outputs": [
        {
          "internalType": "uint256",
          "name": "",
          "type": "uint256"
        }
      ],
      "stateMutability": "view",
      "type": "function"
    },
    {
      "inputs": [],
      "name": "getOpportunities",
      "outputs": [
        {
          "internalType": "uint256[]",
          "name": "",
          "type": "uint256[]"
        },
        {
          "internalType": "string[]",
          "name": "",
          "type": "string[]"
        },
        {
          "internalType": "string[]",
          "name": "",
          "type": "string[]"
        },
        {
          "internalType": "string[]",
          "name": "",
          "type": "string[]"
        },
        {
          "internalType": "uint256[]",
          "name": "",
          "type": "uint256[]"
        },
        {
          "internalType": "uint256[]",
          "name": "",
          "type": "uint256[]"
        },
        {
          "internalType": "uint256[]",
          "name": "",
          "type": "uint256[]"
        }
      ],
      "stateMutability": "view",
      "type": "function"
    },
    {
      "inputs": [
        {
          "internalType": "uint256",
          "name": "opportunityId",
          "type": "uint256"
        }
      ],
      "name": "getOpportunityById",
      "outputs": [
        {
          "internalType": "uint256",
          "name": "",
          "type": "uint256"
        },
        {
          "internalType": "string",
          "name": "",
          "type": "string"
        },
        {
          "internalType": "string",
          "name": "",
          "type": "string"
        },
        {
          "internalType": "uint256",
          "name": "",
          "type": "uint256"
        },
        {
          "internalType": "uint256",
          "name": "",
          "type": "uint256"
        },
        {
          "internalType": "uint256",
          "name": "",
          "type": "uint256"
        },
        {
          "internalType": "uint256",
          "name": "",
          "type": "uint256"
        },
        {
          "internalType": "uint256",
          "name": "",
          "type": "uint256"
        }
      ],
      "stateMutability": "view",
      "type": "function"
    },
    {
      "inputs": [
        {
          "internalType": "address",
          "name": "_account",
          "type": "address"
        }
      ],
      "name": "getOrganizationByAddress",
      "outputs": [
        {
          "internalType": "uint256",
          "name": "",
          "type": "uint256"
        },
        {
          "internalType": "string",
          "name": "",
          "type": "string"
        },
        {
          "internalType": "address",
          "name": "",
          "type": "address"
        },
        {
          "internalType": "uint256",
          "name": "",
          "type": "uint256"
        },
        {
          "internalType": "uint256",
          "name": "",
          "type": "uint256"
        }
      ],
      "stateMutability": "view",
      "type": "function"
    },
    {
      "inputs": [
        {
          "internalType": "uint256",
          "name": "_id",
          "type": "uint256"
        }
      ],
      "name": "getOrganizationById",
      "outputs": [
        {
          "internalType": "uint256",
          "name": "",
          "type": "uint256"
        },
        {
          "internalType": "string",
          "name": "",
          "type": "string"
        },
        {
          "internalType": "address",
          "name": "",
          "type": "address"
        },
        {
          "internalType": "uint256",
          "name": "",
          "type": "uint256"
        },
        {
          "internalType": "uint256",
          "name": "",
          "type": "uint256"
        }
      ],
      "stateMutability": "view",
      "type": "function"
    },
    {
      "inputs": [
        {
          "internalType": "address",
          "name": "account",
          "type": "address"
        }
      ],
      "name": "getOrganizationIdByAddress",
      "outputs": [
        {
          "internalType": "uint256",
          "name": "",
          "type": "uint256"
        }
      ],
      "stateMutability": "view",
      "type": "function"
    },
    {
      "inputs": [],
      "name": "getOrganizations",
      "outputs": [
        {
          "internalType": "uint256[]",
          "name": "",
          "type": "uint256[]"
        },
        {
          "internalType": "string[]",
          "name": "",
          "type": "string[]"
        },
        {
          "internalType": "address[]",
          "name": "",
          "type": "address[]"
        },
        {
          "internalType": "uint256[]",
          "name": "",
          "type": "uint256[]"
        },
        {
          "internalType": "uint256[]",
          "name": "",
          "type": "uint256[]"
        }
      ],
      "stateMutability": "view",
      "type": "function"
    },
    {
      "inputs": [
        {
          "internalType": "uint256",
          "name": "applicationId",
          "type": "uint256"
        },
        {
          "internalType": "uint256",
          "name": "postAccomplishmentId",
          "type": "uint256"
        }
      ],
      "name": "getPostAccomplishment",
      "outputs": [
        {
          "components": [
            {
              "internalType": "uint256",
              "name": "id",
              "type": "uint256"
            },
            {
              "internalType": "uint256",
              "name": "requirementId",
              "type": "uint256"
            },
            {
              "internalType": "uint256",
              "name": "accomplishDate",
              "type": "uint256"
            },
            {
              "internalType": "uint256",
              "name": "accomplishCategory",
              "type": "uint256"
            },
            {
              "internalType": "string",
              "name": "accomplishValue",
              "type": "string"
            }
          ],
          "internalType": "struct AkasifyCoreContract.Accomplishment",
          "name": "_accomplishment",
          "type": "tuple"
        }
      ],
      "stateMutability": "view",
      "type": "function"
    },
    {
      "inputs": [
        {
          "internalType": "uint256",
          "name": "applicationId",
          "type": "uint256"
        }
      ],
      "name": "getPostAccomplishments",
      "outputs": [
        {
          "internalType": "uint256[]",
          "name": "",
          "type": "uint256[]"
        },
        {
          "internalType": "uint256[]",
          "name": "",
          "type": "uint256[]"
        },
        {
          "internalType": "uint256[]",
          "name": "",
          "type": "uint256[]"
        },
        {
          "internalType": "uint256[]",
          "name": "",
          "type": "uint256[]"
        },
        {
          "internalType": "string[]",
          "name": "",
          "type": "string[]"
        }
      ],
      "stateMutability": "view",
      "type": "function"
    },
    {
      "inputs": [
        {
          "internalType": "uint256",
          "name": "opportunityId",
          "type": "uint256"
        }
      ],
      "name": "getPostRequirementsByOpportunityId",
      "outputs": [
        {
          "internalType": "uint256[]",
          "name": "",
          "type": "uint256[]"
        },
        {
          "internalType": "uint256[]",
          "name": "",
          "type": "uint256[]"
        },
        {
          "internalType": "uint256[]",
          "name": "",
          "type": "uint256[]"
        },
        {
          "internalType": "string[]",
          "name": "",
          "type": "string[]"
        }
      ],
      "stateMutability": "view",
      "type": "function"
    },
    {
      "inputs": [
        {
          "internalType": "uint256",
          "name": "applicationId",
          "type": "uint256"
        },
        {
          "internalType": "uint256",
          "name": "preAccomplishmentId",
          "type": "uint256"
        }
      ],
      "name": "getPreAccomplishment",
      "outputs": [
        {
          "components": [
            {
              "internalType": "uint256",
              "name": "id",
              "type": "uint256"
            },
            {
              "internalType": "uint256",
              "name": "requirementId",
              "type": "uint256"
            },
            {
              "internalType": "uint256",
              "name": "accomplishDate",
              "type": "uint256"
            },
            {
              "internalType": "uint256",
              "name": "accomplishCategory",
              "type": "uint256"
            },
            {
              "internalType": "string",
              "name": "accomplishValue",
              "type": "string"
            }
          ],
          "internalType": "struct AkasifyCoreContract.Accomplishment",
          "name": "_accomplishment",
          "type": "tuple"
        }
      ],
      "stateMutability": "view",
      "type": "function"
    },
    {
      "inputs": [
        {
          "internalType": "uint256",
          "name": "applicationId",
          "type": "uint256"
        }
      ],
      "name": "getPreAccomplishmentsByApplicationId",
      "outputs": [
        {
          "internalType": "uint256[]",
          "name": "",
          "type": "uint256[]"
        },
        {
          "internalType": "uint256[]",
          "name": "",
          "type": "uint256[]"
        },
        {
          "internalType": "uint256[]",
          "name": "",
          "type": "uint256[]"
        },
        {
          "internalType": "uint256[]",
          "name": "",
          "type": "uint256[]"
        },
        {
          "internalType": "string[]",
          "name": "",
          "type": "string[]"
        }
      ],
      "stateMutability": "view",
      "type": "function"
    },
    {
      "inputs": [
        {
          "internalType": "uint256",
          "name": "opportunityId",
          "type": "uint256"
        }
      ],
      "name": "getPreRequirementsByOpportunityId",
      "outputs": [
        {
          "internalType": "uint256[]",
          "name": "",
          "type": "uint256[]"
        },
        {
          "internalType": "uint256[]",
          "name": "",
          "type": "uint256[]"
        },
        {
          "internalType": "uint256[]",
          "name": "",
          "type": "uint256[]"
        },
        {
          "internalType": "string[]",
          "name": "",
          "type": "string[]"
        }
      ],
      "stateMutability": "view",
      "type": "function"
    },
    {
      "inputs": [
        {
          "internalType": "address",
          "name": "account",
          "type": "address"
        }
      ],
      "name": "getRole",
      "outputs": [
        {
          "internalType": "string",
          "name": "",
          "type": "string"
        }
      ],
      "stateMutability": "view",
      "type": "function"
    },
    {
      "inputs": [
        {
          "internalType": "address",
          "name": "account",
          "type": "address"
        }
      ],
      "name": "isActiveBeneficiary",
      "outputs": [
        {
          "internalType": "bool",
          "name": "",
          "type": "bool"
        }
      ],
      "stateMutability": "view",
      "type": "function"
    },
    {
      "inputs": [
        {
          "internalType": "address",
          "name": "account",
          "type": "address"
        }
      ],
      "name": "isBeneficiary",
      "outputs": [
        {
          "internalType": "bool",
          "name": "",
          "type": "bool"
        }
      ],
      "stateMutability": "view",
      "type": "function"
    },
    {
      "inputs": [
        {
          "internalType": "address",
          "name": "account",
          "type": "address"
        }
      ],
      "name": "isOrganization",
      "outputs": [
        {
          "internalType": "bool",
          "name": "",
          "type": "bool"
        }
      ],
      "stateMutability": "view",
      "type": "function"
    },
    {
      "inputs": [],
      "name": "nextApplicationId",
      "outputs": [
        {
          "internalType": "uint256",
          "name": "",
          "type": "uint256"
        }
      ],
      "stateMutability": "view",
      "type": "function"
    },
    {
      "inputs": [],
      "name": "nextBeneficiaryId",
      "outputs": [
        {
          "internalType": "uint256",
          "name": "",
          "type": "uint256"
        }
      ],
      "stateMutability": "view",
      "type": "function"
    },
    {
      "inputs": [],
      "name": "nextOpportunityId",
      "outputs": [
        {
          "internalType": "uint256",
          "name": "",
          "type": "uint256"
        }
      ],
      "stateMutability": "view",
      "type": "function"
    },
    {
      "inputs": [],
      "name": "nextOrganizationId",
      "outputs": [
        {
          "internalType": "uint256",
          "name": "",
          "type": "uint256"
        }
      ],
      "stateMutability": "view",
      "type": "function"
    },
    {
      "inputs": [
        {
          "internalType": "uint256",
          "name": "",
          "type": "uint256"
        }
      ],
      "name": "opportunities",
      "outputs": [
        {
          "internalType": "uint256",
          "name": "id",
          "type": "uint256"
        },
        {
          "internalType": "uint256",
          "name": "organizationId",
          "type": "uint256"
        },
        {
          "internalType": "string",
          "name": "name",
          "type": "string"
        },
        {
          "internalType": "string",
          "name": "description",
          "type": "string"
        },
        {
          "internalType": "uint256",
          "name": "preRequirementsDeadline",
          "type": "uint256"
        },
        {
          "internalType": "uint256",
          "name": "postRequirementsDeadline",
          "type": "uint256"
        },
        {
          "internalType": "uint256",
          "name": "creationDate",
          "type": "uint256"
        },
        {
          "internalType": "uint256",
          "name": "lastUpdate",
          "type": "uint256"
        },
        {
          "internalType": "uint256",
          "name": "status",
          "type": "uint256"
        },
        {
          "internalType": "uint256",
          "name": "nextPreRequirementId",
          "type": "uint256"
        },
        {
          "internalType": "uint256",
          "name": "nextPostRequirementId",
          "type": "uint256"
        }
      ],
      "stateMutability": "view",
      "type": "function"
    },
    {
      "inputs": [],
      "name": "registerBeneficiary",
      "outputs": [],
      "stateMutability": "nonpayable",
      "type": "function"
    },
    {
      "inputs": [
        {
          "internalType": "address payable",
          "name": "account",
          "type": "address"
        },
        {
          "internalType": "uint256",
          "name": "status",
          "type": "uint256"
        }
      ],
      "name": "registerBeneficiaryByAdmin",
      "outputs": [],
      "stateMutability": "nonpayable",
      "type": "function"
    },
    {
      "inputs": [
        {
          "internalType": "string",
          "name": "name",
          "type": "string"
        },
        {
          "internalType": "address payable",
          "name": "account",
          "type": "address"
        },
        {
          "internalType": "uint256",
          "name": "status",
          "type": "uint256"
        }
      ],
      "name": "registerOrganizationByAdmin",
      "outputs": [
        {
          "internalType": "uint256",
          "name": "",
          "type": "uint256"
        }
      ],
      "stateMutability": "nonpayable",
      "type": "function"
    },
    {
      "inputs": [
        {
          "internalType": "uint256",
          "name": "applicationId",
          "type": "uint256"
        },
        {
          "internalType": "uint256",
          "name": "status",
          "type": "uint256"
        }
      ],
      "name": "updateApplicationStatus",
      "outputs": [],
      "stateMutability": "nonpayable",
      "type": "function"
    },
    {
      "inputs": [
        {
          "internalType": "uint256",
          "name": "opportunityId",
          "type": "uint256"
        },
        {
          "internalType": "uint256",
          "name": "status",
          "type": "uint256"
        }
      ],
      "name": "updateOpportunityStatus",
      "outputs": [],
      "stateMutability": "nonpayable",
      "type": "function"
    }
  ],
  "bytecode": "0x60806040523480156200001157600080fd5b506040516200558b3803806200558b83398101604081905262000034916200005a565b600880546001600160a01b0319166001600160a01b03929092169190911790556200008a565b6000602082840312156200006c578081fd5b81516001600160a01b038116811462000083578182fd5b9392505050565b6154f1806200009a6000396000f3fe608060405234801561001057600080fd5b50600436106102485760003560e01c8063957abe0b1161013b578063c821b4fb116100b8578063df19ce4d1161007c578063df19ce4d1461058b578063dfefadff1461059e578063eadd2f61146105c7578063f851a440146105da578063fcfb8bb2146105ef57610248565b8063c821b4fb14610537578063cbdbc9a61461054a578063cfd664d61461055d578063d11f3c4714610570578063d2830de31461058357610248565b8063aa0a57ab116100ff578063aa0a57ab146104a9578063acaf764d146104cc578063acd6c98f146104df578063aed35ccc14610509578063b1ce8eab1461052457610248565b8063957abe0b1461043057806395c32445146104505780639754a3a81461045857806398077031146104715780639d19b2261461049657610248565b80635825271a116101c957806371e0e09e1161018d57806371e0e09e146103b85780637a47523b146103cb578063857bbd28146103f25780638c4be5eb14610405578063913b722c1461041857610248565b80635825271a14610364578063625338cb14610377578063635c54551461037f5780636e46cc4e14610392578063706f48b1146103a557610248565b8063442767331161021057806344276733146102d75780634854e204146102f75780634bcaaa011461031b5780634f4e45341461033e5780635080d5fb1461035157610248565b80631283ca701461024d57806327f9e105146102625780632832163f1461028b578063292719d3146102af5780633859305e146102cf575b600080fd5b61026061025b36600461448d565b6105f7565b005b61027561027036600461429d565b6107c8565b6040516102829190614937565b60405180910390f35b61029e61029936600461429d565b61082f565b60405161028295949392919061527f565b6102c26102bd36600461429d565b6109d2565b6040516102829190615252565b6102c2610a20565b6102ea6102e536600461429d565b610a26565b6040516102829190614942565b61030a61030536600461448d565b610afc565b6040516102829594939291906148d9565b61032e61032936600461448d565b610e4a565b604051610282949392919061488d565b61026061034c3660046144d4565b61112a565b6102c261035f36600461429d565b6113e3565b610260610372366004614342565b61144f565b6102c2611875565b61029e61038d36600461448d565b61187b565b6102c26103a036600461429d565b6119ae565b6102606103b33660046144d4565b611a1c565b6102606103c63660046142c0565b611c1b565b6103de6103d936600461448d565b611cf2565b6040516102829897969594939291906152be565b610260610400366004614539565b611e81565b61032e61041336600461448d565b611f83565b61042061224f565b6040516102829493929190614737565b61044361043e366004614518565b61246a565b6040516102829190615207565b610260612584565b610460612684565b60405161028295949392919061478e565b61048461047f3660046144a5565b6129c0565b604051610282969594939291906153e5565b6102756104a436600461429d565b612d2a565b6104bc6104b736600461448d565b612d6b565b604051610282949392919061525b565b61030a6104da36600461448d565b612dcf565b6104f26104ed36600461448d565b613109565b6040516102829b9a9998979695949392919061535a565b61051161326c565b60405161028297969594939291906147f9565b61027561053236600461429d565b613749565b610443610545366004614518565b6137a8565b6104bc61055836600461429d565b6137d5565b61026061056b366004614518565b61387f565b61026061057e366004614539565b613abb565b6102c2613bbd565b6102c26105993660046142eb565b613bc3565b6105b16105ac36600461448d565b613c9b565b6040516102829a9998979695949392919061540d565b6102606105d5366004614518565b613cef565b6105e2613fc6565b6040516102829190614723565b6102c2613fd5565b6000818152600460205260409020600801546002146106315760405162461bcd60e51b815260040161062890615068565b60405180910390fd5b6007546000818152600660205260409020908155600101819055610654336109d2565b600580546000908152600660208190526040808320600201949094556007805483528483206003018390558054835284832060040183905580548352848320909301829055825482528382200181905581548152828120429083018190558254825283822060080155905481522060016009909101556106d2613fdb565b600080825260208083018281524260408086019182526001606087018181528251808701845287815260808901908152600754885260068752928720600a0180548084018255908852968690208851600590980201968755935190860155905160028501559051600384015551805184939261075592600485019291019061400a565b505060078054600090815260066020526040808220600501805460019081019091559254808352918190209092015491517ff0ecfc9d01e072b344ab803487dff20893bdb9f671d08bd9e260d0f8b5fae84d93506107b3929061534c565b60405180910390a15050600780546001019055565b600080805b600154811015610826576000818152602081905260409020600101546001600160a01b03858116911614801561081457506000818152602081905260409020600390810154145b1561081e57600191505b6001016107cd565b5090505b919050565b60006060818080805b6003548110156109ab5761084a614088565b600260008381526020019081526020016000206040518060a001604052908160008201548152602001600182018054600181600116156101000203166002900480601f01602080910402602001604051908101604052809291908181526020018280546001816001161561010002031660029004801561090b5780601f106108e05761010080835404028352916020019161090b565b820191906000526020600020905b8154815290600101906020018083116108ee57829003601f168201915b505050505081526020016002820160009054906101000a90046001600160a01b03166001600160a01b03166001600160a01b03168152602001600382015481526020016004820154815250509050876001600160a01b031681604001516001600160a01b031614156109a2578051602082015160408301516060840151608090940151929950909750955090935091506109c99050565b50600101610838565b50506040805160208101909152600080825294509250839150819050805b91939590929450565b600080805b600154811015610826576000818152602081905260409020600101546001600160a01b0385811691161415610a185760008181526020819052604090205491505b6001016109d7565b60015481565b6008546060906001600160a01b0383811691161415610a61575060408051808201909152600581526430b236b4b760d91b602082015261082a565b610a6a82613749565b151560011415610a9d575060408051808201909152600c81526b37b933b0b734bd30ba34b7b760a11b602082015261082a565b610aa682612d2a565b151560011415610ad8575060408051808201909152600b81526a62656e656669636961727960a81b602082015261082a565b506040805180820190915260078152663b34b9b4ba37b960c91b602082015261082a565b60608060608060606000600660008881526020019081526020016000209050606081600401546001600160401b0381118015610b3757600080fd5b50604051908082528060200260200182016040528015610b61578160200160208202803683370190505b509050606082600401546001600160401b0381118015610b8057600080fd5b50604051908082528060200260200182016040528015610baa578160200160208202803683370190505b509050606083600401546001600160401b0381118015610bc957600080fd5b50604051908082528060200260200182016040528015610bf3578160200160208202803683370190505b509050606084600401546001600160401b0381118015610c1257600080fd5b50604051908082528060200260200182016040528015610c3c578160200160208202803683370190505b509050606085600401546001600160401b0381118015610c5b57600080fd5b50604051908082528060200260200182016040528015610c8f57816020015b6060815260200190600190039081610c7a5790505b50905060005b8660060154811015610e3657610ca9613fdb565b87600b018281548110610cb857fe5b90600052602060002090600502016040518060a001604052908160008201548152602001600182015481526020016002820154815260200160038201548152602001600482018054600181600116156101000203166002900480601f016020809104026020016040519081016040528092919081815260200182805460018160011615610100020316600290048015610d925780601f10610d6757610100808354040283529160200191610d92565b820191906000526020600020905b815481529060010190602001808311610d7557829003601f168201915b50505050508152505090508060000151878381518110610dae57fe5b6020026020010181815250508060200151868381518110610dcb57fe5b6020026020010181815250508060400151858381518110610de857fe5b6020026020010181815250508060600151848381518110610e0557fe5b6020026020010181815250508060800151838381518110610e2257fe5b602090810291909101015250600101610c95565b50939b929a50909850965090945092505050565b6000818152600460205260409020600a81015460609182918291829182906001600160401b0381118015610e7d57600080fd5b50604051908082528060200260200182016040528015610ea7578160200160208202803683370190505b509050606082600a01546001600160401b0381118015610ec657600080fd5b50604051908082528060200260200182016040528015610ef0578160200160208202803683370190505b509050606083600a01546001600160401b0381118015610f0f57600080fd5b50604051908082528060200260200182016040528015610f39578160200160208202803683370190505b509050606084600a01546001600160401b0381118015610f5857600080fd5b50604051908082528060200260200182016040528015610f8c57816020015b6060815260200190600190039081610f775790505b50905060005b85600a015481101561111657610fa6613fdb565b86600c018281548110610fb557fe5b90600052602060002090600502016040518060a001604052908160008201548152602001600182015481526020016002820154815260200160038201548152602001600482018054600181600116156101000203166002900480601f01602080910402602001604051908101604052809291908181526020018280546001816001161561010002031660029004801561108f5780601f106110645761010080835404028352916020019161108f565b820191906000526020600020905b81548152906001019060200180831161107257829003601f168201915b505050505081525050905080600001518683815181106110ab57fe5b60200260200101818152505080604001518583815181106110c857fe5b60200260200101818152505080606001518483815181106110e557fe5b602002602001018181525050806080015183838151811061110257fe5b602090810291909101015250600101610f92565b5092975090955093509150505b9193509193565b600061113533612d2a565b9050806111545760405162461bcd60e51b815260040161062890614d60565b6000838152600660205260409020600901546001146111855760405162461bcd60e51b815260040161062890614e1e565b6000838152600660208181526040808420815160a081018352600580830154825294845260038083015482860190815242948301948552600260608401818152608085018c8152600a909601805460018181018355918c529a89902086519b909a02909901998a559151978901979097559351958701959095559151938501939093559151805192939261121f926004850192019061400a565b50505060008381526006602090815260408083206003810154600191820154855260049093529220600901549101101561136e5760008381526006602081815260408084206005808201805460019081019182905560038085018054830190819055865160a08101885293845297875282870197885242838701908152606084018381528751808a019098528a885260808501978852600a90960180548085018255908b529988902084519a90950290940198895596519088015590516002870155905193850193909355518051929392611300926004850192019061400a565b5050506000838152600660205260409081902060058101805460018082019092556003830154919092015492517f3bd69d0338add0787747b118da14e4aeba941afe53638eab003a9d359f3214af93611361939260001901918891906153ca565b60405180910390a16113de565b600083815260066020526040908190206005810154600382015460019092015492517f3bd69d0338add0787747b118da14e4aeba941afe53638eab003a9d359f3214af936113bf93918891906153ca565b60405180910390a1600083815260066020526040902060026009909101555b505050565b600080805b60035481101561082657600081815260026020819052604090912001546001600160a01b03858116911614801561143057506000818152600260205260409020600401546003145b156114475760008181526002602052604090205491505b6001016113e8565b600061145a33613749565b9050806114795760405162461bcd60e51b815260040161062890614aa2565b60008b511161149a5760405162461bcd60e51b815260040161062890614cc1565b60008a51116114bb5760405162461bcd60e51b815260040161062890614e7b565b855187511480156114cd575084518651145b6114e95760405162461bcd60e51b815260040161062890614c64565b825184511480156114fb575081518351145b6115175760405162461bcd60e51b815260040161062890614d8a565b600554600081815260046020526040902055611532336113e3565b6005805460009081526004602090815260408083206001019490945591548152919091208c5161156a926002909201918e019061400a565b5060055460009081526004602090815260409091208b51611593926003909201918d019061400a565b50600580546000908152600460208190526040808320426006909101819055845484528184209092018d90558354835280832084018c905583548352808320600701919091559154815290812060016008909101555b87518110156116f857600554600081815260046020908152604091829020825160a08101845260098201548152918201939093528a51600b9093019290918201908b908590811061163657fe5b6020026020010151815260200189848151811061164f57fe5b6020026020010151815260200188848151811061166857fe5b602090810291909101810151909152825460018181018555600094855293829020835160059092020190815582820151938101939093556040820151600284015560608201516003840155608082015180519293926116cd926004850192019061400a565b50506005546000908152600460205260409020600901805460019081019091559190910190506115e9565b5060005b845181101561180b57600554600081815260046020908152604091829020825160a081018452600a8201548152918201939093528751600c90930192909182019088908590811061174957fe5b6020026020010151815260200186848151811061176257fe5b6020026020010151815260200185848151811061177b57fe5b602090810291909101810151909152825460018181018555600094855293829020835160059092020190815582820151938101939093556040820151600284015560608201516003840155608082015180519293926117e0926004850192019061400a565b50506005546000908152600460205260409020600a01805460019081019091559190910190506116fc565b506005546000818152600460205260409081902090517f217f6f8566b5368c91631b32159051c0f0fc3ed5c77908901e6a2ef3f7df835992611857929091600282019160030190615317565b60405180910390a15050600580546001019055505050505050505050565b60075481565b60006060600080600061188c614088565b600260008881526020019081526020016000206040518060a001604052908160008201548152602001600182018054600181600116156101000203166002900480601f01602080910402602001604051908101604052809291908181526020018280546001816001161561010002031660029004801561194d5780601f106119225761010080835404028352916020019161194d565b820191906000526020600020905b81548152906001019060200180831161193057829003601f168201915b505050918352505060028201546001600160a01b031660208083019190915260038301546040808401919091526004909301546060928301528351908401519284015191840151608090940151909b929a5090985091965090945092505050565b600080805b600154811015610826576000818152602081905260409020600101546001600160a01b0385811691161480156119fa57506000818152602081905260409020600390810154145b15611a145760008181526020819052604090206003015491505b6001016119b3565b6000611a2733612d2a565b905080611a465760405162461bcd60e51b815260040161062890614d60565b600083815260066020526040902060090154600514611a775760405162461bcd60e51b815260040161062890614b2a565b6000838152600660208181526040808420815160a08101835281850154815293835260048082015485850190815242938601938452600260608701818152608088018b8152600b909501805460018181018355918b529988902089516005909b0201998a5592519289019290925593519387019390935591516003860155518051939493611b0d9392850192919091019061400a565b5050506000838152600660209081526040808320600480820154600192830154865293529220600a015491011015611c02576000838152600660208181526040808420808401805460019081019182905560048084018054830190819055855160a0810187529384529686528286019687524294830194855260608301828152608084018b8152600b90950180548085018255908a529887902084516005909a02019889559651918801919091559251600287015593516003860155518051939493611be19392850192919091019061400a565b505050600083815260066020819052604090912001805460010190556113de565b5050600090815260066020819052604090912060090155565b6008546001600160a01b03163314611c455760405162461bcd60e51b815260040161062890614c40565b60408051608081018252600180548083526001600160a01b03868116602080860191825242868801908152606087018981526000958652918590529387902095518655905185850180546001600160a01b03191691909316179091559051600284015551600390920191909155805481019055517f67bf623e5c0c95725ab7b0d181e969032a96122e243710f76311bae55f89df7190611ce6908490614723565b60405180910390a15050565b6000606080600080600080600080600460008b815260200190815260200160002090508060010154816002018260030183600401548460050154856006015486600701548760080154868054600181600116156101000203166002900480601f016020809104026020016040519081016040528092919081815260200182805460018160011615610100020316600290048015611dd05780601f10611da557610100808354040283529160200191611dd0565b820191906000526020600020905b815481529060010190602001808311611db357829003601f168201915b5050895460408051602060026001851615610100026000190190941693909304601f8101849004840282018401909252818152959c508b945092508401905082828015611e5e5780601f10611e3357610100808354040283529160200191611e5e565b820191906000526020600020905b815481529060010190602001808311611e4157829003601f168201915b505050505095509850985098509850985098509850985050919395975091939597565b6000611e8c33613749565b905080611eab5760405162461bcd60e51b815260040161062890614aa2565b600085815260046020526040902060080154600114611edc5760405162461bcd60e51b815260040161062890614ea9565b6000858152600460208181526040808420815160a081018352600a82015481528084018b81529281018a8152606082018a8152608083018a8152600c909401805460018181018355918a529887902084516005909a020198895594519488019490945551600287015591516003860155518051919493611f62939085019291019061400a565b505050600094855250506004602052505060409020600a0180546001019055565b6000818152600460205260409020600981015460609182918291829182906001600160401b0381118015611fb657600080fd5b50604051908082528060200260200182016040528015611fe0578160200160208202803683370190505b509050606082600901546001600160401b0381118015611fff57600080fd5b50604051908082528060200260200182016040528015612029578160200160208202803683370190505b509050606083600901546001600160401b038111801561204857600080fd5b50604051908082528060200260200182016040528015612072578160200160208202803683370190505b509050606084600901546001600160401b038111801561209157600080fd5b506040519080825280602002602001820160405280156120c557816020015b60608152602001906001900390816120b05790505b50905060005b8560090154811015611116576120df613fdb565b86600b0182815481106120ee57fe5b90600052602060002090600502016040518060a001604052908160008201548152602001600182015481526020016002820154815260200160038201548152602001600482018054600181600116156101000203166002900480601f0160208091040260200160405190810160405280929190818152602001828054600181600116156101000203166002900480156121c85780601f1061219d576101008083540402835291602001916121c8565b820191906000526020600020905b8154815290600101906020018083116121ab57829003601f168201915b505050505081525050905080600001518683815181106121e457fe5b602002602001018181525050806040015185838151811061220157fe5b602002602001018181525050806060015184838151811061221e57fe5b602002602001018181525050806080015183838151811061223b57fe5b6020908102919091010152506001016120cb565b60608060608060606001546001600160401b038111801561226f57600080fd5b50604051908082528060200260200182016040528015612299578160200160208202803683370190505b50905060606001546001600160401b03811180156122b657600080fd5b506040519080825280602002602001820160405280156122e0578160200160208202803683370190505b50905060606001546001600160401b03811180156122fd57600080fd5b50604051908082528060200260200182016040528015612327578160200160208202803683370190505b50905060606001546001600160401b038111801561234457600080fd5b5060405190808252806020026020018201604052801561236e578160200160208202803683370190505b50905060005b60015481101561245b576123866140c0565b50600081815260208181526040918290208251608081018452815480825260018301546001600160a01b03169382019390935260028201549381019390935260030154606083015286518790849081106123dc57fe5b60200260200101818152505080602001518583815181106123f957fe5b60200260200101906001600160a01b031690816001600160a01b031681525050806040015184838151811061242a57fe5b602002602001018181525050806060015183838151811061244757fe5b602090810291909101015250600101612374565b50929791965094509092509050565b612472613fdb565b61247a613fdb565b6000848152600660205260409020600b0180548490811061249757fe5b90600052602060002090600502016040518060a001604052908160008201548152602001600182015481526020016002820154815260200160038201548152602001600482018054600181600116156101000203166002900480601f0160208091040260200160405190810160405280929190818152602001828054600181600116156101000203166002900480156125715780601f1061254657610100808354040283529160200191612571565b820191906000526020600020905b81548152906001019060200180831161255457829003601f168201915b5050509190925250919695505050505050565b6008546001600160a01b03163314156125af5760405162461bcd60e51b8152600401610628906150ad565b60006125ba33613749565b905080156125da5760405162461bcd60e51b815260040161062890614fc0565b6040805160808101825260018054808352336020808501828152428688019081526003606088018181526000968752938690529488902096518755905186860180546001600160a01b0319166001600160a01b0390921691909117905551600286015551939091019290925580548101905590517f67bf623e5c0c95725ab7b0d181e969032a96122e243710f76311bae55f89df719161267991614723565b60405180910390a150565b6060806060806060806003546001600160401b03811180156126a557600080fd5b506040519080825280602002602001820160405280156126cf578160200160208202803683370190505b50905060606003546001600160401b03811180156126ec57600080fd5b5060405190808252806020026020018201604052801561272057816020015b606081526020019060019003908161270b5790505b50905060606003546001600160401b038111801561273d57600080fd5b50604051908082528060200260200182016040528015612767578160200160208202803683370190505b50905060606003546001600160401b038111801561278457600080fd5b506040519080825280602002602001820160405280156127ae578160200160208202803683370190505b50905060606003546001600160401b03811180156127cb57600080fd5b506040519080825280602002602001820160405280156127f5578160200160208202803683370190505b50905060005b6003548110156129ae5761280d614088565b600260008381526020019081526020016000206040518060a001604052908160008201548152602001600182018054600181600116156101000203166002900480601f0160208091040260200160405190810160405280929190818152602001828054600181600116156101000203166002900480156128ce5780601f106128a3576101008083540402835291602001916128ce565b820191906000526020600020905b8154815290600101906020018083116128b157829003601f168201915b505050918352505060028201546001600160a01b0316602082015260038201546040820152600490910154606090910152805188519192509088908490811061291357fe5b602002602001018181525050806020015186838151811061293057fe5b6020026020010181905250806040015185838151811061294c57fe5b60200260200101906001600160a01b031690816001600160a01b031681525050806060015184838151811061297d57fe5b602002602001018181525050806080015183838151811061299a57fe5b6020908102919091010152506001016127fb565b50939992985090965094509092509050565b60008060008060008060006129d4886109d2565b90506129de6140f1565b60005b600754811015612cf5576000818152600660205260409020600101548b148015612a1b575060008181526006602052604090206002015483145b15612ced576000818152600660208181526040808420815161018081018352815481526001820154818501526002820154818401526003820154606082015260048201546080820152600582015460a08201529381015460c0850152600781015460e085015260088101546101008501526009810154610120850152600a81018054835181860281018601909452808452949591946101408701949192909184015b82821015612bb957838290600052602060002090600502016040518060a001604052908160008201548152602001600182015481526020016002820154815260200160038201548152602001600482018054600181600116156101000203166002900480601f016020809104026020016040519081016040528092919081815260200182805460018160011615610100020316600290048015612ba15780601f10612b7657610100808354040283529160200191612ba1565b820191906000526020600020905b815481529060010190602001808311612b8457829003601f168201915b50505050508152505081526020019060010190612abd565b505050508152602001600b8201805480602002602001604051908101604052809291908181526020016000905b82821015612ce257838290600052602060002090600502016040518060a001604052908160008201548152602001600182015481526020016002820154815260200160038201548152602001600482018054600181600116156101000203166002900480601f016020809104026020016040519081016040528092919081815260200182805460018160011615610100020316600290048015612cca5780601f10612c9f57610100808354040283529160200191612cca565b820191906000526020600020905b815481529060010190602001808311612cad57829003601f168201915b50505050508152505081526020019060010190612be6565b505050508152505091505b6001016129e1565b5080516020820151604083015160e084015161010085015161012090950151939e929d50909b50995091975095509350505050565b600080805b600154811015610826576000818152602081905260409020600101546001600160a01b0385811691161415612d6357600191505b600101612d2f565b600080600080612d796140c0565b5050506000928352505060208181526040918290208251608081018452815480825260018301546001600160a01b0316938201849052600283015494820185905260039092015460609091018190529093919291565b60608060608060606000600660008881526020019081526020016000209050606081600501546001600160401b0381118015612e0a57600080fd5b50604051908082528060200260200182016040528015612e34578160200160208202803683370190505b509050606082600501546001600160401b0381118015612e5357600080fd5b50604051908082528060200260200182016040528015612e7d578160200160208202803683370190505b509050606083600501546001600160401b0381118015612e9c57600080fd5b50604051908082528060200260200182016040528015612ec6578160200160208202803683370190505b509050606084600501546001600160401b0381118015612ee557600080fd5b50604051908082528060200260200182016040528015612f0f578160200160208202803683370190505b509050606085600501546001600160401b0381118015612f2e57600080fd5b50604051908082528060200260200182016040528015612f6257816020015b6060815260200190600190039081612f4d5790505b50905060005b8660050154811015610e3657612f7c613fdb565b87600a018281548110612f8b57fe5b90600052602060002090600502016040518060a001604052908160008201548152602001600182015481526020016002820154815260200160038201548152602001600482018054600181600116156101000203166002900480601f0160208091040260200160405190810160405280929190818152602001828054600181600116156101000203166002900480156130655780601f1061303a57610100808354040283529160200191613065565b820191906000526020600020905b81548152906001019060200180831161304857829003601f168201915b5050505050815250509050806000015187838151811061308157fe5b602002602001018181525050806020015186838151811061309e57fe5b60200260200101818152505080604001518583815181106130bb57fe5b60200260200101818152505080606001518483815181106130d857fe5b60200260200101818152505080608001518383815181106130f557fe5b602090810291909101015250600101612f68565b60046020908152600091825260409182902080546001808301546002808501805488519481161561010002600019011691909104601f8101879004870284018701909752868352929590949192918301828280156131a85780601f1061317d576101008083540402835291602001916131a8565b820191906000526020600020905b81548152906001019060200180831161318b57829003601f168201915b5050505060038301805460408051602060026001851615610100026000190190941693909304601f81018490048402820184019092528181529495949350908301828280156132385780601f1061320d57610100808354040283529160200191613238565b820191906000526020600020905b81548152906001019060200180831161321b57829003601f168201915b50505050509080600401549080600501549080600601549080600701549080600801549080600901549080600a015490508b565b6060806060806060806060806005546001600160401b038111801561329057600080fd5b506040519080825280602002602001820160405280156132ba578160200160208202803683370190505b50905060606005546001600160401b03811180156132d757600080fd5b5060405190808252806020026020018201604052801561330b57816020015b60608152602001906001900390816132f65790505b50905060606005546001600160401b038111801561332857600080fd5b5060405190808252806020026020018201604052801561335c57816020015b60608152602001906001900390816133475790505b50905060606005546001600160401b038111801561337957600080fd5b506040519080825280602002602001820160405280156133ad57816020015b60608152602001906001900390816133985790505b50905060606005546001600160401b03811180156133ca57600080fd5b506040519080825280602002602001820160405280156133f4578160200160208202803683370190505b50905060606005546001600160401b038111801561341157600080fd5b5060405190808252806020026020018201604052801561343b578160200160208202803683370190505b50905060606005546001600160401b038111801561345857600080fd5b50604051908082528060200260200182016040528015613482578160200160208202803683370190505b50905060005b600554811015613732576000818152600460205260409020805489518a90849081106134b057fe5b60200260200101818152505060026000826001015481526020019081526020016000206001018054600181600116156101000203166002900480601f01602080910402602001604051908101604052809291908181526020018280546001816001161561010002031660029004801561356a5780601f1061353f5761010080835404028352916020019161356a565b820191906000526020600020905b81548152906001019060200180831161354d57829003601f168201915b505050505088838151811061357b57fe5b60209081029190910181019190915260028281018054604080516001831615610100026000190190921693909304601f8101859004850282018501909352828152929091908301828280156136115780601f106135e657610100808354040283529160200191613611565b820191906000526020600020905b8154815290600101906020018083116135f457829003601f168201915b505050505087838151811061362257fe5b60209081029190910181019190915260038201805460408051601f60026000196101006001871615020190941693909304928301859004850281018501909152818152928301828280156136b75780601f1061368c576101008083540402835291602001916136b7565b820191906000526020600020905b81548152906001019060200180831161369a57829003601f168201915b50505050508683815181106136c857fe5b602002602001018190525080600401548583815181106136e457fe5b602002602001018181525050806005015484838151811061370157fe5b602002602001018181525050806008015483838151811061371e57fe5b602090810291909101015250600101613488565b50959d949c50929a50909850965094509092509050565b600080805b60035481101561082657600081815260026020819052604090912001546001600160a01b03858116911614801561379657506000818152600260205260409020600401546003145b156137a057600191505b60010161374e565b6137b0613fdb565b6137b8613fdb565b6000848152600660205260409020600a0180548490811061249757fe5b6000808080805b60015481101561386d576137ee6140c0565b506000818152602081815260409182902082516080810184528154815260018201546001600160a01b039081169382018490526002830154948201949094526003909101546060820152918816141561386457805160208201516040830151606090930151919750955090935091506111239050565b506001016137dc565b50600095869550859450849350915050565b600061388a33613749565b9050600061389733612d2a565b905081806138a25750805b6138be5760405162461bcd60e51b815260040161062890614de7565b60008481526006602052604090206009015480158015906138e0575060078111155b6138fc5760405162461bcd60e51b815260040161062890614a0e565b836002141561394a57806001146139255760405162461bcd60e51b815260040161062890614b87565b61392e33612d2a565b61394a5760405162461bcd60e51b815260040161062890614acd565b83600314806139595750836004145b156139a3578060021461397e5760405162461bcd60e51b815260040161062890614ce8565b61398733613749565b6139a35760405162461bcd60e51b81526004016106289061514c565b83600514156139fc5780600314806139bb5750806004145b6139d75760405162461bcd60e51b8152600401610628906150d0565b6139e033613749565b6139fc5760405162461bcd60e51b81526004016106289061514c565b8360061415613a4a5780600514613a255760405162461bcd60e51b815260040161062890614f45565b613a2e33612d2a565b613a4a5760405162461bcd60e51b815260040161062890614acd565b8360071480613a595750836008145b15613aa35780600614613a7e5760405162461bcd60e51b8152600401610628906151a9565b613a8733613749565b613aa35760405162461bcd60e51b81526004016106289061514c565b50505060009182526006602052604090912060090155565b6000613ac633613749565b905080613ae55760405162461bcd60e51b815260040161062890614aa2565b600085815260046020526040902060080154600114613b165760405162461bcd60e51b815260040161062890614ea9565b6000858152600460208181526040808420815160a081018352600982015481528084018b81529281018a8152606082018a8152608083018a8152600b909401805460018181018355918a529887902084516005909a020198895594519488019490945551600287015591516003860155518051919493613b9c939085019291019061400a565b50505060009485525050600460205250506040902060090180546001019055565b60035481565b6008546000906001600160a01b03163314613bf05760405162461bcd60e51b815260040161062890614c40565b6003546040805160a08101825282815260208082018881526001600160a01b0388168385015242606084015260808301879052600085815260028352939093208251815592518051929392613c4b926001850192019061400a565b5060408201516002820180546001600160a01b0319166001600160a01b03909216919091179055606082015160038083019190915560809092015160049091015580546001019055949350505050565b6006602052806000526040600020600091509050806000015490806001015490806002015490806003015490806004015490806005015490806006015490806007015490806008015490806009015490508a565b6000613cfa33613749565b905080613d195760405162461bcd60e51b815260040161062890614aa2565b600082118015613d2a575060078211155b613d465760405162461bcd60e51b815260040161062890614fea565b8160021415613d8057600083815260046020526040902060080154600114613d805760405162461bcd60e51b815260040161062890615021565b8160031415613dba57600083815260046020526040902060080154600214613dba5760405162461bcd60e51b815260040161062890614bfd565b8160041415613df457600083815260046020526040902060080154600314613df45760405162461bcd60e51b815260040161062890614a45565b8160051415613e2f5760008381526004602081905260409091206008015414613e2f5760405162461bcd60e51b8152600401610628906149a2565b8160061415613f7057600083815260046020526040902060080154600514613e695760405162461bcd60e51b815260040161062890614955565b60005b600754811015613f6e57600081815260066020526040902060010154841415613f665760008181526006602052604090206009015460031415613f665760008181526006602052604090206005600990910155613ec7613fdb565b60008082526020808301828152426040808601918252600160608701818152825180870184528781526080890190815289885260068752928720600b01805480840182559088529686902088516005909802019687559351908601559051600285015590516003840155518051849392613f4892600485019291019061400a565b50505060008281526006602081905260409091200180546001019055505b600101613e6c565b505b8160071415613faa57600083815260046020526040902060080154600614613faa5760405162461bcd60e51b815260040161062890614ede565b5060009182526004602052604090912042600782015560080155565b6008546001600160a01b031681565b60055481565b6040518060a0016040528060008152602001600081526020016000815260200160008152602001606081525090565b828054600181600116156101000203166002900490600052602060002090601f016020900481019282601f1061404b57805160ff1916838001178555614078565b82800160010185558215614078579182015b8281111561407857825182559160200191906001019061405d565b50614084929150614152565b5090565b6040518060a00160405280600081526020016060815260200160006001600160a01b0316815260200160008152602001600081525090565b60405180608001604052806000815260200160006001600160a01b0316815260200160008152602001600081525090565b6040518061018001604052806000815260200160008152602001600081526020016000815260200160008152602001600081526020016000815260200160008152602001600081526020016000815260200160608152602001606081525090565b61416c91905b808211156140845760008155600101614158565b90565b600082601f83011261417f578081fd5b813561419261418d82615478565b615452565b818152915060208083019084810160005b848110156141cc576141ba888484358a0101614235565b845292820192908201906001016141a3565b505050505092915050565b600082601f8301126141e7578081fd5b81356141f561418d82615478565b81815291506020808301908481018184028601820187101561421657600080fd5b60005b848110156141cc57813584529282019290820190600101614219565b600082601f830112614245578081fd5b81356001600160401b0381111561425a578182fd5b61426d601f8201601f1916602001615452565b915080825283602082850101111561428457600080fd5b8060208401602084013760009082016020015292915050565b6000602082840312156142ae578081fd5b81356142b9816154a3565b9392505050565b600080604083850312156142d2578081fd5b82356142dd816154a3565b946020939093013593505050565b6000806000606084860312156142ff578081fd5b83356001600160401b03811115614314578182fd5b61432086828701614235565b9350506020840135614331816154a3565b929592945050506040919091013590565b6000806000806000806000806000806101408b8d031215614361578586fd5b8a356001600160401b0380821115614377578788fd5b6143838e838f01614235565b9b5060208d0135915080821115614398578788fd5b6143a48e838f01614235565b9a5060408d0135995060608d0135985060808d01359150808211156143c7578788fd5b6143d38e838f016141d7565b975060a08d01359150808211156143e8578687fd5b6143f48e838f016141d7565b965060c08d0135915080821115614409578586fd5b6144158e838f0161416f565b955060e08d013591508082111561442a578485fd5b6144368e838f016141d7565b94506101008d013591508082111561444c578384fd5b6144588e838f016141d7565b93506101208d013591508082111561446e578283fd5b5061447b8d828e0161416f565b9150509295989b9194979a5092959850565b60006020828403121561449e578081fd5b5035919050565b600080604083850312156144b7578182fd5b8235915060208301356144c9816154a3565b809150509250929050565b600080604083850312156144e6578182fd5b8235915060208301356001600160401b03811115614502578182fd5b61450e85828601614235565b9150509250929050565b6000806040838503121561452a578182fd5b50508035926020909101359150565b6000806000806080858703121561454e578384fd5b84359350602085013592506040850135915060608501356001600160401b03811115614578578182fd5b61458487828801614235565b91505092959194509250565b6000815180845260208085019450808401835b838110156145c85781516001600160a01b0316875295820195908201906001016145a3565b509495945050505050565b6000815180845260208085018081965082840281019150828601855b85811015614619578284038952614607848351614655565b988501989350908401906001016145ef565b5091979650505050505050565b6000815180845260208085019450808401835b838110156145c857815187529582019590820190600101614639565b60008151808452815b8181101561467a5760208185018101518683018201520161465e565b8181111561468b5782602083870101525b50601f01601f19169290920160200192915050565b600081546001808216600081146146be57600181146146dc5761471a565b60028304607f16865260ff198316602087015260408601935061471a565b600283048087526146ec86615497565b60005b828110156147105781546020828b01015284820191506020810190506146ef565b8801602001955050505b50505092915050565b6001600160a01b0391909116815260200190565b60006080825261474a6080830187614626565b828103602084015261475c8187614590565b838103604085015261476e8187614626565b91505082810360608401526147838185614626565b979650505050505050565b600060a082526147a160a0830188614626565b82810360208401526147b381886145d3565b83810360408501526147c58188614590565b91505082810360608401526147da8186614626565b83810360808501526147ec8186614626565b9998505050505050505050565b600060e0825261480c60e083018a614626565b828103602084015261481e818a6145d3565b8381036040850152614830818a6145d3565b915050828103606084015261484581886145d3565b83810360808501526148578188614626565b91505082810360a084015261486c8186614626565b83810360c085015261487e8186614626565b9b9a5050505050505050505050565b6000608082526148a06080830187614626565b82810360208401526148b28187614626565b83810360408501526148c48187614626565b915050828103606084015261478381856145d3565b600060a082526148ec60a0830188614626565b82810360208401526148fe8188614626565b83810360408501526149108188614626565b91505082810360608401526149258186614626565b83810360808501526147ec81866145d3565b901515815260200190565b6000602082526142b96020830184614655565b6020808252602d908201527f6f70706f7274756e697479206d75737420626520696e20696e6974696174656460408201526c20666f722066696e616c697a6560981b606082015260800190565b60208082526046908201527f6f70706f7274756e697479206d75737420626520696e206170706c696361746960408201527f6f6e732073656c656374656420666f72206f70706f7274756e69747920696e696060820152651d1a585d195960d21b608082015260a00190565b6020808252601c908201527f6170706c69636174696f6e20737461747573206e6f742076616c696400000000604082015260600190565b60208082526037908201527f6f70706f7274756e697479206d75737420626520696e2072657669657720666f60408201527f72206170706c69636174696f6e732073656c6563746564000000000000000000606082015260800190565b60208082526011908201527037b7363c9037b933b0b734bd30ba34b7b760791b604082015260600190565b60208082526039908201527f6170706c69636174696f6e20737461747573206368616e6765206d757374206260408201527f652065786563757465642062792062656e656669636961727900000000000000606082015260800190565b6020808252603a908201527f6170706c69636174696f6e20686173206e6f74207374617274656420746f207260408201527f65636569766520706f73744163636f6d706c6973686d656e7473000000000000606082015260800190565b60208082526050908201527f6170706c69636174696f6e206d757374206265207072654163636f6d706c697360408201527f686d656e7473207374617274656420746f2062652066696e616c697a6520707260608201526f654163636f6d706c6973686d656e747360801b608082015260a00190565b60208082526023908201527f6f70706f7274756e697479206d757374206265206f70656e20666f722072657660408201526269657760e81b606082015260800190565b6020808252600a908201526937b7363c9030b236b4b760b11b604082015260600190565b60208082526037908201527f70726520726571756972656d656e742076616c756573206e756d626572206d7560408201527f73742068617665207468652073616d65206c656e677468000000000000000000606082015260800190565b6020808252600d908201526c6e616d6520697320656d70747960981b604082015260600190565b60208082526052908201527f6170706c69636174696f6e206d757374206265207072654163636f6d706c697360408201527f686d656e74732066696e616c697a656420746f206265206569746865722061706060820152711c1c9bdd9959081bdc881c995a9958dd195960721b608082015260a00190565b60208082526010908201526f6f6e6c792062656e656669636961727960801b604082015260600190565b60208082526038908201527f706f737420726571756972656d656e742076616c756573206e756d626572206d60408201527f7573742068617665207468652073616d65206c656e6774680000000000000000606082015260800190565b60208082526018908201527f6f6e6c7920616374697665206f7267616e697a6174696f6e0000000000000000604082015260600190565b60208082526039908201527f6170706c69636174696f6e20686173206e6f74207374617274656420746f207260408201527f656365697665207072654163636f6d706c6973686d656e747300000000000000606082015260800190565b6020808252601490820152736465736372697074696f6e20697320656d70747960601b604082015260600190565b6020808252818101527f6f70706f7274756e697479206973206e6f7420696e206472616674206d6f6465604082015260600190565b60208082526041908201527f6f70706f7274756e697479206d7573742062652066696e616c697a656420666f60408201527f7220636c6f736520706f7374526571756972656d656e7420726563657074696f6060820152603760f91b608082015260a00190565b60208082526055908201527f6170706c69636174696f6e206d7573742068617665207374617274656420726560408201527f63656976696e6720706f73744163636f6d706c6973686d656e747320746f206660608201527434b730b634bd329034ba39903932b1b2b83a34b7b760591b608082015260a00190565b60208082526010908201526f3737ba1037b933b0b734bd30ba34b7b760811b604082015260600190565b6020808252601c908201527f6f70706f7274756e69747920737461747573206e6f742076616c696400000000604082015260600190565b60208082526027908201527f6f70706f7274756e697479206d75737420626520696e20647261667420746f2060408201526631329037b832b760c91b606082015260800190565b60208082526025908201527f6f70706f7274756e697479206e6f74206f70656e20666f72206170706c69636160408201526474696f6e7360d81b606082015260800190565b6020808252600990820152683737ba1030b236b4b760b91b604082015260600190565b60208082526056908201527f6170706c69636174696f6e206d7573742062652065697468657220617070726f60408201527f766564206f722072656a656374656420746f20737461727420726563656976696060820152756e6720706f73744163636f6d706c6973686d656e747360501b608082015260a00190565b6020808252603a908201527f6170706c69636174696f6e20737461747573206368616e6765206d757374206260408201527f65206578656375746564206279206f7267616e697a6174696f6e000000000000606082015260800190565b602080825260409082018190527f6170706c69636174696f6e20706f73744163636f6d706c6973686d656e747320908201527f6d7573742062652066696e616c697a656420746f2066696e616c697a65206974606082015260800190565b60006020825282516020830152602083015160408301526040830151606083015260608301516080830152608083015160a08084015261524a60c0840182614655565b949350505050565b90815260200190565b9384526001600160a01b039290921660208401526040830152606082015260800190565b600086825260a0602083015261529860a0830187614655565b6001600160a01b0395909516604083015250606081019290925260809091015292915050565b60006101008a83528060208401526152d88184018b614655565b83810360408501526152ea818b614655565b6060850199909952505050608081019490945260a084019290925260c083015260e0909101529392505050565b60008482526060602083015261533060608301856146a0565b828103604084015261534281856146a0565b9695505050505050565b918252602082015260400190565b60006101608d83528c602084015280604084015261537a8184018d614655565b838103606085015261538c818d614655565b608085019b909b5250505060a081019690965260c086019490945260e085019290925261010084015261012083015261014090910152949350505050565b93845260208401929092526040830152606082015260800190565b958652602086019490945260408501929092526060840152608083015260a082015260c00190565b998a5260208a019890985260408901969096526060880194909452608087019290925260a086015260c085015260e08401526101008301526101208201526101400190565b6040518181016001600160401b038111828210171561547057600080fd5b604052919050565b60006001600160401b0382111561548d578081fd5b5060209081020190565b60009081526020902090565b6001600160a01b03811681146154b857600080fd5b5056fea2646970667358221220d2843b149fc30b68db0fb7e5363d3f691838115fc5fea8597707352e8bb2a01564736f6c63430006070033",
  "linkReferences": {},
  "deployedLinkReferences": {}
}