{
  "_format": "hh-sol-artifact-1",
  "contractName": "AkasifyCoreContract",
  "sourceName": "contracts/AkasifyCoreContract.sol",
  "abi": [
    {
      "inputs": [
        {
          "internalType": "address",
          "name": "_admin",
          "type": "address"
        }
      ],
      "stateMutability": "nonpayable",
      "type": "constructor"
    },
    {
      "anonymous": false,
      "inputs": [
        {
          "indexed": false,
          "internalType": "uint256",
          "name": "id",
          "type": "uint256"
        },
        {
          "indexed": false,
          "internalType": "uint256",
          "name": "opportunityId",
          "type": "uint256"
        }
      ],
      "name": "RegisterApplication",
      "type": "event"
    },
    {
      "anonymous": false,
      "inputs": [
        {
          "indexed": false,
          "internalType": "uint256",
          "name": "id",
          "type": "uint256"
        },
        {
          "indexed": false,
          "internalType": "uint256",
          "name": "requirementId",
          "type": "uint256"
        },
        {
          "indexed": false,
          "internalType": "uint256",
          "name": "applicationId",
          "type": "uint256"
        },
        {
          "indexed": false,
          "internalType": "uint256",
          "name": "opportunityId",
          "type": "uint256"
        }
      ],
      "name": "RegisterApplicationPostAccomplishment",
      "type": "event"
    },
    {
      "anonymous": false,
      "inputs": [
        {
          "indexed": false,
          "internalType": "uint256",
          "name": "id",
          "type": "uint256"
        },
        {
          "indexed": false,
          "internalType": "uint256",
          "name": "requirementId",
          "type": "uint256"
        },
        {
          "indexed": false,
          "internalType": "uint256",
          "name": "applicationId",
          "type": "uint256"
        },
        {
          "indexed": false,
          "internalType": "uint256",
          "name": "opportunityId",
          "type": "uint256"
        }
      ],
      "name": "RegisterApplicationPreAccomplishment",
      "type": "event"
    },
    {
      "anonymous": false,
      "inputs": [
        {
          "indexed": false,
          "internalType": "address",
          "name": "account",
          "type": "address"
        }
      ],
      "name": "RegisterBeneficiary",
      "type": "event"
    },
    {
      "anonymous": false,
      "inputs": [
        {
          "indexed": false,
          "internalType": "uint256",
          "name": "id",
          "type": "uint256"
        },
        {
          "indexed": false,
          "internalType": "string",
          "name": "name",
          "type": "string"
        },
        {
          "indexed": false,
          "internalType": "string",
          "name": "description",
          "type": "string"
        }
      ],
      "name": "RegisterOpportunity",
      "type": "event"
    },
    {
      "anonymous": false,
      "inputs": [
        {
          "indexed": false,
          "internalType": "uint256",
          "name": "id",
          "type": "uint256"
        },
        {
          "indexed": false,
          "internalType": "uint256",
          "name": "status",
          "type": "uint256"
        }
      ],
      "name": "UpdateApplicationStatus",
      "type": "event"
    },
    {
      "anonymous": false,
      "inputs": [
        {
          "indexed": false,
          "internalType": "uint256",
          "name": "id",
          "type": "uint256"
        },
        {
          "indexed": false,
          "internalType": "uint256",
          "name": "status",
          "type": "uint256"
        }
      ],
      "name": "UpdateOpportunityStatus",
      "type": "event"
    },
    {
      "inputs": [],
      "name": "admin",
      "outputs": [
        {
          "internalType": "address",
          "name": "",
          "type": "address"
        }
      ],
      "stateMutability": "view",
      "type": "function"
    },
    {
      "inputs": [
        {
          "internalType": "uint256",
          "name": "",
          "type": "uint256"
        }
      ],
      "name": "applications",
      "outputs": [
        {
          "internalType": "uint256",
          "name": "id",
          "type": "uint256"
        },
        {
          "internalType": "uint256",
          "name": "opportunityId",
          "type": "uint256"
        },
        {
          "internalType": "uint256",
          "name": "beneficiaryId",
          "type": "uint256"
        },
        {
          "internalType": "uint256",
          "name": "nextPreRequirementId",
          "type": "uint256"
        },
        {
          "internalType": "uint256",
          "name": "nextPostRequirementId",
          "type": "uint256"
        },
        {
          "internalType": "uint256",
          "name": "nextPreAccomplishmentId",
          "type": "uint256"
        },
        {
          "internalType": "uint256",
          "name": "nextPostAccomplishmentId",
          "type": "uint256"
        },
        {
          "internalType": "uint256",
          "name": "creationDate",
          "type": "uint256"
        },
        {
          "internalType": "uint256",
          "name": "lastUpdate",
          "type": "uint256"
        },
        {
          "internalType": "uint256",
          "name": "status",
          "type": "uint256"
        }
      ],
      "stateMutability": "view",
      "type": "function"
    },
    {
      "inputs": [
        {
          "internalType": "uint256",
          "name": "opportunityId",
          "type": "uint256"
        }
      ],
      "name": "createApplication",
      "outputs": [],
      "stateMutability": "nonpayable",
      "type": "function"
    },
    {
      "inputs": [
        {
          "internalType": "string",
          "name": "name",
          "type": "string"
        },
        {
          "internalType": "string",
          "name": "description",
          "type": "string"
        },
        {
          "internalType": "string",
          "name": "imageHash",
          "type": "string"
        },
        {
          "internalType": "uint256",
          "name": "preRequirementsDeadline",
          "type": "uint256"
        },
        {
          "internalType": "uint256",
          "name": "postRequirementsDeadline",
          "type": "uint256"
        },
        {
          "internalType": "uint256[]",
          "name": "preRequirementTypes",
          "type": "uint256[]"
        },
        {
          "internalType": "uint256[]",
          "name": "preRequirementValues",
          "type": "uint256[]"
        },
        {
          "internalType": "string[]",
          "name": "preRequirementNames",
          "type": "string[]"
        },
        {
          "internalType": "uint256[]",
          "name": "postRequirementTypes",
          "type": "uint256[]"
        },
        {
          "internalType": "uint256[]",
          "name": "postRequirementValues",
          "type": "uint256[]"
        },
        {
          "internalType": "string[]",
          "name": "postRequirementNames",
          "type": "string[]"
        }
      ],
      "name": "createOpportunity",
      "outputs": [],
      "stateMutability": "nonpayable",
      "type": "function"
    },
    {
      "inputs": [
        {
          "internalType": "uint256",
          "name": "applicationId",
          "type": "uint256"
        },
        {
          "internalType": "string",
          "name": "accomplishmentValue",
          "type": "string"
        }
      ],
      "name": "createPostAccomplishment",
      "outputs": [],
      "stateMutability": "nonpayable",
      "type": "function"
    },
    {
      "inputs": [
        {
          "internalType": "uint256",
          "name": "opportunityId",
          "type": "uint256"
        },
        {
          "internalType": "uint256",
          "name": "requirementType",
          "type": "uint256"
        },
        {
          "internalType": "uint256",
          "name": "transferValue",
          "type": "uint256"
        },
        {
          "internalType": "string",
          "name": "name",
          "type": "string"
        }
      ],
      "name": "createPostRequirement",
      "outputs": [],
      "stateMutability": "nonpayable",
      "type": "function"
    },
    {
      "inputs": [
        {
          "internalType": "uint256",
          "name": "applicationId",
          "type": "uint256"
        },
        {
          "internalType": "string",
          "name": "accomplishmentValue",
          "type": "string"
        }
      ],
      "name": "createPreAccomplishment",
      "outputs": [],
      "stateMutability": "nonpayable",
      "type": "function"
    },
    {
      "inputs": [
        {
          "internalType": "uint256",
          "name": "opportunityId",
          "type": "uint256"
        },
        {
          "internalType": "uint256",
          "name": "requirementType",
          "type": "uint256"
        },
        {
          "internalType": "uint256",
          "name": "transferValue",
          "type": "uint256"
        },
        {
          "internalType": "string",
          "name": "name",
          "type": "string"
        }
      ],
      "name": "createPreRequirement",
      "outputs": [],
      "stateMutability": "nonpayable",
      "type": "function"
    },
    {
      "inputs": [
        {
          "internalType": "uint256",
          "name": "opportunityId",
          "type": "uint256"
        },
        {
          "internalType": "address",
          "name": "beneficiaryAddress",
          "type": "address"
        }
      ],
      "name": "getApplication",
      "outputs": [
        {
          "internalType": "uint256",
          "name": "",
          "type": "uint256"
        },
        {
          "internalType": "uint256",
          "name": "",
          "type": "uint256"
        },
        {
          "internalType": "uint256",
          "name": "",
          "type": "uint256"
        },
        {
          "internalType": "uint256",
          "name": "",
          "type": "uint256"
        },
        {
          "internalType": "uint256",
          "name": "",
          "type": "uint256"
        },
        {
          "internalType": "uint256",
          "name": "",
          "type": "uint256"
        }
      ],
      "stateMutability": "view",
      "type": "function"
    },
    {
      "inputs": [
        {
          "internalType": "uint256",
          "name": "opportunityId",
          "type": "uint256"
        }
      ],
      "name": "getApplicationsByOpportunityId",
      "outputs": [
        {
          "internalType": "uint256[]",
          "name": "",
          "type": "uint256[]"
        },
        {
          "internalType": "address[]",
          "name": "",
          "type": "address[]"
        },
        {
          "internalType": "string[]",
          "name": "",
          "type": "string[]"
        },
        {
          "internalType": "uint256[]",
          "name": "",
          "type": "uint256[]"
        }
      ],
      "stateMutability": "view",
      "type": "function"
    },
    {
      "inputs": [],
      "name": "getBeneficiaries",
      "outputs": [
        {
          "internalType": "uint256[]",
          "name": "",
          "type": "uint256[]"
        },
        {
          "internalType": "address[]",
          "name": "",
          "type": "address[]"
        },
        {
          "internalType": "uint256[]",
          "name": "",
          "type": "uint256[]"
        },
        {
          "internalType": "uint256[]",
          "name": "",
          "type": "uint256[]"
        }
      ],
      "stateMutability": "view",
      "type": "function"
    },
    {
      "inputs": [
        {
          "internalType": "uint256",
          "name": "_id",
          "type": "uint256"
        }
      ],
      "name": "getBeneficiaryById",
      "outputs": [
        {
          "internalType": "uint256",
          "name": "",
          "type": "uint256"
        },
        {
          "internalType": "address",
          "name": "",
          "type": "address"
        },
        {
          "internalType": "string",
          "name": "",
          "type": "string"
        },
        {
          "internalType": "uint256",
          "name": "",
          "type": "uint256"
        },
        {
          "internalType": "uint256",
          "name": "",
          "type": "uint256"
        }
      ],
      "stateMutability": "view",
      "type": "function"
    },
    {
      "inputs": [
        {
          "internalType": "address",
          "name": "account",
          "type": "address"
        }
      ],
      "name": "getBeneficiaryIdByAddress",
      "outputs": [
        {
          "internalType": "uint256",
          "name": "",
          "type": "uint256"
        }
      ],
      "stateMutability": "view",
      "type": "function"
    },
    {
      "inputs": [
        {
          "internalType": "address",
          "name": "account",
          "type": "address"
        }
      ],
      "name": "getBeneficiaryStatusByAddress",
      "outputs": [
        {
          "internalType": "uint256",
          "name": "",
          "type": "uint256"
        }
      ],
      "stateMutability": "view",
      "type": "function"
    },
    {
      "inputs": [],
      "name": "getOpportunities",
      "outputs": [
        {
          "internalType": "uint256[]",
          "name": "",
          "type": "uint256[]"
        },
        {
          "internalType": "uint256[]",
          "name": "",
          "type": "uint256[]"
        },
        {
          "internalType": "string[]",
          "name": "",
          "type": "string[]"
        },
        {
          "internalType": "string[]",
          "name": "",
          "type": "string[]"
        },
        {
          "internalType": "string[]",
          "name": "",
          "type": "string[]"
        },
        {
          "internalType": "uint256[]",
          "name": "",
          "type": "uint256[]"
        },
        {
          "internalType": "uint256[]",
          "name": "",
          "type": "uint256[]"
        },
        {
          "internalType": "uint256[]",
          "name": "",
          "type": "uint256[]"
        }
      ],
      "stateMutability": "view",
      "type": "function"
    },
    {
      "inputs": [
        {
          "internalType": "uint256",
          "name": "opportunityId",
          "type": "uint256"
        }
      ],
      "name": "getOpportunityById",
      "outputs": [
        {
          "internalType": "uint256",
          "name": "",
          "type": "uint256"
        },
        {
          "internalType": "string",
          "name": "",
          "type": "string"
        },
        {
          "internalType": "string",
          "name": "",
          "type": "string"
        },
        {
          "internalType": "string",
          "name": "",
          "type": "string"
        },
        {
          "internalType": "uint256",
          "name": "",
          "type": "uint256"
        },
        {
          "internalType": "uint256",
          "name": "",
          "type": "uint256"
        },
        {
          "internalType": "uint256",
          "name": "",
          "type": "uint256"
        },
        {
          "internalType": "uint256",
          "name": "",
          "type": "uint256"
        },
        {
          "internalType": "uint256",
          "name": "",
          "type": "uint256"
        }
      ],
      "stateMutability": "view",
      "type": "function"
    },
    {
      "inputs": [
        {
          "internalType": "address",
          "name": "account",
          "type": "address"
        }
      ],
      "name": "getOrganizationByAddress",
      "outputs": [
        {
          "internalType": "uint256",
          "name": "",
          "type": "uint256"
        },
        {
          "internalType": "string",
          "name": "",
          "type": "string"
        },
        {
          "internalType": "string",
          "name": "",
          "type": "string"
        },
        {
          "internalType": "address",
          "name": "",
          "type": "address"
        },
        {
          "internalType": "uint256",
          "name": "",
          "type": "uint256"
        },
        {
          "internalType": "uint256",
          "name": "",
          "type": "uint256"
        }
      ],
      "stateMutability": "view",
      "type": "function"
    },
    {
      "inputs": [
        {
          "internalType": "uint256",
          "name": "_id",
          "type": "uint256"
        }
      ],
      "name": "getOrganizationById",
      "outputs": [
        {
          "internalType": "uint256",
          "name": "",
          "type": "uint256"
        },
        {
          "internalType": "string",
          "name": "",
          "type": "string"
        },
        {
          "internalType": "string",
          "name": "",
          "type": "string"
        },
        {
          "internalType": "address",
          "name": "",
          "type": "address"
        },
        {
          "internalType": "uint256",
          "name": "",
          "type": "uint256"
        },
        {
          "internalType": "uint256",
          "name": "",
          "type": "uint256"
        }
      ],
      "stateMutability": "view",
      "type": "function"
    },
    {
      "inputs": [
        {
          "internalType": "address",
          "name": "account",
          "type": "address"
        }
      ],
      "name": "getOrganizationIdByAddress",
      "outputs": [
        {
          "internalType": "uint256",
          "name": "",
          "type": "uint256"
        }
      ],
      "stateMutability": "view",
      "type": "function"
    },
    {
      "inputs": [],
      "name": "getOrganizations",
      "outputs": [
        {
          "internalType": "uint256[]",
          "name": "",
          "type": "uint256[]"
        },
        {
          "internalType": "string[]",
          "name": "",
          "type": "string[]"
        },
        {
          "internalType": "string[]",
          "name": "",
          "type": "string[]"
        },
        {
          "internalType": "address[]",
          "name": "",
          "type": "address[]"
        },
        {
          "internalType": "uint256[]",
          "name": "",
          "type": "uint256[]"
        },
        {
          "internalType": "uint256[]",
          "name": "",
          "type": "uint256[]"
        }
      ],
      "stateMutability": "view",
      "type": "function"
    },
    {
      "inputs": [
        {
          "internalType": "uint256",
          "name": "applicationId",
          "type": "uint256"
        },
        {
          "internalType": "uint256",
          "name": "postAccomplishmentId",
          "type": "uint256"
        }
      ],
      "name": "getPostAccomplishment",
      "outputs": [
        {
          "components": [
            {
              "internalType": "uint256",
              "name": "id",
              "type": "uint256"
            },
            {
              "internalType": "uint256",
              "name": "requirementId",
              "type": "uint256"
            },
            {
              "internalType": "uint256",
              "name": "accomplishDate",
              "type": "uint256"
            },
            {
              "internalType": "uint256",
              "name": "accomplishCategory",
              "type": "uint256"
            },
            {
              "internalType": "string",
              "name": "accomplishValue",
              "type": "string"
            }
          ],
          "internalType": "struct AkasifyCoreContract.Accomplishment",
          "name": "_accomplishment",
          "type": "tuple"
        }
      ],
      "stateMutability": "view",
      "type": "function"
    },
    {
      "inputs": [
        {
          "internalType": "uint256",
          "name": "opportunityId",
          "type": "uint256"
        }
      ],
      "name": "getPostRequirementsByOpportunityId",
      "outputs": [
        {
          "internalType": "uint256[]",
          "name": "",
          "type": "uint256[]"
        },
        {
          "internalType": "uint256[]",
          "name": "",
          "type": "uint256[]"
        },
        {
          "internalType": "uint256[]",
          "name": "",
          "type": "uint256[]"
        },
        {
          "internalType": "string[]",
          "name": "",
          "type": "string[]"
        }
      ],
      "stateMutability": "view",
      "type": "function"
    },
    {
      "inputs": [
        {
          "internalType": "uint256",
          "name": "applicationId",
          "type": "uint256"
        },
        {
          "internalType": "uint256",
          "name": "preAccomplishmentId",
          "type": "uint256"
        }
      ],
      "name": "getPreAccomplishment",
      "outputs": [
        {
          "components": [
            {
              "internalType": "uint256",
              "name": "id",
              "type": "uint256"
            },
            {
              "internalType": "uint256",
              "name": "requirementId",
              "type": "uint256"
            },
            {
              "internalType": "uint256",
              "name": "accomplishDate",
              "type": "uint256"
            },
            {
              "internalType": "uint256",
              "name": "accomplishCategory",
              "type": "uint256"
            },
            {
              "internalType": "string",
              "name": "accomplishValue",
              "type": "string"
            }
          ],
          "internalType": "struct AkasifyCoreContract.Accomplishment",
          "name": "_accomplishment",
          "type": "tuple"
        }
      ],
      "stateMutability": "view",
      "type": "function"
    },
    {
      "inputs": [
        {
          "internalType": "uint256",
          "name": "applicationId",
          "type": "uint256"
        }
      ],
      "name": "getPreAccomplishmentsByApplicationId",
      "outputs": [
        {
          "internalType": "uint256[]",
          "name": "",
          "type": "uint256[]"
        },
        {
          "internalType": "uint256[]",
          "name": "",
          "type": "uint256[]"
        },
        {
          "internalType": "uint256[]",
          "name": "",
          "type": "uint256[]"
        },
        {
          "internalType": "uint256[]",
          "name": "",
          "type": "uint256[]"
        },
        {
          "internalType": "string[]",
          "name": "",
          "type": "string[]"
        }
      ],
      "stateMutability": "view",
      "type": "function"
    },
    {
      "inputs": [
        {
          "internalType": "uint256",
          "name": "opportunityId",
          "type": "uint256"
        }
      ],
      "name": "getPreRequirementsByOpportunityId",
      "outputs": [
        {
          "internalType": "uint256[]",
          "name": "",
          "type": "uint256[]"
        },
        {
          "internalType": "uint256[]",
          "name": "",
          "type": "uint256[]"
        },
        {
          "internalType": "uint256[]",
          "name": "",
          "type": "uint256[]"
        },
        {
          "internalType": "string[]",
          "name": "",
          "type": "string[]"
        }
      ],
      "stateMutability": "view",
      "type": "function"
    },
    {
      "inputs": [
        {
          "internalType": "address",
          "name": "account",
          "type": "address"
        }
      ],
      "name": "getRole",
      "outputs": [
        {
          "internalType": "string",
          "name": "",
          "type": "string"
        }
      ],
      "stateMutability": "view",
      "type": "function"
    },
    {
      "inputs": [
        {
          "internalType": "address",
          "name": "account",
          "type": "address"
        }
      ],
      "name": "isActiveBeneficiary",
      "outputs": [
        {
          "internalType": "bool",
          "name": "",
          "type": "bool"
        }
      ],
      "stateMutability": "view",
      "type": "function"
    },
    {
      "inputs": [
        {
          "internalType": "address",
          "name": "account",
          "type": "address"
        }
      ],
      "name": "isBeneficiary",
      "outputs": [
        {
          "internalType": "bool",
          "name": "",
          "type": "bool"
        }
      ],
      "stateMutability": "view",
      "type": "function"
    },
    {
      "inputs": [
        {
          "internalType": "address",
          "name": "account",
          "type": "address"
        }
      ],
      "name": "isOrganization",
      "outputs": [
        {
          "internalType": "bool",
          "name": "",
          "type": "bool"
        }
      ],
      "stateMutability": "view",
      "type": "function"
    },
    {
      "inputs": [],
      "name": "nextApplicationId",
      "outputs": [
        {
          "internalType": "uint256",
          "name": "",
          "type": "uint256"
        }
      ],
      "stateMutability": "view",
      "type": "function"
    },
    {
      "inputs": [],
      "name": "nextBeneficiaryId",
      "outputs": [
        {
          "internalType": "uint256",
          "name": "",
          "type": "uint256"
        }
      ],
      "stateMutability": "view",
      "type": "function"
    },
    {
      "inputs": [],
      "name": "nextOpportunityId",
      "outputs": [
        {
          "internalType": "uint256",
          "name": "",
          "type": "uint256"
        }
      ],
      "stateMutability": "view",
      "type": "function"
    },
    {
      "inputs": [],
      "name": "nextOrganizationId",
      "outputs": [
        {
          "internalType": "uint256",
          "name": "",
          "type": "uint256"
        }
      ],
      "stateMutability": "view",
      "type": "function"
    },
    {
      "inputs": [
        {
          "internalType": "uint256",
          "name": "",
          "type": "uint256"
        }
      ],
      "name": "opportunities",
      "outputs": [
        {
          "internalType": "uint256",
          "name": "id",
          "type": "uint256"
        },
        {
          "internalType": "uint256",
          "name": "organizationId",
          "type": "uint256"
        },
        {
          "internalType": "string",
          "name": "name",
          "type": "string"
        },
        {
          "internalType": "string",
          "name": "description",
          "type": "string"
        },
        {
          "internalType": "string",
          "name": "imageHash",
          "type": "string"
        },
        {
          "internalType": "uint256",
          "name": "preRequirementsDeadline",
          "type": "uint256"
        },
        {
          "internalType": "uint256",
          "name": "postRequirementsDeadline",
          "type": "uint256"
        },
        {
          "internalType": "uint256",
          "name": "creationDate",
          "type": "uint256"
        },
        {
          "internalType": "uint256",
          "name": "lastUpdate",
          "type": "uint256"
        },
        {
          "internalType": "uint256",
          "name": "applicationCount",
          "type": "uint256"
        },
        {
          "internalType": "uint256",
          "name": "status",
          "type": "uint256"
        },
        {
          "internalType": "uint256",
          "name": "nextPreRequirementId",
          "type": "uint256"
        },
        {
          "internalType": "uint256",
          "name": "nextPostRequirementId",
          "type": "uint256"
        }
      ],
      "stateMutability": "view",
      "type": "function"
    },
    {
      "inputs": [
        {
          "internalType": "string",
          "name": "_oasisAddress",
          "type": "string"
        }
      ],
      "name": "registerBeneficiary",
      "outputs": [],
      "stateMutability": "nonpayable",
      "type": "function"
    },
    {
      "inputs": [
        {
          "internalType": "string",
          "name": "name",
          "type": "string"
        },
        {
          "internalType": "string",
          "name": "imageHash",
          "type": "string"
        },
        {
          "internalType": "address payable",
          "name": "account",
          "type": "address"
        },
        {
          "internalType": "uint256",
          "name": "status",
          "type": "uint256"
        }
      ],
      "name": "registerOrganizationByAdmin",
      "outputs": [
        {
          "internalType": "uint256",
          "name": "",
          "type": "uint256"
        }
      ],
      "stateMutability": "nonpayable",
      "type": "function"
    },
    {
      "inputs": [
        {
          "internalType": "uint256",
          "name": "applicationId",
          "type": "uint256"
        },
        {
          "internalType": "uint256",
          "name": "status",
          "type": "uint256"
        }
      ],
      "name": "updateApplicationStatus",
      "outputs": [],
      "stateMutability": "nonpayable",
      "type": "function"
    },
    {
      "inputs": [
        {
          "internalType": "uint256",
          "name": "opportunityId",
          "type": "uint256"
        },
        {
          "internalType": "uint256",
          "name": "status",
          "type": "uint256"
        }
      ],
      "name": "updateOpportunityStatus",
      "outputs": [],
      "stateMutability": "nonpayable",
      "type": "function"
    }
  ],
  "bytecode": "0x60806040523480156200001157600080fd5b5060405162005eca38038062005eca83398101604081905262000034916200005a565b600880546001600160a01b0319166001600160a01b03929092169190911790556200008a565b6000602082840312156200006c578081fd5b81516001600160a01b038116811462000083578182fd5b9392505050565b615e30806200009a6000396000f3fe608060405234801561001057600080fd5b50600436106102325760003560e01c8063913b722c11610130578063aed35ccc116100b8578063d2830de31161007c578063d2830de31461057c578063dfefadff14610584578063eadd2f61146105ad578063f851a440146105c0578063fcfb8bb2146105d557610232565b8063aed35ccc14610514578063b1ce8eab14610530578063c821b4fb14610543578063cfd664d614610556578063d11f3c471461056957610232565b80639d19b226116100ff5780639d19b2261461046a578063aa0a57ab1461047d578063acaf764d146104a1578063acd6c98f146104c5578063ad41ac3d146104f157610232565b8063913b722c146103f3578063957abe0b1461040b5780639754a3a81461042b578063980770311461044557610232565b80634f4e4534116101be5780636e46cc4e116101825780636e46cc4e1461037f578063706f48b1146103925780637a47523b146103a5578063857bbd28146103cd5780638c4be5eb146103e057610232565b80634f4e45341461032b5780635080d5fb1461033e578063625338cb14610351578063635c5455146103595780636ddc232b1461036c57610232565b80632832163f116102055780632832163f146102a8578063292719d3146102cd5780633859305e146102e057806344276733146102e85780634bcaaa011461030857610232565b806301c7eb4d146102375780631283ca7014610260578063222f926c1461027557806327f9e10514610288575b600080fd5b61024a610245366004614b1a565b6105dd565b6040516102579190615b2e565b60405180910390f35b61027361026e366004614d0e565b6106e0565b005b610273610283366004614b94565b6108c4565b61029b610296366004614abd565b610d0f565b604051610257919061521b565b6102bb6102b6366004614abd565b610d76565b60405161025796959493929190615b75565b61024a6102db366004614abd565b610f97565b61024a610fe5565b6102fb6102f6366004614abd565b610feb565b6040516102579190615226565b61031b610316366004614d0e565b6110c1565b6040516102579493929190615171565b610273610339366004614d55565b61139e565b61024a61034c366004614abd565b611667565b61024a6116d2565b6102bb610367366004614d0e565b6116d8565b61027361037a366004614ae0565b6118a6565b61024a61038d366004614abd565b6119cf565b6102736103a0366004614d55565b611a3d565b6103b86103b3366004614d0e565b611c3e565b60405161025799989796959493929190615bc8565b6102736103db366004614dba565b611e65565b61031b6103ee366004614d0e565b611f67565b6103fb612233565b604051610257949392919061500f565b61041e610419366004614d99565b6124e3565b6040516102579190615aeb565b6104336125fd565b60405161025796959493929190615046565b610458610453366004614d26565b612a3c565b60405161025796959493929190615d24565b61029b610478366004614abd565b612da6565b61049061048b366004614d0e565b612de7565b604051610257959493929190615b37565b6104b46104af366004614d0e565b612efb565b6040516102579594939291906151bd565b6104d86104d3366004614d0e565b613402565b6040516102579d9c9b9a99989796959493929190615c7a565b6105046104ff366004614d0e565b6135fb565b6040516102579493929190614fb8565b61051c613bbe565b6040516102579897969594939291906150c6565b61029b61053e366004614abd565b6140de565b61041e610551366004614d99565b61413c565b610273610564366004614d99565b614169565b610273610577366004614dba565b6143a5565b61024a6144a7565b610597610592366004614d0e565b6144ad565b6040516102579a99989796959493929190615d4c565b6102736105bb366004614d99565b614501565b6105c86147d8565b6040516102579190614fa4565b61024a6147e7565b6008546000906001600160a01b031633146106135760405162461bcd60e51b815260040161060a90615524565b60405180910390fd5b6003546040805160c08101825282815260208082018981528284018990526001600160a01b038816606084015242608084015260a0830187905260008581526002835293909320825181559251805192939261067592600185019201906147ed565b50604082015180516106919160028401916020909101906147ed565b506060820151600382810180546001600160a01b0319166001600160a01b03909316929092179091556080830151600483015560a0909201516005909101558054600101905595945050505050565b6000818152600460205260409020600a01546002146107115760405162461bcd60e51b815260040161060a9061594c565b600754600081815260066020526040902090815560010181905561073433610f97565b60058054600090815260066020818152604080842060020195909555600780548452858420600301849055805484528584206004908101859055815485528685209095018490558054845285842090920183905581548352848320429083018190558254845285842060080155905482528382206001600991820181905586845293909152929020909101805490910190556107ce61486b565b600080825260208083018281524260408086019182526001606087018181528251808701845287815260808901908152600754885260068752928720600a018054808401825590885296869020885160059098020196875593519086015590516002850155905160038401555180518493926108519260048501929101906147ed565b505060078054600090815260066020526040808220600501805460019081019091559254808352918190209092015491517ff0ecfc9d01e072b344ab803487dff20893bdb9f671d08bd9e260d0f8b5fae84d93506108af9290615c6c565b60405180910390a15050600780546001019055565b60006108cf336140de565b9050806108ee5760405162461bcd60e51b815260040161060a90615386565b60008c511161090f5760405162461bcd60e51b815260040161060a906155a5565b60008b51116109305760405162461bcd60e51b815260040161060a9061575f565b85518751148015610942575084518651145b61095e5760405162461bcd60e51b815260040161060a90615548565b82518451148015610970575081518351145b61098c5760405162461bcd60e51b815260040161060a9061566e565b6005546000818152600460205260409020556109a733611667565b6005805460009081526004602090815260408083206001019490945591548152919091208d516109df926002909201918f01906147ed565b5060055460009081526004602081815260409092208c51610a08939190920191908d01906147ed565b5060055460009081526004602090815260409091208c51610a31926003909201918e01906147ed565b50600580546000908152600460205260408082204260079091018190558354835281832084018d9055835483528183206006018c90558354835281832060080155915481529081206001600a909101555b8751811015610b9157600554600081815260046020908152604091829020825160a081018452600b8201548152918201939093528a51600d9093019290918201908b9085908110610acf57fe5b60200260200101518152602001898481518110610ae857fe5b60200260200101518152602001888481518110610b0157fe5b60209081029190910181015190915282546001818101855560009485529382902083516005909202019081558282015193810193909355604082015160028401556060820151600384015560808201518051929392610b6692600485019201906147ed565b50506005546000908152600460205260409020600b0180546001908101909155919091019050610a82565b5060005b8451811015610ca457600554600081815260046020908152604091829020825160a081018452600c8201548152918201939093528751600e909301929091820190889085908110610be257fe5b60200260200101518152602001868481518110610bfb57fe5b60200260200101518152602001858481518110610c1457fe5b60209081029190910181015190915282546001818101855560009485529382902083516005909202019081558282015193810193909355604082015160028401556060820151600384015560808201518051929392610c7992600485019201906147ed565b50506005546000908152600460205260409020600c0180546001908101909155919091019050610b95565b506005546000818152600460205260409081902090517f217f6f8566b5368c91631b32159051c0f0fc3ed5c77908901e6a2ef3f7df835992610cf0929091600282019160030190615c37565b60405180910390a1505060058054600101905550505050505050505050565b600080805b600154811015610d6d576000818152602081905260409020600101546001600160a01b038581169116148015610d5b57506000818152602081905260409020600401546003145b15610d6557600191505b600101610d14565b5090505b919050565b60006060806000806000610d8861489a565b60005b600354811015610f66576000818152600260205260409020600301546001600160a01b038a81169116148015610dd257506000818152600260205260409020600501546003145b15610f5e57600260008281526020019081526020016000206040518060c001604052908160008201548152602001600182018054600181600116156101000203166002900480601f016020809104026020016040519081016040528092919081815260200182805460018160011615610100020316600290048015610e985780601f10610e6d57610100808354040283529160200191610e98565b820191906000526020600020905b815481529060010190602001808311610e7b57829003601f168201915b5050509183525050600282810180546040805160206001841615610100026000190190931694909404601f81018390048302850183019091528084529381019390830182828015610f2a5780601f10610eff57610100808354040283529160200191610f2a565b820191906000526020600020905b815481529060010190602001808311610f0d57829003601f168201915b505050918352505060038201546001600160a01b031660208201526004820154604082015260059091015460609091015291505b600101610d8b565b508051602082015160408301516060840151608085015160a090950151939c929b5090995097509195509350915050565b600080805b600154811015610d6d576000818152602081905260409020600101546001600160a01b0385811691161415610fdd5760008181526020819052604090205491505b600101610f9c565b60015481565b6008546060906001600160a01b0383811691161415611026575060408051808201909152600581526430b236b4b760d91b6020820152610d71565b61102f826140de565b151560011415611062575060408051808201909152600c81526b37b933b0b734bd30ba34b7b760a11b6020820152610d71565b61106b82612da6565b15156001141561109d575060408051808201909152600b81526a62656e656669636961727960a81b6020820152610d71565b506040805180820190915260078152663b34b9b4ba37b960c91b6020820152610d71565b6000818152600460205260409020600c81015460609182918291829182906001600160401b03811180156110f457600080fd5b5060405190808252806020026020018201604052801561111e578160200160208202803683370190505b509050606082600c01546001600160401b038111801561113d57600080fd5b50604051908082528060200260200182016040528015611167578160200160208202803683370190505b509050606083600c01546001600160401b038111801561118657600080fd5b506040519080825280602002602001820160405280156111b0578160200160208202803683370190505b509050606084600c01546001600160401b03811180156111cf57600080fd5b5060405190808252806020026020018201604052801561120357816020015b60608152602001906001900390816111ee5790505b50905060005b85600c015481101561138d5761121d61486b565b86600e01828154811061122c57fe5b90600052602060002090600502016040518060a001604052908160008201548152602001600182015481526020016002820154815260200160038201548152602001600482018054600181600116156101000203166002900480601f0160208091040260200160405190810160405280929190818152602001828054600181600116156101000203166002900480156113065780601f106112db57610100808354040283529160200191611306565b820191906000526020600020905b8154815290600101906020018083116112e957829003601f168201915b5050505050815250509050806000015186838151811061132257fe5b602002602001018181525050806040015185838151811061133f57fe5b602002602001018181525050806060015184838151811061135c57fe5b602002602001018181525050806080015183838151811061137957fe5b602090810291909101015250600101611209565b509299919850965090945092505050565b60006113a933612da6565b9050806113c85760405162461bcd60e51b815260040161060a90615644565b6000838152600660205260409020600901546001146113f95760405162461bcd60e51b815260040161060a90615702565b6000838152600660208181526040808420815160a081018352600580830154825294845260038083015482860190815242948301948552600260608401818152608085018c8152600a909601805460018181018355918c529a89902086519b909a02909901998a559151978901979097559351958701959095559151938501939093559151805192939261149392600485019201906147ed565b50505060008381526006602090815260408083206003810154600191820154855260049093529220600b0154910110156115ed5760008381526006602081815260408084206005808201805460019081019182905560038085018054830190819055865160a08101885293845297875282870197885242838701908152606084018381528751808a019098528a885260808501978852600a90960180548085018255908b529988902084519a9095029094019889559651908801559051600287015590519385019390935551805192939261157492600485019201906147ed565b505050600083815260066020526040908190206005810154600382015460019092015492517f3bd69d0338add0787747b118da14e4aeba941afe53638eab003a9d359f3214af936115c89391889190615d09565b60405180910390a160008381526006602052604090206005018054600101905561164e565b60008381526006602052604090819020600260098201556005810154600382015460019092015492517f3bd69d0338add0787747b118da14e4aeba941afe53638eab003a9d359f3214af936116459391889190615d09565b60405180910390a15b5050600090815260066020526040902042600890910155565b600080805b600354811015610d6d576000818152600260205260409020600301546001600160a01b0385811691161480156116b357506000818152600260205260409020600501546003145b156116ca5760008181526002602052604090205491505b60010161166c565b60075481565b600060608060008060006116ea61489a565b600260008981526020019081526020016000206040518060c001604052908160008201548152602001600182018054600181600116156101000203166002900480601f0160208091040260200160405190810160405280929190818152602001828054600181600116156101000203166002900480156117ab5780601f10611780576101008083540402835291602001916117ab565b820191906000526020600020905b81548152906001019060200180831161178e57829003601f168201915b5050509183525050600282810180546040805160206001841615610100026000190190931694909404601f8101839004830285018301909152808452938101939083018282801561183d5780601f106118125761010080835404028352916020019161183d565b820191906000526020600020905b81548152906001019060200180831161182057829003601f168201915b505050918352505060038201546001600160a01b031660208083019190915260048301546040808401919091526005909301546060928301528351908401519284015191840151608085015160a090950151919d939c50919a5090985091965090945092505050565b6008546001600160a01b03163314156118d15760405162461bcd60e51b815260040161060a90615991565b60006118dc336140de565b905080156118fc5760405162461bcd60e51b815260040161060a906158a4565b6040805160a081018252600180548083523360208085019182528486018881524260608701526003608087015260009384528382529590922084518155905192810180546001600160a01b0319166001600160a01b0390941693909317909255925180519293919261197492600285019201906147ed565b506060820151600382015560809091015160049091015560018054810190556040517f67bf623e5c0c95725ab7b0d181e969032a96122e243710f76311bae55f89df71906119c3903390614fa4565b60405180910390a15050565b600080805b600154811015610d6d576000818152602081905260409020600101546001600160a01b038581169116148015611a1b57506000818152602081905260409020600401546003145b15611a355760008181526020819052604090206004015491505b6001016119d4565b6000611a4833612da6565b905080611a675760405162461bcd60e51b815260040161060a90615644565b600083815260066020526040902060090154600514611a985760405162461bcd60e51b815260040161060a9061540e565b6000838152600660208181526040808420815160a08101835281850154815293835260048082015485850190815242938601938452600260608701818152608088018b8152600b909501805460018181018355918b529988902089516005909b0201998a5592519289019290925593519387019390935591516003860155518051939493611b2e939285019291909101906147ed565b5050506000838152600660209081526040808320600480820154600192830154865293529220600c015491011015611c23576000838152600660208181526040808420808401805460019081019182905560048084018054830190819055855160a0810187529384529686528286019687524294830194855260608301828152608084018b8152600b90950180548085018255908a529887902084516005909a02019889559651918801919091559251600287015593516003860155518051939493611c02939285019291909101906147ed565b50505060008381526006602081905260409091200180546001019055611c39565b6000838152600660208190526040909120600901555b505050565b60006060806060600080600080600080600460008c815260200190815260200160002090508060010154816002018260030183600401846005015485600601548660070154876008015488600a0154878054600181600116156101000203166002900480601f016020809104026020016040519081016040528092919081815260200182805460018160011615610100020316600290048015611d225780601f10611cf757610100808354040283529160200191611d22565b820191906000526020600020905b815481529060010190602001808311611d0557829003601f168201915b50508a5460408051602060026001851615610100026000190190941693909304601f8101849004840282018401909252818152959d508c945092508401905082828015611db05780601f10611d8557610100808354040283529160200191611db0565b820191906000526020600020905b815481529060010190602001808311611d9357829003601f168201915b5050895460408051602060026001851615610100026000190190941693909304601f8101849004840282018401909252818152959c508b945092508401905082828015611e3e5780601f10611e1357610100808354040283529160200191611e3e565b820191906000526020600020905b815481529060010190602001808311611e2157829003601f168201915b50505050509550995099509950995099509950995099509950509193959799909294969850565b6000611e70336140de565b905080611e8f5760405162461bcd60e51b815260040161060a90615386565b6000858152600460205260409020600a0154600114611ec05760405162461bcd60e51b815260040161060a9061578d565b6000858152600460208181526040808420815160a081018352600c82015481528084018b81529281018a8152606082018a8152608083018a8152600e909401805460018181018355918a529887902084516005909a020198895594519488019490945551600287015591516003860155518051919493611f4693908501929101906147ed565b505050600094855250506004602052505060409020600c0180546001019055565b6000818152600460205260409020600b81015460609182918291829182906001600160401b0381118015611f9a57600080fd5b50604051908082528060200260200182016040528015611fc4578160200160208202803683370190505b509050606082600b01546001600160401b0381118015611fe357600080fd5b5060405190808252806020026020018201604052801561200d578160200160208202803683370190505b509050606083600b01546001600160401b038111801561202c57600080fd5b50604051908082528060200260200182016040528015612056578160200160208202803683370190505b509050606084600b01546001600160401b038111801561207557600080fd5b506040519080825280602002602001820160405280156120a957816020015b60608152602001906001900390816120945790505b50905060005b85600b015481101561138d576120c361486b565b86600d0182815481106120d257fe5b90600052602060002090600502016040518060a001604052908160008201548152602001600182015481526020016002820154815260200160038201548152602001600482018054600181600116156101000203166002900480601f0160208091040260200160405190810160405280929190818152602001828054600181600116156101000203166002900480156121ac5780601f10612181576101008083540402835291602001916121ac565b820191906000526020600020905b81548152906001019060200180831161218f57829003601f168201915b505050505081525050905080600001518683815181106121c857fe5b60200260200101818152505080604001518583815181106121e557fe5b602002602001018181525050806060015184838151811061220257fe5b602002602001018181525050806080015183838151811061221f57fe5b6020908102919091010152506001016120af565b60608060608060606001546001600160401b038111801561225357600080fd5b5060405190808252806020026020018201604052801561227d578160200160208202803683370190505b50905060606001546001600160401b038111801561229a57600080fd5b506040519080825280602002602001820160405280156122c4578160200160208202803683370190505b50905060606001546001600160401b03811180156122e157600080fd5b5060405190808252806020026020018201604052801561230b578160200160208202803683370190505b50905060606001546001600160401b038111801561232857600080fd5b50604051908082528060200260200182016040528015612352578160200160208202803683370190505b50905060005b6001548110156124d45761236a6148d9565b60008281526020818152604091829020825160a081018452815481526001808301546001600160a01b0316828501526002808401805487516101009482161594909402600019011691909104601f810186900486028301860187528083529295939493860193919290918301828280156124255780601f106123fa57610100808354040283529160200191612425565b820191906000526020600020905b81548152906001019060200180831161240857829003601f168201915b50505050508152602001600382015481526020016004820154815250509050806000015186838151811061245557fe5b602002602001018181525050806020015185838151811061247257fe5b60200260200101906001600160a01b031690816001600160a01b03168152505080606001518483815181106124a357fe5b60200260200101818152505080608001518383815181106124c057fe5b602090810291909101015250600101612358565b50929791965094509092509050565b6124eb61486b565b6124f361486b565b6000848152600660205260409020600b0180548490811061251057fe5b90600052602060002090600502016040518060a001604052908160008201548152602001600182015481526020016002820154815260200160038201548152602001600482018054600181600116156101000203166002900480601f0160208091040260200160405190810160405280929190818152602001828054600181600116156101000203166002900480156125ea5780601f106125bf576101008083540402835291602001916125ea565b820191906000526020600020905b8154815290600101906020018083116125cd57829003601f168201915b5050509190925250919695505050505050565b60608060608060608060606003546001600160401b038111801561262057600080fd5b5060405190808252806020026020018201604052801561264a578160200160208202803683370190505b50905060606003546001600160401b038111801561266757600080fd5b5060405190808252806020026020018201604052801561269b57816020015b60608152602001906001900390816126865790505b50905060606003546001600160401b03811180156126b857600080fd5b506040519080825280602002602001820160405280156126ec57816020015b60608152602001906001900390816126d75790505b50905060606003546001600160401b038111801561270957600080fd5b50604051908082528060200260200182016040528015612733578160200160208202803683370190505b50905060606003546001600160401b038111801561275057600080fd5b5060405190808252806020026020018201604052801561277a578160200160208202803683370190505b50905060606003546001600160401b038111801561279757600080fd5b506040519080825280602002602001820160405280156127c1578160200160208202803683370190505b50905060005b600354811015612a28576127d961489a565b600260008381526020019081526020016000206040518060c001604052908160008201548152602001600182018054600181600116156101000203166002900480601f01602080910402602001604051908101604052809291908181526020018280546001816001161561010002031660029004801561289a5780601f1061286f5761010080835404028352916020019161289a565b820191906000526020600020905b81548152906001019060200180831161287d57829003601f168201915b5050509183525050600282810180546040805160206001841615610100026000190190931694909404601f8101839004830285018301909152808452938101939083018282801561292c5780601f106129015761010080835404028352916020019161292c565b820191906000526020600020905b81548152906001019060200180831161290f57829003601f168201915b505050918352505060038201546001600160a01b0316602082015260048201546040820152600590910154606090910152805189519192509089908490811061297157fe5b602002602001018181525050806020015187838151811061298e57fe5b602002602001018190525080604001518683815181106129aa57fe5b602002602001018190525080606001518583815181106129c657fe5b60200260200101906001600160a01b031690816001600160a01b03168152505080608001518483815181106129f757fe5b6020026020010181815250508060a00151838381518110612a1457fe5b6020908102919091010152506001016127c7565b50949b939a50919850965094509092509050565b6000806000806000806000612a5088610f97565b9050612a5a614911565b60005b600754811015612d71576000818152600660205260409020600101548b148015612a97575060008181526006602052604090206002015483145b15612d69576000818152600660208181526040808420815161018081018352815481526001820154818501526002820154818401526003820154606082015260048201546080820152600582015460a08201529381015460c0850152600781015460e085015260088101546101008501526009810154610120850152600a81018054835181860281018601909452808452949591946101408701949192909184015b82821015612c3557838290600052602060002090600502016040518060a001604052908160008201548152602001600182015481526020016002820154815260200160038201548152602001600482018054600181600116156101000203166002900480601f016020809104026020016040519081016040528092919081815260200182805460018160011615610100020316600290048015612c1d5780601f10612bf257610100808354040283529160200191612c1d565b820191906000526020600020905b815481529060010190602001808311612c0057829003601f168201915b50505050508152505081526020019060010190612b39565b505050508152602001600b8201805480602002602001604051908101604052809291908181526020016000905b82821015612d5e57838290600052602060002090600502016040518060a001604052908160008201548152602001600182015481526020016002820154815260200160038201548152602001600482018054600181600116156101000203166002900480601f016020809104026020016040519081016040528092919081815260200182805460018160011615610100020316600290048015612d465780601f10612d1b57610100808354040283529160200191612d46565b820191906000526020600020905b815481529060010190602001808311612d2957829003601f168201915b50505050508152505081526020019060010190612c62565b505050508152505091505b600101612a5d565b5080516020820151604083015160e084015161010085015161012090950151939e929d50909b50995091975095509350505050565b600080805b600154811015610d6d576000818152602081905260409020600101546001600160a01b0385811691161415612ddf57600191505b600101612dab565b6000806060600080612df76148d9565b60008781526020818152604091829020825160a081018452815481526001808301546001600160a01b0316828501526002808401805487516101009482161594909402600019011691909104601f81018690048602830186018752808352929593949386019391929091830182828015612eb25780601f10612e8757610100808354040283529160200191612eb2565b820191906000526020600020905b815481529060010190602001808311612e9557829003601f168201915b50505091835250506003820154602080830191909152600490920154604091820152825191830151908301516060840151608090940151929b919a509850919650945092505050565b6000818152600660205260409020600a81015460609182918291829182919082906001600160401b0381118015612f3157600080fd5b50604051908082528060200260200182016040528015612f5b578160200160208202803683370190505b50600a8301549091506060906001600160401b0381118015612f7c57600080fd5b50604051908082528060200260200182016040528015612fa6578160200160208202803683370190505b50600a8401549091506060906001600160401b0381118015612fc757600080fd5b50604051908082528060200260200182016040528015612ff1578160200160208202803683370190505b50600a8501549091506060906001600160401b038111801561301257600080fd5b5060405190808252806020026020018201604052801561303c578160200160208202803683370190505b50600a8601549091506060906001600160401b038111801561305d57600080fd5b5060405190808252806020026020018201604052801561309157816020015b606081526020019060019003908161307c5790505b50905060005b600a870154811015613238576130ab61486b565b87600a0182815481106130ba57fe5b90600052602060002090600502016040518060a001604052908160008201548152602001600182015481526020016002820154815260200160038201548152602001600482018054600181600116156101000203166002900480601f0160208091040260200160405190810160405280929190818152602001828054600181600116156101000203166002900480156131945780601f1061316957610100808354040283529160200191613194565b820191906000526020600020905b81548152906001019060200180831161317757829003601f168201915b505050505081525050905080600001518783815181106131b057fe5b60200260200101818152505080602001518683815181106131cd57fe5b60200260200101818152505080604001518583815181106131ea57fe5b602002602001018181525050806060015184838151811061320757fe5b602002602001018181525050806080015183838151811061322457fe5b602090810291909101015250600101613097565b506005860154600a87015411156133ef5761325161486b565b86600a0187600501548154811061326457fe5b90600052602060002090600502016040518060a001604052908160008201548152602001600182015481526020016002820154815260200160038201548152602001600482018054600181600116156101000203166002900480601f01602080910402602001604051908101604052809291908181526020018280546001816001161561010002031660029004801561333e5780601f106133135761010080835404028352916020019161333e565b820191906000526020600020905b81548152906001019060200180831161332157829003601f168201915b505050505081525050905080600001518688600501548151811061335e57fe5b60200260200101818152505080602001518588600501548151811061337f57fe5b6020026020010181815250508060400151848860050154815181106133a057fe5b6020026020010181815250508060600151838860050154815181106133c157fe5b6020026020010181815250508060800151828860050154815181106133e257fe5b6020026020010181905250505b939b929a50909850965090945092505050565b60046020908152600091825260409182902080546001808301546002808501805488519481161561010002600019011691909104601f8101879004870284018701909752868352929590949192918301828280156134a15780601f10613476576101008083540402835291602001916134a1565b820191906000526020600020905b81548152906001019060200180831161348457829003601f168201915b5050505060038301805460408051602060026001851615610100026000190190941693909304601f81018490048402820184019092528181529495949350908301828280156135315780601f1061350657610100808354040283529160200191613531565b820191906000526020600020905b81548152906001019060200180831161351457829003601f168201915b5050505060048301805460408051602060026001851615610100026000190190941693909304601f81018490048402820184019092528181529495949350908301828280156135c15780601f10613596576101008083540402835291602001916135c1565b820191906000526020600020905b8154815290600101906020018083116135a457829003601f168201915b50505050509080600501549080600601549080600701549080600801549080600901549080600a01549080600b01549080600c015490508d565b6000818152600460205260409020600981015460609182918291829182906001600160401b038111801561362e57600080fd5b50604051908082528060200260200182016040528015613658578160200160208202803683370190505b509050606082600901546001600160401b038111801561367757600080fd5b506040519080825280602002602001820160405280156136a1578160200160208202803683370190505b509050606083600901546001600160401b03811180156136c057600080fd5b506040519080825280602002602001820160405280156136f457816020015b60608152602001906001900390816136df5790505b509050606084600901546001600160401b038111801561371357600080fd5b5060405190808252806020026020018201604052801561373d578160200160208202803683370190505b5090506000805b600754811015613bac57613756614911565b6000828152600660208181526040808420815161018081018352815481526001820154818501526002820154818401526003820154606082015260048201546080820152600582015460a08201529381015460c0850152600781015460e085015260088101546101008501526009810154610120850152600a81018054835181860281018601909452808452949591946101408701949192909184015b828210156138ef57838290600052602060002090600502016040518060a001604052908160008201548152602001600182015481526020016002820154815260200160038201548152602001600482018054600181600116156101000203166002900480601f0160208091040260200160405190810160405280929190818152602001828054600181600116156101000203166002900480156138d75780601f106138ac576101008083540402835291602001916138d7565b820191906000526020600020905b8154815290600101906020018083116138ba57829003601f168201915b505050505081525050815260200190600101906137f3565b505050508152602001600b8201805480602002602001604051908101604052809291908181526020016000905b82821015613a1857838290600052602060002090600502016040518060a001604052908160008201548152602001600182015481526020016002820154815260200160038201548152602001600482018054600181600116156101000203166002900480601f016020809104026020016040519081016040528092919081815260200182805460018160011615610100020316600290048015613a005780601f106139d557610100808354040283529160200191613a00565b820191906000526020600020905b8154815290600101906020018083116139e357829003601f168201915b5050505050815250508152602001906001019061391c565b50505050815250509050613a2a6148d9565b6040828101516000908152602081815290829020825160a081018452815481526001808301546001600160a01b0316828501526002808401805487516101009482161594909402600019011691909104601f81018690048602830186018752808352929593949386019391929091830182828015613ae95780601f10613abe57610100808354040283529160200191613ae9565b820191906000526020600020905b815481529060010190602001808311613acc57829003601f168201915b505050505081526020016003820154815260200160048201548152505090508d82602001511415613ba2578160000151888581518110613b2557fe5b6020026020010181815250508060200151878581518110613b4257fe5b60200260200101906001600160a01b031690816001600160a01b0316815250508060400151868581518110613b7357fe5b6020026020010181905250816101200151858581518110613b9057fe5b60209081029190910101526001909301925b5050600101613744565b50939a92995090975095509350505050565b60608060608060608060608060606005546001600160401b0381118015613be457600080fd5b50604051908082528060200260200182016040528015613c0e578160200160208202803683370190505b50905060606005546001600160401b0381118015613c2b57600080fd5b50604051908082528060200260200182016040528015613c55578160200160208202803683370190505b50905060606005546001600160401b0381118015613c7257600080fd5b50604051908082528060200260200182016040528015613ca657816020015b6060815260200190600190039081613c915790505b50905060606005546001600160401b0381118015613cc357600080fd5b50604051908082528060200260200182016040528015613cf757816020015b6060815260200190600190039081613ce25790505b50905060606005546001600160401b0381118015613d1457600080fd5b50604051908082528060200260200182016040528015613d4857816020015b6060815260200190600190039081613d335790505b50905060606005546001600160401b0381118015613d6557600080fd5b50604051908082528060200260200182016040528015613d8f578160200160208202803683370190505b50905060606005546001600160401b0381118015613dac57600080fd5b50604051908082528060200260200182016040528015613dd6578160200160208202803683370190505b50905060606005546001600160401b0381118015613df357600080fd5b50604051908082528060200260200182016040528015613e1d578160200160208202803683370190505b50905060005b6005548110156140c557600081815260046020526040902080548a518b9084908110613e4b57fe5b6020026020010181815250508060010154898381518110613e6857fe5b60209081029190910181019190915260028281018054604080516001831615610100026000190190921693909304601f810185900485028201850190935282815292909190830182828015613efe5780601f10613ed357610100808354040283529160200191613efe565b820191906000526020600020905b815481529060010190602001808311613ee157829003601f168201915b5050505050888381518110613f0f57fe5b60209081029190910181019190915260038201805460408051601f6002600019610100600187161502019094169390930492830185900485028101850190915281815292830182828015613fa45780601f10613f7957610100808354040283529160200191613fa4565b820191906000526020600020905b815481529060010190602001808311613f8757829003601f168201915b5050505050878381518110613fb557fe5b60209081029190910181019190915260048201805460408051601f600260001961010060018716150201909416939093049283018590048502810185019091528181529283018282801561404a5780601f1061401f5761010080835404028352916020019161404a565b820191906000526020600020905b81548152906001019060200180831161402d57829003601f168201915b505050505086838151811061405b57fe5b6020026020010181905250806005015485838151811061407757fe5b602002602001018181525050806006015484838151811061409457fe5b60200260200101818152505080600a01548383815181106140b157fe5b602090810291909101015250600101613e23565b50969f959e50939c50919a509850965094509092509050565b600080805b600354811015610d6d576000818152600260205260409020600301546001600160a01b03858116911614801561412a57506000818152600260205260409020600501546003145b1561413457600191505b6001016140e3565b61414461486b565b61414c61486b565b6000848152600660205260409020600a0180548490811061251057fe5b6000614174336140de565b9050600061418133612da6565b9050818061418c5750805b6141a85760405162461bcd60e51b815260040161060a906156cb565b60008481526006602052604090206009015480158015906141ca575060078111155b6141e65760405162461bcd60e51b815260040161060a906152f2565b8360021415614234578060011461420f5760405162461bcd60e51b815260040161060a9061546b565b61421833612da6565b6142345760405162461bcd60e51b815260040161060a906153b1565b83600314806142435750836004145b1561428d57806002146142685760405162461bcd60e51b815260040161060a906155cc565b614271336140de565b61428d5760405162461bcd60e51b815260040161060a90615a30565b83600514156142e65780600314806142a55750806004145b6142c15760405162461bcd60e51b815260040161060a906159b4565b6142ca336140de565b6142e65760405162461bcd60e51b815260040161060a90615a30565b8360061415614334578060051461430f5760405162461bcd60e51b815260040161060a90615829565b61431833612da6565b6143345760405162461bcd60e51b815260040161060a906153b1565b83600714806143435750836008145b1561438d57806006146143685760405162461bcd60e51b815260040161060a90615a8d565b614371336140de565b61438d5760405162461bcd60e51b815260040161060a90615a30565b50505060009182526006602052604090912060090155565b60006143b0336140de565b9050806143cf5760405162461bcd60e51b815260040161060a90615386565b6000858152600460205260409020600a01546001146144005760405162461bcd60e51b815260040161060a9061578d565b6000858152600460208181526040808420815160a081018352600b82015481528084018b81529281018a8152606082018a8152608083018a8152600d909401805460018181018355918a529887902084516005909a02019889559451948801949094555160028701559151600386015551805191949361448693908501929101906147ed565b505050600094855250506004602052505060409020600b0180546001019055565b60035481565b6006602052806000526040600020600091509050806000015490806001015490806002015490806003015490806004015490806005015490806006015490806007015490806008015490806009015490508a565b600061450c336140de565b90508061452b5760405162461bcd60e51b815260040161060a90615386565b60008211801561453c575060078211155b6145585760405162461bcd60e51b815260040161060a906158ce565b8160021415614592576000838152600460205260409020600a01546001146145925760405162461bcd60e51b815260040161060a90615905565b81600314156145cc576000838152600460205260409020600a01546002146145cc5760405162461bcd60e51b815260040161060a906154e1565b8160041415614606576000838152600460205260409020600a01546003146146065760405162461bcd60e51b815260040161060a90615329565b8160051415614641576000838152600460208190526040909120600a0154146146415760405162461bcd60e51b815260040161060a90615286565b8160061415614782576000838152600460205260409020600a015460051461467b5760405162461bcd60e51b815260040161060a90615239565b60005b60075481101561478057600081815260066020526040902060010154841415614778576000818152600660205260409020600901546003141561477857600081815260066020526040902060056009909101556146d961486b565b60008082526020808301828152426040808601918252600160608701818152825180870184528781526080890190815289885260068752928720600b0180548084018255908852968690208851600590980201968755935190860155905160028501559051600384015551805184939261475a9260048501929101906147ed565b50505060008281526006602081905260409091200180546001019055505b60010161467e565b505b81600714156147bc576000838152600460205260409020600a01546006146147bc5760405162461bcd60e51b815260040161060a906157c2565b50600091825260046020526040909120426008820155600a0155565b6008546001600160a01b031681565b60055481565b828054600181600116156101000203166002900490600052602060002090601f016020900481019282601f1061482e57805160ff191683800117855561485b565b8280016001018555821561485b579182015b8281111561485b578251825591602001919060010190614840565b50614867929150614972565b5090565b6040518060a0016040528060008152602001600081526020016000815260200160008152602001606081525090565b6040518060c0016040528060008152602001606081526020016060815260200160006001600160a01b0316815260200160008152602001600081525090565b6040518060a001604052806000815260200160006001600160a01b031681526020016060815260200160008152602001600081525090565b6040518061018001604052806000815260200160008152602001600081526020016000815260200160008152602001600081526020016000815260200160008152602001600081526020016000815260200160608152602001606081525090565b61498c91905b808211156148675760008155600101614978565b90565b600082601f83011261499f578081fd5b81356149b26149ad82615db7565b615d91565b818152915060208083019084810160005b848110156149ec576149da888484358a0101614a55565b845292820192908201906001016149c3565b505050505092915050565b600082601f830112614a07578081fd5b8135614a156149ad82615db7565b818152915060208083019084810181840286018201871015614a3657600080fd5b60005b848110156149ec57813584529282019290820190600101614a39565b600082601f830112614a65578081fd5b81356001600160401b03811115614a7a578182fd5b614a8d601f8201601f1916602001615d91565b9150808252836020828501011115614aa457600080fd5b8060208401602084013760009082016020015292915050565b600060208284031215614ace578081fd5b8135614ad981615de2565b9392505050565b600060208284031215614af1578081fd5b81356001600160401b03811115614b06578182fd5b614b1284828501614a55565b949350505050565b60008060008060808587031215614b2f578283fd5b84356001600160401b0380821115614b45578485fd5b614b5188838901614a55565b95506020870135915080821115614b66578485fd5b50614b7387828801614a55565b9350506040850135614b8481615de2565b9396929550929360600135925050565b60008060008060008060008060008060006101608c8e031215614bb5578687fd5b6001600160401b03808d351115614bca578788fd5b614bd78e8e358f01614a55565b9b508060208e01351115614be9578788fd5b614bf98e60208f01358f01614a55565b9a508060408e01351115614c0b578788fd5b614c1b8e60408f01358f01614a55565b995060608d0135985060808d013597508060a08e01351115614c3b578687fd5b614c4b8e60a08f01358f016149f7565b96508060c08e01351115614c5d578586fd5b614c6d8e60c08f01358f016149f7565b95508060e08e01351115614c7f578485fd5b614c8f8e60e08f01358f0161498f565b9450806101008e01351115614ca2578384fd5b614cb38e6101008f01358f016149f7565b9350806101208e01351115614cc6578283fd5b614cd78e6101208f01358f016149f7565b9250806101408e01351115614cea578182fd5b50614cfc8d6101408e01358e0161498f565b90509295989b509295989b9093969950565b600060208284031215614d1f578081fd5b5035919050565b60008060408385031215614d38578182fd5b823591506020830135614d4a81615de2565b809150509250929050565b60008060408385031215614d67578182fd5b8235915060208301356001600160401b03811115614d83578182fd5b614d8f85828601614a55565b9150509250929050565b60008060408385031215614dab578182fd5b50508035926020909101359150565b60008060008060808587031215614dcf578384fd5b84359350602085013592506040850135915060608501356001600160401b03811115614df9578182fd5b614e0587828801614a55565b91505092959194509250565b6000815180845260208085019450808401835b83811015614e495781516001600160a01b031687529582019590820190600101614e24565b509495945050505050565b6000815180845260208085018081965082840281019150828601855b85811015614e9a578284038952614e88848351614ed6565b98850198935090840190600101614e70565b5091979650505050505050565b6000815180845260208085019450808401835b83811015614e4957815187529582019590820190600101614eba565b60008151808452815b81811015614efb57602081850181015186830182015201614edf565b81811115614f0c5782602083870101525b50601f01601f19169290920160200192915050565b60008154600180821660008114614f3f5760018114614f5d57614f9b565b60028304607f16865260ff1983166020870152604086019350614f9b565b60028304808752614f6d86615dd6565b60005b82811015614f915781546020828b0101528482019150602081019050614f70565b8801602001955050505b50505092915050565b6001600160a01b0391909116815260200190565b600060808252614fcb6080830187614ea7565b8281036020840152614fdd8187614e11565b8381036040850152614fef8187614e54565b91505082810360608401526150048185614ea7565b979650505050505050565b6000608082526150226080830187614ea7565b82810360208401526150348187614e11565b8381036040850152614fef8187614ea7565b600060c0825261505960c0830189614ea7565b828103602084015261506b8189614e54565b838103604085015261507d8189614e54565b91505082810360608401526150928187614e11565b83810360808501526150a48187614ea7565b91505082810360a08401526150b98185614ea7565b9998505050505050505050565b60006101008083526150da8184018c614ea7565b83810360208501526150ec818c614ea7565b9150508281036040840152615101818a614e54565b8381036060850152615113818a614e54565b91505082810360808401526151288188614e54565b83810360a085015261513a8188614ea7565b91505082810360c084015261514f8186614ea7565b83810360e08501526151618186614ea7565b9c9b505050505050505050505050565b6000608082526151846080830187614ea7565b82810360208401526151968187614ea7565b83810360408501526151a88187614ea7565b91505082810360608401526150048185614e54565b600060a082526151d060a0830188614ea7565b82810360208401526151e28188614ea7565b83810360408501526151f48188614ea7565b91505082810360608401526152098186614ea7565b83810360808501526150b98186614e54565b901515815260200190565b600060208252614ad96020830184614ed6565b6020808252602d908201527f6f70706f7274756e697479206d75737420626520696e20696e6974696174656460408201526c20666f722066696e616c697a6560981b606082015260800190565b60208082526046908201527f6f70706f7274756e697479206d75737420626520696e206170706c696361746960408201527f6f6e732073656c656374656420666f72206f70706f7274756e69747920696e696060820152651d1a585d195960d21b608082015260a00190565b6020808252601c908201527f6170706c69636174696f6e20737461747573206e6f742076616c696400000000604082015260600190565b60208082526037908201527f6f70706f7274756e697479206d75737420626520696e2072657669657720666f60408201527f72206170706c69636174696f6e732073656c6563746564000000000000000000606082015260800190565b60208082526011908201527037b7363c9037b933b0b734bd30ba34b7b760791b604082015260600190565b60208082526039908201527f6170706c69636174696f6e20737461747573206368616e6765206d757374206260408201527f652065786563757465642062792062656e656669636961727900000000000000606082015260800190565b6020808252603a908201527f6170706c69636174696f6e20686173206e6f74207374617274656420746f207260408201527f65636569766520706f73744163636f6d706c6973686d656e7473000000000000606082015260800190565b60208082526050908201527f6170706c69636174696f6e206d757374206265207072654163636f6d706c697360408201527f686d656e7473207374617274656420746f2062652066696e616c697a6520707260608201526f654163636f6d706c6973686d656e747360801b608082015260a00190565b60208082526023908201527f6f70706f7274756e697479206d757374206265206f70656e20666f722072657660408201526269657760e81b606082015260800190565b6020808252600a908201526937b7363c9030b236b4b760b11b604082015260600190565b60208082526037908201527f70726520726571756972656d656e742076616c756573206e756d626572206d7560408201527f73742068617665207468652073616d65206c656e677468000000000000000000606082015260800190565b6020808252600d908201526c6e616d6520697320656d70747960981b604082015260600190565b60208082526052908201527f6170706c69636174696f6e206d757374206265207072654163636f6d706c697360408201527f686d656e74732066696e616c697a656420746f206265206569746865722061706060820152711c1c9bdd9959081bdc881c995a9958dd195960721b608082015260a00190565b60208082526010908201526f6f6e6c792062656e656669636961727960801b604082015260600190565b60208082526038908201527f706f737420726571756972656d656e742076616c756573206e756d626572206d60408201527f7573742068617665207468652073616d65206c656e6774680000000000000000606082015260800190565b60208082526018908201527f6f6e6c7920616374697665206f7267616e697a6174696f6e0000000000000000604082015260600190565b60208082526039908201527f6170706c69636174696f6e20686173206e6f74207374617274656420746f207260408201527f656365697665207072654163636f6d706c6973686d656e747300000000000000606082015260800190565b6020808252601490820152736465736372697074696f6e20697320656d70747960601b604082015260600190565b6020808252818101527f6f70706f7274756e697479206973206e6f7420696e206472616674206d6f6465604082015260600190565b60208082526041908201527f6f70706f7274756e697479206d7573742062652066696e616c697a656420666f60408201527f7220636c6f736520706f7374526571756972656d656e7420726563657074696f6060820152603760f91b608082015260a00190565b60208082526055908201527f6170706c69636174696f6e206d7573742068617665207374617274656420726560408201527f63656976696e6720706f73744163636f6d706c6973686d656e747320746f206660608201527434b730b634bd329034ba39903932b1b2b83a34b7b760591b608082015260a00190565b60208082526010908201526f3737ba1037b933b0b734bd30ba34b7b760811b604082015260600190565b6020808252601c908201527f6f70706f7274756e69747920737461747573206e6f742076616c696400000000604082015260600190565b60208082526027908201527f6f70706f7274756e697479206d75737420626520696e20647261667420746f2060408201526631329037b832b760c91b606082015260800190565b60208082526025908201527f6f70706f7274756e697479206e6f74206f70656e20666f72206170706c69636160408201526474696f6e7360d81b606082015260800190565b6020808252600990820152683737ba1030b236b4b760b91b604082015260600190565b60208082526056908201527f6170706c69636174696f6e206d7573742062652065697468657220617070726f60408201527f766564206f722072656a656374656420746f20737461727420726563656976696060820152756e6720706f73744163636f6d706c6973686d656e747360501b608082015260a00190565b6020808252603a908201527f6170706c69636174696f6e20737461747573206368616e6765206d757374206260408201527f65206578656375746564206279206f7267616e697a6174696f6e000000000000606082015260800190565b602080825260409082018190527f6170706c69636174696f6e20706f73744163636f6d706c6973686d656e747320908201527f6d7573742062652066696e616c697a656420746f2066696e616c697a65206974606082015260800190565b60006020825282516020830152602083015160408301526040830151606083015260608301516080830152608083015160a080840152614b1260c0840182614ed6565b90815260200190565b8581526001600160a01b038516602082015260a060408201819052600090615b6190830186614ed6565b606083019490945250608001529392505050565b600087825260c06020830152615b8e60c0830188614ed6565b8281036040840152615ba08188614ed6565b6001600160a01b039690961660608401525050608081019290925260a0909101529392505050565b60006101208b8352806020840152615be28184018c614ed6565b8381036040850152615bf4818c614ed6565b9150508281036060840152615c09818a614ed6565b6080840198909852505060a081019490945260c084019290925260e083015261010090910152949350505050565b600084825260606020830152615c506060830185614f21565b8281036040840152615c628185614f21565b9695505050505050565b918252602082015260400190565b60006101a08f83528e6020840152806040840152615c9a8184018f614ed6565b8381036060850152615cac818f614ed6565b9150508281036080840152615cc1818d614ed6565b60a084019b909b52505060c081019790975260e08701959095526101008601939093526101208501919091526101408401526101608301526101809091015295945050505050565b93845260208401929092526040830152606082015260800190565b958652602086019490945260408501929092526060840152608083015260a082015260c00190565b998a5260208a019890985260408901969096526060880194909452608087019290925260a086015260c085015260e08401526101008301526101208201526101400190565b6040518181016001600160401b0381118282101715615daf57600080fd5b604052919050565b60006001600160401b03821115615dcc578081fd5b5060209081020190565b60009081526020902090565b6001600160a01b0381168114615df757600080fd5b5056fea2646970667358221220e409e6684a2af0b10587cce93faed2e8c1cdcf68583d3723405cc5aecb50931464736f6c63430006070033",
  "linkReferences": {},
  "deployedLinkReferences": {}
}